{
  "_format": "hh-sol-artifact-1",
  "contractName": "Faucet",
  "sourceName": "contracts/test_helpers/Faucet.sol",
  "abi": [
    {
      "inputs": [
        {
          "internalType": "address",
          "name": "uniswap_",
          "type": "address"
        },
        {
          "internalType": "address",
          "name": "curveAddressProvider_",
          "type": "address"
        },
        {
          "internalType": "address",
          "name": "curveDepositZap_",
          "type": "address"
        }
      ],
      "stateMutability": "nonpayable",
      "type": "constructor"
    },
    {
      "inputs": [],
      "name": "curveAddressProvider",
      "outputs": [
        {
          "internalType": "contract CurveAddressProvider",
          "name": "",
          "type": "address"
        }
      ],
      "stateMutability": "view",
      "type": "function"
    },
    {
      "inputs": [],
      "name": "curveDepositZap",
      "outputs": [
        {
          "internalType": "contract CurveDepositZap",
          "name": "",
          "type": "address"
        }
      ],
      "stateMutability": "view",
      "type": "function"
    },
    {
      "inputs": [],
      "name": "curveRegistry",
      "outputs": [
        {
          "internalType": "contract CurveRegistry",
          "name": "",
          "type": "address"
        }
      ],
      "stateMutability": "view",
      "type": "function"
    },
    {
      "inputs": [],
      "name": "dai",
      "outputs": [
        {
          "internalType": "contract IERC20",
          "name": "",
          "type": "address"
        }
      ],
      "stateMutability": "view",
      "type": "function"
    },
    {
      "inputs": [
        {
          "internalType": "address",
          "name": "lpToken",
          "type": "address"
        },
        {
          "internalType": "uint256",
          "name": "amount",
          "type": "uint256"
        },
        {
          "internalType": "address",
          "name": "recipient",
          "type": "address"
        }
      ],
      "name": "sendCurveLPTokens",
      "outputs": [],
      "stateMutability": "nonpayable",
      "type": "function"
    },
    {
      "inputs": [
        {
          "internalType": "uint256",
          "name": "amount",
          "type": "uint256"
        },
        {
          "internalType": "address",
          "name": "recipient",
          "type": "address"
        }
      ],
      "name": "sendThreeCrv",
      "outputs": [],
      "stateMutability": "nonpayable",
      "type": "function"
    },
    {
      "inputs": [
        {
          "internalType": "address",
          "name": "token",
          "type": "address"
        },
        {
          "internalType": "uint256",
          "name": "amount",
          "type": "uint256"
        },
        {
          "internalType": "address",
          "name": "recipient",
          "type": "address"
        }
      ],
      "name": "sendTokens",
      "outputs": [],
      "stateMutability": "nonpayable",
      "type": "function"
    },
    {
      "inputs": [],
      "name": "threeCrv",
      "outputs": [
        {
          "internalType": "contract IERC20",
          "name": "",
          "type": "address"
        }
      ],
      "stateMutability": "view",
      "type": "function"
    },
    {
      "inputs": [],
      "name": "triPool",
      "outputs": [
        {
          "internalType": "address",
          "name": "",
          "type": "address"
        }
      ],
      "stateMutability": "view",
      "type": "function"
    },
    {
      "inputs": [],
      "name": "uniswap",
      "outputs": [
        {
          "internalType": "contract Uniswap",
          "name": "",
          "type": "address"
        }
      ],
      "stateMutability": "view",
      "type": "function"
    }
  ],
  "bytecode": "0x6080604052600480546001600160a01b031990811673bebc44782c7db0a1a60cb6fe97d0b483032ff1c717909155600580548216736b175474e89094c44da98b954eedeac495271d0f17905560068054909116736c3f90f043a72fa612cbac8115ee7e52bde6e49017905534801561007657600080fd5b506040516113803803806113808339818101604052606081101561009957600080fd5b508051602080830151604093840151600080546001600160a01b038087166001600160a01b031992831617909255600180548385169083161790556002805483861692169190911790819055865163a262904b60e01b8152965195969395929491169263a262904b9260048083019392829003018186803b15801561011d57600080fd5b505afa158015610131573d6000803e3d6000fd5b505050506040513d602081101561014757600080fd5b5051600380546001600160a01b039092166001600160a01b03199092169190911790555050506112048061017c6000396000f3fe608060405234801561001057600080fd5b50600436106100be5760003560e01c80632da9a694116100765780634217e2871161005b5780634217e2871461016b5780634f9209c3146101a1578063f4b9fa75146101a9576100be565b80632da9a6941461015b5780633d6e738814610163576100be565b80632681f7e4116100a75780632681f7e41461011f57806327c24a5d146101275780632c499ae61461012f576100be565b806307a80726146100c35780631ac460ca146100fb575b600080fd5b6100f9600480360360608110156100d957600080fd5b506001600160a01b038135811691602081013591604090910135166101b1565b005b6101036105d6565b604080516001600160a01b039092168252519081900360200190f35b6101036105e5565b6101036105f4565b6100f96004803603604081101561014557600080fd5b50803590602001356001600160a01b0316610603565b610103610a8a565b610103610a99565b6100f96004803603606081101561018157600080fd5b506001600160a01b03813581169160208101359160409091013516610aa8565b610103610d0d565b610103610d1c565b604080516002808252606080830184529260208301908036833701905050905060008054906101000a90046001600160a01b03166001600160a01b031663ad5c46486040518163ffffffff1660e01b815260040160206040518083038186803b15801561021d57600080fd5b505afa158015610231573d6000803e3d6000fd5b505050506040513d602081101561024757600080fd5b50518151829060009061025657fe5b6001600160a01b03928316602091820292909201015260055482519116908290600190811061028157fe5b6001600160a01b0392831660209182029290920181019190915260008054604051637ff36ab560e01b8152600481018381523060448301819052426064840181905260806024850190815289516084860152895196989590951696637ff36ab596670de0b6b3a76400008d02968a968c9693919260a49091019187810191028083838b5b8381101561031d578181015183820152602001610305565b50505050905001955050505050506000604051808303818588803b15801561034457600080fd5b505af1158015610358573d6000803e3d6000fd5b50505050506040513d6000823e601f3d908101601f19168201604052602081101561038257600080fd5b81019080805160405193929190846401000000008211156103a257600080fd5b9083019060208201858111156103b757600080fd5b82518660208202830111640100000000821117156103d457600080fd5b82525081516020918201928201910280838360005b838110156104015781810151838201526020016103e9565b5050505090500160405250505060018151811061041a57fe5b602002602001015190506000600360009054906101000a90046001600160a01b03166001600160a01b031663bdf475c3876040518263ffffffff1660e01b815260040180826001600160a01b0316815260200191505060206040518083038186803b15801561048857600080fd5b505afa15801561049c573d6000803e3d6000fd5b505050506040513d60208110156104b257600080fd5b50516001546005549192506104d4916001600160a01b03908116911684610d2b565b600160009054906101000a90046001600160a01b03166001600160a01b031663d0b951e8826040518060800160405280600081526020018681526020016000815260200160008152506000886040518563ffffffff1660e01b815260040180856001600160a01b0316815260200184600460200280838360005b8381101561056657818101518382015260200161054e565b50505050905001838152602001826001600160a01b03168152602001945050505050602060405180830381600087803b1580156105a257600080fd5b505af11580156105b6573d6000803e3d6000fd5b505050506040513d60208110156105cc57600080fd5b5050505050505050565b6001546001600160a01b031681565b6000546001600160a01b031681565b6003546001600160a01b031681565b604080516002808252606080830184529260208301908036833701905050905060008054906101000a90046001600160a01b03166001600160a01b031663ad5c46486040518163ffffffff1660e01b815260040160206040518083038186803b15801561066f57600080fd5b505afa158015610683573d6000803e3d6000fd5b505050506040513d602081101561069957600080fd5b5051815182906000906106a857fe5b6001600160a01b0392831660209182029290920101526005548251911690829060019081106106d357fe5b6001600160a01b0392831660209182029290920181019190915260008054604051637ff36ab560e01b8152600481018381523060448301819052426064840181905260806024850190815289516084860152895196989590951696637ff36ab596670de0b6b3a76400008d02968a968c9693919260a49091019187810191028083838b5b8381101561076f578181015183820152602001610757565b50505050905001955050505050506000604051808303818588803b15801561079657600080fd5b505af11580156107aa573d6000803e3d6000fd5b50505050506040513d6000823e601f3d908101601f1916820160405260208110156107d457600080fd5b81019080805160405193929190846401000000008211156107f457600080fd5b90830190602082018581111561080957600080fd5b825186602082028301116401000000008211171561082657600080fd5b82525081516020918201928201910280838360005b8381101561085357818101518382015260200161083b565b5050505090500160405250505060018151811061086c57fe5b6020908102919091010151600454600554919250610897916001600160a01b03908116911683610d2b565b60048054604080516060808201835285825260006020830181905282840181905292517f4515cef30000000000000000000000000000000000000000000000000000000081526001600160a01b0390941694634515cef394929392019081908490808383875b838110156109155781810151838201526020016108fd565b5050505090500182815260200192505050600060405180830381600087803b15801561094057600080fd5b505af1158015610954573d6000803e3d6000fd5b5050600654604080517f70a0823100000000000000000000000000000000000000000000000000000000815230600482015290516001600160a01b03909216935063a9059cbb9250869184916370a08231916024808301926020929190829003018186803b1580156109c557600080fd5b505afa1580156109d9573d6000803e3d6000fd5b505050506040513d60208110156109ef57600080fd5b5051604080517fffffffff0000000000000000000000000000000000000000000000000000000060e086901b1681526001600160a01b03909316600484015260248301919091525160448083019260209291908290030181600087803b158015610a5857600080fd5b505af1158015610a6c573d6000803e3d6000fd5b505050506040513d6020811015610a8257600080fd5b505050505050565b6006546001600160a01b031681565b6002546001600160a01b031681565b604080516002808252606080830184529260208301908036833701905050905060008054906101000a90046001600160a01b03166001600160a01b031663ad5c46486040518163ffffffff1660e01b815260040160206040518083038186803b158015610b1457600080fd5b505afa158015610b28573d6000803e3d6000fd5b505050506040513d6020811015610b3e57600080fd5b505181518290600090610b4d57fe5b60200260200101906001600160a01b031690816001600160a01b0316815250508381600181518110610b7b57fe5b6001600160a01b0392831660209182029290920181019190915260008054604051637ff36ab560e01b815260048101838152878616604483015242606483018190526080602484019081528851608485015288519490971696637ff36ab596670de0b6b3a76400008c0296958a958c95939260a49091019187820191028083838b5b83811015610c15578181015183820152602001610bfd565b50505050905001955050505050506000604051808303818588803b158015610c3c57600080fd5b505af1158015610c50573d6000803e3d6000fd5b50505050506040513d6000823e601f3d908101601f191682016040526020811015610c7a57600080fd5b8101908080516040519392919084640100000000821115610c9a57600080fd5b908301906020820185811115610caf57600080fd5b8251866020820283011164010000000082111715610ccc57600080fd5b82525081516020918201928201910280838360005b83811015610cf9578181015183820152602001610ce1565b505050509050016040525050505050505050565b6004546001600160a01b031681565b6005546001600160a01b031681565b6000610dc182856001600160a01b031663dd62ed3e30876040518363ffffffff1660e01b815260040180836001600160a01b03168152602001826001600160a01b031681526020019250505060206040518083038186803b158015610d8f57600080fd5b505afa158015610da3573d6000803e3d6000fd5b505050506040513d6020811015610db957600080fd5b505190610e4a565b604080516001600160a01b038616602482015260448082018490528251808303909101815260649091019091526020810180517bffffffffffffffffffffffffffffffffffffffffffffffffffffffff167f095ea7b300000000000000000000000000000000000000000000000000000000179052909150610e44908590610eab565b50505050565b600082820183811015610ea4576040805162461bcd60e51b815260206004820152601b60248201527f536166654d6174683a206164646974696f6e206f766572666c6f770000000000604482015290519081900360640190fd5b9392505050565b6060610f00826040518060400160405280602081526020017f5361666545524332303a206c6f772d6c6576656c2063616c6c206661696c6564815250856001600160a01b0316610f619092919063ffffffff16565b805190915015610f5c57808060200190516020811015610f1f57600080fd5b5051610f5c5760405162461bcd60e51b815260040180806020018281038252602a8152602001806111a5602a913960400191505060405180910390fd5b505050565b6060610f708484600085610f78565b949350505050565b606082471015610fb95760405162461bcd60e51b815260040180806020018281038252602681526020018061117f6026913960400191505060405180910390fd5b610fc2856110d4565b611013576040805162461bcd60e51b815260206004820152601d60248201527f416464726573733a2063616c6c20746f206e6f6e2d636f6e7472616374000000604482015290519081900360640190fd5b60006060866001600160a01b031685876040518082805190602001908083835b602083106110525780518252601f199092019160209182019101611033565b6001836020036101000a03801982511681845116808217855250505050505090500191505060006040518083038185875af1925050503d80600081146110b4576040519150601f19603f3d011682016040523d82523d6000602084013e6110b9565b606091505b50915091506110c98282866110da565b979650505050505050565b3b151590565b606083156110e9575081610ea4565b8251156110f95782518084602001fd5b8160405162461bcd60e51b81526004018080602001828103825283818151815260200191508051906020019080838360005b8381101561114357818101518382015260200161112b565b50505050905090810190601f1680156111705780820380516001836020036101000a031916815260200191505b509250505060405180910390fdfe416464726573733a20696e73756666696369656e742062616c616e636520666f722063616c6c5361666545524332303a204552433230206f7065726174696f6e20646964206e6f742073756363656564a264697066735822122086509310d8b889603014c2d444dd59aebc9f26914e011ad7f74f3823af5946f364736f6c63430007030033",
  "linkReferences": {},
  "deployedLinkReferences": {}
}