{
  "_format": "hh-sol-artifact-1",
  "contractName": "RandomNumberConsumer",
  "sourceName": "contracts/lib/RandomNumberConsumer.sol",
  "abi": [
    {
      "inputs": [
        {
          "internalType": "address",
          "name": "_VRFCoordinator",
          "type": "address"
        },
        {
          "internalType": "address",
          "name": "_LinkToken",
          "type": "address"
        },
        {
          "internalType": "bytes32",
          "name": "_keyHash",
          "type": "bytes32"
        }
      ],
      "stateMutability": "nonpayable",
      "type": "constructor"
    },
    {
      "inputs": [],
      "name": "LinkToken",
      "outputs": [
        {
          "internalType": "address",
          "name": "",
          "type": "address"
        }
      ],
      "stateMutability": "view",
      "type": "function"
    },
    {
      "inputs": [],
      "name": "VRFCoordinator",
      "outputs": [
        {
          "internalType": "address",
          "name": "",
          "type": "address"
        }
      ],
      "stateMutability": "view",
      "type": "function"
    },
    {
      "inputs": [],
      "name": "deposit",
      "outputs": [],
      "stateMutability": "payable",
      "type": "function"
    },
    {
      "inputs": [
        {
          "internalType": "uint256",
          "name": "electionId",
          "type": "uint256"
        },
        {
          "internalType": "uint256",
          "name": "seed",
          "type": "uint256"
        }
      ],
      "name": "getRandomNumber",
      "outputs": [],
      "stateMutability": "nonpayable",
      "type": "function"
    },
    {
      "inputs": [
        {
          "internalType": "uint256",
          "name": "electionId",
          "type": "uint256"
        }
      ],
      "name": "getRandomResult",
      "outputs": [
        {
          "internalType": "uint256",
          "name": "",
          "type": "uint256"
        }
      ],
      "stateMutability": "view",
      "type": "function"
    },
    {
      "inputs": [
        {
          "internalType": "uint256",
          "name": "",
          "type": "uint256"
        }
      ],
      "name": "randomResult",
      "outputs": [
        {
          "internalType": "uint256",
          "name": "",
          "type": "uint256"
        }
      ],
      "stateMutability": "view",
      "type": "function"
    },
    {
      "inputs": [
        {
          "internalType": "bytes32",
          "name": "requestId",
          "type": "bytes32"
        },
        {
          "internalType": "uint256",
          "name": "randomness",
          "type": "uint256"
        }
      ],
      "name": "rawFulfillRandomness",
      "outputs": [],
      "stateMutability": "nonpayable",
      "type": "function"
    }
  ],
  "bytecode": "0x60c060405234801561001057600080fd5b506040516107253803806107258339818101604052606081101561003357600080fd5b50805160208201516040909201516001600160601b0319606083811b821660a05284901b1660805260035567016345785d8a00006004556001600160a01b03918216911661068761009e600039806102e952806103bf5250806101ae528061039052506106876000f3fe6080604052600436106100705760003560e01c80637900905c1161004e5780637900905c146100ed57806394985ddd14610129578063aea2035f14610159578063d0e30db01461018357610070565b806333b60863146100755780634f8e2fdf146100a65780636e68fc0a146100bb575b600080fd5b34801561008157600080fd5b5061008a61018b565b604080516001600160a01b039092168252519081900360200190f35b3480156100b257600080fd5b5061008a61019a565b3480156100c757600080fd5b506100eb600480360360408110156100de57600080fd5b50803590602001356101a9565b005b3480156100f957600080fd5b506101176004803603602081101561011057600080fd5b50356102c0565b60408051918252519081900360200190f35b34801561013557600080fd5b506100eb6004803603604081101561014c57600080fd5b50803590602001356102de565b34801561016557600080fd5b506101176004803603602081101561017c57600080fd5b5035610369565b6100eb61038a565b6001546001600160a01b031681565b6002546001600160a01b031681565b6004547f00000000000000000000000000000000000000000000000000000000000000006001600160a01b03166370a08231306040518263ffffffff1660e01b815260040180826001600160a01b0316815260200191505060206040518083038186803b15801561021957600080fd5b505afa15801561022d573d6000803e3d6000fd5b505050506040513d602081101561024357600080fd5b50511015610298576040805162461bcd60e51b815260206004820152600f60248201527f4e6f7420656e6f756768204c494e4b0000000000000000000000000000000000604482015290519081900360640190fd5b81600660006102ab60035460045461038c565b81526020810191909152604001600020555050565b600581815481106102cd57fe5b600091825260209091200154905081565b336001600160a01b037f0000000000000000000000000000000000000000000000000000000000000000161461035b576040805162461bcd60e51b815260206004820152601f60248201527f4f6e6c7920565246436f6f7264696e61746f722063616e2066756c66696c6c00604482015290519081900360640190fd5b610365828261053f565b5050565b60006005828154811061037857fe5b90600052602060002001549050919050565b565b60007f00000000000000000000000000000000000000000000000000000000000000006001600160a01b0316634000aea07f00000000000000000000000000000000000000000000000000000000000000008486600060405160200180838152602001828152602001925050506040516020818303038152906040526040518463ffffffff1660e01b815260040180846001600160a01b0316815260200183815260200180602001828103825283818151815260200191508051906020019080838360005b83811015610469578181015183820152602001610451565b50505050905090810190601f1680156104965780820380516001836020036101000a031916815260200191505b50945050505050602060405180830381600087803b1580156104b757600080fd5b505af11580156104cb573d6000803e3d6000fd5b505050506040513d60208110156104e157600080fd5b50506000838152602081905260408120546105019085908390309061057d565b60008581526020819052604090205490915061051e9060016105c4565b6000858152602081905260409020556105378482610625565b949350505050565b61054a8160016105c4565b905080600560066000858152602001908152602001600020548154811061056d57fe5b6000918252602090912001555050565b60408051602080820196909652808201949094526001600160a01b039290921660608401526080808401919091528151808403909101815260a09092019052805191012090565b60008282018381101561061e576040805162461bcd60e51b815260206004820152601b60248201527f536166654d6174683a206164646974696f6e206f766572666c6f770000000000604482015290519081900360640190fd5b9392505050565b60408051602080820194909452808201929092528051808303820181526060909201905280519101209056fea2646970667358221220772b10a99908164d5fc0bfb6d7a837eb0ddd327601ff7d7d32109a935acde47864736f6c63430007030033",
  "linkReferences": {},
  "deployedLinkReferences": {}
}