{
  "_format": "hh-sol-artifact-1",
  "contractName": "AffiliateToken",
  "sourceName": "contracts/pool/AffiliateToken.sol",
  "abi": [
    {
      "inputs": [
        {
          "internalType": "address",
          "name": "_token",
          "type": "address"
        },
        {
          "internalType": "address",
          "name": "_registry",
          "type": "address"
        },
        {
          "internalType": "string",
          "name": "name",
          "type": "string"
        },
        {
          "internalType": "string",
          "name": "symbol",
          "type": "string"
        }
      ],
      "stateMutability": "nonpayable",
      "type": "constructor"
    },
    {
      "anonymous": false,
      "inputs": [
        {
          "indexed": true,
          "internalType": "address",
          "name": "owner",
          "type": "address"
        },
        {
          "indexed": true,
          "internalType": "address",
          "name": "spender",
          "type": "address"
        },
        {
          "indexed": false,
          "internalType": "uint256",
          "name": "value",
          "type": "uint256"
        }
      ],
      "name": "Approval",
      "type": "event"
    },
    {
      "anonymous": false,
      "inputs": [
        {
          "indexed": true,
          "internalType": "address",
          "name": "from",
          "type": "address"
        },
        {
          "indexed": true,
          "internalType": "address",
          "name": "to",
          "type": "address"
        },
        {
          "indexed": false,
          "internalType": "uint256",
          "name": "value",
          "type": "uint256"
        }
      ],
      "name": "Transfer",
      "type": "event"
    },
    {
      "inputs": [],
      "name": "DOMAIN_SEPARATOR",
      "outputs": [
        {
          "internalType": "bytes32",
          "name": "",
          "type": "bytes32"
        }
      ],
      "stateMutability": "view",
      "type": "function"
    },
    {
      "inputs": [],
      "name": "DOMAIN_TYPEHASH",
      "outputs": [
        {
          "internalType": "bytes32",
          "name": "",
          "type": "bytes32"
        }
      ],
      "stateMutability": "view",
      "type": "function"
    },
    {
      "inputs": [],
      "name": "PERMIT_TYPEHASH",
      "outputs": [
        {
          "internalType": "bytes32",
          "name": "",
          "type": "bytes32"
        }
      ],
      "stateMutability": "view",
      "type": "function"
    },
    {
      "inputs": [],
      "name": "acceptAffiliate",
      "outputs": [],
      "stateMutability": "nonpayable",
      "type": "function"
    },
    {
      "inputs": [],
      "name": "affiliate",
      "outputs": [
        {
          "internalType": "address",
          "name": "",
          "type": "address"
        }
      ],
      "stateMutability": "view",
      "type": "function"
    },
    {
      "inputs": [],
      "name": "allVaults",
      "outputs": [
        {
          "internalType": "contract VaultAPI[]",
          "name": "",
          "type": "address[]"
        }
      ],
      "stateMutability": "view",
      "type": "function"
    },
    {
      "inputs": [
        {
          "internalType": "address",
          "name": "owner",
          "type": "address"
        },
        {
          "internalType": "address",
          "name": "spender",
          "type": "address"
        }
      ],
      "name": "allowance",
      "outputs": [
        {
          "internalType": "uint256",
          "name": "",
          "type": "uint256"
        }
      ],
      "stateMutability": "view",
      "type": "function"
    },
    {
      "inputs": [
        {
          "internalType": "address",
          "name": "spender",
          "type": "address"
        },
        {
          "internalType": "uint256",
          "name": "amount",
          "type": "uint256"
        }
      ],
      "name": "approve",
      "outputs": [
        {
          "internalType": "bool",
          "name": "",
          "type": "bool"
        }
      ],
      "stateMutability": "nonpayable",
      "type": "function"
    },
    {
      "inputs": [
        {
          "internalType": "address",
          "name": "account",
          "type": "address"
        }
      ],
      "name": "balanceOf",
      "outputs": [
        {
          "internalType": "uint256",
          "name": "",
          "type": "uint256"
        }
      ],
      "stateMutability": "view",
      "type": "function"
    },
    {
      "inputs": [],
      "name": "bestVault",
      "outputs": [
        {
          "internalType": "contract VaultAPI",
          "name": "",
          "type": "address"
        }
      ],
      "stateMutability": "view",
      "type": "function"
    },
    {
      "inputs": [],
      "name": "decimals",
      "outputs": [
        {
          "internalType": "uint8",
          "name": "",
          "type": "uint8"
        }
      ],
      "stateMutability": "view",
      "type": "function"
    },
    {
      "inputs": [
        {
          "internalType": "address",
          "name": "spender",
          "type": "address"
        },
        {
          "internalType": "uint256",
          "name": "subtractedValue",
          "type": "uint256"
        }
      ],
      "name": "decreaseAllowance",
      "outputs": [
        {
          "internalType": "bool",
          "name": "",
          "type": "bool"
        }
      ],
      "stateMutability": "nonpayable",
      "type": "function"
    },
    {
      "inputs": [
        {
          "internalType": "uint256",
          "name": "amount",
          "type": "uint256"
        }
      ],
      "name": "deposit",
      "outputs": [
        {
          "internalType": "uint256",
          "name": "deposited",
          "type": "uint256"
        }
      ],
      "stateMutability": "nonpayable",
      "type": "function"
    },
    {
      "inputs": [
        {
          "internalType": "address",
          "name": "spender",
          "type": "address"
        },
        {
          "internalType": "uint256",
          "name": "addedValue",
          "type": "uint256"
        }
      ],
      "name": "increaseAllowance",
      "outputs": [
        {
          "internalType": "bool",
          "name": "",
          "type": "bool"
        }
      ],
      "stateMutability": "nonpayable",
      "type": "function"
    },
    {
      "inputs": [
        {
          "internalType": "uint256",
          "name": "amount",
          "type": "uint256"
        },
        {
          "internalType": "uint256",
          "name": "maxMigrationLoss",
          "type": "uint256"
        }
      ],
      "name": "migrate",
      "outputs": [
        {
          "internalType": "uint256",
          "name": "",
          "type": "uint256"
        }
      ],
      "stateMutability": "nonpayable",
      "type": "function"
    },
    {
      "inputs": [
        {
          "internalType": "uint256",
          "name": "amount",
          "type": "uint256"
        }
      ],
      "name": "migrate",
      "outputs": [
        {
          "internalType": "uint256",
          "name": "",
          "type": "uint256"
        }
      ],
      "stateMutability": "nonpayable",
      "type": "function"
    },
    {
      "inputs": [],
      "name": "migrate",
      "outputs": [
        {
          "internalType": "uint256",
          "name": "",
          "type": "uint256"
        }
      ],
      "stateMutability": "nonpayable",
      "type": "function"
    },
    {
      "inputs": [],
      "name": "name",
      "outputs": [
        {
          "internalType": "string",
          "name": "",
          "type": "string"
        }
      ],
      "stateMutability": "view",
      "type": "function"
    },
    {
      "inputs": [
        {
          "internalType": "address",
          "name": "",
          "type": "address"
        }
      ],
      "name": "nonces",
      "outputs": [
        {
          "internalType": "uint256",
          "name": "",
          "type": "uint256"
        }
      ],
      "stateMutability": "view",
      "type": "function"
    },
    {
      "inputs": [],
      "name": "pendingAffiliate",
      "outputs": [
        {
          "internalType": "address",
          "name": "",
          "type": "address"
        }
      ],
      "stateMutability": "view",
      "type": "function"
    },
    {
      "inputs": [
        {
          "internalType": "address",
          "name": "owner",
          "type": "address"
        },
        {
          "internalType": "address",
          "name": "spender",
          "type": "address"
        },
        {
          "internalType": "uint256",
          "name": "amount",
          "type": "uint256"
        },
        {
          "internalType": "uint256",
          "name": "deadline",
          "type": "uint256"
        },
        {
          "internalType": "uint8",
          "name": "v",
          "type": "uint8"
        },
        {
          "internalType": "bytes32",
          "name": "r",
          "type": "bytes32"
        },
        {
          "internalType": "bytes32",
          "name": "s",
          "type": "bytes32"
        }
      ],
      "name": "permit",
      "outputs": [],
      "stateMutability": "nonpayable",
      "type": "function"
    },
    {
      "inputs": [],
      "name": "pricePerShare",
      "outputs": [
        {
          "internalType": "uint256",
          "name": "",
          "type": "uint256"
        }
      ],
      "stateMutability": "view",
      "type": "function"
    },
    {
      "inputs": [],
      "name": "registry",
      "outputs": [
        {
          "internalType": "contract RegistryAPI",
          "name": "",
          "type": "address"
        }
      ],
      "stateMutability": "view",
      "type": "function"
    },
    {
      "inputs": [
        {
          "internalType": "address",
          "name": "_affiliate",
          "type": "address"
        }
      ],
      "name": "setAffiliate",
      "outputs": [],
      "stateMutability": "nonpayable",
      "type": "function"
    },
    {
      "inputs": [
        {
          "internalType": "address",
          "name": "_registry",
          "type": "address"
        }
      ],
      "name": "setRegistry",
      "outputs": [],
      "stateMutability": "nonpayable",
      "type": "function"
    },
    {
      "inputs": [],
      "name": "symbol",
      "outputs": [
        {
          "internalType": "string",
          "name": "",
          "type": "string"
        }
      ],
      "stateMutability": "view",
      "type": "function"
    },
    {
      "inputs": [],
      "name": "token",
      "outputs": [
        {
          "internalType": "contract IERC20",
          "name": "",
          "type": "address"
        }
      ],
      "stateMutability": "view",
      "type": "function"
    },
    {
      "inputs": [],
      "name": "totalAssets",
      "outputs": [
        {
          "internalType": "uint256",
          "name": "assets",
          "type": "uint256"
        }
      ],
      "stateMutability": "view",
      "type": "function"
    },
    {
      "inputs": [],
      "name": "totalSupply",
      "outputs": [
        {
          "internalType": "uint256",
          "name": "",
          "type": "uint256"
        }
      ],
      "stateMutability": "view",
      "type": "function"
    },
    {
      "inputs": [
        {
          "internalType": "address",
          "name": "account",
          "type": "address"
        }
      ],
      "name": "totalVaultBalance",
      "outputs": [
        {
          "internalType": "uint256",
          "name": "balance",
          "type": "uint256"
        }
      ],
      "stateMutability": "view",
      "type": "function"
    },
    {
      "inputs": [
        {
          "internalType": "address",
          "name": "recipient",
          "type": "address"
        },
        {
          "internalType": "uint256",
          "name": "amount",
          "type": "uint256"
        }
      ],
      "name": "transfer",
      "outputs": [
        {
          "internalType": "bool",
          "name": "",
          "type": "bool"
        }
      ],
      "stateMutability": "nonpayable",
      "type": "function"
    },
    {
      "inputs": [
        {
          "internalType": "address",
          "name": "sender",
          "type": "address"
        },
        {
          "internalType": "address",
          "name": "recipient",
          "type": "address"
        },
        {
          "internalType": "uint256",
          "name": "amount",
          "type": "uint256"
        }
      ],
      "name": "transferFrom",
      "outputs": [
        {
          "internalType": "bool",
          "name": "",
          "type": "bool"
        }
      ],
      "stateMutability": "nonpayable",
      "type": "function"
    },
    {
      "inputs": [
        {
          "internalType": "uint256",
          "name": "shares",
          "type": "uint256"
        }
      ],
      "name": "withdraw",
      "outputs": [
        {
          "internalType": "uint256",
          "name": "withdrawn",
          "type": "uint256"
        }
      ],
      "stateMutability": "nonpayable",
      "type": "function"
    }
  ],
  "bytecode": "0x60a06040523480156200001157600080fd5b506040516200354738038062003547833981810160405260808110156200003757600080fd5b815160208301516040808501805191519395929483019291846401000000008211156200006357600080fd5b9083019060208201858111156200007957600080fd5b82516401000000008111828201881017156200009457600080fd5b82525081516020918201929091019080838360005b83811015620000c3578181015183820152602001620000a9565b50505050905090810190601f168015620000f15780820380516001836020036101000a031916815260200191505b50604052602001805160405193929190846401000000008211156200011557600080fd5b9083019060208201858111156200012b57600080fd5b82516401000000008111828201881017156200014657600080fd5b82525081516020918201929091019080838360005b83811015620001755781810151838201526020016200015b565b50505050905090810190601f168015620001a35780820380516001836020036101000a031916815260200191505b50604052505050838383838160039080519060200190620001c69291906200038d565b508051620001dc9060049060208401906200038d565b505060058054601260ff1990911617610100600160a81b0319166101006001600160a01b039586160217905550600780546001600160a01b0319169190921617905581516020808401919091206040805180820190915260018152603160f81b9201919091527f8b73c3c69bb8fe3d512ecc4cf759cc79239f7b179b0ffacaa9a75d522b39400f907fc89efdaa54c0f20c7adf612882df0950f5a951637e0307cdcb4c672f298b8bc66200028f62000373565b604080516020808201969096528082019490945260608401929092526080808401919091523060a0808501919091528251808503909101815260c08401808452815191860191909120909152600980546001600160a01b0319163317905560055463313ce56760e01b909152905162000369936101009092046001600160a01b03169263313ce5679260c4808301939192829003018186803b1580156200033557600080fd5b505afa1580156200034a573d6000803e3d6000fd5b505050506040513d60208110156200036157600080fd5b505162000377565b5050505062000429565b4690565b6005805460ff191660ff92909216919091179055565b828054600181600116156101000203166002900490600052602060002090601f016020900481019282601f10620003d057805160ff191683800117855562000400565b8280016001018555821562000400579182015b8281111562000400578251825591602001919060010190620003e3565b506200040e92915062000412565b5090565b5b808211156200040e576000815560010162000413565b6080516130fe6200044960003980610d5e52806112a452506130fe6000f3fe608060405234801561001057600080fd5b506004361061020b5760003560e01c806345e05f431161012a578063a457c2d7116100bd578063b6b55f251161008c578063dd62ed3e11610071578063dd62ed3e14610616578063e95b2de814610644578063fc0c546a1461064c5761020b565b8063b6b55f25146105a8578063d505accf146105c55761020b565b8063a457c2d714610522578063a9059cbb1461054e578063a91ee0dc1461057a578063b38a440e146105a05761020b565b80637ecebe00116100f95780637ecebe00146104e45780638fd3ab801461050a57806395d89b411461051257806399530b061461051a5761020b565b806345e05f431461048a5780636c31b5f0146104ae57806370a08231146104b65780637b103999146104dc5761020b565b80632e1a7d4d116101a25780633644e515116101715780633644e51514610416578063395093511461041e5780633e54bacb1461044a578063454b06081461046d5761020b565b80632e1a7d4d146103ad57806330adf81f146103ca57806330e5065e146103d2578063313ce567146103f85761020b565b806318160ddd116101de57806318160ddd1461033f57806320606b701461034757806323b872dd1461034f5780632bbb56d9146103855761020b565b806301e1d11414610210578063063effeb1461022a57806306fdde0314610282578063095ea7b3146102ff575b600080fd5b610218610654565b60408051918252519081900360200190f35b6102326106ff565b60408051602080825283518183015283519192839290830191858101910280838360005b8381101561026e578181015183820152602001610256565b505050509050019250505060405180910390f35b61028a610999565b6040805160208082528351818301528351919283929083019185019080838360005b838110156102c45781810151838201526020016102ac565b50505050905090810190601f1680156102f15780820380516001836020036101000a031916815260200191505b509250505060405180910390f35b61032b6004803603604081101561031557600080fd5b506001600160a01b038135169060200135610a2f565b604080519115158252519081900360200190f35b610218610a4d565b610218610a53565b61032b6004803603606081101561036557600080fd5b506001600160a01b03813581169160208101359091169060400135610a77565b6103ab6004803603602081101561039b57600080fd5b50356001600160a01b0316610aff565b005b610218600480360360208110156103c357600080fd5b5035610b38565b610218610b60565b610218600480360360208110156103e857600080fd5b50356001600160a01b0316610b84565b610400610d53565b6040805160ff9092168252519081900360200190f35b610218610d5c565b61032b6004803603604081101561043457600080fd5b506001600160a01b038135169060200135610d80565b6102186004803603604081101561046057600080fd5b5080359060200135610dce565b6102186004803603602081101561048357600080fd5b5035610df3565b610492610e17565b604080516001600160a01b039092168252519081900360200190f35b6103ab610e26565b610218600480360360208110156104cc57600080fd5b50356001600160a01b0316610e51565b610492610e6c565b610218600480360360208110156104fa57600080fd5b50356001600160a01b0316610e7b565b610218610e8d565b61028a610eb5565b610218610f16565b61032b6004803603604081101561053857600080fd5b506001600160a01b038135169060200135610f43565b61032b6004803603604081101561056457600080fd5b506001600160a01b038135169060200135610fab565b6103ab6004803603602081101561059057600080fd5b50356001600160a01b0316610fbf565b610492611105565b610218600480360360208110156105be57600080fd5b5035611114565b6103ab600480360360e08110156105db57600080fd5b506001600160a01b03813581169160208101359091169060408101359060608101359060ff6080820135169060a08101359060c00135611142565b6102186004803603604081101561062c57600080fd5b506001600160a01b03813581169160200135166113d1565b6104926113fc565b61049261149f565b600060606106606106ff565b905060005b81518110156106fa576106f082828151811061067d57fe5b60200260200101516001600160a01b03166301e1d1146040518163ffffffff1660e01b815260040160206040518083038186803b1580156106bd57600080fd5b505afa1580156106d1573d6000803e3d6000fd5b505050506040513d60208110156106e757600080fd5b505184906114b3565b9250600101610665565b505090565b600654600754600554604080517ff9c7bba50000000000000000000000000000000000000000000000000000000081526001600160a01b0361010090930483166004820152905160609493600093169163f9c7bba5916024808301926020929190829003018186803b15801561077457600080fd5b505afa158015610788573d6000803e3d6000fd5b505050506040513d602081101561079e57600080fd5b505190508181141561080e57600680548060200260200160405190810160405280929190818152602001828054801561080057602002820191906000526020600020905b81546001600160a01b031681526001909101906020018083116107e2575b505050505092505050610996565b60608167ffffffffffffffff8111801561082757600080fd5b50604051908082528060200260200182016040528015610851578160200160208202803683370190505b50905060005b838110156108b6576006818154811061086c57fe5b9060005260206000200160009054906101000a90046001600160a01b031682828151811061089657fe5b6001600160a01b0390921660209283029190910190910152600101610857565b50825b8281101561099057600754600554604080517f7bbfc69e0000000000000000000000000000000000000000000000000000000081526101009092046001600160a01b039081166004840152602483018590529051921691637bbfc69e91604480820192602092909190829003018186803b15801561093657600080fd5b505afa15801561094a573d6000803e3d6000fd5b505050506040513d602081101561096057600080fd5b5051825183908390811061097057fe5b6001600160a01b03909216602092830291909101909101526001016108b9565b50925050505b90565b60038054604080516020601f6002600019610100600188161502019095169490940493840181900481028201810190925282815260609390929091830182828015610a255780601f106109fa57610100808354040283529160200191610a25565b820191906000526020600020905b815481529060010190602001808311610a0857829003601f168201915b5050505050905090565b6000610a43610a3c61150d565b8484611511565b5060015b92915050565b60025490565b7f8b73c3c69bb8fe3d512ecc4cf759cc79239f7b179b0ffacaa9a75d522b39400f81565b6000610a848484846115fd565b610af484610a9061150d565b610aef85604051806060016040528060288152602001612fb2602891396001600160a01b038a16600090815260016020526040812090610ace61150d565b6001600160a01b031681526020810191909152604001600020549190611758565b611511565b5060015b9392505050565b6009546001600160a01b03163314610b1657600080fd5b600a80546001600160a01b0319166001600160a01b0392909216919091179055565b6000610b4f3033610b48856117ef565b6001611824565b9050610b5b3383612036565b919050565b7f6e71edae12b1b97f4d1f60370fef10105fa2faae0126114a169c64845d6126c981565b60006060610b906106ff565b905060005b8151811015610d4c57610d42610d3b838381518110610bb057fe5b60200260200101516001600160a01b031663313ce5676040518163ffffffff1660e01b815260040160206040518083038186803b158015610bf057600080fd5b505afa158015610c04573d6000803e3d6000fd5b505050506040513d6020811015610c1a57600080fd5b50518451600a9190910a90610d3590869086908110610c3557fe5b60200260200101516001600160a01b03166399530b066040518163ffffffff1660e01b815260040160206040518083038186803b158015610c7557600080fd5b505afa158015610c89573d6000803e3d6000fd5b505050506040513d6020811015610c9f57600080fd5b50518651879087908110610caf57fe5b60200260200101516001600160a01b03166370a082318a6040518263ffffffff1660e01b815260040180826001600160a01b0316815260200191505060206040518083038186803b158015610d0357600080fd5b505afa158015610d17573d6000803e3d6000fd5b505050506040513d6020811015610d2d57600080fd5b505190612132565b9061218b565b84906114b3565b9250600101610b95565b5050919050565b60055460ff1690565b7f000000000000000000000000000000000000000000000000000000000000000081565b6000610a43610d8d61150d565b84610aef8560016000610d9e61150d565b6001600160a01b03908116825260208083019390935260409182016000908120918c1681529252902054906114b3565b6009546000906001600160a01b03163314610de857600080fd5b610af83084846121f2565b6009546000906001600160a01b03163314610e0d57600080fd5b610a473083612396565b6009546001600160a01b031681565b600a546001600160a01b03163314610e3d57600080fd5b600980546001600160a01b03191633179055565b6001600160a01b031660009081526020819052604090205490565b6007546001600160a01b031681565b60086020526000908152604090205481565b6009546000906001600160a01b03163314610ea757600080fd5b610eb0306123a4565b905090565b60048054604080516020601f6002600019610100600188161502019095169490940493840181900481028201810190925282815260609390929091830182828015610a255780601f106109fa57610100808354040283529160200191610a25565b6000610eb0610f23610a4d565b610d35610f2e610d53565b60ff16600a0a610f3d30610b84565b90612132565b6000610a43610f5061150d565b84610aef856040518060600160405280602581526020016130a46025913960016000610f7a61150d565b6001600160a01b03908116825260208083019390935260409182016000908120918d16815292529020549190611758565b6000610a43610fb861150d565b84846115fd565b600760009054906101000a90046001600160a01b03166001600160a01b0316635aa6e6756040518163ffffffff1660e01b815260040160206040518083038186803b15801561100d57600080fd5b505afa158015611021573d6000803e3d6000fd5b505050506040513d602081101561103757600080fd5b50516001600160a01b0316331461104d57600080fd5b600780546001600160a01b0319166001600160a01b038381169190911791829055604080517f5aa6e67500000000000000000000000000000000000000000000000000000000815290519290911691635aa6e67591600480820192602092909190829003018186803b1580156110c257600080fd5b505afa1580156110d6573d6000803e3d6000fd5b505050506040513d60208110156110ec57600080fd5b50516001600160a01b0316331461110257600080fd5b50565b600a546001600160a01b031681565b600061112333308460016123b2565b9050600061113082612800565b905061113c338261282f565b50919050565b6001600160a01b03871661119d576040805162461bcd60e51b815260206004820152601160248201527f7065726d69743a207369676e6174757265000000000000000000000000000000604482015290519081900360640190fd5b834211156111f2576040805162461bcd60e51b815260206004820152600f60248201527f7065726d69743a20657870697265640000000000000000000000000000000000604482015290519081900360640190fd5b6001600160a01b0380881660008181526008602090815260408083208054600180820190925582517f6e71edae12b1b97f4d1f60370fef10105fa2faae0126114a169c64845d6126c98186015280840196909652958c166060860152608085018b905260a085019590955260c08085018a90528151808603909101815260e0850182528051908301207f19010000000000000000000000000000000000000000000000000000000000006101008601527f000000000000000000000000000000000000000000000000000000000000000061010286015261012280860182905282518087039091018152610142860180845281519185019190912090859052610162860180845281905260ff8a166101828701526101a286018990526101c2860188905291519095919491926101e2808401939192601f1981019281900390910190855afa158015611348573d6000803e3d6000fd5b505050602060405103519050896001600160a01b0316816001600160a01b0316146113ba576040805162461bcd60e51b815260206004820152601460248201527f7065726d69743a20756e617574686f72697a6564000000000000000000000000604482015290519081900360640190fd5b6113c58a8a8a611511565b50505050505050505050565b6001600160a01b03918216600090815260016020908152604080832093909416825291909152205490565b600754600554604080517fe177dc700000000000000000000000000000000000000000000000000000000081526101009092046001600160a01b0390811660048401529051600093919091169163e177dc70916024808301926020929190829003018186803b15801561146e57600080fd5b505afa158015611482573d6000803e3d6000fd5b505050506040513d602081101561149857600080fd5b5051905090565b60055461010090046001600160a01b031681565b600082820183811015610af8576040805162461bcd60e51b815260206004820152601b60248201527f536166654d6174683a206164646974696f6e206f766572666c6f770000000000604482015290519081900360640190fd5b3390565b6001600160a01b0383166115565760405162461bcd60e51b81526004018080602001828103825260248152602001806130206024913960400191505060405180910390fd5b6001600160a01b03821661159b5760405162461bcd60e51b8152600401808060200182810382526022815260200180612f236022913960400191505060405180910390fd5b6001600160a01b03808416600081815260016020908152604080832094871680845294825291829020859055815185815291517f8c5be1e5ebec7d5bd14f71427d1e84f3dd0314c0f7b2291e5b200ac8c7c3b9259281900390910190a3505050565b6001600160a01b0383166116425760405162461bcd60e51b8152600401808060200182810382526025815260200180612ffb6025913960400191505060405180910390fd5b6001600160a01b0382166116875760405162461bcd60e51b8152600401808060200182810382526023815260200180612ede6023913960400191505060405180910390fd5b61169283838361291f565b6116cf81604051806060016040528060268152602001612f45602691396001600160a01b0386166000908152602081905260409020549190611758565b6001600160a01b0380851660009081526020819052604080822093909355908416815220546116fe90826114b3565b6001600160a01b038084166000818152602081815260409182902094909455805185815290519193928716927fddf252ad1be2c89b69c2b068fc378daa952ba7f163c4a11628f55a4df523b3ef92918290030190a3505050565b600081848411156117e75760405162461bcd60e51b81526004018080602001828103825283818151815260200191508051906020019080838360005b838110156117ac578181015183820152602001611794565b50505050905090810190601f1680156117d95780820380516001836020036101000a031916815260200191505b509250505060405180910390fd5b505050900390565b6000806117fa610a4d565b9050801561181b5761181381610d3585610f3d30610b84565b915050610b5b565b82915050610b5b565b60008061182f6113fc565b9050606061183b6106ff565b905061184681612924565b60005b8151811015611da757841580156118845750826001600160a01b031682828151811061187157fe5b60200260200101516001600160a01b0316145b1561188e57611d9f565b600082828151811061189c57fe5b60200260200101516001600160a01b03166370a082318a6040518263ffffffff1660e01b815260040180826001600160a01b0316815260200191505060206040518083038186803b1580156118f057600080fd5b505afa158015611904573d6000803e3d6000fd5b505050506040513d602081101561191a57600080fd5b505190506001600160a01b03891630146119d7576119d48184848151811061193e57fe5b60200260200101516001600160a01b031663dd62ed3e8c306040518363ffffffff1660e01b815260040180836001600160a01b03168152602001826001600160a01b031681526020019250505060206040518083038186803b1580156119a357600080fd5b505afa1580156119b7573d6000803e3d6000fd5b505050506040513d60208110156119cd57600080fd5b5051612946565b90505b611a27818484815181106119e757fe5b60200260200101516001600160a01b03166375de29026040518163ffffffff1660e01b815260040160206040518083038186803b1580156119a357600080fd5b90508015611d9d576001600160a01b0389163014611ae757828281518110611a4b57fe5b60200260200101516001600160a01b03166323b872dd8a30846040518463ffffffff1660e01b815260040180846001600160a01b03168152602001836001600160a01b031681526020018281526020019350505050602060405180830381600087803b158015611aba57600080fd5b505af1158015611ace573d6000803e3d6000fd5b505050506040513d6020811015611ae457600080fd5b50505b6000198714611d09576000611bf8848481518110611b0157fe5b60200260200101516001600160a01b03166399530b066040518163ffffffff1660e01b815260040160206040518083038186803b158015611b4157600080fd5b505afa158015611b55573d6000803e3d6000fd5b505050506040513d6020811015611b6b57600080fd5b50518551610d3590879087908110611b7f57fe5b60200260200101516001600160a01b031663313ce5676040518163ffffffff1660e01b815260040160206040518083038186803b158015611bbf57600080fd5b505afa158015611bd3573d6000803e3d6000fd5b505050506040513d6020811015611be957600080fd5b5051600a0a610f3d8c8b61295c565b9050600081118015611c0957508181105b15611ca457611c9d848481518110611c1d57fe5b60200260200101516001600160a01b0316632e1a7d4d836040518263ffffffff1660e01b815260040180828152602001915050602060405180830381600087803b158015611c6a57600080fd5b505af1158015611c7e573d6000803e3d6000fd5b505050506040513d6020811015611c9457600080fd5b505187906114b3565b9550611d03565b611d00848481518110611cb357fe5b60200260200101516001600160a01b0316632e1a7d4d846040518263ffffffff1660e01b815260040180828152602001915050602060405180830381600087803b158015611c6a57600080fd5b95505b50611d90565b611d8d838381518110611d1857fe5b60200260200101516001600160a01b0316633ccfd60b6040518163ffffffff1660e01b8152600401602060405180830381600087803b158015611d5a57600080fd5b505af1158015611d6e573d6000803e3d6000fd5b505050506040513d6020811015611d8457600080fd5b505186906114b3565b94505b848711611d9d5750611da7565b505b600101611849565b508483118015611eb85750611eac826001600160a01b031663313ce5676040518163ffffffff1660e01b815260040160206040518083038186803b158015611dee57600080fd5b505afa158015611e02573d6000803e3d6000fd5b505050506040513d6020811015611e1857600080fd5b5051604080517f99530b060000000000000000000000000000000000000000000000000000000081529051600a9290920a916001600160a01b038616916399530b06916004808301926020929190829003018186803b158015611e7a57600080fd5b505afa158015611e8e573d6000803e3d6000fd5b505050506040513d6020811015611ea457600080fd5b50519061218b565b611eb6848761295c565b115b1561200057611ec7838661295c565b60055460408051636eb1769f60e11b81523060048201526001600160a01b03868116602483015291516101009093049091169163dd62ed3e91604480820192602092909190829003018186803b158015611f2057600080fd5b505afa158015611f34573d6000803e3d6000fd5b505050506040513d6020811015611f4a57600080fd5b50511015611f7057600554611f709061010090046001600160a01b0316836000196129b9565b6001600160a01b038216636e553f65611f89858861295c565b896040518363ffffffff1660e01b815260040180838152602001826001600160a01b0316815260200192505050602060405180830381600087803b158015611fd057600080fd5b505af1158015611fe4573d6000803e3d6000fd5b505050506040513d6020811015611ffa57600080fd5b50859350505b6001600160a01b038616301461202c5760055461202c9061010090046001600160a01b03168785612ae5565b5050949350505050565b6001600160a01b03821661207b5760405162461bcd60e51b8152600401808060200182810382526021815260200180612fda6021913960400191505060405180910390fd5b6120878260008361291f565b6120c481604051806060016040528060228152602001612f01602291396001600160a01b0385166000908152602081905260409020549190611758565b6001600160a01b0383166000908152602081905260409020556002546120ea908261295c565b6002556040805182815290516000916001600160a01b038516917fddf252ad1be2c89b69c2b068fc378daa952ba7f163c4a11628f55a4df523b3ef9181900360200190a35050565b60008261214157506000610a47565b8282028284828161214e57fe5b0414610af85760405162461bcd60e51b8152600401808060200182810382526021815260200180612f916021913960400191505060405180910390fd5b60008082116121e1576040805162461bcd60e51b815260206004820152601a60248201527f536166654d6174683a206469766973696f6e206279207a65726f000000000000604482015290519081900360640190fd5b8183816121ea57fe5b049392505050565b6000806121fd6113fc565b90506000816001600160a01b031663ecf708586040518163ffffffff1660e01b815260040160206040518083038186803b15801561223a57600080fd5b505afa15801561224e573d6000803e3d6000fd5b505050506040513d602081101561226457600080fd5b5051604080517f01e1d11400000000000000000000000000000000000000000000000000000000815290519192506000916001600160a01b038516916301e1d114916004808301926020929190829003018186803b1580156122c557600080fd5b505afa1580156122d9573d6000803e3d6000fd5b505050506040513d60208110156122ef57600080fd5b505190508082116123065760009350505050610af8565b8560001983108015612319575060001981105b1561233a57600061232a848461295c565b905080821115612338578091505b505b801561238b57600061234f8930846000611824565b90508061236457600095505050505050610af8565b612371308a8360006123b2565b95508661237e828861295c565b111561238957600080fd5b505b505050509392505050565b6000610af8838360006121f2565b6000610a4782600019612396565b6000806123bd6113fc565b9050821561249c5760001984146123f0576005546123eb9061010090046001600160a01b0316873087612b50565b61249c565b61249c8630600560019054906101000a90046001600160a01b03166001600160a01b03166370a082318a6040518263ffffffff1660e01b815260040180826001600160a01b0316815260200191505060206040518083038186803b15801561245757600080fd5b505afa15801561246b573d6000803e3d6000fd5b505050506040513d602081101561248157600080fd5b505160055461010090046001600160a01b0316929190612b50565b60055460408051636eb1769f60e11b81523060048201526001600160a01b0384811660248301529151879361010090049092169163dd62ed3e91604480820192602092909190829003018186803b1580156124f657600080fd5b505afa15801561250a573d6000803e3d6000fd5b505050506040513d602081101561252057600080fd5b50511015612563576005546125459061010090046001600160a01b03168260006129b9565b6005546125639061010090046001600160a01b0316826000196129b9565b600554604080516370a0823160e01b8152306004820152905160009261010090046001600160a01b0316916370a08231916024808301926020929190829003018186803b1580156125b357600080fd5b505afa1580156125c7573d6000803e3d6000fd5b505050506040513d60208110156125dd57600080fd5b505190506001600160a01b038616301461267a57816001600160a01b0316636e553f6586886040518363ffffffff1660e01b815260040180838152602001826001600160a01b0316815260200192505050602060405180830381600087803b15801561264857600080fd5b505af115801561265c573d6000803e3d6000fd5b505050506040513d602081101561267257600080fd5b506127319050565b60001985146126c957816001600160a01b031663b6b55f25866040518263ffffffff1660e01b815260040180828152602001915050602060405180830381600087803b15801561264857600080fd5b816001600160a01b031663d0e30db06040518163ffffffff1660e01b8152600401602060405180830381600087803b15801561270457600080fd5b505af1158015612718573d6000803e3d6000fd5b505050506040513d602081101561272e57600080fd5b50505b600554604080516370a0823160e01b8152306004820152905160009261010090046001600160a01b0316916370a08231916024808301926020929190829003018186803b15801561278157600080fd5b505afa158015612795573d6000803e3d6000fd5b505050506040513d60208110156127ab57600080fd5b505190506127b9828261295c565b93506001600160a01b03881630148015906127d45750600081115b156127f5576005546127f59061010090046001600160a01b03168983612ae5565b505050949350505050565b60008061280c30610b84565b90508281111561181b57611813612823828561295c565b610d3585610f3d610a4d565b6001600160a01b03821661288a576040805162461bcd60e51b815260206004820152601f60248201527f45524332303a206d696e7420746f20746865207a65726f206164647265737300604482015290519081900360640190fd5b6128966000838361291f565b6002546128a390826114b3565b6002556001600160a01b0382166000908152602081905260409020546128c990826114b3565b6001600160a01b0383166000818152602081815260408083209490945583518581529351929391927fddf252ad1be2c89b69c2b068fc378daa952ba7f163c4a11628f55a4df523b3ef9281900390910190a35050565b505050565b60065481511115611102578051612942906006906020840190612e59565b5050565b60008183106129555781610af8565b5090919050565b6000828211156129b3576040805162461bcd60e51b815260206004820152601e60248201527f536166654d6174683a207375627472616374696f6e206f766572666c6f770000604482015290519081900360640190fd5b50900390565b801580612a3f575060408051636eb1769f60e11b81523060048201526001600160a01b03848116602483015291519185169163dd62ed3e91604480820192602092909190829003018186803b158015612a1157600080fd5b505afa158015612a25573d6000803e3d6000fd5b505050506040513d6020811015612a3b57600080fd5b5051155b612a7a5760405162461bcd60e51b815260040180806020018281038252603681526020018061306e6036913960400191505060405180910390fd5b604080516001600160a01b038416602482015260448082018490528251808303909101815260649091019091526020810180516001600160e01b03167f095ea7b30000000000000000000000000000000000000000000000000000000017905261291f908490612bc9565b604080516001600160a01b038416602482015260448082018490528251808303909101815260649091019091526020810180516001600160e01b03167fa9059cbb0000000000000000000000000000000000000000000000000000000017905261291f908490612bc9565b604080516001600160a01b0380861660248301528416604482015260648082018490528251808303909101815260849091019091526020810180516001600160e01b03167f23b872dd00000000000000000000000000000000000000000000000000000000179052612bc3908590612bc9565b50505050565b6060612c1e826040518060400160405280602081526020017f5361666545524332303a206c6f772d6c6576656c2063616c6c206661696c6564815250856001600160a01b0316612c7a9092919063ffffffff16565b80519091501561291f57808060200190516020811015612c3d57600080fd5b505161291f5760405162461bcd60e51b815260040180806020018281038252602a815260200180613044602a913960400191505060405180910390fd5b6060612c898484600085612c91565b949350505050565b606082471015612cd25760405162461bcd60e51b8152600401808060200182810382526026815260200180612f6b6026913960400191505060405180910390fd5b612cdb85612ded565b612d2c576040805162461bcd60e51b815260206004820152601d60248201527f416464726573733a2063616c6c20746f206e6f6e2d636f6e7472616374000000604482015290519081900360640190fd5b60006060866001600160a01b031685876040518082805190602001908083835b60208310612d6b5780518252601f199092019160209182019101612d4c565b6001836020036101000a03801982511681845116808217855250505050505090500191505060006040518083038185875af1925050503d8060008114612dcd576040519150601f19603f3d011682016040523d82523d6000602084013e612dd2565b606091505b5091509150612de2828286612df3565b979650505050505050565b3b151590565b60608315612e02575081610af8565b825115612e125782518084602001fd5b60405162461bcd60e51b81526020600482018181528451602484015284518593919283926044019190850190808383600083156117ac578181015183820152602001611794565b828054828255906000526020600020908101928215612eae579160200282015b82811115612eae57825182546001600160a01b0319166001600160a01b03909116178255602090920191600190910190612e79565b50612eba929150612ebe565b5090565b5b80821115612eba5780546001600160a01b0319168155600101612ebf56fe45524332303a207472616e7366657220746f20746865207a65726f206164647265737345524332303a206275726e20616d6f756e7420657863656564732062616c616e636545524332303a20617070726f766520746f20746865207a65726f206164647265737345524332303a207472616e7366657220616d6f756e7420657863656564732062616c616e6365416464726573733a20696e73756666696369656e742062616c616e636520666f722063616c6c536166654d6174683a206d756c7469706c69636174696f6e206f766572666c6f7745524332303a207472616e7366657220616d6f756e74206578636565647320616c6c6f77616e636545524332303a206275726e2066726f6d20746865207a65726f206164647265737345524332303a207472616e736665722066726f6d20746865207a65726f206164647265737345524332303a20617070726f76652066726f6d20746865207a65726f20616464726573735361666545524332303a204552433230206f7065726174696f6e20646964206e6f7420737563636565645361666545524332303a20617070726f76652066726f6d206e6f6e2d7a65726f20746f206e6f6e2d7a65726f20616c6c6f77616e636545524332303a2064656372656173656420616c6c6f77616e63652062656c6f77207a65726fa2646970667358221220690cacd6bf6038b90bac275607336b8cd048acbac5a2a4b81fc947175c85fde464736f6c634300060c0033",
  "linkReferences": {},
  "deployedLinkReferences": {}
}