{
  "_format": "hh-sol-artifact-1",
  "contractName": "KeeperIncentiveHelper",
  "sourceName": "contracts/test_helpers/KeeperIncentiveHelper.sol",
  "abi": [
    {
      "inputs": [
        {
          "internalType": "contract IERC20",
          "name": "pop_",
          "type": "address"
        }
      ],
      "stateMutability": "nonpayable",
      "type": "constructor"
    },
    {
      "anonymous": false,
      "inputs": [
        {
          "indexed": false,
          "internalType": "uint256",
          "name": "incentiveId",
          "type": "uint256"
        },
        {
          "indexed": false,
          "internalType": "bool",
          "name": "openToEveryone",
          "type": "bool"
        }
      ],
      "name": "ApprovalToggled",
      "type": "event"
    },
    {
      "anonymous": false,
      "inputs": [
        {
          "indexed": false,
          "internalType": "address",
          "name": "account",
          "type": "address"
        }
      ],
      "name": "Approved",
      "type": "event"
    },
    {
      "anonymous": false,
      "inputs": [
        {
          "indexed": false,
          "internalType": "address",
          "name": "account",
          "type": "address"
        }
      ],
      "name": "FunctionCalled",
      "type": "event"
    },
    {
      "anonymous": false,
      "inputs": [
        {
          "indexed": false,
          "internalType": "address",
          "name": "oldGovernance",
          "type": "address"
        },
        {
          "indexed": false,
          "internalType": "address",
          "name": "newGovernance",
          "type": "address"
        }
      ],
      "name": "GovernanceChanged",
      "type": "event"
    },
    {
      "anonymous": false,
      "inputs": [
        {
          "indexed": false,
          "internalType": "address",
          "name": "newGovernance",
          "type": "address"
        }
      ],
      "name": "GovernanceNominated",
      "type": "event"
    },
    {
      "anonymous": false,
      "inputs": [
        {
          "indexed": false,
          "internalType": "uint256",
          "name": "incentiveId",
          "type": "uint256"
        }
      ],
      "name": "IncentiveChanged",
      "type": "event"
    },
    {
      "anonymous": false,
      "inputs": [
        {
          "indexed": false,
          "internalType": "uint256",
          "name": "incentiveId",
          "type": "uint256"
        }
      ],
      "name": "IncentiveCreated",
      "type": "event"
    },
    {
      "anonymous": false,
      "inputs": [
        {
          "indexed": false,
          "internalType": "uint256",
          "name": "amount",
          "type": "uint256"
        }
      ],
      "name": "IncentiveFunded",
      "type": "event"
    },
    {
      "anonymous": false,
      "inputs": [
        {
          "indexed": false,
          "internalType": "uint256",
          "name": "incentiveId",
          "type": "uint256"
        },
        {
          "indexed": false,
          "internalType": "bool",
          "name": "enabled",
          "type": "bool"
        }
      ],
      "name": "IncentiveToggled",
      "type": "event"
    },
    {
      "anonymous": false,
      "inputs": [
        {
          "indexed": false,
          "internalType": "address",
          "name": "account",
          "type": "address"
        }
      ],
      "name": "RemovedApproval",
      "type": "event"
    },
    {
      "inputs": [],
      "name": "POP",
      "outputs": [
        {
          "internalType": "contract IERC20",
          "name": "",
          "type": "address"
        }
      ],
      "stateMutability": "view",
      "type": "function"
    },
    {
      "inputs": [],
      "name": "acceptGovernance",
      "outputs": [],
      "stateMutability": "nonpayable",
      "type": "function"
    },
    {
      "inputs": [
        {
          "internalType": "address",
          "name": "_account",
          "type": "address"
        }
      ],
      "name": "approveAccount",
      "outputs": [],
      "stateMutability": "nonpayable",
      "type": "function"
    },
    {
      "inputs": [
        {
          "internalType": "address",
          "name": "",
          "type": "address"
        }
      ],
      "name": "approved",
      "outputs": [
        {
          "internalType": "bool",
          "name": "",
          "type": "bool"
        }
      ],
      "stateMutability": "view",
      "type": "function"
    },
    {
      "inputs": [
        {
          "internalType": "uint256",
          "name": "_reward",
          "type": "uint256"
        },
        {
          "internalType": "bool",
          "name": "_enabled",
          "type": "bool"
        },
        {
          "internalType": "bool",
          "name": "_openToEveryone",
          "type": "bool"
        }
      ],
      "name": "createIncentive",
      "outputs": [
        {
          "internalType": "uint256",
          "name": "",
          "type": "uint256"
        }
      ],
      "stateMutability": "nonpayable",
      "type": "function"
    },
    {
      "inputs": [],
      "name": "defaultIncentivisedFunction",
      "outputs": [],
      "stateMutability": "nonpayable",
      "type": "function"
    },
    {
      "inputs": [
        {
          "internalType": "uint256",
          "name": "_amount",
          "type": "uint256"
        }
      ],
      "name": "fundIncentive",
      "outputs": [],
      "stateMutability": "nonpayable",
      "type": "function"
    },
    {
      "inputs": [],
      "name": "governance",
      "outputs": [
        {
          "internalType": "address",
          "name": "",
          "type": "address"
        }
      ],
      "stateMutability": "view",
      "type": "function"
    },
    {
      "inputs": [],
      "name": "incentiveBudget",
      "outputs": [
        {
          "internalType": "uint256",
          "name": "",
          "type": "uint256"
        }
      ],
      "stateMutability": "view",
      "type": "function"
    },
    {
      "inputs": [
        {
          "internalType": "uint256",
          "name": "",
          "type": "uint256"
        }
      ],
      "name": "incentives",
      "outputs": [
        {
          "internalType": "uint256",
          "name": "reward",
          "type": "uint256"
        },
        {
          "internalType": "bool",
          "name": "enabled",
          "type": "bool"
        },
        {
          "internalType": "bool",
          "name": "openToEveryone",
          "type": "bool"
        }
      ],
      "stateMutability": "view",
      "type": "function"
    },
    {
      "inputs": [],
      "name": "incentivisedFunction",
      "outputs": [],
      "stateMutability": "nonpayable",
      "type": "function"
    },
    {
      "inputs": [
        {
          "internalType": "address",
          "name": "_governance",
          "type": "address"
        }
      ],
      "name": "nominateNewGovernance",
      "outputs": [],
      "stateMutability": "nonpayable",
      "type": "function"
    },
    {
      "inputs": [],
      "name": "nominatedGovernance",
      "outputs": [
        {
          "internalType": "address",
          "name": "",
          "type": "address"
        }
      ],
      "stateMutability": "view",
      "type": "function"
    },
    {
      "inputs": [
        {
          "internalType": "address",
          "name": "_account",
          "type": "address"
        }
      ],
      "name": "removeApproval",
      "outputs": [],
      "stateMutability": "nonpayable",
      "type": "function"
    },
    {
      "inputs": [
        {
          "internalType": "uint256",
          "name": "_incentiveId",
          "type": "uint256"
        }
      ],
      "name": "toggleApproval",
      "outputs": [],
      "stateMutability": "nonpayable",
      "type": "function"
    },
    {
      "inputs": [
        {
          "internalType": "uint256",
          "name": "_incentiveId",
          "type": "uint256"
        }
      ],
      "name": "toggleIncentive",
      "outputs": [],
      "stateMutability": "nonpayable",
      "type": "function"
    },
    {
      "inputs": [
        {
          "internalType": "uint256",
          "name": "_incentiveId",
          "type": "uint256"
        },
        {
          "internalType": "uint256",
          "name": "_reward",
          "type": "uint256"
        },
        {
          "internalType": "bool",
          "name": "_enabled",
          "type": "bool"
        },
        {
          "internalType": "bool",
          "name": "_openToEveryone",
          "type": "bool"
        }
      ],
      "name": "updateIncentive",
      "outputs": [],
      "stateMutability": "nonpayable",
      "type": "function"
    }
  ],
  "bytecode": "0x60a060405234801561001057600080fd5b506040516113993803806113998339818101604052602081101561003357600080fd5b50513381818061008a576040805162461bcd60e51b815260206004820152601e60248201527f476f7665726e616e636520616464726573732063616e6e6f7420626520300000604482015290519081900360640190fd5b600080546001600160a01b0319166001600160a01b038316908117825560408051928352602083019190915280517f3aaaebeb4821d6a7e5c77ece53cff0afcc56c82add2c978dbbb7f73e84cbcfd29281900390910190a1506001600160601b0319606082901b1660805261010a678ac7230489e8000060016000610113565b50505050610249565b600061011d6101fe565b60408051606081018252858152841515602080830191825285151583850190815260028054600181018255600082905294517f405787fa12a823e0f2b7631cc41b3ba8828b3321ca811111fa75cd3aa3bb5ace9582029586015592517f405787fa12a823e0f2b7631cc41b3ba8828b3321ca811111fa75cd3aa3bb5acf9094018054915160ff199092169415159490941761ff001916610100911515919091021790925554825190815291517f7d84860e1fc1ed3049c4f95ac22b081621477f749947cd30272d654c27a1a1a59281900390910190a1506002549392505050565b6000546001600160a01b031633146102475760405162461bcd60e51b81526004018080602001828103825260348152602001806113656034913960400191505060405180910390fd5b565b60805160601c6110f061027560003980610430528061083d52806108c152806109e752506110f06000f3fe608060405234801561001057600080fd5b506004361061011b5760003560e01c80635aa6e675116100b2578063b57df14d11610081578063e121c10211610066578063e121c1021461029f578063f89f4e77146102dc578063ffd8a6d9146103025761011b565b8063b57df14d1461025d578063d8b964e6146102655761011b565b80635aa6e675146101f457806361c94885146101fc5780636c660b011461022f5780637cab5e8c146102375761011b565b806341267de5116100ee57806341267de5146101aa57806342f5e9f4146101b2578063493f43bb146101cf5780635536f764146101ec5761011b565b806308c8cb871461012057806314ef68511461015f5780631c5f82eb14610183578063238efcbc146101a2575b600080fd5b61014d6004803603606081101561013657600080fd5b508035906020810135151590604001351515610328565b60408051918252519081900360200190f35b610167610414565b604080516001600160a01b039092168252519081900360200190f35b6101a06004803603602081101561019957600080fd5b5035610423565b005b6101a061049e565b61014d610567565b6101a0600480360360208110156101c857600080fd5b503561056d565b6101a0600480360360208110156101e557600080fd5b503561063c565b6101a0610715565b610167610923565b6101a06004803603608081101561021257600080fd5b508035906020810135906040810135151590606001351515610932565b6101676109e5565b6101a06004803603602081101561024d57600080fd5b50356001600160a01b0316610a09565b6101a0610a69565b61028b6004803603602081101561027b57600080fd5b50356001600160a01b0316610a85565b604080519115158252519081900360200190f35b6102bc600480360360208110156102b557600080fd5b5035610a9a565b604080519384529115156020840152151582820152519081900360600190f35b6101a0600480360360208110156102f257600080fd5b50356001600160a01b0316610ad1565b6101a06004803603602081101561031857600080fd5b50356001600160a01b0316610b34565b6000610332610b9d565b60408051606081018252858152841515602080830191825285151583850190815260028054600181018255600082905294517f405787fa12a823e0f2b7631cc41b3ba8828b3321ca811111fa75cd3aa3bb5ace9582029586015592517f405787fa12a823e0f2b7631cc41b3ba8828b3321ca811111fa75cd3aa3bb5acf9094018054915160ff199092169415159490941761ff001916610100911515919091021790925554825190815291517f7d84860e1fc1ed3049c4f95ac22b081621477f749947cd30272d654c27a1a1a59281900390910190a1506002545b9392505050565b6001546001600160a01b031681565b6104586001600160a01b037f000000000000000000000000000000000000000000000000000000000000000016333084610be8565b6003546104659082610c76565b6003556040805182815290517f9ad4c05cff4861564f4d1572799ac5d03d82f40ea702646c7b3bfd552f570cde9181900360200190a150565b6001546001600160a01b031633146104e75760405162461bcd60e51b815260040180806020018281038252603681526020018061105b6036913960400191505060405180910390fd5b600054600154604080516001600160a01b03938416815292909116602083015280517f3aaaebeb4821d6a7e5c77ece53cff0afcc56c82add2c978dbbb7f73e84cbcfd29281900390910190a1600180546000805473ffffffffffffffffffffffffffffffffffffffff199081166001600160a01b03841617909155169055565b60035481565b610575610b9d565b6002818154811061058257fe5b906000526020600020906002020160010160009054906101000a900460ff1615600282815481106105af57fe5b906000526020600020906002020160010160006101000a81548160ff0219169083151502179055507f051f998dd825d3013afdc6c3a8d515e73d5816bff7238ddccb4e85131e6fd1a0816002838154811061060657fe5b6000918252602091829020600160029092020101546040805193845260ff9091161515918301919091528051918290030190a150565b610644610b9d565b6002818154811061065157fe5b906000526020600020906002020160010160019054906101000a900460ff16156002828154811061067e57fe5b906000526020600020906002020160010160016101000a81548160ff0219169083151502179055507fa51d6c9733fd63b5d3d7f72181e83ef039954a7c1748775a99f4ceb8edbef10081600283815481106106d557fe5b906000526020600020906002020160010160019054906101000a900460ff166040518083815260200182151581526020019250505060405180910390a150565b600254600090156108ed5760006002828154811061072f57fe5b906000526020600020906002020190508060010160019054906101000a900460ff166107ce573360009081526004602052604090205460ff168061077d57506000546001600160a01b031633145b6107ce576040805162461bcd60e51b815260206004820181905260248201527f796f7520617265206e6f7420617070726f7665642061732061206b6565706572604482015290519081900360640190fd5b600181015460ff1680156107e55750600354815411155b156108eb5780546003546107f891610cd0565b6003558054604080517f095ea7b30000000000000000000000000000000000000000000000000000000081523060048201526024810192909252516001600160a01b037f0000000000000000000000000000000000000000000000000000000000000000169163095ea7b39160448083019260209291908290030181600087803b15801561088557600080fd5b505af1158015610899573d6000803e3d6000fd5b505050506040513d60208110156108af57600080fd5b505080546108eb906001600160a01b037f0000000000000000000000000000000000000000000000000000000000000000169030903390610be8565b505b6040805133815290517f02bd09a7b664c69b1dd1010bba77cd5117065da368f2f0d034767eec1a109b589181900360200190a150565b6000546001600160a01b031681565b61093a610b9d565b604051806060016040528084815260200183151581526020018215158152506002858154811061096657fe5b60009182526020918290208351600290920201908155828201516001909101805460409485015115156101000261ff001993151560ff199092169190911792909216919091179055815186815291517fb6eadbf6d08d9dab781edecc3f924ce28080fc3e1c8e1356fe758d68020e76409281900390910190a150505050565b7f000000000000000000000000000000000000000000000000000000000000000081565b610a11610b9d565b6001600160a01b038116600081815260046020908152604091829020805460ff19169055815192835290517ffd14bcb80907f44e9de03a8c122d3324befad6501ae8481ab277b809227bc8de9281900390910190a150565b6002546001908110156108ed5760006002828154811061072f57fe5b60046020526000908152604090205460ff1681565b60028181548110610aa757fe5b60009182526020909120600290910201805460019091015490915060ff8082169161010090041683565b610ad9610b9d565b6001600160a01b038116600081815260046020908152604091829020805460ff19166001179055815192835290517f5d91bd0cecc45fef102af61de92c5462fadc884a5ce9d21c15e8a85198f2349e9281900390910190a150565b610b3c610b9d565b600180546001600160a01b03831673ffffffffffffffffffffffffffffffffffffffff19909116811790915560408051918252517f1c58cfd31540f5b6a8cfbbe7c225cfccf4ee83b8691dc4d4d0a23a3ef02be5849181900360200190a150565b6000546001600160a01b03163314610be65760405162461bcd60e51b81526004018080602001828103825260348152602001806110276034913960400191505060405180910390fd5b565b604080516001600160a01b0380861660248301528416604482015260648082018490528251808303909101815260849091019091526020810180517bffffffffffffffffffffffffffffffffffffffffffffffffffffffff167f23b872dd00000000000000000000000000000000000000000000000000000000179052610c70908590610d2d565b50505050565b60008282018381101561040d576040805162461bcd60e51b815260206004820152601b60248201527f536166654d6174683a206164646974696f6e206f766572666c6f770000000000604482015290519081900360640190fd5b600082821115610d27576040805162461bcd60e51b815260206004820152601e60248201527f536166654d6174683a207375627472616374696f6e206f766572666c6f770000604482015290519081900360640190fd5b50900390565b6060610d82826040518060400160405280602081526020017f5361666545524332303a206c6f772d6c6576656c2063616c6c206661696c6564815250856001600160a01b0316610de39092919063ffffffff16565b805190915015610dde57808060200190516020811015610da157600080fd5b5051610dde5760405162461bcd60e51b815260040180806020018281038252602a815260200180611091602a913960400191505060405180910390fd5b505050565b6060610df28484600085610dfa565b949350505050565b606082471015610e3b5760405162461bcd60e51b81526004018080602001828103825260268152602001806110016026913960400191505060405180910390fd5b610e4485610f56565b610e95576040805162461bcd60e51b815260206004820152601d60248201527f416464726573733a2063616c6c20746f206e6f6e2d636f6e7472616374000000604482015290519081900360640190fd5b60006060866001600160a01b031685876040518082805190602001908083835b60208310610ed45780518252601f199092019160209182019101610eb5565b6001836020036101000a03801982511681845116808217855250505050505090500191505060006040518083038185875af1925050503d8060008114610f36576040519150601f19603f3d011682016040523d82523d6000602084013e610f3b565b606091505b5091509150610f4b828286610f5c565b979650505050505050565b3b151590565b60608315610f6b57508161040d565b825115610f7b5782518084602001fd5b8160405162461bcd60e51b81526004018080602001828103825283818151815260200191508051906020019080838360005b83811015610fc5578181015183820152602001610fad565b50505050905090810190601f168015610ff25780820380516001836020036101000a031916815260200191505b509250505060405180910390fdfe416464726573733a20696e73756666696369656e742062616c616e636520666f722063616c6c4f6e6c792074686520636f6e747261637420676f7665726e616e6365206d617920706572666f726d207468697320616374696f6e596f75206d757374206265206e6f6d696e61746564206265666f726520796f752063616e2061636365707420676f7665726e616e63655361666545524332303a204552433230206f7065726174696f6e20646964206e6f742073756363656564a2646970667358221220df39b1916eb6a4f54794ef1a2eff2df5f865fd96083935a338e7c0a1a021620e64736f6c634300070300334f6e6c792074686520636f6e747261637420676f7665726e616e6365206d617920706572666f726d207468697320616374696f6e",
  "linkReferences": {},
  "deployedLinkReferences": {}
}