{
  "_format": "hh-sol-artifact-1",
  "contractName": "Zapper",
  "sourceName": "contracts/Zapper.sol",
  "abi": [
    {
      "inputs": [
        {
          "internalType": "address",
          "name": "curveAddressProvider_",
          "type": "address"
        }
      ],
      "stateMutability": "nonpayable",
      "type": "constructor"
    },
    {
      "anonymous": false,
      "inputs": [
        {
          "indexed": false,
          "internalType": "address",
          "name": "account",
          "type": "address"
        },
        {
          "indexed": false,
          "internalType": "address",
          "name": "depositToken",
          "type": "address"
        },
        {
          "indexed": false,
          "internalType": "uint256",
          "name": "depositAmount",
          "type": "uint256"
        },
        {
          "indexed": false,
          "internalType": "uint256",
          "name": "shares",
          "type": "uint256"
        }
      ],
      "name": "ZapIn",
      "type": "event"
    },
    {
      "anonymous": false,
      "inputs": [
        {
          "indexed": false,
          "internalType": "address",
          "name": "account",
          "type": "address"
        },
        {
          "indexed": false,
          "internalType": "address",
          "name": "withdrawalShares",
          "type": "address"
        },
        {
          "indexed": false,
          "internalType": "uint256",
          "name": "shares",
          "type": "uint256"
        },
        {
          "indexed": false,
          "internalType": "uint256",
          "name": "withdrawalAmount",
          "type": "uint256"
        }
      ],
      "name": "ZapOut",
      "type": "event"
    },
    {
      "inputs": [
        {
          "internalType": "address",
          "name": "popcornPool",
          "type": "address"
        },
        {
          "internalType": "address",
          "name": "tokenAddress",
          "type": "address"
        }
      ],
      "name": "canZap",
      "outputs": [
        {
          "internalType": "bool",
          "name": "",
          "type": "bool"
        }
      ],
      "stateMutability": "view",
      "type": "function"
    },
    {
      "inputs": [],
      "name": "curveAddressProvider",
      "outputs": [
        {
          "internalType": "contract CurveAddressProvider",
          "name": "",
          "type": "address"
        }
      ],
      "stateMutability": "view",
      "type": "function"
    },
    {
      "inputs": [
        {
          "internalType": "address",
          "name": "popcornPool",
          "type": "address"
        }
      ],
      "name": "curveBasepoolAddress",
      "outputs": [
        {
          "internalType": "address",
          "name": "",
          "type": "address"
        }
      ],
      "stateMutability": "view",
      "type": "function"
    },
    {
      "inputs": [
        {
          "internalType": "address",
          "name": "popcornPool",
          "type": "address"
        }
      ],
      "name": "curveMetapoolAddress",
      "outputs": [
        {
          "internalType": "address",
          "name": "",
          "type": "address"
        }
      ],
      "stateMutability": "view",
      "type": "function"
    },
    {
      "inputs": [],
      "name": "curveRegistry",
      "outputs": [
        {
          "internalType": "contract CurveRegistry",
          "name": "",
          "type": "address"
        }
      ],
      "stateMutability": "view",
      "type": "function"
    },
    {
      "inputs": [
        {
          "internalType": "address",
          "name": "popcornPool",
          "type": "address"
        }
      ],
      "name": "supportedTokens",
      "outputs": [
        {
          "internalType": "address[8]",
          "name": "",
          "type": "address[8]"
        }
      ],
      "stateMutability": "view",
      "type": "function"
    },
    {
      "inputs": [
        {
          "internalType": "address",
          "name": "popcornPool",
          "type": "address"
        }
      ],
      "name": "token",
      "outputs": [
        {
          "internalType": "address",
          "name": "",
          "type": "address"
        }
      ],
      "stateMutability": "view",
      "type": "function"
    },
    {
      "inputs": [
        {
          "internalType": "address",
          "name": "popcornPool",
          "type": "address"
        },
        {
          "internalType": "address",
          "name": "tokenAddress",
          "type": "address"
        }
      ],
      "name": "tokenIndex",
      "outputs": [
        {
          "internalType": "uint8",
          "name": "",
          "type": "uint8"
        }
      ],
      "stateMutability": "view",
      "type": "function"
    },
    {
      "inputs": [
        {
          "internalType": "address",
          "name": "popcornPool",
          "type": "address"
        },
        {
          "internalType": "address",
          "name": "depositToken",
          "type": "address"
        },
        {
          "internalType": "uint256",
          "name": "amount",
          "type": "uint256"
        }
      ],
      "name": "zapIn",
      "outputs": [
        {
          "internalType": "uint256",
          "name": "",
          "type": "uint256"
        }
      ],
      "stateMutability": "nonpayable",
      "type": "function"
    },
    {
      "inputs": [
        {
          "internalType": "address",
          "name": "popcornPool",
          "type": "address"
        },
        {
          "internalType": "address",
          "name": "withdrawalToken",
          "type": "address"
        },
        {
          "internalType": "uint256",
          "name": "amount",
          "type": "uint256"
        }
      ],
      "name": "zapOut",
      "outputs": [
        {
          "internalType": "uint256",
          "name": "",
          "type": "uint256"
        }
      ],
      "stateMutability": "nonpayable",
      "type": "function"
    }
  ],
  "bytecode": "0x608060405234801561001057600080fd5b5060405161185e38038061185e8339818101604052602081101561003357600080fd5b5051600080546001600160a01b0319166001600160a01b0380841691909117918290556040805163a262904b60e01b81529051929091169163a262904b91600480820192602092909190829003018186803b15801561009157600080fd5b505afa1580156100a5573d6000803e3d6000fd5b505050506040513d60208110156100bb57600080fd5b5051600180546001600160a01b0319166001600160a01b0390921691909117905550611772806100ec6000396000f3fe608060405234801561001057600080fd5b50600436106100be5760003560e01c80637f31d76711610076578063ad36df181161005b578063ad36df1814610234578063bda87c191461025a578063ea83c6df1461029e576100be565b80637f31d767146101b6578063a51973a2146101fe576100be565b806368c4ac26116100a757806368c4ac26146100ef5780636d46a1db1461014e57806379779cea14610174576100be565b806327c24a5d146100c35780633d6e7388146100e7575b600080fd5b6100cb6102c4565b604080516001600160a01b039092168252519081900360200190f35b6100cb6102d3565b6101156004803603602081101561010557600080fd5b50356001600160a01b03166102e2565b604051808261010080838360005b8381101561013b578181015183820152602001610123565b5050505090500191505060405180910390f35b6100cb6004803603602081101561016457600080fd5b50356001600160a01b0316610383565b6101a26004803603604081101561018a57600080fd5b506001600160a01b03813581169160200135166103f0565b604080519115158252519081900360200190f35b6101ec600480360360608110156101cc57600080fd5b506001600160a01b0381358116916020810135909116906040013561041e565b60408051918252519081900360200190f35b6101ec6004803603606081101561021457600080fd5b506001600160a01b038135811691602081013590911690604001356109f4565b6100cb6004803603602081101561024a57600080fd5b50356001600160a01b0316610f5c565b6102886004803603604081101561027057600080fd5b506001600160a01b0381358116916020013516610fb6565b6040805160ff9092168252519081900360200190f35b6100cb600480360360208110156102b457600080fd5b50356001600160a01b0316611023565b6001546001600160a01b031681565b6000546001600160a01b031681565b6102ea6116af565b6001546001600160a01b031663a77576ef61030484610f5c565b6040518263ffffffff1660e01b815260040180826001600160a01b031681526020019150506101006040518083038186803b15801561034257600080fd5b505afa158015610356573d6000803e3d6000fd5b505050506040513d601f19601f8201168201806040525061010081101561037c57600080fd5b5092915050565b6000816001600160a01b031663fc0c546a6040518163ffffffff1660e01b815260040160206040518083038186803b1580156103be57600080fd5b505afa1580156103d2573d6000803e3d6000fd5b505050506040513d60208110156103e857600080fd5b505192915050565b60006001600160a01b03821661040557600080fd5b61040f8383610fb6565b60ff1660081415905092915050565b600061042a84846103f0565b61047b576040805162461bcd60e51b815260206004820152601160248201527f556e737570706f7274656420746f6b656e000000000000000000000000000000604482015290519081900360640190fd5b6104906001600160a01b038416333085611156565b600061049c8585610fb6565b60ff16610584576104c06104af86610f5c565b6001600160a01b03861690856111b6565b6104c985610f5c565b6001600160a01b0316630b4c7e4d6040518060400160405280868152602001600081525060006040518363ffffffff1660e01b81526004018083600260200280838360005b8381101561052657818101518382015260200161050e565b5050505090500182815260200192505050602060405180830381600087803b15801561055157600080fd5b505af1158015610565573d6000803e3d6000fd5b505050506040513d602081101561057b57600080fd5b505190506108f3565b6105906104af86611023565b6105986116ce565b6040518060600160405280600081526020016000815260200160008152509050838160016105c68989610fb6565b0360ff16600381106105d457fe5b60200201526001546000906001600160a01b031663379510496105f689611023565b6040518263ffffffff1660e01b815260040180826001600160a01b0316815260200191505060206040518083038186803b15801561063357600080fd5b505afa158015610647573d6000803e3d6000fd5b505050506040513d602081101561065d57600080fd5b5051604080517f70a0823100000000000000000000000000000000000000000000000000000000815230600482015290519192506000916001600160a01b038416916370a08231916024808301926020929190829003018186803b1580156106c457600080fd5b505afa1580156106d8573d6000803e3d6000fd5b505050506040513d60208110156106ee57600080fd5b505190506106fb88611023565b6001600160a01b0316634515cef38460006040518363ffffffff1660e01b81526004018083600360200280838360005b8381101561074357818101518382015260200161072b565b5050505090500182815260200192505050600060405180830381600087803b15801561076e57600080fd5b505af1158015610782573d6000803e3d6000fd5b505050506000826001600160a01b03166370a08231306040518263ffffffff1660e01b815260040180826001600160a01b0316815260200191505060206040518083038186803b1580156107d557600080fd5b505afa1580156107e9573d6000803e3d6000fd5b505050506040513d60208110156107ff57600080fd5b50519050600061080f82846112ba565b905061082e61081d8b610f5c565b6001600160a01b03861690836111b6565b6108378a610f5c565b6001600160a01b0316630b4c7e4d6040518060400160405280600081526020018481525060006040518363ffffffff1660e01b81526004018083600260200280838360005b8381101561089457818101518382015260200161087c565b5050505090500182815260200192505050602060405180830381600087803b1580156108bf57600080fd5b505af11580156108d3573d6000803e3d6000fd5b505050506040513d60208110156108e957600080fd5b5051955050505050505b610911858261090188610383565b6001600160a01b031691906111b6565b6000856001600160a01b03166336efd16f83336040518363ffffffff1660e01b815260040180838152602001826001600160a01b0316815260200192505050602060405180830381600087803b15801561096a57600080fd5b505af115801561097e573d6000803e3d6000fd5b505050506040513d602081101561099457600080fd5b5051604080513381526001600160a01b03881660208201528082018790526060810183905290519192507fa5df22cab1c918f04c7e14e446f9b60df68c2bb5b808423f4bf055ca7a499fe5919081900360800190a19150505b9392505050565b6000610a0084846103f0565b610a51576040805162461bcd60e51b815260206004820152601160248201527f556e737570706f7274656420746f6b656e000000000000000000000000000000604482015290519081900360640190fd5b604080516323b872dd60e01b81523360048201523060248201526044810184905290516001600160a01b038616916323b872dd9160648083019260209291908290030181600087803b158015610aa657600080fd5b505af1158015610aba573d6000803e3d6000fd5b505050506040513d6020811015610ad057600080fd5b5050604080517f2e1a7d4d0000000000000000000000000000000000000000000000000000000081526004810184905290516000916001600160a01b03871691632e1a7d4d9160248082019260209290919082900301818787803b158015610b3757600080fd5b505af1158015610b4b573d6000803e3d6000fd5b505050506040513d6020811015610b6157600080fd5b50519050610b7b610b7186610f5c565b8261090188610383565b6000610b878686610fb6565b60ff16610c2057610b9786610f5c565b6001600160a01b0316631a4d01d2836000806040518463ffffffff1660e01b8152600401808481526020018381526020018281526020019350505050602060405180830381600087803b158015610bed57600080fd5b505af1158015610c01573d6000803e3d6000fd5b505050506040513d6020811015610c1757600080fd5b50519050610ef0565b6000610c2b87610f5c565b6001600160a01b0316631a4d01d284600160006040518463ffffffff1660e01b8152600401808481526020018381526020018281526020019350505050602060405180830381600087803b158015610c8257600080fd5b505af1158015610c96573d6000803e3d6000fd5b505050506040513d6020811015610cac57600080fd5b50516001549091506000906001600160a01b03166337951049610cce8a611023565b6040518263ffffffff1660e01b815260040180826001600160a01b0316815260200191505060206040518083038186803b158015610d0b57600080fd5b505afa158015610d1f573d6000803e3d6000fd5b505050506040513d6020811015610d3557600080fd5b50519050610d56610d4589611023565b6001600160a01b03831690846111b6565b60006001610d648a8a610fb6565b0360ff1690506000886001600160a01b03166370a08231306040518263ffffffff1660e01b815260040180826001600160a01b0316815260200191505060206040518083038186803b158015610db957600080fd5b505afa158015610dcd573d6000803e3d6000fd5b505050506040513d6020811015610de357600080fd5b50519050610df08a611023565b6001600160a01b0316631a4d01d2858460006040518463ffffffff1660e01b81526004018084815260200183600f0b81526020018281526020019350505050600060405180830381600087803b158015610e4957600080fd5b505af1158015610e5d573d6000803e3d6000fd5b505050506000896001600160a01b03166370a08231306040518263ffffffff1660e01b815260040180826001600160a01b0316815260200191505060206040518083038186803b158015610eb057600080fd5b505afa158015610ec4573d6000803e3d6000fd5b505050506040513d6020811015610eda57600080fd5b50519050610ee881836112ba565b955050505050505b610f046001600160a01b0386163383611317565b604080513381526001600160a01b03871660208201528082018690526060810183905290517f49c082cd7a2d84c4820fb8ea8b7cd2a0dac8bac51b973cfc358260a859b3c9599181900360800190a195945050505050565b6001546000906001600160a01b031663bdf475c3610f7984610383565b6040518263ffffffff1660e01b815260040180826001600160a01b0316815260200191505060206040518083038186803b1580156103be57600080fd5b60006008610fc26116af565b610fcb856102e2565b905060005b60088160ff16101561101957846001600160a01b0316828260ff1660088110610ff557fe5b60200201516001600160a01b0316141561101157809250611019565b600101610fd0565b5090949350505050565b60015460009081906001600160a01b0316639ac90d3d61104285610f5c565b6040518263ffffffff1660e01b815260040180826001600160a01b031681526020019150506101006040518083038186803b15801561108057600080fd5b505afa158015611094573d6000803e3d6000fd5b505050506040513d601f19601f820116820180604052506101008110156110ba57600080fd5b50602090810151600154604080517fbdf475c30000000000000000000000000000000000000000000000000000000081526001600160a01b038085166004830152915193955091169263bdf475c392602480840193829003018186803b15801561112357600080fd5b505afa158015611137573d6000803e3d6000fd5b505050506040513d602081101561114d57600080fd5b50519392505050565b604080516001600160a01b0380861660248301528416604482015260648082018490528251808303909101815260849091019091526020810180516001600160e01b03166323b872dd60e01b1790526111b0908590611387565b50505050565b600061124c82856001600160a01b031663dd62ed3e30876040518363ffffffff1660e01b815260040180836001600160a01b03168152602001826001600160a01b031681526020019250505060206040518083038186803b15801561121a57600080fd5b505afa15801561122e573d6000803e3d6000fd5b505050506040513d602081101561124457600080fd5b505190611438565b604080516001600160a01b038616602482015260448082018490528251808303909101815260649091019091526020810180516001600160e01b03167f095ea7b3000000000000000000000000000000000000000000000000000000001790529091506111b0908590611387565b600082821115611311576040805162461bcd60e51b815260206004820152601e60248201527f536166654d6174683a207375627472616374696f6e206f766572666c6f770000604482015290519081900360640190fd5b50900390565b604080516001600160a01b038416602482015260448082018490528251808303909101815260649091019091526020810180516001600160e01b03167fa9059cbb00000000000000000000000000000000000000000000000000000000179052611382908490611387565b505050565b60606113dc826040518060400160405280602081526020017f5361666545524332303a206c6f772d6c6576656c2063616c6c206661696c6564815250856001600160a01b03166114929092919063ffffffff16565b805190915015611382578080602001905160208110156113fb57600080fd5b50516113825760405162461bcd60e51b815260040180806020018281038252602a815260200180611713602a913960400191505060405180910390fd5b6000828201838110156109ed576040805162461bcd60e51b815260206004820152601b60248201527f536166654d6174683a206164646974696f6e206f766572666c6f770000000000604482015290519081900360640190fd5b60606114a184846000856114a9565b949350505050565b6060824710156114ea5760405162461bcd60e51b81526004018080602001828103825260268152602001806116ed6026913960400191505060405180910390fd5b6114f385611605565b611544576040805162461bcd60e51b815260206004820152601d60248201527f416464726573733a2063616c6c20746f206e6f6e2d636f6e7472616374000000604482015290519081900360640190fd5b60006060866001600160a01b031685876040518082805190602001908083835b602083106115835780518252601f199092019160209182019101611564565b6001836020036101000a03801982511681845116808217855250505050505090500191505060006040518083038185875af1925050503d80600081146115e5576040519150601f19603f3d011682016040523d82523d6000602084013e6115ea565b606091505b50915091506115fa82828661160b565b979650505050505050565b3b151590565b6060831561161a5750816109ed565b82511561162a5782518084602001fd5b8160405162461bcd60e51b81526004018080602001828103825283818151815260200191508051906020019080838360005b8381101561167457818101518382015260200161165c565b50505050905090810190601f1680156116a15780820380516001836020036101000a031916815260200191505b509250505060405180910390fd5b6040518061010001604052806008906020820280368337509192915050565b6040518060600160405280600390602082028036833750919291505056fe416464726573733a20696e73756666696369656e742062616c616e636520666f722063616c6c5361666545524332303a204552433230206f7065726174696f6e20646964206e6f742073756363656564a26469706673582212205ac385b74612f85798476af2d252d6cb490f29a1c4bf5861ce621057b94a85a064736f6c63430007030033",
  "linkReferences": {},
  "deployedLinkReferences": {}
}