{
  "_format": "hh-sol-artifact-1",
  "contractName": "Region",
  "sourceName": "contracts/Region.sol",
  "abi": [
    {
      "inputs": [
        {
          "internalType": "address",
          "name": "beneficiaryVault_",
          "type": "address"
        }
      ],
      "stateMutability": "nonpayable",
      "type": "constructor"
    },
    {
      "anonymous": false,
      "inputs": [
        {
          "indexed": false,
          "internalType": "address",
          "name": "oldGovernance",
          "type": "address"
        },
        {
          "indexed": false,
          "internalType": "address",
          "name": "newGovernance",
          "type": "address"
        }
      ],
      "name": "GovernanceChanged",
      "type": "event"
    },
    {
      "anonymous": false,
      "inputs": [
        {
          "indexed": false,
          "internalType": "address",
          "name": "newGovernance",
          "type": "address"
        }
      ],
      "name": "GovernanceNominated",
      "type": "event"
    },
    {
      "anonymous": false,
      "inputs": [
        {
          "indexed": false,
          "internalType": "bytes2",
          "name": "region",
          "type": "bytes2"
        }
      ],
      "name": "RegionAdded",
      "type": "event"
    },
    {
      "inputs": [],
      "name": "acceptGovernance",
      "outputs": [],
      "stateMutability": "nonpayable",
      "type": "function"
    },
    {
      "inputs": [
        {
          "internalType": "bytes2",
          "name": "region_",
          "type": "bytes2"
        },
        {
          "internalType": "address",
          "name": "beneficiaryVault_",
          "type": "address"
        }
      ],
      "name": "addRegion",
      "outputs": [],
      "stateMutability": "nonpayable",
      "type": "function"
    },
    {
      "inputs": [
        {
          "internalType": "uint256",
          "name": "",
          "type": "uint256"
        }
      ],
      "name": "beneficiaryVaults",
      "outputs": [
        {
          "internalType": "address",
          "name": "",
          "type": "address"
        }
      ],
      "stateMutability": "view",
      "type": "function"
    },
    {
      "inputs": [],
      "name": "defaultRegion",
      "outputs": [
        {
          "internalType": "bytes2",
          "name": "",
          "type": "bytes2"
        }
      ],
      "stateMutability": "view",
      "type": "function"
    },
    {
      "inputs": [],
      "name": "getAllRegions",
      "outputs": [
        {
          "internalType": "bytes2[]",
          "name": "",
          "type": "bytes2[]"
        }
      ],
      "stateMutability": "view",
      "type": "function"
    },
    {
      "inputs": [],
      "name": "getAllVaults",
      "outputs": [
        {
          "internalType": "address[]",
          "name": "",
          "type": "address[]"
        }
      ],
      "stateMutability": "view",
      "type": "function"
    },
    {
      "inputs": [],
      "name": "governance",
      "outputs": [
        {
          "internalType": "address",
          "name": "",
          "type": "address"
        }
      ],
      "stateMutability": "view",
      "type": "function"
    },
    {
      "inputs": [
        {
          "internalType": "address",
          "name": "_governance",
          "type": "address"
        }
      ],
      "name": "nominateNewGovernance",
      "outputs": [],
      "stateMutability": "nonpayable",
      "type": "function"
    },
    {
      "inputs": [],
      "name": "nominatedGovernance",
      "outputs": [
        {
          "internalType": "address",
          "name": "",
          "type": "address"
        }
      ],
      "stateMutability": "view",
      "type": "function"
    },
    {
      "inputs": [
        {
          "internalType": "bytes2",
          "name": "",
          "type": "bytes2"
        }
      ],
      "name": "regionExists",
      "outputs": [
        {
          "internalType": "bool",
          "name": "",
          "type": "bool"
        }
      ],
      "stateMutability": "view",
      "type": "function"
    },
    {
      "inputs": [
        {
          "internalType": "bytes2",
          "name": "",
          "type": "bytes2"
        }
      ],
      "name": "regionVaults",
      "outputs": [
        {
          "internalType": "address",
          "name": "",
          "type": "address"
        }
      ],
      "stateMutability": "view",
      "type": "function"
    },
    {
      "inputs": [
        {
          "internalType": "uint256",
          "name": "",
          "type": "uint256"
        }
      ],
      "name": "regions",
      "outputs": [
        {
          "internalType": "bytes2",
          "name": "",
          "type": "bytes2"
        }
      ],
      "stateMutability": "view",
      "type": "function"
    }
  ],
  "bytecode": "0x60a060405261575760f01b60805234801561001957600080fd5b50604051610a15380380610a158339818101604052602081101561003c57600080fd5b50513380610091576040805162461bcd60e51b815260206004820152601e60248201527f476f7665726e616e636520616464726573732063616e6e6f7420626520300000604482015290519081900360640190fd5b600080546001600160a01b0319166001600160a01b038316908117825560408051928352602083019190915280517f3aaaebeb4821d6a7e5c77ece53cff0afcc56c82add2c978dbbb7f73e84cbcfd29281900390910190a1506002805460018181018355601082047f405787fa12a823e0f2b7631cc41b3ba8828b3321ca811111fa75cd3aa3bb5ace018054600f9093169093026101000a615757810261ffff90910219909216919091179091557fdb63d757cf35430d3ee048c2e0f4bcd2fce000b7f402f1385350299e69eef654805460ff1916821790556003805491820190557fc2575a0e9e593c00f959f8c92f12db2869c3395a3b0502d05e2516446f71f85b0180546001600160a01b039092166001600160a01b0319928316811790915561575760f01b60005260056020527f6d0f87cb173a93cb33a6f4f57642c74a3ff50a9be730e1f9432144a7c939345a80549092161790556080516001600160f01b03191661080761020e600039806104bb52506108076000f3fe608060405234801561001057600080fd5b50600436106100d45760003560e01c806397331bf911610081578063dd7c851a1161005b578063dd7c851a14610209578063fc20a7c814610230578063ffd8a6d914610266576100d4565b806397331bf9146101dc578063aed621c0146101e4578063b5a4a876146101ec576100d4565b80634c0df29f116100b25780634c0df29f146101415780635aa6e6751461017c57806366c76ad914610184576100d4565b8063132abfb6146100d957806314ef685114610113578063238efcbc14610137575b600080fd5b6100f6600480360360208110156100ef57600080fd5b503561028c565b604080516001600160f01b03199092168252519081900360200190f35b61011b6102c0565b604080516001600160a01b039092168252519081900360200190f35b61013f6102cf565b005b6101686004803603602081101561015757600080fd5b50356001600160f01b031916610398565b604080519115158252519081900360200190f35b61011b6103ad565b61018c6103bc565b60408051602080825283518183015283519192839290830191858101910280838360005b838110156101c85781810151838201526020016101b0565b505050509050019250505060405180910390f35b61018c610458565b6100f66104b9565b61011b6004803603602081101561020257600080fd5b50356104dd565b61011b6004803603602081101561021f57600080fd5b50356001600160f01b031916610504565b61013f6004803603604081101561024657600080fd5b5080356001600160f01b03191690602001356001600160a01b031661051f565b61013f6004803603602081101561027c57600080fd5b50356001600160a01b03166106b3565b6002818154811061029957fe5b9060005260206000209060109182820401919006600202915054906101000a900460f01b81565b6001546001600160a01b031681565b6001546001600160a01b031633146103185760405162461bcd60e51b815260040180806020018281038252603681526020018061079c6036913960400191505060405180910390fd5b600054600154604080516001600160a01b03938416815292909116602083015280517f3aaaebeb4821d6a7e5c77ece53cff0afcc56c82add2c978dbbb7f73e84cbcfd29281900390910190a1600180546000805473ffffffffffffffffffffffffffffffffffffffff199081166001600160a01b03841617909155169055565b60046020526000908152604090205460ff1681565b6000546001600160a01b031681565b6060600280548060200260200160405190810160405280929190818152602001828054801561044e57602002820191906000526020600020906000905b82829054906101000a900460f01b7dffffffffffffffffffffffffffffffffffffffffffffffffffffffffffff1916815260200190600201906020826001010492830192600103820291508084116103f95790505b5050505050905090565b6060600380548060200260200160405190810160405280929190818152602001828054801561044e57602002820191906000526020600020905b81546001600160a01b03168152600190910190602001808311610492575050505050905090565b7f000000000000000000000000000000000000000000000000000000000000000081565b600381815481106104ea57fe5b6000918252602090912001546001600160a01b0316905081565b6005602052600090815260409020546001600160a01b031681565b61052761071c565b6001600160f01b0319821660009081526004602052604090205460ff1615610596576040805162461bcd60e51b815260206004820152601560248201527f726567696f6e20616c7265616479206578697374730000000000000000000000604482015290519081900360640190fd5b6002805460018082018355601082047f405787fa12a823e0f2b7631cc41b3ba8828b3321ca811111fa75cd3aa3bb5ace01805460f087901c600f9094169094026101000a92830261ffff9390930219909316919091179091556001600160f01b031983166000818152600460209081526040808320805460ff1916861790556003805495860190557fc2575a0e9e593c00f959f8c92f12db2869c3395a3b0502d05e2516446f71f85b90940180546001600160a01b03871673ffffffffffffffffffffffffffffffffffffffff1991821681179092556005835292859020805490931617909155825191825291517ffffdd41946c3caf32bbf2900fb913df430b58c9d4d4855fc52130a0af8284683929181900390910190a15050565b6106bb61071c565b600180546001600160a01b03831673ffffffffffffffffffffffffffffffffffffffff19909116811790915560408051918252517f1c58cfd31540f5b6a8cfbbe7c225cfccf4ee83b8691dc4d4d0a23a3ef02be5849181900360200190a150565b6000546001600160a01b031633146107655760405162461bcd60e51b81526004018080602001828103825260348152602001806107686034913960400191505060405180910390fd5b56fe4f6e6c792074686520636f6e747261637420676f7665726e616e6365206d617920706572666f726d207468697320616374696f6e596f75206d757374206265206e6f6d696e61746564206265666f726520796f752063616e2061636365707420676f7665726e616e6365a26469706673582212201abda80731557874b2356e2e77d381d113a01330a1a585f73a09632ddf5d8fad64736f6c63430007030033",
  "linkReferences": {},
  "deployedLinkReferences": {}
}