{
  "_format": "hh-sol-artifact-1",
  "contractName": "HysiBatchInteraction",
  "sourceName": "contracts/HysiBatchInteraction.sol",
  "abi": [
    {
      "inputs": [
        {
          "internalType": "contract IERC20",
          "name": "threeCrv_",
          "type": "address"
        },
        {
          "internalType": "contract ISetToken",
          "name": "setToken_",
          "type": "address"
        },
        {
          "internalType": "contract BasicIssuanceModule",
          "name": "basicIssuanceModule_",
          "type": "address"
        },
        {
          "internalType": "address[]",
          "name": "yTokenAddresses_",
          "type": "address[]"
        },
        {
          "components": [
            {
              "internalType": "contract CurveMetapool",
              "name": "curveMetaPool",
              "type": "address"
            },
            {
              "internalType": "contract IERC20",
              "name": "crvLPToken",
              "type": "address"
            }
          ],
          "internalType": "struct HysiBatchInteraction.CurvePoolTokenPair[]",
          "name": "curvePoolTokenPairs_",
          "type": "tuple[]"
        },
        {
          "internalType": "uint256",
          "name": "batchCooldown_",
          "type": "uint256"
        },
        {
          "internalType": "uint256",
          "name": "mintThreshold_",
          "type": "uint256"
        },
        {
          "internalType": "uint256",
          "name": "redeemThreshold_",
          "type": "uint256"
        },
        {
          "internalType": "address",
          "name": "governance_",
          "type": "address"
        },
        {
          "internalType": "contract IERC20",
          "name": "pop_",
          "type": "address"
        }
      ],
      "stateMutability": "nonpayable",
      "type": "constructor"
    },
    {
      "anonymous": false,
      "inputs": [
        {
          "indexed": false,
          "internalType": "uint256",
          "name": "incentiveId",
          "type": "uint256"
        },
        {
          "indexed": false,
          "internalType": "bool",
          "name": "openToEveryone",
          "type": "bool"
        }
      ],
      "name": "ApprovalToggled",
      "type": "event"
    },
    {
      "anonymous": false,
      "inputs": [
        {
          "indexed": false,
          "internalType": "address",
          "name": "account",
          "type": "address"
        }
      ],
      "name": "Approved",
      "type": "event"
    },
    {
      "anonymous": false,
      "inputs": [
        {
          "indexed": true,
          "internalType": "bytes32",
          "name": "batchId",
          "type": "bytes32"
        },
        {
          "indexed": false,
          "internalType": "uint256",
          "name": "suppliedTokenAmount",
          "type": "uint256"
        },
        {
          "indexed": false,
          "internalType": "uint256",
          "name": "hysiAmount",
          "type": "uint256"
        }
      ],
      "name": "BatchMinted",
      "type": "event"
    },
    {
      "anonymous": false,
      "inputs": [
        {
          "indexed": true,
          "internalType": "bytes32",
          "name": "batchId",
          "type": "bytes32"
        },
        {
          "indexed": false,
          "internalType": "uint256",
          "name": "suppliedTokenAmount",
          "type": "uint256"
        },
        {
          "indexed": false,
          "internalType": "uint256",
          "name": "threeCrvAmount",
          "type": "uint256"
        }
      ],
      "name": "BatchRedeemed",
      "type": "event"
    },
    {
      "anonymous": false,
      "inputs": [
        {
          "indexed": true,
          "internalType": "address",
          "name": "account",
          "type": "address"
        },
        {
          "indexed": false,
          "internalType": "enum HysiBatchInteraction.BatchType",
          "name": "batchType",
          "type": "uint8"
        },
        {
          "indexed": false,
          "internalType": "uint256",
          "name": "shares",
          "type": "uint256"
        },
        {
          "indexed": false,
          "internalType": "uint256",
          "name": "claimedToken",
          "type": "uint256"
        }
      ],
      "name": "Claimed",
      "type": "event"
    },
    {
      "anonymous": false,
      "inputs": [
        {
          "indexed": true,
          "internalType": "address",
          "name": "from",
          "type": "address"
        },
        {
          "indexed": false,
          "internalType": "uint256",
          "name": "deposit",
          "type": "uint256"
        }
      ],
      "name": "Deposit",
      "type": "event"
    },
    {
      "anonymous": false,
      "inputs": [
        {
          "indexed": false,
          "internalType": "address",
          "name": "oldGovernance",
          "type": "address"
        },
        {
          "indexed": false,
          "internalType": "address",
          "name": "newGovernance",
          "type": "address"
        }
      ],
      "name": "GovernanceChanged",
      "type": "event"
    },
    {
      "anonymous": false,
      "inputs": [
        {
          "indexed": false,
          "internalType": "address",
          "name": "newGovernance",
          "type": "address"
        }
      ],
      "name": "GovernanceNominated",
      "type": "event"
    },
    {
      "anonymous": false,
      "inputs": [
        {
          "indexed": false,
          "internalType": "uint256",
          "name": "incentiveId",
          "type": "uint256"
        }
      ],
      "name": "IncentiveChanged",
      "type": "event"
    },
    {
      "anonymous": false,
      "inputs": [
        {
          "indexed": false,
          "internalType": "uint256",
          "name": "incentiveId",
          "type": "uint256"
        }
      ],
      "name": "IncentiveCreated",
      "type": "event"
    },
    {
      "anonymous": false,
      "inputs": [
        {
          "indexed": false,
          "internalType": "uint256",
          "name": "amount",
          "type": "uint256"
        }
      ],
      "name": "IncentiveFunded",
      "type": "event"
    },
    {
      "anonymous": false,
      "inputs": [
        {
          "indexed": false,
          "internalType": "uint256",
          "name": "incentiveId",
          "type": "uint256"
        },
        {
          "indexed": false,
          "internalType": "bool",
          "name": "enabled",
          "type": "bool"
        }
      ],
      "name": "IncentiveToggled",
      "type": "event"
    },
    {
      "anonymous": false,
      "inputs": [
        {
          "indexed": false,
          "internalType": "uint256",
          "name": "amount",
          "type": "uint256"
        },
        {
          "indexed": false,
          "internalType": "enum HysiBatchInteraction.BatchType",
          "name": "batchType",
          "type": "uint8"
        },
        {
          "indexed": false,
          "internalType": "address",
          "name": "account",
          "type": "address"
        }
      ],
      "name": "MovedUnclaimedDepositsIntoCurrentBatch",
      "type": "event"
    },
    {
      "anonymous": false,
      "inputs": [
        {
          "indexed": false,
          "internalType": "address",
          "name": "oldOwner",
          "type": "address"
        },
        {
          "indexed": false,
          "internalType": "address",
          "name": "newOwner",
          "type": "address"
        }
      ],
      "name": "OwnerChanged",
      "type": "event"
    },
    {
      "anonymous": false,
      "inputs": [
        {
          "indexed": false,
          "internalType": "address",
          "name": "newOwner",
          "type": "address"
        }
      ],
      "name": "OwnerNominated",
      "type": "event"
    },
    {
      "anonymous": false,
      "inputs": [
        {
          "indexed": false,
          "internalType": "address",
          "name": "account",
          "type": "address"
        }
      ],
      "name": "RemovedApproval",
      "type": "event"
    },
    {
      "anonymous": false,
      "inputs": [
        {
          "indexed": false,
          "internalType": "contract ISetToken",
          "name": "setToken",
          "type": "address"
        }
      ],
      "name": "TokenSetAdded",
      "type": "event"
    },
    {
      "anonymous": false,
      "inputs": [
        {
          "indexed": true,
          "internalType": "address",
          "name": "to",
          "type": "address"
        },
        {
          "indexed": false,
          "internalType": "uint256",
          "name": "amount",
          "type": "uint256"
        }
      ],
      "name": "Withdrawal",
      "type": "event"
    },
    {
      "anonymous": false,
      "inputs": [
        {
          "indexed": false,
          "internalType": "bytes32",
          "name": "batchId",
          "type": "bytes32"
        },
        {
          "indexed": false,
          "internalType": "uint256",
          "name": "amount",
          "type": "uint256"
        },
        {
          "indexed": false,
          "internalType": "address",
          "name": "to",
          "type": "address"
        }
      ],
      "name": "WithdrawnFromBatch",
      "type": "event"
    },
    {
      "inputs": [],
      "name": "POP",
      "outputs": [
        {
          "internalType": "contract IERC20",
          "name": "",
          "type": "address"
        }
      ],
      "stateMutability": "view",
      "type": "function"
    },
    {
      "inputs": [],
      "name": "acceptGovernance",
      "outputs": [],
      "stateMutability": "nonpayable",
      "type": "function"
    },
    {
      "inputs": [],
      "name": "acceptOwnership",
      "outputs": [],
      "stateMutability": "nonpayable",
      "type": "function"
    },
    {
      "inputs": [
        {
          "internalType": "bytes32",
          "name": "",
          "type": "bytes32"
        },
        {
          "internalType": "address",
          "name": "",
          "type": "address"
        }
      ],
      "name": "accountBalances",
      "outputs": [
        {
          "internalType": "uint256",
          "name": "",
          "type": "uint256"
        }
      ],
      "stateMutability": "view",
      "type": "function"
    },
    {
      "inputs": [
        {
          "internalType": "address",
          "name": "",
          "type": "address"
        },
        {
          "internalType": "uint256",
          "name": "",
          "type": "uint256"
        }
      ],
      "name": "accountBatches",
      "outputs": [
        {
          "internalType": "bytes32",
          "name": "",
          "type": "bytes32"
        }
      ],
      "stateMutability": "view",
      "type": "function"
    },
    {
      "inputs": [
        {
          "internalType": "address",
          "name": "_account",
          "type": "address"
        }
      ],
      "name": "approveAccount",
      "outputs": [],
      "stateMutability": "nonpayable",
      "type": "function"
    },
    {
      "inputs": [
        {
          "internalType": "address",
          "name": "",
          "type": "address"
        }
      ],
      "name": "approved",
      "outputs": [
        {
          "internalType": "bool",
          "name": "",
          "type": "bool"
        }
      ],
      "stateMutability": "view",
      "type": "function"
    },
    {
      "inputs": [],
      "name": "batchCooldown",
      "outputs": [
        {
          "internalType": "uint256",
          "name": "",
          "type": "uint256"
        }
      ],
      "stateMutability": "view",
      "type": "function"
    },
    {
      "inputs": [
        {
          "internalType": "uint256",
          "name": "",
          "type": "uint256"
        }
      ],
      "name": "batchIds",
      "outputs": [
        {
          "internalType": "bytes32",
          "name": "",
          "type": "bytes32"
        }
      ],
      "stateMutability": "view",
      "type": "function"
    },
    {
      "inputs": [
        {
          "internalType": "uint256",
          "name": "minAmountToMint_",
          "type": "uint256"
        }
      ],
      "name": "batchMint",
      "outputs": [],
      "stateMutability": "nonpayable",
      "type": "function"
    },
    {
      "inputs": [
        {
          "internalType": "uint256",
          "name": "min3crvToReceive_",
          "type": "uint256"
        }
      ],
      "name": "batchRedeem",
      "outputs": [],
      "stateMutability": "nonpayable",
      "type": "function"
    },
    {
      "inputs": [
        {
          "internalType": "bytes32",
          "name": "",
          "type": "bytes32"
        }
      ],
      "name": "batches",
      "outputs": [
        {
          "internalType": "enum HysiBatchInteraction.BatchType",
          "name": "batchType",
          "type": "uint8"
        },
        {
          "internalType": "bytes32",
          "name": "batchId",
          "type": "bytes32"
        },
        {
          "internalType": "bool",
          "name": "claimable",
          "type": "bool"
        },
        {
          "internalType": "uint256",
          "name": "unclaimedShares",
          "type": "uint256"
        },
        {
          "internalType": "uint256",
          "name": "suppliedTokenBalance",
          "type": "uint256"
        },
        {
          "internalType": "uint256",
          "name": "claimableTokenBalance",
          "type": "uint256"
        },
        {
          "internalType": "address",
          "name": "suppliedTokenAddress",
          "type": "address"
        },
        {
          "internalType": "address",
          "name": "claimableTokenAddress",
          "type": "address"
        }
      ],
      "stateMutability": "view",
      "type": "function"
    },
    {
      "inputs": [
        {
          "internalType": "bytes32",
          "name": "batchId_",
          "type": "bytes32"
        },
        {
          "internalType": "address",
          "name": "claimFor_",
          "type": "address"
        }
      ],
      "name": "claim",
      "outputs": [
        {
          "internalType": "uint256",
          "name": "",
          "type": "uint256"
        }
      ],
      "stateMutability": "nonpayable",
      "type": "function"
    },
    {
      "inputs": [
        {
          "internalType": "uint256",
          "name": "_reward",
          "type": "uint256"
        },
        {
          "internalType": "bool",
          "name": "_enabled",
          "type": "bool"
        },
        {
          "internalType": "bool",
          "name": "_openToEveryone",
          "type": "bool"
        }
      ],
      "name": "createIncentive",
      "outputs": [
        {
          "internalType": "uint256",
          "name": "",
          "type": "uint256"
        }
      ],
      "stateMutability": "nonpayable",
      "type": "function"
    },
    {
      "inputs": [],
      "name": "currentMintBatchId",
      "outputs": [
        {
          "internalType": "bytes32",
          "name": "",
          "type": "bytes32"
        }
      ],
      "stateMutability": "view",
      "type": "function"
    },
    {
      "inputs": [],
      "name": "currentRedeemBatchId",
      "outputs": [
        {
          "internalType": "bytes32",
          "name": "",
          "type": "bytes32"
        }
      ],
      "stateMutability": "view",
      "type": "function"
    },
    {
      "inputs": [
        {
          "internalType": "address",
          "name": "",
          "type": "address"
        }
      ],
      "name": "curvePoolTokenPairs",
      "outputs": [
        {
          "internalType": "contract CurveMetapool",
          "name": "curveMetaPool",
          "type": "address"
        },
        {
          "internalType": "contract IERC20",
          "name": "crvLPToken",
          "type": "address"
        }
      ],
      "stateMutability": "view",
      "type": "function"
    },
    {
      "inputs": [
        {
          "internalType": "uint256",
          "name": "amount_",
          "type": "uint256"
        },
        {
          "internalType": "address",
          "name": "depositFor_",
          "type": "address"
        }
      ],
      "name": "depositForMint",
      "outputs": [],
      "stateMutability": "nonpayable",
      "type": "function"
    },
    {
      "inputs": [
        {
          "internalType": "uint256",
          "name": "amount_",
          "type": "uint256"
        }
      ],
      "name": "depositForRedeem",
      "outputs": [],
      "stateMutability": "nonpayable",
      "type": "function"
    },
    {
      "inputs": [
        {
          "internalType": "uint256",
          "name": "_amount",
          "type": "uint256"
        }
      ],
      "name": "fundIncentive",
      "outputs": [],
      "stateMutability": "nonpayable",
      "type": "function"
    },
    {
      "inputs": [
        {
          "internalType": "address",
          "name": "account",
          "type": "address"
        }
      ],
      "name": "getAccountBatches",
      "outputs": [
        {
          "internalType": "bytes32[]",
          "name": "",
          "type": "bytes32[]"
        }
      ],
      "stateMutability": "view",
      "type": "function"
    },
    {
      "inputs": [],
      "name": "governance",
      "outputs": [
        {
          "internalType": "address",
          "name": "",
          "type": "address"
        }
      ],
      "stateMutability": "view",
      "type": "function"
    },
    {
      "inputs": [],
      "name": "incentiveBudget",
      "outputs": [
        {
          "internalType": "uint256",
          "name": "",
          "type": "uint256"
        }
      ],
      "stateMutability": "view",
      "type": "function"
    },
    {
      "inputs": [
        {
          "internalType": "uint256",
          "name": "",
          "type": "uint256"
        }
      ],
      "name": "incentives",
      "outputs": [
        {
          "internalType": "uint256",
          "name": "reward",
          "type": "uint256"
        },
        {
          "internalType": "bool",
          "name": "enabled",
          "type": "bool"
        },
        {
          "internalType": "bool",
          "name": "openToEveryone",
          "type": "bool"
        }
      ],
      "stateMutability": "view",
      "type": "function"
    },
    {
      "inputs": [],
      "name": "lastMintedAt",
      "outputs": [
        {
          "internalType": "uint256",
          "name": "",
          "type": "uint256"
        }
      ],
      "stateMutability": "view",
      "type": "function"
    },
    {
      "inputs": [],
      "name": "lastRedeemedAt",
      "outputs": [
        {
          "internalType": "uint256",
          "name": "",
          "type": "uint256"
        }
      ],
      "stateMutability": "view",
      "type": "function"
    },
    {
      "inputs": [],
      "name": "mintThreshold",
      "outputs": [
        {
          "internalType": "uint256",
          "name": "",
          "type": "uint256"
        }
      ],
      "stateMutability": "view",
      "type": "function"
    },
    {
      "inputs": [
        {
          "internalType": "bytes32[]",
          "name": "batchIds",
          "type": "bytes32[]"
        },
        {
          "internalType": "uint256[]",
          "name": "shares",
          "type": "uint256[]"
        },
        {
          "internalType": "enum HysiBatchInteraction.BatchType",
          "name": "batchType",
          "type": "uint8"
        }
      ],
      "name": "moveUnclaimedDepositsIntoCurrentBatch",
      "outputs": [],
      "stateMutability": "nonpayable",
      "type": "function"
    },
    {
      "inputs": [
        {
          "internalType": "address",
          "name": "_governance",
          "type": "address"
        }
      ],
      "name": "nominateNewGovernance",
      "outputs": [],
      "stateMutability": "nonpayable",
      "type": "function"
    },
    {
      "inputs": [
        {
          "internalType": "address",
          "name": "_owner",
          "type": "address"
        }
      ],
      "name": "nominateNewOwner",
      "outputs": [],
      "stateMutability": "nonpayable",
      "type": "function"
    },
    {
      "inputs": [],
      "name": "nominatedGovernance",
      "outputs": [
        {
          "internalType": "address",
          "name": "",
          "type": "address"
        }
      ],
      "stateMutability": "view",
      "type": "function"
    },
    {
      "inputs": [],
      "name": "nominatedOwner",
      "outputs": [
        {
          "internalType": "address",
          "name": "",
          "type": "address"
        }
      ],
      "stateMutability": "view",
      "type": "function"
    },
    {
      "inputs": [],
      "name": "owner",
      "outputs": [
        {
          "internalType": "address",
          "name": "",
          "type": "address"
        }
      ],
      "stateMutability": "view",
      "type": "function"
    },
    {
      "inputs": [],
      "name": "redeemThreshold",
      "outputs": [
        {
          "internalType": "uint256",
          "name": "",
          "type": "uint256"
        }
      ],
      "stateMutability": "view",
      "type": "function"
    },
    {
      "inputs": [
        {
          "internalType": "address",
          "name": "_account",
          "type": "address"
        }
      ],
      "name": "removeApproval",
      "outputs": [],
      "stateMutability": "nonpayable",
      "type": "function"
    },
    {
      "inputs": [],
      "name": "setBasicIssuanceModule",
      "outputs": [
        {
          "internalType": "contract BasicIssuanceModule",
          "name": "",
          "type": "address"
        }
      ],
      "stateMutability": "view",
      "type": "function"
    },
    {
      "inputs": [
        {
          "internalType": "uint256",
          "name": "cooldown_",
          "type": "uint256"
        }
      ],
      "name": "setBatchCooldown",
      "outputs": [],
      "stateMutability": "nonpayable",
      "type": "function"
    },
    {
      "inputs": [
        {
          "internalType": "address[]",
          "name": "yTokenAddresses_",
          "type": "address[]"
        },
        {
          "components": [
            {
              "internalType": "contract CurveMetapool",
              "name": "curveMetaPool",
              "type": "address"
            },
            {
              "internalType": "contract IERC20",
              "name": "crvLPToken",
              "type": "address"
            }
          ],
          "internalType": "struct HysiBatchInteraction.CurvePoolTokenPair[]",
          "name": "curvePoolTokenPairs_",
          "type": "tuple[]"
        }
      ],
      "name": "setCurvePoolTokenPairs",
      "outputs": [],
      "stateMutability": "nonpayable",
      "type": "function"
    },
    {
      "inputs": [
        {
          "internalType": "uint256",
          "name": "threshold_",
          "type": "uint256"
        }
      ],
      "name": "setMintThreshold",
      "outputs": [],
      "stateMutability": "nonpayable",
      "type": "function"
    },
    {
      "inputs": [
        {
          "internalType": "uint256",
          "name": "threshold_",
          "type": "uint256"
        }
      ],
      "name": "setRedeemThreshold",
      "outputs": [],
      "stateMutability": "nonpayable",
      "type": "function"
    },
    {
      "inputs": [],
      "name": "setToken",
      "outputs": [
        {
          "internalType": "contract ISetToken",
          "name": "",
          "type": "address"
        }
      ],
      "stateMutability": "view",
      "type": "function"
    },
    {
      "inputs": [
        {
          "internalType": "address",
          "name": "zapper_",
          "type": "address"
        }
      ],
      "name": "setZapper",
      "outputs": [],
      "stateMutability": "nonpayable",
      "type": "function"
    },
    {
      "inputs": [],
      "name": "threeCrv",
      "outputs": [
        {
          "internalType": "contract IERC20",
          "name": "",
          "type": "address"
        }
      ],
      "stateMutability": "view",
      "type": "function"
    },
    {
      "inputs": [
        {
          "internalType": "uint256",
          "name": "_incentiveId",
          "type": "uint256"
        }
      ],
      "name": "toggleApproval",
      "outputs": [],
      "stateMutability": "nonpayable",
      "type": "function"
    },
    {
      "inputs": [
        {
          "internalType": "uint256",
          "name": "_incentiveId",
          "type": "uint256"
        }
      ],
      "name": "toggleIncentive",
      "outputs": [],
      "stateMutability": "nonpayable",
      "type": "function"
    },
    {
      "inputs": [
        {
          "internalType": "uint256",
          "name": "_incentiveId",
          "type": "uint256"
        },
        {
          "internalType": "uint256",
          "name": "_reward",
          "type": "uint256"
        },
        {
          "internalType": "bool",
          "name": "_enabled",
          "type": "bool"
        },
        {
          "internalType": "bool",
          "name": "_openToEveryone",
          "type": "bool"
        }
      ],
      "name": "updateIncentive",
      "outputs": [],
      "stateMutability": "nonpayable",
      "type": "function"
    },
    {
      "inputs": [
        {
          "internalType": "bytes32",
          "name": "batchId_",
          "type": "bytes32"
        },
        {
          "internalType": "uint256",
          "name": "amountToWithdraw_",
          "type": "uint256"
        },
        {
          "internalType": "address",
          "name": "withdrawFor_",
          "type": "address"
        }
      ],
      "name": "withdrawFromBatch",
      "outputs": [],
      "stateMutability": "nonpayable",
      "type": "function"
    },
    {
      "inputs": [],
      "name": "zapper",
      "outputs": [
        {
          "internalType": "address",
          "name": "",
          "type": "address"
        }
      ],
      "stateMutability": "view",
      "type": "function"
    }
  ],
  "bytecode": "0x60a06040523480156200001157600080fd5b5060405162004c8638038062004c86833981016040819052620000349162000699565b8181813380620000615760405162461bcd60e51b8152600401620000589062000839565b60405180910390fd5b600080546001600160a01b0319166001600160a01b0383161781556040517fb532073b38c83145e3e5135377a08bf9aab55bc0fd7c1179cd4fb995d2a5159c91620000ae9184906200078b565b60405180910390a1506001600160a01b038116620000e05760405162461bcd60e51b81526004016200005890620007a5565b600280546001600160a01b0319166001600160a01b0383161790556040517f3aaaebeb4821d6a7e5c77ece53cff0afcc56c82add2c978dbbb7f73e84cbcfd290620001309060009084906200078b565b60405180910390a1506001600160601b0319606082901b1660805262000162678ac7230489e80000600160006200023e565b5050506001600160a01b038a166200017957600080fd5b6001600160a01b0389166200018d57600080fd5b6001600160a01b038816620001a157600080fd5b600780546001600160a01b03808d166001600160a01b031992831617909255600980548c841690831617905560088054928b1692909116919091179055620001ea878762000332565b60148590556015849055601683905542601081905560115562000216631b5a5b9d60e21b6000620003c7565b506200022d6572656465656d60d01b6001620003c7565b5050505050505050505050620008d4565b60006200024a620004e6565b604080516060810182528581528415156020820190815284151582840190815260048054600181018255600082905293517f8a35acfbc15ff81a39ae7d344fd709f28e8600b4aa8c65c6b64bfe7fe36bd19b60029095029485015591517f8a35acfbc15ff81a39ae7d344fd709f28e8600b4aa8c65c6b64bfe7fe36bd19c9093018054915160ff199092169315159390931761ff00191661010091151591909102179091555490517f7d84860e1fc1ed3049c4f95ac22b081621477f749947cd30272d654c27a1a1a5916200031f9162000870565b60405180910390a1506004549392505050565b60005b8251811015620003c2578181815181106200034c57fe5b6020026020010151600b60008584815181106200036557fe5b6020908102919091018101516001600160a01b039081168352828201939093526040909101600020835181549084166001600160a01b03199182161782559390910151600191820180549190931693169290921790550162000335565b505050565b600080620003d58462000515565b600f805460018181019092557f8d1108e10bcb7c27dddfc02ed9d693a074039d026cf4ea4240b40f7d581ac802018290556000828152600e602052604090208054929350918591839160ff19169083818111156200042f57fe5b0217905550600180820183905584908111156200044857fe5b6200048c576012829055600780546006830180546001600160a01b039283166001600160a01b03199182161790915560095492840180549390921692169190911790555b8360018111156200049957fe5b60011415620004de5760138290556009546006820180546001600160a01b039283166001600160a01b0319918216179091556007805490840180549190931691161790555b509392505050565b6002546001600160a01b03163314620005135760405162461bcd60e51b81526004016200005890620007dc565b565b600042826040516020016200052c9291906200077d565b6040516020818303038152906040528051906020012090505b919050565b80516200054581620008bb565b600082601f83011262000568578081fd5b81516200057f62000579826200089d565b62000879565b818152915060208083019084810181840286018201871015620005a157600080fd5b60005b84811015620005cd578151620005ba81620008bb565b84529282019290820190600101620005a4565b505050505092915050565b600082601f830112620005e9578081fd5b8151620005fa62000579826200089d565b81815291506020808301908481016040808502870183018810156200061e57600080fd5b6000805b868110156200068c5782848b0312156200063a578182fd5b82518084016001600160401b03811182821017156200065557fe5b845284516200066481620008bb565b8152848601516200067581620008bb565b818701528652948401949282019260010162000622565b5050505050505092915050565b6000806000806000806000806000806101408b8d031215620006b9578586fd5b620006c48b6200054a565b9950620006d460208c016200054a565b9850620006e460408c016200054a565b60608c01519098506001600160401b038082111562000701578788fd5b6200070f8e838f0162000557565b985060808d015191508082111562000725578788fd5b50620007348d828e01620005d8565b96505060a08b0151945060c08b0151935060e08b015192506200075b6101008c016200054a565b91506200076c6101208c016200054a565b90509295989b9194979a5092959850565b918252602082015260400190565b6001600160a01b0392831681529116602082015260400190565b6020808252601e908201527f476f7665726e616e636520616464726573732063616e6e6f7420626520300000604082015260600190565b60208082526034908201527f4f6e6c792074686520636f6e747261637420676f7665726e616e6365206d617960408201527f20706572666f726d207468697320616374696f6e000000000000000000000000606082015260800190565b60208082526019908201527f4f776e657220616464726573732063616e6e6f74206265203000000000000000604082015260600190565b90815260200190565b6040518181016001600160401b03811182821017156200089557fe5b604052919050565b60006001600160401b03821115620008b157fe5b5060209081020190565b6001600160a01b0381168114620008d157600080fd5b50565b60805160601c61437b6200090b60003980610a53528061113d5280611386528061141e528061210852806121a0525061437b6000f3fe608060405234801561001057600080fd5b50600436106103205760003560e01c806379ba5097116101a7578063b3d346b9116100ee578063e121c10211610097578063eddcb7d111610071578063eddcb7d114610626578063f89f4e771461062e578063ffd8a6d91461064157610320565b8063e121c102146105e9578063ed09e19d1461060b578063ed9cf58c1461061e57610320565b8063d030d2b3116100c8578063d030d2b3146105a3578063d75e9527146105b6578063d8b964e6146105c957610320565b8063b3d346b914610556578063c81e25ab14610569578063cd02bd7f1461059057610320565b8063961b7d86116101505780639c8dead21161012a5780639c8dead214610533578063a7a217121461053b578063ab6a55391461054357610320565b8063961b7d86146104ec57806396c144f0146104ff578063976874cc1461051257610320565b80638da5cb5b116101815780638da5cb5b146104d457806390d1f245146104dc57806390f2ca87146104e457610320565b806379ba5097146104a65780637cab5e8c146104ae5780638467be0d146104c157610320565b80633af3bfb51161026b57806353a47bb71161021457806361c94885116101ee57806361c94885146104785780636c660b011461048b5780637190bc291461049357610320565b806353a47bb7146104605780635a3f0ca0146104685780635aa6e6751461047057610320565b80634243517511610245578063424351751461042757806342f5e9f41461043a578063493f43bb1461044d57610320565b80633af3bfb5146103f95780633eea44fe1461040c57806341267de51461041f57610320565b8063264c7984116102cd5780632a9ca996116102a75780632a9ca996146103e15780632da9a694146103e957806337391580146103f157610320565b8063264c7984146103a657806327360d69146103ae57806328d3ef0b146103c157610320565b80631627540c116102fe5780631627540c146103785780631c5f82eb1461038b578063238efcbc1461039e57610320565b806307da06a51461032557806308c8cb871461033a57806314ef685114610363575b600080fd5b61033861033336600461364e565b610654565b005b61034d6103483660046137dd565b6108e8565b60405161035a9190613986565b60405180910390f35b61036b6109d9565b60405161035a9190613894565b61033861038636600461347c565b6109e8565b6103386103993660046136ee565b610a46565b610338610abb565b61034d610b57565b6103386103bc3660046136ee565b610b5d565b6103d46103cf36600461347c565b610c92565b60405161035a91906138ff565b61036b610cfe565b61036b610d0d565b61034d610d1c565b610338610407366004613735565b610d22565b61033861041a3660046136ee565b610e75565b61034d610e82565b61033861043536600461347c565b610e88565b6103386104483660046136ee565b610edb565b61033861045b3660046136ee565b610f99565b61036b61105f565b61034d61106e565b61036b611074565b610338610486366004613813565b611083565b61036b61113b565b6103386104a13660046134c3565b61115f565b6103386111c8565b6103386104bc36600461347c565b611264565b6103386104cf3660046136ee565b6112bc565b61036b611cdc565b61034d611ceb565b61034d611cf1565b6103386104fa366004613706565b611cf7565b61034d61050d366004613706565b611e6a565b61052561052036600461347c565b612003565b60405161035a9291906138cc565b61034d612029565b61036b61202f565b6103386105513660046136ee565b61203e565b61034d6105643660046136ee565b6127d0565b61057c6105773660046136ee565b6127ee565b60405161035a9897969594939291906139d1565b61033861059e3660046136ee565b612844565b61034d6105b1366004613498565b612851565b6103386105c43660046136ee565b61287f565b6105dc6105d736600461347c565b61288c565b60405161035a919061397b565b6105fc6105f73660046136ee565b6128a1565b60405161035a93929190614258565b61034d610619366004613706565b6128d8565b61036b6128f5565b61034d612904565b61033861063c36600461347c565b61290a565b61033861064f36600461347c565b612965565b83821461067c5760405162461bcd60e51b815260040161067390613bf4565b60405180910390fd5b6000805b85811015610846576000600e600089898581811061069a57fe5b6020908102929092013583525081810192909252604090810160009081206001808201548352600c85528383203384529094529190205460028201549193509160ff9091161515146106fe5760405162461bcd60e51b815260040161067390613b4f565b84600181111561070a57fe5b825460ff16600181111561071a57fe5b146107375760405162461bcd60e51b815260040161067390613d62565b86868481811061074357fe5b905060200201358110156107695760405162461bcd60e51b8152600401610673906141da565b60006107a2836003015461079c8a8a8881811061078257fe5b9050602002013586600501546129b890919063ffffffff16565b906129f2565b60058401549091506107b49082612a24565b60058401556107e28888868181106107c857fe5b905060200201358460030154612a2490919063ffffffff16565b600384015561080c8888868181106107f657fe5b9050602002013583612a2490919063ffffffff16565b60018401546000908152600c602090815260408083203384529091529020556108358582612a4c565b945050600190920191506106809050565b50600081116108675760405162461bcd60e51b815260040161067390613a84565b81600181111561087357fe5b610884576108848160135433612a71565b81600181111561089057fe5b600114156108a5576108a58160125433612a71565b7ffacb7348a2212313d980cebc23550b0462adb394310473ee7758995398765c708183336040516108d893929190614270565b60405180910390a1505050505050565b60006108f2612b52565b604080516060810182528581528415156020820190815284151582840190815260048054600181018255600082905293517f8a35acfbc15ff81a39ae7d344fd709f28e8600b4aa8c65c6b64bfe7fe36bd19b60029095029485015591517f8a35acfbc15ff81a39ae7d344fd709f28e8600b4aa8c65c6b64bfe7fe36bd19c9093018054915160ff199092169315159390931761ff00191661010091151591909102179091555490517f7d84860e1fc1ed3049c4f95ac22b081621477f749947cd30272d654c27a1a1a5916109c591613986565b60405180910390a1506004545b9392505050565b6003546001600160a01b031681565b6109f0612b7e565b600180546001600160a01b0319166001600160a01b0383161790556040517f906a1c6bd7e3091ea86693dd029a831c19049ce77f1dce2ce0bab1cacbabce2290610a3b908390613894565b60405180910390a150565b610a7b6001600160a01b037f000000000000000000000000000000000000000000000000000000000000000016333084612ba8565b600554610a889082612a4c565b6005556040517f9ad4c05cff4861564f4d1572799ac5d03d82f40ea702646c7b3bfd552f570cde90610a3b908390613986565b6003546001600160a01b03163314610ae55760405162461bcd60e51b8152600401610673906140b2565b6002546003546040517f3aaaebeb4821d6a7e5c77ece53cff0afcc56c82add2c978dbbb7f73e84cbcfd292610b28926001600160a01b03918216929116906138cc565b60405180910390a160038054600280546001600160a01b03199081166001600160a01b03841617909155169055565b60105481565b6009546040516370a0823160e01b815282916001600160a01b0316906370a0823190610b8d903390600401613894565b60206040518083038186803b158015610ba557600080fd5b505afa158015610bb9573d6000803e3d6000fd5b505050506040513d601f19601f82011682018060405250810190610bdd91906137c5565b1015610bfb5760405162461bcd60e51b81526004016106739061400f565b6009546040516323b872dd60e01b81526001600160a01b03909116906323b872dd90610c2f903390309086906004016138a8565b602060405180830381600087803b158015610c4957600080fd5b505af1158015610c5d573d6000803e3d6000fd5b505050506040513d601f19601f82011682018060405250810190610c8191906136d2565b50610c8f8160135433612a71565b50565b6001600160a01b0381166000908152600d6020908152604091829020805483518184028101840190945280845260609392830182828015610cf257602002820191906000526020600020905b815481526020019060010190808311610cde575b50505050509050919050565b6008546001600160a01b031681565b6007546001600160a01b031681565b60145481565b6000610d2d82612c33565b6000858152600e60209081526040808320600c83528184206001600160a01b0388168552909252909120546002820154929350909160ff1615610d825760405162461bcd60e51b815260040161067390613fd8565b84811015610da25760405162461bcd60e51b8152600401610673906141da565b610dac8186612a24565b6000878152600c602090815260408083206001600160a01b03891684529091529020556004820154610dde9086612a24565b60048301556003820154610df29086612a24565b60038301556000825460ff166001811115610e0957fe5b1415610e2b57600754610e26906001600160a01b03168487612c90565b610e42565b600954610e42906001600160a01b03168487612c90565b7f08afc380d5171e1371c567cd7562cc8ff4e9c38c66d5e479c613fdf38106d8458686866040516108d89392919061398f565b610e7d612b7e565b601455565b60055481565b610e90612b7e565b600a546001600160a01b031615610eb95760405162461bcd60e51b815260040161067390613fa1565b600a80546001600160a01b0319166001600160a01b0392909216919091179055565b610ee3612b52565b60048181548110610ef057fe5b906000526020600020906002020160010160009054906101000a900460ff161560048281548110610f1d57fe5b906000526020600020906002020160010160006101000a81548160ff0219169083151502179055507f051f998dd825d3013afdc6c3a8d515e73d5816bff7238ddccb4e85131e6fd1a08160048381548110610f7457fe5b6000918252602090912060016002909202010154604051610a3b929160ff1690614248565b610fa1612b52565b60048181548110610fae57fe5b906000526020600020906002020160010160019054906101000a900460ff161560048281548110610fdb57fe5b906000526020600020906002020160010160016101000a81548160ff0219169083151502179055507fa51d6c9733fd63b5d3d7f72181e83ef039954a7c1748775a99f4ceb8edbef100816004838154811061103257fe5b906000526020600020906002020160010160019054906101000a900460ff16604051610a3b929190614248565b6001546001600160a01b031681565b60115481565b6002546001600160a01b031681565b61108b612b52565b60405180606001604052808481526020018315158152602001821515815250600485815481106110b757fe5b60009182526020918290208351600290920201908155908201516001909101805460409384015115156101000261ff001993151560ff199092169190911792909216919091179055517fb6eadbf6d08d9dab781edecc3f924ce28080fc3e1c8e1356fe758d68020e76409061112d908690613986565b60405180910390a150505050565b7f000000000000000000000000000000000000000000000000000000000000000081565b611167612b7e565b6111c3838383808060200260200160405190810160405280939291908181526020016000905b828210156111b9576111aa6040830286013681900381019061376d565b8152602001906001019061118d565b5050505050612caf565b505050565b6001546001600160a01b031633146111f25760405162461bcd60e51b815260040161067390613abb565b6000546001546040517fb532073b38c83145e3e5135377a08bf9aab55bc0fd7c1179cd4fb995d2a5159c92611235926001600160a01b03918216929116906138cc565b60405180910390a160018054600080546001600160a01b03199081166001600160a01b03841617909155169055565b61126c612b52565b6001600160a01b03811660009081526006602052604090819020805460ff19169055517ffd14bcb80907f44e9de03a8c122d3324befad6501ae8481ab277b809227bc8de90610a3b908390613894565b6004546000901561144a576000600482815481106112d657fe5b906000526020600020906002020190508060010160019054906101000a900460ff16611340573360009081526006602052604090205460ff168061132457506002546001600160a01b031633145b6113405760405162461bcd60e51b815260040161067390613c2b565b600181015460ff1680156113575750600554815411155b1561144857805460055461136a91612a24565b600555805460405163095ea7b360e01b81526001600160a01b037f0000000000000000000000000000000000000000000000000000000000000000169163095ea7b3916113bb9130916004016138e6565b602060405180830381600087803b1580156113d557600080fd5b505af11580156113e9573d6000803e3d6000fd5b505050506040513d601f19601f8201168201806040525081019061140d91906136d2565b508054611448906001600160a01b037f0000000000000000000000000000000000000000000000000000000000000000169030903390612ba8565b505b6012546000908152600e6020526040902060145460105461146c904290612a24565b10158061147f5750601554816004015410155b61149b5760405162461bcd60e51b815260040161067390614046565b600281015460ff16156114c05760405162461bcd60e51b815260040161067390614211565b6004808201546007546040516370a0823160e01b815291926001600160a01b03909116916370a08231916114f691309101613894565b60206040518083038186803b15801561150e57600080fd5b505afa158015611522573d6000803e3d6000fd5b505050506040513d601f19601f8201168201806040525081019061154691906137c5565b10156115645760405162461bcd60e51b815260040161067390613d99565b600854600954604051637a4ffd0360e01b815260609283926001600160a01b0391821692637a4ffd03926115a6921690670de0b6b3a7640000906004016138e6565b60006040518083038186803b1580156115be57600080fd5b505afa1580156115d2573d6000803e3d6000fd5b505050506040513d6000823e601f3d908101601f191682016040526115fa919081019061358b565b9150915060006060825167ffffffffffffffff8111801561161a57600080fd5b50604051908082528060200260200182016040528015611644578160200160208202803683370190505b50905060005b84518110156118b857600085828151811061166157fe5b60200260200101516001600160a01b03166399530b066040518163ffffffff1660e01b815260040160206040518083038186803b1580156116a157600080fd5b505afa1580156116b5573d6000803e3d6000fd5b505050506040513d601f19601f820116820180604052508101906116d991906137c5565b905060006117bf600b60008986815181106116f057fe5b6020908102919091018101516001600160a01b0390811683529082019290925260409081016000205490517fcc2b27d700000000000000000000000000000000000000000000000000000000815291169063cc2b27d79061176090670de0b6b3a764000090600190600401613a40565b60206040518083038186803b15801561177857600080fd5b505afa15801561178c573d6000803e3d6000fd5b505050506040513d601f19601f820116820180604052508101906117b091906137c5565b671bc16d674ec8000090612a24565b905060006117d9670de0b6b3a764000061079c85856129b8565b90506000611882670de0b6b3a764000061079c848c89815181106117f957fe5b60200260200101516001600160a01b03166370a08231306040518263ffffffff1660e01b815260040161182c9190613894565b60206040518083038186803b15801561184457600080fd5b505afa158015611858573d6000803e3d6000fd5b505050506040513d601f19601f8201168201806040525081019061187c91906137c5565b906129b8565b90508086868151811061189157fe5b60209081029190910101526118a68782612a4c565b9650506001909301925061164a915050565b5060048501546000906118cb9084612a4c565b905060005b8551811015611b4157600061190c8483815181106118ea57fe5b60200260200101516119066004866129f290919063ffffffff16565b90612a24565b905061194f81600b60008a868151811061192257fe5b6020908102919091018101516001600160a01b039081168352908201929092526040016000205416612d3b565b50611a6a600b600089858151811061196357fe5b6020908102919091018101516001600160a01b0390811683529082019290925260409081016000206001015490516370a0823160e01b81529116906370a08231906119b2903090600401613894565b60206040518083038186803b1580156119ca57600080fd5b505afa1580156119de573d6000803e3d6000fd5b505050506040513d601f19601f82011682018060405250810190611a0291906137c5565b600b60008a8681518110611a1257fe5b60200260200101516001600160a01b03166001600160a01b0316815260200190815260200160002060010160009054906101000a90046001600160a01b0316898581518110611a5d57fe5b6020026020010151612e08565b6008548751611b38916001600160a01b031690899085908110611a8957fe5b60200260200101516001600160a01b03166370a08231306040518263ffffffff1660e01b8152600401611abc9190613894565b60206040518083038186803b158015611ad457600080fd5b505afa158015611ae8573d6000803e3d6000fd5b505050506040513d601f19601f82011682018060405250810190611b0c91906137c5565b898581518110611b1857fe5b60200260200101516001600160a01b0316612e8f9092919063ffffffff16565b506001016118d0565b506000611b7585600081518110611b5457fe5b602002602001015161079c670de0b6b3a7640000896000815181106117f957fe5b905060015b8651811015611bc557611bbb82611bb6888481518110611b9657fe5b602002602001015161079c670de0b6b3a76400008c87815181106117f957fe5b612f3a565b9150600101611b7a565b5088811015611be65760405162461bcd60e51b815260040161067390614146565b6008546009546040517f6d78f47a0000000000000000000000000000000000000000000000000000000081526001600160a01b0392831692636d78f47a92611c3792911690859030906004016139ae565b600060405180830381600087803b158015611c5157600080fd5b505af1158015611c65573d6000803e3d6000fd5b505050506005870181905560028701805460ff191660011790554260105560125460048801546040517fa018ec75c77c2e90d17863c91c2f7440710e48d57f99510358116fb0e34bdf6d91611cbb918590613886565b60405180910390a2611cd06012546000612f50565b50505050505050505050565b6000546001600160a01b031681565b60135481565b60165481565b600a546001600160a01b0316331480611d185750336001600160a01b038216145b611d345760405162461bcd60e51b815260040161067390613c60565b6007546040516370a0823160e01b815283916001600160a01b0316906370a0823190611d64903390600401613894565b60206040518083038186803b158015611d7c57600080fd5b505afa158015611d90573d6000803e3d6000fd5b505050506040513d601f19601f82011682018060405250810190611db491906137c5565b1015611dd25760405162461bcd60e51b815260040161067390613bbd565b6007546040516323b872dd60e01b81526001600160a01b03909116906323b872dd90611e06903390309087906004016138a8565b602060405180830381600087803b158015611e2057600080fd5b505af1158015611e34573d6000803e3d6000fd5b505050506040513d601f19601f82011682018060405250810190611e5891906136d2565b50611e668260125483612a71565b5050565b6000828152600e60205260408120600281015460ff16611e9c5760405162461bcd60e51b815260040161067390613b18565b6000611ea784612c33565b6000868152600c602090815260408083206001600160a01b0389168452909152902054600384015491925090811115611ef25760405162461bcd60e51b815260040161067390613df6565b6000611f13846003015461079c8487600501546129b890919063ffffffff16565b6005850154909150611f259082612a24565b60058501556003840154611f399083612a24565b60038501556000878152600c602090815260408083206001600160a01b038a1684529091528120819055845460ff166001811115611f7357fe5b1415611f9557600954611f90906001600160a01b03168483612c90565b611fac565b600754611fac906001600160a01b03168483612c90565b83546040516001600160a01b038816917f8d2dd554e7207f2edcec3f94a370536aa5b74554b28e814f77ec34780a18552491611fef9160ff169086908690613a21565b60405180910390a293505050505b92915050565b600b60205260009081526040902080546001909101546001600160a01b03918216911682565b60155481565b600a546001600160a01b031681565b600454600090156121cc5760006004828154811061205857fe5b906000526020600020906002020190508060010160019054906101000a900460ff166120c2573360009081526006602052604090205460ff16806120a657506002546001600160a01b031633145b6120c25760405162461bcd60e51b815260040161067390613c2b565b600181015460ff1680156120d95750600554815411155b156121ca5780546005546120ec91612a24565b600555805460405163095ea7b360e01b81526001600160a01b037f0000000000000000000000000000000000000000000000000000000000000000169163095ea7b39161213d9130916004016138e6565b602060405180830381600087803b15801561215757600080fd5b505af115801561216b573d6000803e3d6000fd5b505050506040513d601f19601f8201168201806040525081019061218f91906136d2565b5080546121ca906001600160a01b037f0000000000000000000000000000000000000000000000000000000000000000169030903390612ba8565b505b6013546000908152600e602052604090206014546011546121ee904290612a24565b1015806122015750601654816004015410155b61221d5760405162461bcd60e51b815260040161067390614046565b600281015460ff16156122425760405162461bcd60e51b81526004016106739061407b565b6004808201546009546040516370a0823160e01b815291926001600160a01b03909116916370a082319161227891309101613894565b60206040518083038186803b15801561229057600080fd5b505afa1580156122a4573d6000803e3d6000fd5b505050506040513d601f19601f820116820180604052508101906122c891906137c5565b10156122e65760405162461bcd60e51b815260040161067390613ee7565b600854600954604051637a4ffd0360e01b815260609283926001600160a01b0391821692637a4ffd0392612328921690670de0b6b3a7640000906004016138e6565b60006040518083038186803b15801561234057600080fd5b505afa158015612354573d6000803e3d6000fd5b505050506040513d6000823e601f3d908101601f1916820160405261237c919081019061358b565b60085460048601546009549395509193506123a5926001600160a01b0390811692911690612e8f565b6008546009546004808601546040517f5c833bfd0000000000000000000000000000000000000000000000000000000081526001600160a01b0394851694635c833bfd946123f994911692913091016139ae565b600060405180830381600087803b15801561241357600080fd5b505af1158015612427573d6000803e3d6000fd5b50506007546040516370a0823160e01b8152600093506001600160a01b0390911691506370a082319061245e903090600401613894565b60206040518083038186803b15801561247657600080fd5b505afa15801561248a573d6000803e3d6000fd5b505050506040513d601f19601f820116820180604052508101906124ae91906137c5565b905060005b83518110156126b4576125678482815181106124cb57fe5b60200260200101516001600160a01b03166370a08231306040518263ffffffff1660e01b81526004016124fe9190613894565b60206040518083038186803b15801561251657600080fd5b505afa15801561252a573d6000803e3d6000fd5b505050506040513d601f19601f8201168201806040525081019061254e91906137c5565b85838151811061255a57fe5b6020026020010151613068565b6000600b600086848151811061257957fe5b6020908102919091018101516001600160a01b0390811683529082019290925260409081016000206001015490516370a0823160e01b81529116906370a08231906125c8903090600401613894565b60206040518083038186803b1580156125e057600080fd5b505afa1580156125f4573d6000803e3d6000fd5b505050506040513d601f19601f8201168201806040525081019061261891906137c5565b90506126aa81600b600088868151811061262e57fe5b60200260200101516001600160a01b03166001600160a01b0316815260200190815260200160002060010160009054906101000a90046001600160a01b0316600b600089878151811061267d57fe5b6020908102919091018101516001600160a01b0390811683529082019290925260400160002054166130f7565b50506001016124b3565b506007546040516370a0823160e01b815261273b9183916001600160a01b03909116906370a08231906126eb903090600401613894565b60206040518083038186803b15801561270357600080fd5b505afa158015612717573d6000803e3d6000fd5b505050506040513d601f19601f8201168201806040525081019061190691906137c5565b600585018190558611156127615760405162461bcd60e51b815260040161067390614146565b6013547ffe5f8735d3a150c5afdab27148da5543b04feb55f87613477a9a65621c910ddf8560040154866005015460405161279d929190613886565b60405180910390a260028401805460ff19166001908117909155426011556013546127c791612f50565b50505050505050565b600f81815481106127dd57fe5b600091825260209091200154905081565b600e602052600090815260409020805460018201546002830154600384015460048501546005860154600687015460079097015460ff968716979596909416949293919290916001600160a01b03918216911688565b61284c612b7e565b601555565b600d602052816000526040600020818154811061286a57fe5b90600052602060002001600091509150505481565b612887612b7e565b601655565b60066020526000908152604090205460ff1681565b600481815481106128ae57fe5b60009182526020909120600290910201805460019091015490915060ff8082169161010090041683565b600c60209081526000928352604080842090915290825290205481565b6009546001600160a01b031681565b60125481565b612912612b52565b6001600160a01b03811660009081526006602052604090819020805460ff19166001179055517f5d91bd0cecc45fef102af61de92c5462fadc884a5ce9d21c15e8a85198f2349e90610a3b908390613894565b61296d612b52565b600380546001600160a01b0319166001600160a01b0383161790556040517f1c58cfd31540f5b6a8cfbbe7c225cfccf4ee83b8691dc4d4d0a23a3ef02be58490610a3b908390613894565b6000826129c757506000611ffd565b828202828482816129d457fe5b04146109d25760405162461bcd60e51b815260040161067390613e8a565b6000808211612a135760405162461bcd60e51b815260040161067390613d2b565b818381612a1c57fe5b049392505050565b600082821115612a465760405162461bcd60e51b815260040161067390613c97565b50900390565b6000828201838110156109d25760405162461bcd60e51b815260040161067390613b86565b6000828152600e602052604090206004810154612a8e9085612a4c565b60048201556003810154612aa29085612a4c565b60038201556000838152600c602090815260408083206001600160a01b0386168452909152902054612ad49085612a4c565b6000848152600c602090815260408083206001600160a01b03871680855290835281842094909455600d825280832080546001810182559084529190922001859055517fe1fffcc4923d04b559f4d29a8bfc6cda04eb5b0d3c460751c2402c5c5cc9109c90612b44908790613986565b60405180910390a250505050565b6002546001600160a01b03163314612b7c5760405162461bcd60e51b815260040161067390613f44565b565b6000546001600160a01b03163314612b7c5760405162461bcd60e51b815260040161067390613e2d565b612c2d846323b872dd60e01b858585604051602401612bc9939291906138a8565b60408051601f198184030181529190526020810180517bffffffffffffffffffffffffffffffffffffffffffffffffffffffff167fffffffff00000000000000000000000000000000000000000000000000000000909316929092179091526131aa565b50505050565b600a546000906001600160a01b0316331480612c575750336001600160a01b038316145b612c735760405162461bcd60e51b815260040161067390613c60565b600a5482906001600160a01b0316331415611ffd57503392915050565b6111c38363a9059cbb60e01b8484604051602401612bc99291906138e6565b60005b82518110156111c357818181518110612cc757fe5b6020026020010151600b6000858481518110612cdf57fe5b6020908102919091018101516001600160a01b039081168352828201939093526040909101600020835181549084166001600160a01b031991821617825593909101516001918201805491909316931692909217905501612cb2565b600754600090612d55906001600160a01b03168385612e8f565b60408051808201825260008082526020820186905291517f0b4c7e4d0000000000000000000000000000000000000000000000000000000081526001600160a01b03851692630b4c7e4d92612daf92909190600401613943565b602060405180830381600087803b158015612dc957600080fd5b505af1158015612ddd573d6000803e3d6000fd5b505050506040513d601f19601f82011682018060405250810190612e0191906137c5565b5092915050565b612e1c6001600160a01b0383168285612e8f565b6040517fb6b55f250000000000000000000000000000000000000000000000000000000081526001600160a01b0382169063b6b55f2590612e61908690600401613986565b600060405180830381600087803b158015612e7b57600080fd5b505af11580156127c7573d6000803e3d6000fd5b6000612f1982856001600160a01b031663dd62ed3e30876040518363ffffffff1660e01b8152600401612ec39291906138cc565b60206040518083038186803b158015612edb57600080fd5b505afa158015612eef573d6000803e3d6000fd5b505050506040513d601f19601f82011682018060405250810190612f1391906137c5565b90612a4c565b9050612c2d8463095ea7b360e01b8584604051602401612bc99291906138e6565b6000818310612f4957816109d2565b5090919050565b600080612f5c84613239565b600f805460018181019092557f8d1108e10bcb7c27dddfc02ed9d693a074039d026cf4ea4240b40f7d581ac802018290556000828152600e602052604090208054929350918591839160ff1916908381811115612fb557fe5b021790555060018082018390558490811115612fcd57fe5b613010576012829055600780546006830180546001600160a01b039283166001600160a01b03199182161790915560095492840180549390921692169190911790555b83600181111561301c57fe5b600114156130605760138290556009546006820180546001600160a01b039283166001600160a01b0319918216179091556007805490840180549190931691161790555b509392505050565b61307c6001600160a01b0382168284612e8f565b6040517f2e1a7d4d0000000000000000000000000000000000000000000000000000000081526001600160a01b03821690632e1a7d4d906130c1908590600401613986565b600060405180830381600087803b1580156130db57600080fd5b505af11580156130ef573d6000803e3d6000fd5b505050505050565b600061310d6001600160a01b0384168386612e8f565b6040517f1a4d01d20000000000000000000000000000000000000000000000000000000081526001600160a01b03831690631a4d01d29061315890879060019060009060040161429b565b602060405180830381600087803b15801561317257600080fd5b505af1158015613186573d6000803e3d6000fd5b505050506040513d601f19601f8201168201806040525081019061306091906137c5565b60606131ff826040518060400160405280602081526020017f5361666545524332303a206c6f772d6c6576656c2063616c6c206661696c6564815250856001600160a01b031661326b9092919063ffffffff16565b8051909150156111c3578080602001905181019061321d91906136d2565b6111c35760405162461bcd60e51b81526004016106739061417d565b6000428260405160200161324e929190613886565b604051602081830303815290604052805190602001209050919050565b606061327a8484600085613282565b949350505050565b6060824710156132a45760405162461bcd60e51b815260040161067390613cce565b6132ad85613343565b6132c95760405162461bcd60e51b81526004016106739061410f565b60006060866001600160a01b031685876040516132e6919061386a565b60006040518083038185875af1925050503d8060008114613323576040519150601f19603f3d011682016040523d82523d6000602084013e613328565b606091505b5091509150613338828286613349565b979650505050505050565b3b151590565b606083156133585750816109d2565b8251156133685782518084602001fd5b8160405162461bcd60e51b81526004016106739190613a51565b60008083601f840112613393578182fd5b50813567ffffffffffffffff8111156133aa578182fd5b60208301915083602080830285010111156133c457600080fd5b9250929050565b60008083601f8401126133dc578182fd5b50813567ffffffffffffffff8111156133f3578182fd5b6020830191508360206040830285010111156133c457600080fd5b600082601f83011261341e578081fd5b815161343161342c826142d8565b6142b4565b81815291506020808301908481018184028601820187101561345257600080fd5b60005b8481101561347157815184529282019290820190600101613455565b505050505092915050565b60006020828403121561348d578081fd5b81356109d281614322565b600080604083850312156134aa578081fd5b82356134b581614322565b946020939093013593505050565b6000806000604084860312156134d7578081fd5b833567ffffffffffffffff808211156134ee578283fd5b818601915086601f830112613501578283fd5b813561350f61342c826142d8565b80828252602080830192508086018b82838702890101111561352f578788fd5b8796505b8487101561355a57803561354681614322565b845260019690960195928101928101613533565b509097508801359350505080821115613571578283fd5b5061357e868287016133cb565b9497909650939450505050565b6000806040838503121561359d578182fd5b825167ffffffffffffffff808211156135b4578384fd5b818501915085601f8301126135c7578384fd5b81516135d561342c826142d8565b80828252602080830192508086018a8283870289010111156135f5578889fd5b8896505b8487101561362057805161360c81614322565b8452600196909601959281019281016135f9565b508801519096509350505080821115613637578283fd5b506136448582860161340e565b9150509250929050565b600080600080600060608688031215613665578081fd5b853567ffffffffffffffff8082111561367c578283fd5b61368889838a01613382565b909750955060208801359150808211156136a0578283fd5b506136ad88828901613382565b9094509250506040860135600281106136c4578182fd5b809150509295509295909350565b6000602082840312156136e3578081fd5b81516109d281614337565b6000602082840312156136ff578081fd5b5035919050565b60008060408385031215613718578182fd5b82359150602083013561372a81614322565b809150509250929050565b600080600060608486031215613749578081fd5b8335925060208401359150604084013561376281614322565b809150509250925092565b60006040828403121561377e578081fd5b6040516040810181811067ffffffffffffffff8211171561379b57fe5b60405282356137a981614322565b815260208301356137b981614322565b60208201529392505050565b6000602082840312156137d6578081fd5b5051919050565b6000806000606084860312156137f1578081fd5b83359250602084013561380381614337565b9150604084013561376281614337565b60008060008060808587031215613828578182fd5b8435935060208501359250604085013561384181614337565b9150606085013561385181614337565b939692955090935050565b6002811061386657fe5b9052565b6000825161387c8184602087016142f6565b9190910192915050565b918252602082015260400190565b6001600160a01b0391909116815260200190565b6001600160a01b039384168152919092166020820152604081019190915260600190565b6001600160a01b0392831681529116602082015260400190565b6001600160a01b03929092168252602082015260400190565b6020808252825182820181905260009190848201906040850190845b818110156139375783518352928401929184019160010161391b565b50909695505050505050565b60608101818460005b600281101561396b57815183526020928301929091019060010161394c565b5050508260408301529392505050565b901515815260200190565b90815260200190565b92835260208301919091526001600160a01b0316604082015260600190565b6001600160a01b0393841681526020810192909252909116604082015260600190565b61010081016139e0828b61385c565b602082019890985295151560408701526060860194909452608085019290925260a08401526001600160a01b0390811660c08401521660e090910152919050565b60608101613a2f828661385c565b602082019390935260400152919050565b918252600f0b602082015260400190565b6000602082528251806020840152613a708160408501602087016142f6565b601f01601f19169190910160400192915050565b6020808252601c908201527f746f74616c416d6f756e74206d757374206265206c6172676572203000000000604082015260600190565b60208082526035908201527f596f75206d757374206265206e6f6d696e61746564206265666f726520796f7560408201527f2063616e20616363657074206f776e6572736869700000000000000000000000606082015260800190565b60208082526011908201527f6e6f742079657420636c61696d61626c65000000000000000000000000000000604082015260600190565b6020808252601a908201527f686173206e6f7420796574206265656e2070726f636573736564000000000000604082015260600190565b6020808252601b908201527f536166654d6174683a206164646974696f6e206f766572666c6f770000000000604082015260600190565b60208082526013908201527f696e737566666963656e742062616c616e636500000000000000000000000000604082015260600190565b60208082526018908201527f6172726179206c656e67746873206d757374206d617463680000000000000000604082015260600190565b6020808252818101527f796f7520617265206e6f7420617070726f7665642061732061206b6565706572604082015260600190565b6020808252601d908201527f796f752063616e74207472616e73666572206f746865722066756e6473000000604082015260600190565b6020808252601e908201527f536166654d6174683a207375627472616374696f6e206f766572666c6f770000604082015260600190565b60208082526026908201527f416464726573733a20696e73756666696369656e742062616c616e636520666f60408201527f722063616c6c0000000000000000000000000000000000000000000000000000606082015260800190565b6020808252601a908201527f536166654d6174683a206469766973696f6e206279207a65726f000000000000604082015260600190565b60208082526013908201527f696e636f72726563742062617463685479706500000000000000000000000000604082015260600190565b60208082526031908201527f6163636f756e742068617320696e73756666696369656e742062616c616e636560408201527f206f6620746f6b656e20746f206d696e74000000000000000000000000000000606082015260800190565b60208082526018908201527f636c61696d696e6720746f6f206d616e79207368617265730000000000000000604082015260600190565b6020808252602f908201527f4f6e6c792074686520636f6e7472616374206f776e6572206d6179207065726660408201527f6f726d207468697320616374696f6e0000000000000000000000000000000000606082015260800190565b60208082526021908201527f536166654d6174683a206d756c7469706c69636174696f6e206f766572666c6f60408201527f7700000000000000000000000000000000000000000000000000000000000000606082015260800190565b60208082526034908201527f636f6e74726163742068617320696e73756666696369656e742062616c616e6360408201527f65206f6620746f6b656e20746f2072656465656d000000000000000000000000606082015260800190565b60208082526034908201527f4f6e6c792074686520636f6e747261637420676f7665726e616e6365206d617960408201527f20706572666f726d207468697320616374696f6e000000000000000000000000606082015260800190565b60208082526012908201527f7a617070657220616c7265616479207365740000000000000000000000000000604082015260600190565b60208082526011908201527f616c72656164792070726f636573736564000000000000000000000000000000604082015260600190565b60208082526014908201527f696e73756666696369656e742062616c616e6365000000000000000000000000604082015260600190565b6020808252818101527f63616e206e6f74206578656375746520626174636820616374696f6e20796574604082015260600190565b60208082526010908201527f616c72656164792072656465656d656400000000000000000000000000000000604082015260600190565b60208082526036908201527f596f75206d757374206265206e6f6d696e61746564206265666f726520796f7560408201527f2063616e2061636365707420676f7665726e616e636500000000000000000000606082015260800190565b6020808252601d908201527f416464726573733a2063616c6c20746f206e6f6e2d636f6e7472616374000000604082015260600190565b60208082526011908201527f736c69707061676520746f6f2068696768000000000000000000000000000000604082015260600190565b6020808252602a908201527f5361666545524332303a204552433230206f7065726174696f6e20646964206e60408201527f6f74207375636365656400000000000000000000000000000000000000000000606082015260800190565b6020808252601e908201527f6163636f756e742068617320696e73756666696369656e742066756e64730000604082015260600190565b6020808252600e908201527f616c7265616479206d696e746564000000000000000000000000000000000000604082015260600190565b9182521515602082015260400190565b92835290151560208301521515604082015260600190565b83815260608101614284602083018561385c565b6001600160a01b0383166040830152949350505050565b928352600f9190910b6020830152604082015260600190565b60405181810167ffffffffffffffff811182821017156142d057fe5b604052919050565b600067ffffffffffffffff8211156142ec57fe5b5060209081020190565b60005b838110156143115781810151838201526020016142f9565b83811115612c2d5750506000910152565b6001600160a01b0381168114610c8f57600080fd5b8015158114610c8f57600080fdfea2646970667358221220605a572aae409877797e085248130345b88e1a8235c85e8bbe1712fce079b14664736f6c63430007030033",
  "linkReferences": {},
  "deployedLinkReferences": {}
}