{
  "_format": "hh-sol-artifact-1",
  "contractName": "BlockLockHelper",
  "sourceName": "contracts/test_helpers/BlockLockHelper.sol",
  "abi": [
    {
      "inputs": [
        {
          "internalType": "address",
          "name": "_poolAddress",
          "type": "address"
        },
        {
          "internalType": "address",
          "name": "_baseToken",
          "type": "address"
        }
      ],
      "stateMutability": "nonpayable",
      "type": "constructor"
    },
    {
      "inputs": [],
      "name": "deposit",
      "outputs": [],
      "stateMutability": "nonpayable",
      "type": "function"
    },
    {
      "inputs": [],
      "name": "depositThenTransfer",
      "outputs": [],
      "stateMutability": "nonpayable",
      "type": "function"
    },
    {
      "inputs": [],
      "name": "depositThenTransferFrom",
      "outputs": [],
      "stateMutability": "nonpayable",
      "type": "function"
    },
    {
      "inputs": [],
      "name": "depositThenWithdraw",
      "outputs": [],
      "stateMutability": "nonpayable",
      "type": "function"
    },
    {
      "inputs": [],
      "name": "withdrawThenDeposit",
      "outputs": [],
      "stateMutability": "nonpayable",
      "type": "function"
    }
  ],
  "bytecode": "0x608060405234801561001057600080fd5b506040516109fe3803806109fe8339818101604052604081101561003357600080fd5b508051602090910151600080546001600160a01b039384166001600160a01b031991821617909155600180549390921692169190911790556109848061007a6000396000f3fe608060405234801561001057600080fd5b50600436106100675760003560e01c80635499e5d1116100505780635499e5d11461007e578063cd78ae2d14610086578063d0e30db01461008e57610067565b80632ebad9b51461006c5780632f83b69414610076575b600080fd5b610074610096565b005b61007461022b565b610074610438565b610074610630565b610074610838565b600154600080546040805163095ea7b360e01b81526001600160a01b039283166004820152683635c9adc5dea0000060248201529051919093169263095ea7b39260448083019360209390929083900390910190829087803b1580156100fb57600080fd5b505af115801561010f573d6000803e3d6000fd5b505050506040513d602081101561012557600080fd5b5050600080546040805163b6b55f2560e01b8152683635c9adc5dea00000600482015290516001600160a01b039092169163b6b55f259160248082019260209290919082900301818787803b15801561017d57600080fd5b505af1158015610191573d6000803e3d6000fd5b505050506040513d60208110156101a757600080fd5b50516000805460408051632e1a7d4d60e01b81526004810185905290519394506001600160a01b0390911692632e1a7d4d92602480840193602093929083900390910190829087803b1580156101fc57600080fd5b505af1158015610210573d6000803e3d6000fd5b505050506040513d602081101561022657600080fd5b505050565b600154600080546040805163095ea7b360e01b81526001600160a01b039283166004820152683635c9adc5dea0000060248201529051919093169263095ea7b39260448083019360209390929083900390910190829087803b15801561029057600080fd5b505af11580156102a4573d6000803e3d6000fd5b505050506040513d60208110156102ba57600080fd5b5050600080546040805163b6b55f2560e01b8152683635c9adc5dea00000600482015290516001600160a01b039092169163b6b55f259160248082019260209290919082900301818787803b15801561031257600080fd5b505af1158015610326573d6000803e3d6000fd5b505050506040513d602081101561033c57600080fd5b5051600080546040805163095ea7b360e01b81523060048201526024810185905290519394506001600160a01b039091169263095ea7b392604480840193602093929083900390910190829087803b15801561039757600080fd5b505af11580156103ab573d6000803e3d6000fd5b505050506040513d60208110156103c157600080fd5b505060008054604080517f23b872dd000000000000000000000000000000000000000000000000000000008152306004820152600160248201526044810185905290516001600160a01b03909216926323b872dd926064808401936020939083900390910190829087803b1580156101fc57600080fd5b60008054604080517f70a0823100000000000000000000000000000000000000000000000000000000815230600482015290516001600160a01b03909216916370a0823191602480820192602092909190829003018186803b15801561049d57600080fd5b505afa1580156104b1573d6000803e3d6000fd5b505050506040513d60208110156104c757600080fd5b50516000805460408051632e1a7d4d60e01b81526004810185905290519394506001600160a01b0390911692632e1a7d4d92602480840193602093929083900390910190829087803b15801561051c57600080fd5b505af1158015610530573d6000803e3d6000fd5b505050506040513d602081101561054657600080fd5b5050600154600080546040805163095ea7b360e01b81526001600160a01b039283166004820152681b1ae4d6e2ef50000060248201529051919093169263095ea7b39260448083019360209390929083900390910190829087803b1580156105ad57600080fd5b505af11580156105c1573d6000803e3d6000fd5b505050506040513d60208110156105d757600080fd5b5050600080546040805163b6b55f2560e01b8152681b1ae4d6e2ef500000600482015290516001600160a01b039092169263b6b55f25926024808401936020939083900390910190829087803b1580156101fc57600080fd5b600154600080546040805163095ea7b360e01b81526001600160a01b039283166004820152683635c9adc5dea0000060248201529051919093169263095ea7b39260448083019360209390929083900390910190829087803b15801561069557600080fd5b505af11580156106a9573d6000803e3d6000fd5b505050506040513d60208110156106bf57600080fd5b5050600080546040805163b6b55f2560e01b8152683635c9adc5dea00000600482015290516001600160a01b039092169163b6b55f259160248082019260209290919082900301818787803b15801561071757600080fd5b505af115801561072b573d6000803e3d6000fd5b505050506040513d602081101561074157600080fd5b5051600080546040805163095ea7b360e01b81526001600160a01b03909216600483018190526024830185905290519394509263095ea7b392604480840193602093929083900390910190829087803b15801561079d57600080fd5b505af11580156107b1573d6000803e3d6000fd5b505050506040513d60208110156107c757600080fd5b505060008054604080517fa9059cbb000000000000000000000000000000000000000000000000000000008152600160048201526024810185905290516001600160a01b039092169263a9059cbb926044808401936020939083900390910190829087803b1580156101fc57600080fd5b600154600080546040805163095ea7b360e01b81526001600160a01b039283166004820152683635c9adc5dea0000060248201529051919093169263095ea7b39260448083019360209390929083900390910190829087803b15801561089d57600080fd5b505af11580156108b1573d6000803e3d6000fd5b505050506040513d60208110156108c757600080fd5b5050600080546040805163b6b55f2560e01b8152683635c9adc5dea00000600482015290516001600160a01b039092169263b6b55f25926024808401936020939083900390910190829087803b15801561092057600080fd5b505af1158015610934573d6000803e3d6000fd5b505050506040513d602081101561094a57600080fd5b505056fea26469706673582212209539e8a6312e52961ade39504ebb699d48ca98687f6a09a35b4c1be1c2c2771364736f6c63430007030033",
  "linkReferences": {},
  "deployedLinkReferences": {}
}