{
  "_format": "hh-sol-artifact-1",
  "contractName": "Defended",
  "sourceName": "contracts/Defended.sol",
  "abi": [
    {
      "inputs": [],
      "stateMutability": "nonpayable",
      "type": "constructor"
    },
    {
      "anonymous": false,
      "inputs": [
        {
          "indexed": false,
          "internalType": "address",
          "name": "account",
          "type": "address"
        }
      ],
      "name": "AccountApproved",
      "type": "event"
    },
    {
      "anonymous": false,
      "inputs": [
        {
          "indexed": false,
          "internalType": "address",
          "name": "account",
          "type": "address"
        }
      ],
      "name": "AccountRevoked",
      "type": "event"
    },
    {
      "anonymous": false,
      "inputs": [
        {
          "indexed": false,
          "internalType": "address",
          "name": "oldGovernance",
          "type": "address"
        },
        {
          "indexed": false,
          "internalType": "address",
          "name": "newGovernance",
          "type": "address"
        }
      ],
      "name": "GovernanceChanged",
      "type": "event"
    },
    {
      "anonymous": false,
      "inputs": [
        {
          "indexed": false,
          "internalType": "address",
          "name": "newGovernance",
          "type": "address"
        }
      ],
      "name": "GovernanceNominated",
      "type": "event"
    },
    {
      "inputs": [],
      "name": "acceptGovernance",
      "outputs": [],
      "stateMutability": "nonpayable",
      "type": "function"
    },
    {
      "inputs": [
        {
          "internalType": "address",
          "name": "account",
          "type": "address"
        }
      ],
      "name": "approveContractAccess",
      "outputs": [],
      "stateMutability": "nonpayable",
      "type": "function"
    },
    {
      "inputs": [
        {
          "internalType": "address",
          "name": "",
          "type": "address"
        }
      ],
      "name": "approved",
      "outputs": [
        {
          "internalType": "bool",
          "name": "",
          "type": "bool"
        }
      ],
      "stateMutability": "view",
      "type": "function"
    },
    {
      "inputs": [],
      "name": "governance",
      "outputs": [
        {
          "internalType": "address",
          "name": "",
          "type": "address"
        }
      ],
      "stateMutability": "view",
      "type": "function"
    },
    {
      "inputs": [
        {
          "internalType": "address",
          "name": "_governance",
          "type": "address"
        }
      ],
      "name": "nominateNewGovernance",
      "outputs": [],
      "stateMutability": "nonpayable",
      "type": "function"
    },
    {
      "inputs": [],
      "name": "nominatedGovernance",
      "outputs": [
        {
          "internalType": "address",
          "name": "",
          "type": "address"
        }
      ],
      "stateMutability": "view",
      "type": "function"
    },
    {
      "inputs": [
        {
          "internalType": "address",
          "name": "account",
          "type": "address"
        }
      ],
      "name": "revokeContractAccess",
      "outputs": [],
      "stateMutability": "nonpayable",
      "type": "function"
    }
  ],
  "bytecode": "0x608060405234801561001057600080fd5b503380610064576040805162461bcd60e51b815260206004820152601e60248201527f476f7665726e616e636520616464726573732063616e6e6f7420626520300000604482015290519081900360640190fd5b600080546001600160a01b0319166001600160a01b038316908117825560408051928352602083019190915280517f3aaaebeb4821d6a7e5c77ece53cff0afcc56c82add2c978dbbb7f73e84cbcfd29281900390910190a150610477806100cc6000396000f3fe608060405234801561001057600080fd5b506004361061007d5760003560e01c80636c3618651161005b5780636c361865146100b85780637c61e865146100de578063d8b964e614610104578063ffd8a6d91461013e5761007d565b806314ef685114610082578063238efcbc146100a65780635aa6e675146100b0575b600080fd5b61008a610164565b604080516001600160a01b039092168252519081900360200190f35b6100ae610173565b005b61008a61023c565b6100ae600480360360208110156100ce57600080fd5b50356001600160a01b031661024b565b6100ae600480360360208110156100f457600080fd5b50356001600160a01b03166102ae565b61012a6004803603602081101561011a57600080fd5b50356001600160a01b031661030e565b604080519115158252519081900360200190f35b6100ae6004803603602081101561015457600080fd5b50356001600160a01b0316610323565b6001546001600160a01b031681565b6001546001600160a01b031633146101bc5760405162461bcd60e51b815260040180806020018281038252603681526020018061040c6036913960400191505060405180910390fd5b600054600154604080516001600160a01b03938416815292909116602083015280517f3aaaebeb4821d6a7e5c77ece53cff0afcc56c82add2c978dbbb7f73e84cbcfd29281900390910190a1600180546000805473ffffffffffffffffffffffffffffffffffffffff199081166001600160a01b03841617909155169055565b6000546001600160a01b031681565b61025361038c565b6001600160a01b038116600081815260026020908152604091829020805460ff19166001179055815192835290517fbc7abdf8533487db28f8c616affbb4e122d90c5ab8deb258fd21b09cee5957309281900390910190a150565b6102b661038c565b6001600160a01b038116600081815260026020908152604091829020805460ff19169055815192835290517f1d151c462eeb58aee164dc41052653b56a30977abfd464105694f5dc1398171f9281900390910190a150565b60026020526000908152604090205460ff1681565b61032b61038c565b600180546001600160a01b03831673ffffffffffffffffffffffffffffffffffffffff19909116811790915560408051918252517f1c58cfd31540f5b6a8cfbbe7c225cfccf4ee83b8691dc4d4d0a23a3ef02be5849181900360200190a150565b6000546001600160a01b031633146103d55760405162461bcd60e51b81526004018080602001828103825260348152602001806103d86034913960400191505060405180910390fd5b56fe4f6e6c792074686520636f6e747261637420676f7665726e616e6365206d617920706572666f726d207468697320616374696f6e596f75206d757374206265206e6f6d696e61746564206265666f726520796f752063616e2061636365707420676f7665726e616e6365a2646970667358221220f058a06986621d92bd1c22136ac077e4b403c2efc8d59bda52764f48b64b372564736f6c63430007030033",
  "linkReferences": {},
  "deployedLinkReferences": {}
}