{
  "_format": "hh-sol-artifact-1",
  "contractName": "BeneficiaryVaults",
  "sourceName": "contracts/BeneficiaryVaults.sol",
  "abi": [
    {
      "inputs": [
        {
          "internalType": "contract IERC20",
          "name": "pop_",
          "type": "address"
        }
      ],
      "stateMutability": "nonpayable",
      "type": "constructor"
    },
    {
      "anonymous": false,
      "inputs": [
        {
          "indexed": false,
          "internalType": "contract IBeneficiaryRegistry",
          "name": "from",
          "type": "address"
        },
        {
          "indexed": false,
          "internalType": "contract IBeneficiaryRegistry",
          "name": "to",
          "type": "address"
        }
      ],
      "name": "BeneficiaryRegistryChanged",
      "type": "event"
    },
    {
      "anonymous": false,
      "inputs": [
        {
          "indexed": true,
          "internalType": "address",
          "name": "previousOwner",
          "type": "address"
        },
        {
          "indexed": true,
          "internalType": "address",
          "name": "newOwner",
          "type": "address"
        }
      ],
      "name": "OwnershipTransferred",
      "type": "event"
    },
    {
      "anonymous": false,
      "inputs": [
        {
          "indexed": false,
          "internalType": "uint8",
          "name": "vaultId",
          "type": "uint8"
        },
        {
          "indexed": false,
          "internalType": "address",
          "name": "beneficiary",
          "type": "address"
        },
        {
          "indexed": false,
          "internalType": "uint256",
          "name": "amount",
          "type": "uint256"
        }
      ],
      "name": "RewardClaimed",
      "type": "event"
    },
    {
      "anonymous": false,
      "inputs": [
        {
          "indexed": false,
          "internalType": "uint256",
          "name": "amount",
          "type": "uint256"
        }
      ],
      "name": "RewardsAllocated",
      "type": "event"
    },
    {
      "anonymous": false,
      "inputs": [
        {
          "indexed": false,
          "internalType": "uint8",
          "name": "vaultId",
          "type": "uint8"
        }
      ],
      "name": "VaultClosed",
      "type": "event"
    },
    {
      "anonymous": false,
      "inputs": [
        {
          "indexed": false,
          "internalType": "uint8",
          "name": "vaultId",
          "type": "uint8"
        },
        {
          "indexed": false,
          "internalType": "bytes32",
          "name": "merkleRoot",
          "type": "bytes32"
        }
      ],
      "name": "VaultOpened",
      "type": "event"
    },
    {
      "inputs": [],
      "name": "allocateRewards",
      "outputs": [],
      "stateMutability": "nonpayable",
      "type": "function"
    },
    {
      "inputs": [],
      "name": "beneficiaryRegistry",
      "outputs": [
        {
          "internalType": "contract IBeneficiaryRegistry",
          "name": "",
          "type": "address"
        }
      ],
      "stateMutability": "view",
      "type": "function"
    },
    {
      "inputs": [
        {
          "internalType": "uint8",
          "name": "vaultId_",
          "type": "uint8"
        },
        {
          "internalType": "bytes32[]",
          "name": "proof_",
          "type": "bytes32[]"
        },
        {
          "internalType": "address",
          "name": "beneficiary_",
          "type": "address"
        },
        {
          "internalType": "uint256",
          "name": "share_",
          "type": "uint256"
        }
      ],
      "name": "claimReward",
      "outputs": [],
      "stateMutability": "nonpayable",
      "type": "function"
    },
    {
      "inputs": [
        {
          "internalType": "uint8",
          "name": "vaultId_",
          "type": "uint8"
        }
      ],
      "name": "closeVault",
      "outputs": [],
      "stateMutability": "nonpayable",
      "type": "function"
    },
    {
      "inputs": [
        {
          "internalType": "uint8",
          "name": "vaultId_",
          "type": "uint8"
        }
      ],
      "name": "getVault",
      "outputs": [
        {
          "internalType": "uint256",
          "name": "totalAllocated",
          "type": "uint256"
        },
        {
          "internalType": "uint256",
          "name": "currentBalance",
          "type": "uint256"
        },
        {
          "internalType": "uint256",
          "name": "unclaimedShare",
          "type": "uint256"
        },
        {
          "internalType": "bytes32",
          "name": "merkleRoot",
          "type": "bytes32"
        },
        {
          "internalType": "enum BeneficiaryVaults.VaultStatus",
          "name": "status",
          "type": "uint8"
        }
      ],
      "stateMutability": "view",
      "type": "function"
    },
    {
      "inputs": [
        {
          "internalType": "uint8",
          "name": "vaultId_",
          "type": "uint8"
        },
        {
          "internalType": "address",
          "name": "beneficiary_",
          "type": "address"
        }
      ],
      "name": "hasClaimed",
      "outputs": [
        {
          "internalType": "bool",
          "name": "",
          "type": "bool"
        }
      ],
      "stateMutability": "view",
      "type": "function"
    },
    {
      "inputs": [
        {
          "internalType": "uint8",
          "name": "vaultId_",
          "type": "uint8"
        },
        {
          "internalType": "bytes32",
          "name": "merkleRoot_",
          "type": "bytes32"
        }
      ],
      "name": "openVault",
      "outputs": [],
      "stateMutability": "nonpayable",
      "type": "function"
    },
    {
      "inputs": [],
      "name": "owner",
      "outputs": [
        {
          "internalType": "address",
          "name": "",
          "type": "address"
        }
      ],
      "stateMutability": "view",
      "type": "function"
    },
    {
      "inputs": [],
      "name": "pop",
      "outputs": [
        {
          "internalType": "contract IERC20",
          "name": "",
          "type": "address"
        }
      ],
      "stateMutability": "view",
      "type": "function"
    },
    {
      "inputs": [],
      "name": "renounceOwnership",
      "outputs": [],
      "stateMutability": "nonpayable",
      "type": "function"
    },
    {
      "inputs": [
        {
          "internalType": "contract IBeneficiaryRegistry",
          "name": "beneficiaryRegistry_",
          "type": "address"
        }
      ],
      "name": "setBeneficiaryRegistry",
      "outputs": [],
      "stateMutability": "nonpayable",
      "type": "function"
    },
    {
      "inputs": [],
      "name": "totalDistributedBalance",
      "outputs": [
        {
          "internalType": "uint256",
          "name": "",
          "type": "uint256"
        }
      ],
      "stateMutability": "view",
      "type": "function"
    },
    {
      "inputs": [
        {
          "internalType": "address",
          "name": "newOwner",
          "type": "address"
        }
      ],
      "name": "transferOwnership",
      "outputs": [],
      "stateMutability": "nonpayable",
      "type": "function"
    },
    {
      "inputs": [
        {
          "internalType": "uint8",
          "name": "vaultId_",
          "type": "uint8"
        }
      ],
      "name": "vaultExists",
      "outputs": [
        {
          "internalType": "bool",
          "name": "",
          "type": "bool"
        }
      ],
      "stateMutability": "view",
      "type": "function"
    },
    {
      "inputs": [
        {
          "internalType": "uint256",
          "name": "",
          "type": "uint256"
        }
      ],
      "name": "vaults",
      "outputs": [
        {
          "internalType": "uint256",
          "name": "totalAllocated",
          "type": "uint256"
        },
        {
          "internalType": "uint256",
          "name": "currentBalance",
          "type": "uint256"
        },
        {
          "internalType": "uint256",
          "name": "unclaimedShare",
          "type": "uint256"
        },
        {
          "internalType": "bytes32",
          "name": "merkleRoot",
          "type": "bytes32"
        },
        {
          "internalType": "enum BeneficiaryVaults.VaultStatus",
          "name": "status",
          "type": "uint8"
        }
      ],
      "stateMutability": "view",
      "type": "function"
    },
    {
      "inputs": [
        {
          "internalType": "uint8",
          "name": "vaultId_",
          "type": "uint8"
        },
        {
          "internalType": "bytes32[]",
          "name": "proof_",
          "type": "bytes32[]"
        },
        {
          "internalType": "address",
          "name": "beneficiary_",
          "type": "address"
        },
        {
          "internalType": "uint256",
          "name": "share_",
          "type": "uint256"
        }
      ],
      "name": "verifyClaim",
      "outputs": [
        {
          "internalType": "bool",
          "name": "",
          "type": "bool"
        }
      ],
      "stateMutability": "view",
      "type": "function"
    }
  ],
  "bytecode": "0x60a0604052600060035534801561001557600080fd5b50604051611a1e380380611a1e8339818101604052602081101561003857600080fd5b505160006100446100a7565b600080546001600160a01b0319166001600160a01b0383169081178255604051929350917f8be0079c531659141344cd1fd0a4f28419497f9722a3daafe3b4186f6b6457e0908290a3506001805560601b6001600160601b0319166080526100ab565b3390565b60805160601c61194c6100d260003980610c755280610f1052806111cf525061194c6000f3fe608060405234801561001057600080fd5b50600436106101005760003560e01c8063a3bc61a511610097578063bd6ad5ac11610066578063bd6ad5ac146103dc578063cd26aee5146103fc578063dd5c7e4d14610404578063f2fde38b1461042457610100565b8063a3bc61a5146102f7578063a4ece52c146102ff578063a53af58614610307578063a998ad661461032157610100565b80637784e8cb116100d35780637784e8cb1461019857806383cd092c146102535780638c64ea4a146102795780638da5cb5b146102d357610100565b80631ff870681461010557806330ca9d591461013957806336bcf21614610161578063715018a614610190575b600080fd5b6101256004803603602081101561011b57600080fd5b503560ff1661044a565b604080519115158252519081900360200190f35b61015f6004803603604081101561014f57600080fd5b5060ff813516906020013561047d565b005b6101256004803603604081101561017757600080fd5b50803560ff1690602001356001600160a01b03166106b4565b61015f610741565b610125600480360360808110156101ae57600080fd5b60ff82351691908101906040810160208201356401000000008111156101d357600080fd5b8201836020820111156101e557600080fd5b8035906020019184602083028401116401000000008311171561020757600080fd5b919080806020026020016040519081016040528093929190818152602001838360200280828437600092019190915250929550506001600160a01b03833516935050506020013561080c565b61015f6004803603602081101561026957600080fd5b50356001600160a01b0316610a81565b6102966004803603602081101561028f57600080fd5b5035610bc7565b604051808681526020018581526020018481526020018381526020018260018111156102be57fe5b81526020019550505050505060405180910390f35b6102db610bfc565b604080516001600160a01b039092168252519081900360200190f35b61015f610c0b565b6102db610f0e565b61030f610f32565b60408051918252519081900360200190f35b61015f6004803603608081101561033757600080fd5b60ff823516919081019060408101602082013564010000000081111561035c57600080fd5b82018360208201111561036e57600080fd5b8035906020019184602083028401116401000000008311171561039057600080fd5b919080806020026020016040519081016040528093929190818152602001838360200280828437600092019190915250929550506001600160a01b038335169350505060200135610f38565b610296600480360360208110156103f257600080fd5b503560ff16611299565b6102db611332565b61015f6004803603602081101561041a57600080fd5b503560ff16611341565b61015f6004803603602081101561043a57600080fd5b50356001600160a01b031661150b565b600060038260ff16108015610477575060048260ff166003811061046a57fe5b6006020160040154600014155b92915050565b61048561162c565b6001600160a01b0316610496610bfc565b6001600160a01b0316146104f1576040805162461bcd60e51b815260206004820181905260248201527f4f776e61626c653a2063616c6c6572206973206e6f7420746865206f776e6572604482015290519081900360640190fd5b60038260ff1610610549576040805162461bcd60e51b815260206004820152601060248201527f496e76616c6964207661756c7420696400000000000000000000000000000000604482015290519081900360640190fd5b60048260ff166003811061055957fe5b6006020160040154600014806105945750600160048360ff166003811061057c57fe5b600602016005015460ff16600181111561059257fe5b145b6105e5576040805162461bcd60e51b815260206004820152601660248201527f5661756c74206d757374206e6f74206265206f70656e00000000000000000000604482015290519081900360640190fd5b60048260ff16600381106105f557fe5b600060069190910291909101818155600181018290556002810182905560048082018390556005909101805460ff1916905560ff84166003811061063557fe5b600060069190910291909101818155600181019190915568056bc75e2d6310000060028201556004810183905560058101805460ff191690556040805160ff861681526020810185905281519293507f94332a312ce2d963c5551d5f555b44816411faa9f4f197a90f9fab3caca7c06f929081900390910190a1505050565b6000826106c08161044a565b610704576040805162461bcd60e51b815260206004820152601060248201526f1d985d5b1d081b5d5cdd08195e1a5cdd60821b604482015290519081900360640190fd5b60048460ff166003811061071457fe5b6001600160a01b03949094166000908152600694909402016003016020525050604090205460ff16919050565b61074961162c565b6001600160a01b031661075a610bfc565b6001600160a01b0316146107b5576040805162461bcd60e51b815260206004820181905260248201527f4f776e61626c653a2063616c6c6572206973206e6f7420746865206f776e6572604482015290519081900360640190fd5b600080546040516001600160a01b03909116907f8be0079c531659141344cd1fd0a4f28419497f9722a3daafe3b4186f6b6457e0908390a36000805473ffffffffffffffffffffffffffffffffffffffff19169055565b6000846108188161044a565b61085c576040805162461bcd60e51b815260206004820152601060248201526f1d985d5b1d081b5d5cdd08195e1a5cdd60821b604482015290519081900360640190fd5b336001600160a01b038516146108b9576040805162461bcd60e51b815260206004820152601a60248201527f53656e646572206d7573742062652062656e6566696369617279000000000000604482015290519081900360640190fd5b600060048760ff16600381106108cb57fe5b600602016005015460ff1660018111156108e157fe5b14610933576040805162461bcd60e51b815260206004820152601260248201527f5661756c74206d757374206265206f70656e0000000000000000000000000000604482015290519081900360640190fd5b600254604080517f75e71d6d0000000000000000000000000000000000000000000000000000000081526001600160a01b038781166004830152915191909216916375e71d6d916024808301926020929190829003018186803b15801561099957600080fd5b505afa1580156109ad573d6000803e3d6000fd5b505050506040513d60208110156109c357600080fd5b50511515600114610a1b576040805162461bcd60e51b815260206004820152601a60248201527f42656e656669636961727920646f6573206e6f74206578697374000000000000604482015290519081900360640190fd5b610a778560048860ff1660038110610a2f57fe5b6006020160040154868660405160200180836001600160a01b031660601b81526014018281526020019250505060405160208183030381529060405280519060200120611630565b9695505050505050565b610a8961162c565b6001600160a01b0316610a9a610bfc565b6001600160a01b031614610af5576040805162461bcd60e51b815260206004820181905260248201527f4f776e61626c653a2063616c6c6572206973206e6f7420746865206f776e6572604482015290519081900360640190fd5b6002546001600160a01b0382811691161415610b58576040805162461bcd60e51b815260206004820152601860248201527f53616d652042656e656669636961727952656769737472790000000000000000604482015290519081900360640190fd5b600280546001600160a01b0383811673ffffffffffffffffffffffffffffffffffffffff19831617928390556040805192821680845293909116602083015280517fd3bb27ba520c0cb83cc925308e5f83cf6a462b8069a2f2258d5622b3ab96861e9281900390910190a15050565b60048160038110610bd457fe5b6006020180546001820154600283015460048401546005909401549294509092909160ff1685565b6000546001600160a01b031690565b60026001541415610c63576040805162461bcd60e51b815260206004820152601f60248201527f5265656e7472616e637947756172643a207265656e7472616e742063616c6c00604482015290519081900360640190fd5b60026001819055506000610d126003547f00000000000000000000000000000000000000000000000000000000000000006001600160a01b03166370a08231306040518263ffffffff1660e01b815260040180826001600160a01b0316815260200191505060206040518083038186803b158015610ce057600080fd5b505afa158015610cf4573d6000803e3d6000fd5b505050506040513d6020811015610d0a57600080fd5b5051906116d9565b905060008111610d69576040805162461bcd60e51b815260206004820152601460248201527f6e6f207265776172647320617661696c61626c65000000000000000000000000604482015290519081900360640190fd5b6000610d73611736565b905060008160ff1611610dcd576040805162461bcd60e51b815260206004820152600e60248201527f6e6f206f70656e207661756c7473000000000000000000000000000000000000604482015290519081900360640190fd5b6000610ddc8360ff84166117ae565b905060005b60038160ff161015610ec157600060048260ff1660038110610dff57fe5b600602016005015460ff166001811115610e1557fe5b148015610e3a575060048160ff1660038110610e2d57fe5b6006020160040154600014155b15610eb957610e5e8260048360ff1660038110610e5357fe5b600602015490611815565b60048260ff1660038110610e6e57fe5b6006020155610e9d82600460ff841660038110610e8757fe5b600602016001015461181590919063ffffffff16565b60048260ff1660038110610ead57fe5b60060201600101819055505b600101610de1565b50600354610ecf9084611815565b6003556040805184815290517f81d41c1164884f982ea287ef660cfc57fcb017b60a636db1b8045e7f0edda6b89181900360200190a150506001805550565b7f000000000000000000000000000000000000000000000000000000000000000081565b60035481565b60026001541415610f90576040805162461bcd60e51b815260206004820152601f60248201527f5265656e7472616e637947756172643a207265656e7472616e742063616c6c00604482015290519081900360640190fd5b600260015583610f9f8161044a565b610fe3576040805162461bcd60e51b815260206004820152601060248201526f1d985d5b1d081b5d5cdd08195e1a5cdd60821b604482015290519081900360640190fd5b610fef8585858561080c565b1515600114611045576040805162461bcd60e51b815260206004820152600d60248201527f496e76616c696420636c61696d00000000000000000000000000000000000000604482015290519081900360640190fd5b61104f85846106b4565b156110a1576040805162461bcd60e51b815260206004820152600f60248201527f416c726561647920636c61696d65640000000000000000000000000000000000604482015290519081900360640190fd5b600060048660ff16600381106110b357fe5b60060201905060006110e082600201546110da86856001015461187690919063ffffffff16565b906117ae565b905060008111611137576040805162461bcd60e51b815260206004820152600960248201527f4e6f207265776172640000000000000000000000000000000000000000000000604482015290519081900360640190fd5b60035461114490826116d9565b600355600182015461115690826116d9565b6001830155600282015461116a90856116d9565b60028301556001600160a01b0380861660008181526003850160209081526040808320805460ff1916600117905580517fa9059cbb000000000000000000000000000000000000000000000000000000008152600481019490945260248401869052517f00000000000000000000000000000000000000000000000000000000000000009094169363a9059cbb93604480820194918390030190829087803b15801561121557600080fd5b505af1158015611229573d6000803e3d6000fd5b505050506040513d602081101561123f57600080fd5b50506040805160ff891681526001600160a01b038716602082015280820183905290517fe740a8ecbede9b32963c2e92e25e49290fb6af8f0ad19b08efb5442ffabe8eed9181900360600190a15050600180555050505050565b6000806000806000856112ab8161044a565b6112ef576040805162461bcd60e51b815260206004820152601060248201526f1d985d5b1d081b5d5cdd08195e1a5cdd60821b604482015290519081900360640190fd5b600060048860ff166003811061130157fe5b600602018054600182015460028301546004840154600590940154929c919b50995091975060ff1695509350505050565b6002546001600160a01b031681565b61134961162c565b6001600160a01b031661135a610bfc565b6001600160a01b0316146113b5576040805162461bcd60e51b815260206004820181905260248201527f4f776e61626c653a2063616c6c6572206973206e6f7420746865206f776e6572604482015290519081900360640190fd5b806113bf8161044a565b611403576040805162461bcd60e51b815260206004820152601060248201526f1d985d5b1d081b5d5cdd08195e1a5cdd60821b604482015290519081900360640190fd5b600060048360ff166003811061141557fe5b6006020190506000600582015460ff16600181111561143057fe5b14611482576040805162461bcd60e51b815260206004820152601260248201527f5661756c74206d757374206265206f70656e0000000000000000000000000000604482015290519081900360640190fd5b60018181018054600090915560058301805460ff191690921790915580156114cf576003546114b190826116d9565b60035560006114be611736565b60ff1611156114cf576114cf610c0b565b6040805160ff8616815290517fb24f4f47606a18ba5dba29cfe581aafd052d1b5152b4acc12a04f8dfa11fd17f9181900360200190a150505050565b61151361162c565b6001600160a01b0316611524610bfc565b6001600160a01b03161461157f576040805162461bcd60e51b815260206004820181905260248201527f4f776e61626c653a2063616c6c6572206973206e6f7420746865206f776e6572604482015290519081900360640190fd5b6001600160a01b0381166115c45760405162461bcd60e51b81526004018080602001828103825260268152602001806118d06026913960400191505060405180910390fd5b600080546040516001600160a01b03808516939216917f8be0079c531659141344cd1fd0a4f28419497f9722a3daafe3b4186f6b6457e091a36000805473ffffffffffffffffffffffffffffffffffffffff19166001600160a01b0392909216919091179055565b3390565b600081815b85518110156116ce57600086828151811061164c57fe5b6020026020010151905080831161169357828160405160200180838152602001828152602001925050506040516020818303038152906040528051906020012092506116c5565b808360405160200180838152602001828152602001925050506040516020818303038152906040528051906020012092505b50600101611635565b509092149392505050565b600082821115611730576040805162461bcd60e51b815260206004820152601e60248201527f536166654d6174683a207375627472616374696f6e206f766572666c6f770000604482015290519081900360640190fd5b50900390565b600080805b60038160ff1610156117a85760048160ff166003811061175757fe5b60060201600401546000141580156117945750600060048260ff166003811061177c57fe5b600602016005015460ff16600181111561179257fe5b145b156117a0576001909101905b60010161173b565b50905090565b6000808211611804576040805162461bcd60e51b815260206004820152601a60248201527f536166654d6174683a206469766973696f6e206279207a65726f000000000000604482015290519081900360640190fd5b81838161180d57fe5b049392505050565b60008282018381101561186f576040805162461bcd60e51b815260206004820152601b60248201527f536166654d6174683a206164646974696f6e206f766572666c6f770000000000604482015290519081900360640190fd5b9392505050565b60008261188557506000610477565b8282028284828161189257fe5b041461186f5760405162461bcd60e51b81526004018080602001828103825260218152602001806118f66021913960400191505060405180910390fdfe4f776e61626c653a206e6577206f776e657220697320746865207a65726f2061646472657373536166654d6174683a206d756c7469706c69636174696f6e206f766572666c6f77a2646970667358221220d39c1a0fc63e517bd46bf68f97ab4a369d0b4b35e5a10b4cb9df2bb1b8fcba2364736f6c63430007030033",
  "linkReferences": {},
  "deployedLinkReferences": {}
}