{
  "_format": "hh-sol-artifact-1",
  "contractName": "MockYearnV2Vault",
  "sourceName": "contracts/mocks/MockYearnV2Vault.sol",
  "abi": [
    {
      "inputs": [
        {
          "internalType": "address",
          "name": "token_",
          "type": "address"
        }
      ],
      "stateMutability": "nonpayable",
      "type": "constructor"
    },
    {
      "anonymous": false,
      "inputs": [
        {
          "indexed": true,
          "internalType": "address",
          "name": "owner",
          "type": "address"
        },
        {
          "indexed": true,
          "internalType": "address",
          "name": "spender",
          "type": "address"
        },
        {
          "indexed": false,
          "internalType": "uint256",
          "name": "value",
          "type": "uint256"
        }
      ],
      "name": "Approval",
      "type": "event"
    },
    {
      "anonymous": false,
      "inputs": [
        {
          "indexed": true,
          "internalType": "address",
          "name": "from",
          "type": "address"
        },
        {
          "indexed": true,
          "internalType": "address",
          "name": "to",
          "type": "address"
        },
        {
          "indexed": false,
          "internalType": "uint256",
          "name": "value",
          "type": "uint256"
        }
      ],
      "name": "Transfer",
      "type": "event"
    },
    {
      "inputs": [
        {
          "internalType": "address",
          "name": "owner",
          "type": "address"
        },
        {
          "internalType": "address",
          "name": "spender",
          "type": "address"
        }
      ],
      "name": "allowance",
      "outputs": [
        {
          "internalType": "uint256",
          "name": "",
          "type": "uint256"
        }
      ],
      "stateMutability": "view",
      "type": "function"
    },
    {
      "inputs": [
        {
          "internalType": "address",
          "name": "spender",
          "type": "address"
        },
        {
          "internalType": "uint256",
          "name": "amount",
          "type": "uint256"
        }
      ],
      "name": "approve",
      "outputs": [
        {
          "internalType": "bool",
          "name": "",
          "type": "bool"
        }
      ],
      "stateMutability": "nonpayable",
      "type": "function"
    },
    {
      "inputs": [],
      "name": "balance",
      "outputs": [
        {
          "internalType": "uint256",
          "name": "",
          "type": "uint256"
        }
      ],
      "stateMutability": "view",
      "type": "function"
    },
    {
      "inputs": [
        {
          "internalType": "address",
          "name": "account",
          "type": "address"
        }
      ],
      "name": "balanceOf",
      "outputs": [
        {
          "internalType": "uint256",
          "name": "",
          "type": "uint256"
        }
      ],
      "stateMutability": "view",
      "type": "function"
    },
    {
      "inputs": [
        {
          "internalType": "address",
          "name": "from_",
          "type": "address"
        },
        {
          "internalType": "uint256",
          "name": "amount_",
          "type": "uint256"
        }
      ],
      "name": "burn",
      "outputs": [],
      "stateMutability": "nonpayable",
      "type": "function"
    },
    {
      "inputs": [],
      "name": "decimals",
      "outputs": [
        {
          "internalType": "uint8",
          "name": "",
          "type": "uint8"
        }
      ],
      "stateMutability": "view",
      "type": "function"
    },
    {
      "inputs": [
        {
          "internalType": "address",
          "name": "spender",
          "type": "address"
        },
        {
          "internalType": "uint256",
          "name": "subtractedValue",
          "type": "uint256"
        }
      ],
      "name": "decreaseAllowance",
      "outputs": [
        {
          "internalType": "bool",
          "name": "",
          "type": "bool"
        }
      ],
      "stateMutability": "nonpayable",
      "type": "function"
    },
    {
      "inputs": [
        {
          "internalType": "uint256",
          "name": "amount",
          "type": "uint256"
        },
        {
          "internalType": "address",
          "name": "recipient",
          "type": "address"
        }
      ],
      "name": "deposit",
      "outputs": [
        {
          "internalType": "uint256",
          "name": "",
          "type": "uint256"
        }
      ],
      "stateMutability": "nonpayable",
      "type": "function"
    },
    {
      "inputs": [
        {
          "internalType": "uint256",
          "name": "amount",
          "type": "uint256"
        }
      ],
      "name": "deposit",
      "outputs": [
        {
          "internalType": "uint256",
          "name": "",
          "type": "uint256"
        }
      ],
      "stateMutability": "nonpayable",
      "type": "function"
    },
    {
      "inputs": [
        {
          "internalType": "address",
          "name": "spender",
          "type": "address"
        },
        {
          "internalType": "uint256",
          "name": "addedValue",
          "type": "uint256"
        }
      ],
      "name": "increaseAllowance",
      "outputs": [
        {
          "internalType": "bool",
          "name": "",
          "type": "bool"
        }
      ],
      "stateMutability": "nonpayable",
      "type": "function"
    },
    {
      "inputs": [
        {
          "internalType": "uint256",
          "name": "multiplier",
          "type": "uint256"
        }
      ],
      "name": "increasePricePerFullShare",
      "outputs": [],
      "stateMutability": "nonpayable",
      "type": "function"
    },
    {
      "inputs": [],
      "name": "maxAvailableShares",
      "outputs": [
        {
          "internalType": "uint256",
          "name": "",
          "type": "uint256"
        }
      ],
      "stateMutability": "view",
      "type": "function"
    },
    {
      "inputs": [
        {
          "internalType": "address",
          "name": "to_",
          "type": "address"
        },
        {
          "internalType": "uint256",
          "name": "amount_",
          "type": "uint256"
        }
      ],
      "name": "mint",
      "outputs": [],
      "stateMutability": "nonpayable",
      "type": "function"
    },
    {
      "inputs": [],
      "name": "name",
      "outputs": [
        {
          "internalType": "string",
          "name": "",
          "type": "string"
        }
      ],
      "stateMutability": "view",
      "type": "function"
    },
    {
      "inputs": [],
      "name": "pricePerShare",
      "outputs": [
        {
          "internalType": "uint256",
          "name": "",
          "type": "uint256"
        }
      ],
      "stateMutability": "view",
      "type": "function"
    },
    {
      "inputs": [
        {
          "internalType": "uint256",
          "name": "pricePerFullShare",
          "type": "uint256"
        }
      ],
      "name": "setPricePerFullShare",
      "outputs": [],
      "stateMutability": "nonpayable",
      "type": "function"
    },
    {
      "inputs": [],
      "name": "symbol",
      "outputs": [
        {
          "internalType": "string",
          "name": "",
          "type": "string"
        }
      ],
      "stateMutability": "view",
      "type": "function"
    },
    {
      "inputs": [],
      "name": "token",
      "outputs": [
        {
          "internalType": "contract MockERC20",
          "name": "",
          "type": "address"
        }
      ],
      "stateMutability": "view",
      "type": "function"
    },
    {
      "inputs": [],
      "name": "totalAssets",
      "outputs": [
        {
          "internalType": "uint256",
          "name": "",
          "type": "uint256"
        }
      ],
      "stateMutability": "view",
      "type": "function"
    },
    {
      "inputs": [],
      "name": "totalSupply",
      "outputs": [
        {
          "internalType": "uint256",
          "name": "",
          "type": "uint256"
        }
      ],
      "stateMutability": "view",
      "type": "function"
    },
    {
      "inputs": [
        {
          "internalType": "address",
          "name": "recipient",
          "type": "address"
        },
        {
          "internalType": "uint256",
          "name": "amount",
          "type": "uint256"
        }
      ],
      "name": "transfer",
      "outputs": [
        {
          "internalType": "bool",
          "name": "",
          "type": "bool"
        }
      ],
      "stateMutability": "nonpayable",
      "type": "function"
    },
    {
      "inputs": [
        {
          "internalType": "address",
          "name": "sender",
          "type": "address"
        },
        {
          "internalType": "address",
          "name": "recipient",
          "type": "address"
        },
        {
          "internalType": "uint256",
          "name": "amount",
          "type": "uint256"
        }
      ],
      "name": "transferFrom",
      "outputs": [
        {
          "internalType": "bool",
          "name": "",
          "type": "bool"
        }
      ],
      "stateMutability": "nonpayable",
      "type": "function"
    },
    {
      "inputs": [
        {
          "internalType": "uint256",
          "name": "amount",
          "type": "uint256"
        }
      ],
      "name": "withdraw",
      "outputs": [
        {
          "internalType": "uint256",
          "name": "",
          "type": "uint256"
        }
      ],
      "stateMutability": "nonpayable",
      "type": "function"
    }
  ],
  "bytecode": "0x60806040523480156200001157600080fd5b5060405162001ad438038062001ad4833981810160405260208110156200003757600080fd5b5051604080518082018252601381527f4d6f636b206372765553445820795661756c74000000000000000000000000006020828101918252835180850190945260068452650f2ecaaa688b60d31b90840152815191929160129184918491620000a491600391906200011b565b508051620000ba9060049060208401906200011b565b50506005805460ff1916601217905550620000d58162000105565b5050600580546001600160a01b0390931661010002610100600160a81b03199093169290921790915550620001b7565b6005805460ff191660ff92909216919091179055565b828054600181600116156101000203166002900490600052602060002090601f016020900481019282601f106200015e57805160ff19168380011785556200018e565b828001600101855582156200018e579182015b828111156200018e57825182559160200191906001019062000171565b506200019c929150620001a0565b5090565b5b808211156200019c5760008155600101620001a1565b61190d80620001c76000396000f3fe608060405234801561001057600080fd5b506004361061018d5760003560e01c806370a08231116100e3578063a9059cbb1161008c578063c3819fb611610066578063c3819fb614610464578063dd62ed3e14610481578063fc0c546a146104af5761018d565b8063a9059cbb1461041b578063b69ef8a814610192578063b6b55f25146104475761018d565b806399530b06116100bd57806399530b06146103bb5780639dc29fac146103c3578063a457c2d7146103ef5761018d565b806370a082311461038557806375de2902146103ab57806395d89b41146103b35761018d565b806323b872dd11610145578063395093511161011f578063395093511461030157806340c10f191461032d5780636e553f65146103595761018d565b806323b872dd146102905780632e1a7d4d146102c6578063313ce567146102e35761018d565b806306fdde031161017657806306fdde03146101cb578063095ea7b31461024857806318160ddd146102885761018d565b806301e1d11414610192578063054133da146101ac575b600080fd5b61019a6104d3565b60408051918252519081900360200190f35b6101c9600480360360208110156101c257600080fd5b5035610555565b005b6101d3610718565b6040805160208082528351818301528351919283929083019185019080838360005b8381101561020d5781810151838201526020016101f5565b50505050905090810190601f16801561023a5780820380516001836020036101000a031916815260200191505b509250505060405180910390f35b6102746004803603604081101561025e57600080fd5b506001600160a01b0381351690602001356107ae565b604080519115158252519081900360200190f35b61019a6107cc565b610274600480360360608110156102a657600080fd5b506001600160a01b038135811691602081013590911690604001356107d2565b61019a600480360360208110156102dc57600080fd5b5035610859565b6102eb6109a1565b6040805160ff9092168252519081900360200190f35b6102746004803603604081101561031757600080fd5b506001600160a01b0381351690602001356109aa565b6101c96004803603604081101561034357600080fd5b506001600160a01b0381351690602001356109f8565b61019a6004803603604081101561036f57600080fd5b50803590602001356001600160a01b0316610a06565b61019a6004803603602081101561039b57600080fd5b50356001600160a01b0316610aa2565b61019a610abd565b6101d3610acc565b61019a610b2d565b6101c9600480360360408110156103d957600080fd5b506001600160a01b038135169060200135610b69565b6102746004803603604081101561040557600080fd5b506001600160a01b038135169060200135610b73565b6102746004803603604081101561043157600080fd5b506001600160a01b038135169060200135610bdb565b61019a6004803603602081101561045d57600080fd5b5035610bef565b6101c96004803603602081101561047a57600080fd5b5035610c84565b61019a6004803603604081101561049757600080fd5b506001600160a01b0381358116916020013516610e17565b6104b7610e42565b604080516001600160a01b039092168252519081900360200190f35b600554604080516370a0823160e01b8152306004820152905160009261010090046001600160a01b0316916370a08231916024808301926020929190829003018186803b15801561052357600080fd5b505afa158015610537573d6000803e3d6000fd5b505050506040513d602081101561054d57600080fd5b505190505b90565b600061057b670de0b6b3a76400006105758461056f610b2d565b90610e56565b90610eaf565b600554604080516370a0823160e01b8152306004820181905291519394506101009092046001600160a01b031692639dc29fac9284916370a0823191602480820192602092909190829003018186803b1580156105d757600080fd5b505afa1580156105eb573d6000803e3d6000fd5b505050506040513d602081101561060157600080fd5b5051604080517fffffffff0000000000000000000000000000000000000000000000000000000060e086901b1681526001600160a01b039093166004840152602483019190915251604480830192600092919082900301818387803b15801561066957600080fd5b505af115801561067d573d6000803e3d6000fd5b5050505060006106a1670de0b6b3a764000061057561069a6107cc565b8590610e56565b600554604080516340c10f1960e01b81523060048201526024810184905290519293506101009091046001600160a01b0316916340c10f199160448082019260009290919082900301818387803b1580156106fb57600080fd5b505af115801561070f573d6000803e3d6000fd5b50505050505050565b60038054604080516020601f60026000196101006001881615020190951694909404938401819004810282018101909252828152606093909290918301828280156107a45780601f10610779576101008083540402835291602001916107a4565b820191906000526020600020905b81548152906001019060200180831161078757829003601f168201915b5050505050905090565b60006107c26107bb610f16565b8484610f1a565b5060015b92915050565b60025490565b60006107df848484611006565b61084f846107eb610f16565b61084a85604051806060016040528060288152602001611821602891396001600160a01b038a16600090815260016020526040812090610829610f16565b6001600160a01b031681526020810191909152604001600020549190611161565b610f1a565b5060019392505050565b600080610865836111f8565b9050610871338461135b565b600554604080517f095ea7b30000000000000000000000000000000000000000000000000000000081523060048201526024810184905290516101009092046001600160a01b03169163095ea7b3916044808201926020929091908290030181600087803b1580156108e257600080fd5b505af11580156108f6573d6000803e3d6000fd5b505050506040513d602081101561090c57600080fd5b5050600554604080516323b872dd60e01b81523060048201523360248201526044810184905290516101009092046001600160a01b0316916323b872dd916064808201926020929091908290030181600087803b15801561096c57600080fd5b505af1158015610980573d6000803e3d6000fd5b505050506040513d602081101561099657600080fd5b50909150505b919050565b60055460ff1690565b60006107c26109b7610f16565b8461084a85600160006109c8610f16565b6001600160a01b03908116825260208083019390935260409182016000908120918c168152925290205490611457565b610a0282826114b1565b5050565b600554604080516323b872dd60e01b815233600482015230602482015260448101859052905160009261010090046001600160a01b0316916323b872dd91606480830192602092919082900301818787803b158015610a6457600080fd5b505af1158015610a78573d6000803e3d6000fd5b505050506040513d6020811015610a8e57600080fd5b50610a9b905082846115a1565b9392505050565b6001600160a01b031660009081526020819052604090205490565b6000610ac76107cc565b905090565b60048054604080516020601f60026000196101006001881615020190951694909404938401819004810282018101909252828152606093909290918301828280156107a45780601f10610779576101008083540402835291602001916107a4565b6000610b376107cc565b610b4a5750670de0b6b3a7640000610552565b610ac7610b556107cc565b610575670de0b6b3a764000061056f6104d3565b610a02828261135b565b60006107c2610b80610f16565b8461084a856040518060600160405280602581526020016118b36025913960016000610baa610f16565b6001600160a01b03908116825260208083019390935260409182016000908120918d16815292529020549190611161565b60006107c2610be8610f16565b8484611006565b600554604080516323b872dd60e01b815233600482015230602482015260448101849052905160009261010090046001600160a01b0316916323b872dd91606480830192602092919082900301818787803b158015610c4d57600080fd5b505af1158015610c61573d6000803e3d6000fd5b505050506040513d6020811015610c7757600080fd5b506107c6905033836115a1565b600554604080516370a0823160e01b8152306004820181905291516101009093046001600160a01b031692639dc29fac929184916370a0823191602480820192602092909190829003018186803b158015610cde57600080fd5b505afa158015610cf2573d6000803e3d6000fd5b505050506040513d6020811015610d0857600080fd5b5051604080517fffffffff0000000000000000000000000000000000000000000000000000000060e086901b1681526001600160a01b039093166004840152602483019190915251604480830192600092919082900301818387803b158015610d7057600080fd5b505af1158015610d84573d6000803e3d6000fd5b505050506000610da1670de0b6b3a764000061057561069a6107cc565b600554604080516340c10f1960e01b81523060048201526024810184905290519293506101009091046001600160a01b0316916340c10f199160448082019260009290919082900301818387803b158015610dfb57600080fd5b505af1158015610e0f573d6000803e3d6000fd5b505050505050565b6001600160a01b03918216600090815260016020908152604080832093909416825291909152205490565b60055461010090046001600160a01b031681565b600082610e65575060006107c6565b82820282848281610e7257fe5b0414610a9b5760405162461bcd60e51b81526004018080602001828103825260218152602001806118006021913960400191505060405180910390fd5b6000808211610f05576040805162461bcd60e51b815260206004820152601a60248201527f536166654d6174683a206469766973696f6e206279207a65726f000000000000604482015290519081900360640190fd5b818381610f0e57fe5b049392505050565b3390565b6001600160a01b038316610f5f5760405162461bcd60e51b815260040180806020018281038252602481526020018061188f6024913960400191505060405180910390fd5b6001600160a01b038216610fa45760405162461bcd60e51b81526004018080602001828103825260228152602001806117b86022913960400191505060405180910390fd5b6001600160a01b03808416600081815260016020908152604080832094871680845294825291829020859055815185815291517f8c5be1e5ebec7d5bd14f71427d1e84f3dd0314c0f7b2291e5b200ac8c7c3b9259281900390910190a3505050565b6001600160a01b03831661104b5760405162461bcd60e51b815260040180806020018281038252602581526020018061186a6025913960400191505060405180910390fd5b6001600160a01b0382166110905760405162461bcd60e51b81526004018080602001828103825260238152602001806117736023913960400191505060405180910390fd5b61109b838383611710565b6110d8816040518060600160405280602681526020016117da602691396001600160a01b0386166000908152602081905260409020549190611161565b6001600160a01b0380851660009081526020819052604080822093909355908416815220546111079082611457565b6001600160a01b038084166000818152602081815260409182902094909455805185815290519193928716927fddf252ad1be2c89b69c2b068fc378daa952ba7f163c4a11628f55a4df523b3ef92918290030190a3505050565b600081848411156111f05760405162461bcd60e51b81526004018080602001828103825283818151815260200191508051906020019080838360005b838110156111b557818101518382015260200161119d565b50505050905090810190601f1680156111e25780820380516001836020036101000a031916815260200191505b509250505060405180910390fd5b505050900390565b6000306001600160a01b03166318160ddd6040518163ffffffff1660e01b815260040160206040518083038186803b15801561123357600080fd5b505afa158015611247573d6000803e3d6000fd5b505050506040513d602081101561125d57600080fd5b505161126a57508061099c565b306001600160a01b03166318160ddd6040518163ffffffff1660e01b815260040160206040518083038186803b1580156112a357600080fd5b505afa1580156112b7573d6000803e3d6000fd5b505050506040513d60208110156112cd57600080fd5b5051604080517f01e1d114000000000000000000000000000000000000000000000000000000008152905130916301e1d114916004808301926020929190829003018186803b15801561131f57600080fd5b505afa158015611333573d6000803e3d6000fd5b505050506040513d602081101561134957600080fd5b505183028161135457fe5b0492915050565b6001600160a01b0382166113a05760405162461bcd60e51b81526004018080602001828103825260218152602001806118496021913960400191505060405180910390fd5b6113ac82600083611710565b6113e981604051806060016040528060228152602001611796602291396001600160a01b0385166000908152602081905260409020549190611161565b6001600160a01b03831660009081526020819052604090205560025461140f9082611715565b6002556040805182815290516000916001600160a01b038516917fddf252ad1be2c89b69c2b068fc378daa952ba7f163c4a11628f55a4df523b3ef9181900360200190a35050565b600082820183811015610a9b576040805162461bcd60e51b815260206004820152601b60248201527f536166654d6174683a206164646974696f6e206f766572666c6f770000000000604482015290519081900360640190fd5b6001600160a01b03821661150c576040805162461bcd60e51b815260206004820152601f60248201527f45524332303a206d696e7420746f20746865207a65726f206164647265737300604482015290519081900360640190fd5b61151860008383611710565b6002546115259082611457565b6002556001600160a01b03821660009081526020819052604090205461154b9082611457565b6001600160a01b0383166000818152602081815260408083209490945583518581529351929391927fddf252ad1be2c89b69c2b068fc378daa952ba7f163c4a11628f55a4df523b3ef9281900390910190a35050565b60008060009050306001600160a01b03166318160ddd6040518163ffffffff1660e01b815260040160206040518083038186803b1580156115e157600080fd5b505afa1580156115f5573d6000803e3d6000fd5b505050506040513d602081101561160b57600080fd5b5051611618575081611706565b306001600160a01b03166301e1d1146040518163ffffffff1660e01b815260040160206040518083038186803b15801561165157600080fd5b505afa158015611665573d6000803e3d6000fd5b505050506040513d602081101561167b57600080fd5b5051604080517f18160ddd000000000000000000000000000000000000000000000000000000008152905130916318160ddd916004808301926020929190829003018186803b1580156116cd57600080fd5b505afa1580156116e1573d6000803e3d6000fd5b505050506040513d60208110156116f757600080fd5b505184028161170257fe5b0490505b610a9b84826114b1565b505050565b60008282111561176c576040805162461bcd60e51b815260206004820152601e60248201527f536166654d6174683a207375627472616374696f6e206f766572666c6f770000604482015290519081900360640190fd5b5090039056fe45524332303a207472616e7366657220746f20746865207a65726f206164647265737345524332303a206275726e20616d6f756e7420657863656564732062616c616e636545524332303a20617070726f766520746f20746865207a65726f206164647265737345524332303a207472616e7366657220616d6f756e7420657863656564732062616c616e6365536166654d6174683a206d756c7469706c69636174696f6e206f766572666c6f7745524332303a207472616e7366657220616d6f756e74206578636565647320616c6c6f77616e636545524332303a206275726e2066726f6d20746865207a65726f206164647265737345524332303a207472616e736665722066726f6d20746865207a65726f206164647265737345524332303a20617070726f76652066726f6d20746865207a65726f206164647265737345524332303a2064656372656173656420616c6c6f77616e63652062656c6f77207a65726fa26469706673582212201e9789c559afd9c632b628bd44db1bd5ee32fe5c7bb51c7110cbc0aa1eb2740b64736f6c63430007030033",
  "linkReferences": {},
  "deployedLinkReferences": {}
}