{
  "_format": "hh-sol-artifact-1",
  "contractName": "PoolDefendedHelper",
  "sourceName": "contracts/test_helpers/PoolDefendedHelper.sol",
  "abi": [
    {
      "inputs": [
        {
          "internalType": "contract IERC20",
          "name": "_token",
          "type": "address"
        },
        {
          "internalType": "contract Pool",
          "name": "_pool",
          "type": "address"
        }
      ],
      "stateMutability": "nonpayable",
      "type": "constructor"
    },
    {
      "inputs": [
        {
          "internalType": "uint256",
          "name": "amount",
          "type": "uint256"
        }
      ],
      "name": "deposit",
      "outputs": [],
      "stateMutability": "nonpayable",
      "type": "function"
    },
    {
      "inputs": [],
      "name": "pool",
      "outputs": [
        {
          "internalType": "contract Pool",
          "name": "",
          "type": "address"
        }
      ],
      "stateMutability": "view",
      "type": "function"
    },
    {
      "inputs": [],
      "name": "token",
      "outputs": [
        {
          "internalType": "contract IERC20",
          "name": "",
          "type": "address"
        }
      ],
      "stateMutability": "view",
      "type": "function"
    }
  ],
  "bytecode": "0x608060405234801561001057600080fd5b506040516102963803806102968339818101604052604081101561003357600080fd5b508051602090910151600080546001600160a01b039384166001600160a01b0319918216179091556001805493909216921691909117905561021c8061007a6000396000f3fe608060405234801561001057600080fd5b50600436106100415760003560e01c806316f0115b14610046578063b6b55f251461006a578063fc0c546a14610089575b600080fd5b61004e610091565b604080516001600160a01b039092168252519081900360200190f35b6100876004803603602081101561008057600080fd5b50356100a0565b005b61004e6101d7565b6001546001600160a01b031681565b60008054600154604080517f095ea7b30000000000000000000000000000000000000000000000000000000081526001600160a01b039283166004820152602481018690529051919092169263095ea7b392604480820193602093909283900390910190829087803b15801561011557600080fd5b505af1158015610129573d6000803e3d6000fd5b505050506040513d602081101561013f57600080fd5b5050600154604080517fb6b55f250000000000000000000000000000000000000000000000000000000081526004810184905290516001600160a01b039092169163b6b55f25916024808201926020929091908290030181600087803b1580156101a857600080fd5b505af11580156101bc573d6000803e3d6000fd5b505050506040513d60208110156101d257600080fd5b505050565b6000546001600160a01b03168156fea2646970667358221220aed2786f2cb11a58b96aafb9b35e745eb3cc4ca056d5c7de91ce0520e148f66064736f6c634300060c0033",
  "linkReferences": {},
  "deployedLinkReferences": {}
}