{
  "_format": "hh-sol-artifact-1",
  "contractName": "MockBasicIssuanceModule",
  "sourceName": "contracts/mocks/MockBasicIssuanceModule.sol",
  "abi": [
    {
      "inputs": [
        {
          "internalType": "address[]",
          "name": "underlying_",
          "type": "address[]"
        },
        {
          "internalType": "uint256[]",
          "name": "quantities_",
          "type": "uint256[]"
        }
      ],
      "stateMutability": "nonpayable",
      "type": "constructor"
    },
    {
      "anonymous": false,
      "inputs": [
        {
          "indexed": false,
          "internalType": "address",
          "name": "setToken",
          "type": "address"
        },
        {
          "indexed": false,
          "internalType": "uint256",
          "name": "amount",
          "type": "uint256"
        },
        {
          "indexed": false,
          "internalType": "address",
          "name": "to",
          "type": "address"
        }
      ],
      "name": "SetIssued",
      "type": "event"
    },
    {
      "anonymous": false,
      "inputs": [
        {
          "indexed": false,
          "internalType": "address",
          "name": "setToken",
          "type": "address"
        },
        {
          "indexed": false,
          "internalType": "uint256",
          "name": "amount",
          "type": "uint256"
        },
        {
          "indexed": false,
          "internalType": "address",
          "name": "to",
          "type": "address"
        }
      ],
      "name": "SetRedeemed",
      "type": "event"
    },
    {
      "inputs": [
        {
          "internalType": "address",
          "name": "_setToken",
          "type": "address"
        },
        {
          "internalType": "uint256",
          "name": "_quantity",
          "type": "uint256"
        }
      ],
      "name": "getRequiredComponentUnitsForIssue",
      "outputs": [
        {
          "internalType": "address[]",
          "name": "",
          "type": "address[]"
        },
        {
          "internalType": "uint256[]",
          "name": "",
          "type": "uint256[]"
        }
      ],
      "stateMutability": "view",
      "type": "function"
    },
    {
      "inputs": [
        {
          "internalType": "address",
          "name": "_setToken",
          "type": "address"
        },
        {
          "internalType": "uint256",
          "name": "_quantity",
          "type": "uint256"
        },
        {
          "internalType": "address",
          "name": "_to",
          "type": "address"
        }
      ],
      "name": "issue",
      "outputs": [],
      "stateMutability": "nonpayable",
      "type": "function"
    },
    {
      "inputs": [
        {
          "internalType": "uint256",
          "name": "",
          "type": "uint256"
        }
      ],
      "name": "quantities",
      "outputs": [
        {
          "internalType": "uint256",
          "name": "",
          "type": "uint256"
        }
      ],
      "stateMutability": "view",
      "type": "function"
    },
    {
      "inputs": [
        {
          "internalType": "address",
          "name": "_setToken",
          "type": "address"
        },
        {
          "internalType": "uint256",
          "name": "_quantity",
          "type": "uint256"
        },
        {
          "internalType": "address",
          "name": "_to",
          "type": "address"
        }
      ],
      "name": "redeem",
      "outputs": [],
      "stateMutability": "nonpayable",
      "type": "function"
    },
    {
      "inputs": [
        {
          "internalType": "uint256",
          "name": "",
          "type": "uint256"
        }
      ],
      "name": "underlying",
      "outputs": [
        {
          "internalType": "address",
          "name": "",
          "type": "address"
        }
      ],
      "stateMutability": "view",
      "type": "function"
    }
  ],
  "bytecode": "0x60806040523480156200001157600080fd5b5060405162000be738038062000be7833981810160405260408110156200003757600080fd5b81019080805160405193929190846401000000008211156200005857600080fd5b9083019060208201858111156200006e57600080fd5b82518660208202830111640100000000821117156200008c57600080fd5b82525081516020918201928201910280838360005b83811015620000bb578181015183820152602001620000a1565b5050505090500160405260200180516040519392919084640100000000821115620000e557600080fd5b908301906020820185811115620000fb57600080fd5b82518660208202830111640100000000821117156200011957600080fd5b82525081516020918201928201910280838360005b83811015620001485781810151838201526020016200012e565b5050505091909101604052505083516200016c92506000915060208501906200018b565b50805162000182906001906020840190620001f5565b5050506200024a565b828054828255906000526020600020908101928215620001e3579160200282015b82811115620001e357825182546001600160a01b0319166001600160a01b03909116178255602090920191600190910190620001ac565b50620001f192915062000233565b5090565b828054828255906000526020600020908101928215620001e3579160200282015b82811115620001e357825182559160200191906001019062000216565b5b80821115620001f1576000815560010162000234565b61098d806200025a6000396000f3fe608060405234801561001057600080fd5b50600436106100675760003560e01c80637a4ffd03116100505780637a4ffd03146100da578063a41254031461019f578063f8fdeb68146101ce57610067565b80635c833bfd1461006c5780636d78f47a146100a4575b600080fd5b6100a26004803603606081101561008257600080fd5b506001600160a01b03813581169160208101359160409091013516610207565b005b6100a2600480360360608110156100ba57600080fd5b506001600160a01b03813581169160208101359160409091013516610503565b610106600480360360408110156100f057600080fd5b506001600160a01b03813516906020013561077f565b604051808060200180602001838103835285818151815260200191508051906020019060200280838360005b8381101561014a578181015183820152602001610132565b50505050905001838103825284818151815260200191508051906020019060200280838360005b83811015610189578181015183820152602001610171565b5050505090500194505050505060405180910390f35b6101bc600480360360208110156101b557600080fd5b503561088f565b60408051918252519081900360200190f35b6101eb600480360360208110156101e457600080fd5b50356108ad565b604080516001600160a01b039092168252519081900360200190f35b81836001600160a01b03166370a08231336040518263ffffffff1660e01b815260040180826001600160a01b0316815260200191505060206040518083038186803b15801561025557600080fd5b505afa158015610269573d6000803e3d6000fd5b505050506040513d602081101561027f57600080fd5b5051101561028c57600080fd5b604080516323b872dd60e01b81523360048201523060248201526044810184905290516001600160a01b038516916323b872dd9160648083019260209291908290030181600087803b1580156102e157600080fd5b505af11580156102f5573d6000803e3d6000fd5b505050506040513d602081101561030b57600080fd5b50600090505b6000548110156104b55760006103476001838154811061032d57fe5b9060005260206000200154856108d490919063ffffffff16565b90506000828154811061035657fe5b6000918252602080832090910154604080517f095ea7b30000000000000000000000000000000000000000000000000000000081523060048201526024810186905290516001600160a01b039092169363095ea7b39360448084019491939192918390030190829087803b1580156103cd57600080fd5b505af11580156103e1573d6000803e3d6000fd5b505050506040513d60208110156103f757600080fd5b5050600080548390811061040757fe5b6000918252602080832090910154604080517fa9059cbb0000000000000000000000000000000000000000000000000000000081526001600160a01b038881166004830152602482018790529151919092169363a9059cbb93604480850194919392918390030190829087803b15801561048057600080fd5b505af1158015610494573d6000803e3d6000fd5b505050506040513d60208110156104aa57600080fd5b505050600101610311565b50604080516001600160a01b038516815260208101849052338183015290517fc97fb56e31f7331d616610489789145b415cfcca68179fc31d318b1454d064419181900360600190a1505050565b60005b6000548110156106bf5760006105226001838154811061032d57fe5b9050806000838154811061053257fe5b60009182526020918290200154604080517f70a0823100000000000000000000000000000000000000000000000000000000815233600482015290516001600160a01b03909216926370a0823192602480840193829003018186803b15801561059a57600080fd5b505afa1580156105ae573d6000803e3d6000fd5b505050506040513d60208110156105c457600080fd5b50511015610619576040805162461bcd60e51b815260206004820152601b60248201527f6e6f7420656e6f75676820756e6465726c79696e6720746f6b656e0000000000604482015290519081900360640190fd5b6000828154811061062657fe5b6000918252602080832090910154604080516323b872dd60e01b81523360048201523060248201526044810186905290516001600160a01b03909216936323b872dd9360648084019491939192918390030190829087803b15801561068a57600080fd5b505af115801561069e573d6000803e3d6000fd5b505050506040513d60208110156106b457600080fd5b505050600101610506565b50826001600160a01b03166340c10f1982846040518363ffffffff1660e01b815260040180836001600160a01b0316815260200182815260200192505050600060405180830381600087803b15801561071757600080fd5b505af115801561072b573d6000803e3d6000fd5b5050604080516001600160a01b0380881682526020820187905285168183015290517f2d6442756b2b5e0b490f8d418d863a5d874591fe29a2ac6bad98834a9ec34a799350908190036060019150a1505050565b606080606060008054905067ffffffffffffffff811180156107a057600080fd5b506040519080825280602002602001820160405280156107ca578160200160208202803683370190505b50905060005b60005481101561082357610804600182815481106107ea57fe5b9060005260206000200154866108d490919063ffffffff16565b82828151811061081057fe5b60209081029190910101526001016107d0565b506000818180548060200260200160405190810160405280929190818152602001828054801561087c57602002820191906000526020600020905b81546001600160a01b0316815260019091019060200180831161085e575b5050505050915092509250509250929050565b6001818154811061089c57fe5b600091825260209091200154905081565b600081815481106108ba57fe5b6000918252602090912001546001600160a01b0316905081565b6000826108e357506000610930565b828202828482816108f057fe5b041461092d5760405162461bcd60e51b81526004018080602001828103825260218152602001806109376021913960400191505060405180910390fd5b90505b9291505056fe536166654d6174683a206d756c7469706c69636174696f6e206f766572666c6f77a2646970667358221220c341a3e4456a7e87a19b42095629b86e787ea91f953be17b1706e4e19a23788264736f6c63430007030033",
  "linkReferences": {},
  "deployedLinkReferences": {}
}