{
  "_format": "hh-sol-artifact-1",
  "contractName": "ParticipationRewardHelper",
  "sourceName": "contracts/test_helpers/ParticipationRewardHelper.sol",
  "abi": [
    {
      "inputs": [
        {
          "internalType": "contract IERC20",
          "name": "_pop",
          "type": "address"
        },
        {
          "internalType": "address",
          "name": "_governance",
          "type": "address"
        }
      ],
      "stateMutability": "nonpayable",
      "type": "constructor"
    },
    {
      "anonymous": false,
      "inputs": [
        {
          "indexed": false,
          "internalType": "address",
          "name": "oldGovernance",
          "type": "address"
        },
        {
          "indexed": false,
          "internalType": "address",
          "name": "newGovernance",
          "type": "address"
        }
      ],
      "name": "GovernanceChanged",
      "type": "event"
    },
    {
      "anonymous": false,
      "inputs": [
        {
          "indexed": false,
          "internalType": "address",
          "name": "newGovernance",
          "type": "address"
        }
      ],
      "name": "GovernanceNominated",
      "type": "event"
    },
    {
      "anonymous": false,
      "inputs": [
        {
          "indexed": false,
          "internalType": "address",
          "name": "account",
          "type": "address"
        },
        {
          "indexed": false,
          "internalType": "uint256",
          "name": "amount",
          "type": "uint256"
        }
      ],
      "name": "RewardBalanceIncreased",
      "type": "event"
    },
    {
      "anonymous": false,
      "inputs": [
        {
          "indexed": false,
          "internalType": "uint256",
          "name": "amount",
          "type": "uint256"
        }
      ],
      "name": "RewardBudgetChanged",
      "type": "event"
    },
    {
      "anonymous": false,
      "inputs": [
        {
          "indexed": false,
          "internalType": "bytes32",
          "name": "vaultId",
          "type": "bytes32"
        },
        {
          "indexed": false,
          "internalType": "address",
          "name": "account_",
          "type": "address"
        },
        {
          "indexed": false,
          "internalType": "uint256",
          "name": "amount",
          "type": "uint256"
        }
      ],
      "name": "RewardClaimed",
      "type": "event"
    },
    {
      "anonymous": false,
      "inputs": [
        {
          "indexed": false,
          "internalType": "address",
          "name": "account_",
          "type": "address"
        },
        {
          "indexed": false,
          "internalType": "uint256",
          "name": "amount",
          "type": "uint256"
        }
      ],
      "name": "RewardsClaimed",
      "type": "event"
    },
    {
      "anonymous": false,
      "inputs": [
        {
          "indexed": false,
          "internalType": "bytes32",
          "name": "vaultId_",
          "type": "bytes32"
        },
        {
          "indexed": false,
          "internalType": "address",
          "name": "account_",
          "type": "address"
        },
        {
          "indexed": false,
          "internalType": "uint256",
          "name": "shares_",
          "type": "uint256"
        }
      ],
      "name": "SharesAdded",
      "type": "event"
    },
    {
      "anonymous": false,
      "inputs": [
        {
          "indexed": false,
          "internalType": "bytes32",
          "name": "vaultId",
          "type": "bytes32"
        }
      ],
      "name": "VaultClosed",
      "type": "event"
    },
    {
      "anonymous": false,
      "inputs": [
        {
          "indexed": false,
          "internalType": "bytes32",
          "name": "vaultId",
          "type": "bytes32"
        }
      ],
      "name": "VaultInitialized",
      "type": "event"
    },
    {
      "anonymous": false,
      "inputs": [
        {
          "indexed": false,
          "internalType": "bytes32",
          "name": "vaultId",
          "type": "bytes32"
        }
      ],
      "name": "VaultOpened",
      "type": "event"
    },
    {
      "inputs": [],
      "name": "POP",
      "outputs": [
        {
          "internalType": "contract IERC20",
          "name": "",
          "type": "address"
        }
      ],
      "stateMutability": "view",
      "type": "function"
    },
    {
      "inputs": [],
      "name": "acceptGovernance",
      "outputs": [],
      "stateMutability": "nonpayable",
      "type": "function"
    },
    {
      "inputs": [
        {
          "internalType": "bytes32",
          "name": "vaultId_",
          "type": "bytes32"
        },
        {
          "internalType": "address",
          "name": "account_",
          "type": "address"
        },
        {
          "internalType": "uint256",
          "name": "shares_",
          "type": "uint256"
        }
      ],
      "name": "addShares",
      "outputs": [],
      "stateMutability": "nonpayable",
      "type": "function"
    },
    {
      "inputs": [
        {
          "internalType": "uint256",
          "name": "index_",
          "type": "uint256"
        }
      ],
      "name": "claimReward",
      "outputs": [],
      "stateMutability": "nonpayable",
      "type": "function"
    },
    {
      "inputs": [
        {
          "internalType": "uint256[]",
          "name": "indices_",
          "type": "uint256[]"
        }
      ],
      "name": "claimRewards",
      "outputs": [],
      "stateMutability": "nonpayable",
      "type": "function"
    },
    {
      "inputs": [
        {
          "internalType": "uint256",
          "name": "amount",
          "type": "uint256"
        }
      ],
      "name": "contributeReward",
      "outputs": [],
      "stateMutability": "nonpayable",
      "type": "function"
    },
    {
      "inputs": [
        {
          "internalType": "address",
          "name": "account",
          "type": "address"
        }
      ],
      "name": "getUserVaults",
      "outputs": [
        {
          "internalType": "bytes32[]",
          "name": "",
          "type": "bytes32[]"
        }
      ],
      "stateMutability": "view",
      "type": "function"
    },
    {
      "inputs": [
        {
          "internalType": "bytes32",
          "name": "vaultId_",
          "type": "bytes32"
        }
      ],
      "name": "getVaultStatus",
      "outputs": [
        {
          "internalType": "enum ParticipationReward.VaultStatus",
          "name": "",
          "type": "uint8"
        }
      ],
      "stateMutability": "view",
      "type": "function"
    },
    {
      "inputs": [],
      "name": "governance",
      "outputs": [
        {
          "internalType": "address",
          "name": "",
          "type": "address"
        }
      ],
      "stateMutability": "view",
      "type": "function"
    },
    {
      "inputs": [
        {
          "internalType": "bytes32",
          "name": "vaultId_",
          "type": "bytes32"
        },
        {
          "internalType": "address",
          "name": "beneficiary_",
          "type": "address"
        }
      ],
      "name": "hasClaim",
      "outputs": [
        {
          "internalType": "bool",
          "name": "",
          "type": "bool"
        }
      ],
      "stateMutability": "view",
      "type": "function"
    },
    {
      "inputs": [
        {
          "internalType": "bytes32",
          "name": "vaultId_",
          "type": "bytes32"
        },
        {
          "internalType": "uint256",
          "name": "endTime_",
          "type": "uint256"
        }
      ],
      "name": "initializeVault",
      "outputs": [],
      "stateMutability": "nonpayable",
      "type": "function"
    },
    {
      "inputs": [
        {
          "internalType": "bytes32",
          "name": "vaultId_",
          "type": "bytes32"
        },
        {
          "internalType": "address",
          "name": "beneficiary_",
          "type": "address"
        }
      ],
      "name": "isClaimable",
      "outputs": [
        {
          "internalType": "bool",
          "name": "",
          "type": "bool"
        }
      ],
      "stateMutability": "view",
      "type": "function"
    },
    {
      "inputs": [
        {
          "internalType": "address",
          "name": "_governance",
          "type": "address"
        }
      ],
      "name": "nominateNewGovernance",
      "outputs": [],
      "stateMutability": "nonpayable",
      "type": "function"
    },
    {
      "inputs": [],
      "name": "nominatedGovernance",
      "outputs": [
        {
          "internalType": "address",
          "name": "",
          "type": "address"
        }
      ],
      "stateMutability": "view",
      "type": "function"
    },
    {
      "inputs": [
        {
          "internalType": "bytes32",
          "name": "vaultId_",
          "type": "bytes32"
        }
      ],
      "name": "openVault",
      "outputs": [],
      "stateMutability": "nonpayable",
      "type": "function"
    },
    {
      "inputs": [],
      "name": "rewardBalance",
      "outputs": [
        {
          "internalType": "uint256",
          "name": "",
          "type": "uint256"
        }
      ],
      "stateMutability": "view",
      "type": "function"
    },
    {
      "inputs": [],
      "name": "rewardBudget",
      "outputs": [
        {
          "internalType": "uint256",
          "name": "",
          "type": "uint256"
        }
      ],
      "stateMutability": "view",
      "type": "function"
    },
    {
      "inputs": [
        {
          "internalType": "uint256",
          "name": "amount",
          "type": "uint256"
        }
      ],
      "name": "setRewardsBudget",
      "outputs": [],
      "stateMutability": "nonpayable",
      "type": "function"
    },
    {
      "inputs": [],
      "name": "totalVaultsBudget",
      "outputs": [
        {
          "internalType": "uint256",
          "name": "",
          "type": "uint256"
        }
      ],
      "stateMutability": "view",
      "type": "function"
    },
    {
      "inputs": [
        {
          "internalType": "address",
          "name": "",
          "type": "address"
        },
        {
          "internalType": "uint256",
          "name": "",
          "type": "uint256"
        }
      ],
      "name": "userVaults",
      "outputs": [
        {
          "internalType": "bytes32",
          "name": "",
          "type": "bytes32"
        }
      ],
      "stateMutability": "view",
      "type": "function"
    },
    {
      "inputs": [
        {
          "internalType": "bytes32",
          "name": "",
          "type": "bytes32"
        }
      ],
      "name": "vaults",
      "outputs": [
        {
          "internalType": "enum ParticipationReward.VaultStatus",
          "name": "status",
          "type": "uint8"
        },
        {
          "internalType": "uint256",
          "name": "endTime",
          "type": "uint256"
        },
        {
          "internalType": "uint256",
          "name": "shares",
          "type": "uint256"
        },
        {
          "internalType": "uint256",
          "name": "tokenBalance",
          "type": "uint256"
        }
      ],
      "stateMutability": "view",
      "type": "function"
    }
  ],
  "bytecode": "0x60a060405234801561001057600080fd5b50604051611bc0380380611bc08339818101604052604081101561003357600080fd5b5080516020909101518181806001600160a01b03811661009a576040805162461bcd60e51b815260206004820152601e60248201527f476f7665726e616e636520616464726573732063616e6e6f7420626520300000604482015290519081900360640190fd5b600080546001600160a01b0319166001600160a01b038316908117825560408051928352602083019190915280517f3aaaebeb4821d6a7e5c77ece53cff0afcc56c82add2c978dbbb7f73e84cbcfd29281900390910190a150506001600255606081901b6001600160601b0319166080526001600160a01b03169150611a8790506101396000398061072152806109f95280610a675250611a876000f3fe608060405234801561001057600080fd5b50600436106101775760003560e01c80637fa6bc2e116100d8578063ae169a501161008c578063fab9bd5e11610066578063fab9bd5e14610473578063fcd2ae7014610490578063ffd8a6d9146104bc57610177565b8063ae169a501461038d578063cca23bf2146103aa578063e7f3c69c146103fd57610177565b80639c841fef116100bd5780639c841fef14610336578063a7bcc5d614610362578063aa5c3ab41461038557610177565b80637fa6bc2e1461031157806388ea20d31461032e57610177565b806332705d2a1161012f5780635aa6e675116101145780635aa6e675146102915780635eac6239146102995780636c660b011461030957610177565b806332705d2a1461023657806352b456ac1461025357610177565b806314ef68511161016057806314ef6851146101d6578063238efcbc146101fa578063255e12611461020457610177565b8063044c90601461017c578063068140dd14610196575b600080fd5b6101846104e2565b60408051918252519081900360200190f35b6101c2600480360360408110156101ac57600080fd5b50803590602001356001600160a01b03166104e8565b604080519115158252519081900360200190f35b6101de6105d7565b604080516001600160a01b039092168252519081900360200190f35b6102026105e6565b005b6102026004803603606081101561021a57600080fd5b508035906001600160a01b0360208201351690604001356106af565b6102026004803603602081101561024c57600080fd5b50356106bf565b6102706004803603602081101561026957600080fd5b5035610797565b6040518082600181111561028057fe5b815260200191505060405180910390f35b6101de6107ac565b610202600480360360208110156102af57600080fd5b8101906020810181356401000000008111156102ca57600080fd5b8201836020820111156102dc57600080fd5b803590602001918460208302840111640100000000831117156102fe57600080fd5b5090925090506107bb565b6101de610a65565b6102026004803603602081101561032757600080fd5b5035610a89565b610184610b21565b6101846004803603604081101561034c57600080fd5b506001600160a01b038135169060200135610b27565b6102026004803603604081101561037857600080fd5b5080359060200135610b55565b610184610b65565b610202600480360360208110156103a357600080fd5b5035610b6b565b6103c7600480360360208110156103c057600080fd5b5035610d23565b604051808560018111156103d757fe5b815260200184815260200183815260200182815260200194505050505060405180910390f35b6104236004803603602081101561041357600080fd5b50356001600160a01b0316610d4e565b60408051602080825283518183015283519192839290830191858101910280838360005b8381101561045f578181015183820152602001610447565b505050509050019250505060405180910390f35b6102026004803603602081101561048957600080fd5b5035610dba565b6101c2600480360360408110156104a657600080fd5b50803590602001356001600160a01b0316610dc6565b610202600480360360208110156104d257600080fd5b50356001600160a01b0316610e8c565b60035481565b600082815260066020526040812060010154839061054d576040805162461bcd60e51b815260206004820152601860248201527f556e696e697469616c697a6564207661756c7420736c6f740000000000000000604482015290519081900360640190fd5b600160008581526006602052604090205460ff16600181111561056c57fe5b14801561059d575060008481526006602090815260408083206001600160a01b038716845260040190915290205415155b80156105cf575060008481526006602090815260408083206001600160a01b038716845260050190915290205460ff16155b949350505050565b6001546001600160a01b031681565b6001546001600160a01b0316331461062f5760405162461bcd60e51b81526004018080602001828103825260368152602001806119f26036913960400191505060405180910390fd5b600054600154604080516001600160a01b03938416815292909116602083015280517f3aaaebeb4821d6a7e5c77ece53cff0afcc56c82add2c978dbbb7f73e84cbcfd29281900390910190a1600180546000805473ffffffffffffffffffffffffffffffffffffffff199081166001600160a01b03841617909155169055565b6106ba838383610ef5565b505050565b60008111610714576040805162461bcd60e51b815260206004820152601060248201527f6d757374206265206c6172676572203000000000000000000000000000000000604482015290519081900360640190fd5b6107496001600160a01b037f000000000000000000000000000000000000000000000000000000000000000016333084611077565b60045461075690826110ff565b600455604080513381526020810183905281517f27c1a614c467759cd1aef8a5219f67898e35f6a6b619887e18a15b528d777c69929181900390910190a150565b60009081526006602052604090205460ff1690565b6000546001600160a01b031681565b600280541415610812576040805162461bcd60e51b815260206004820152601f60248201527f5265656e7472616e637947756172643a207265656e7472616e742063616c6c00604482015290519081900360640190fd5b600280556014811061086b576040805162461bcd60e51b815260206004820152601860248201527f636c61696d696e6720746f6f206d616e79207661756c74730000000000000000604482015290519081900360640190fd5b6000805b828110156109325733600090815260076020526040812085858481811061089257fe5b90506020020135815481106108a357fe5b6000918252602090912001549050600160008281526006602052604090205460ff1660018111156108d057fe5b1480156108fa5750600081815260066020908152604080832033845260050190915290205460ff16155b156109295761092661091f8287878681811061091257fe5b9050602002013533611162565b84906110ff565b92505b5060010161086f565b5060008111610975576040805162461bcd60e51b815260206004820152600a6024820152696e6f207265776172647360b01b604482015290519081900360640190fd5b6004548111156109cc576040805162461bcd60e51b815260206004820152601b60248201527f6e6f7420656e6f7567682066756e647320666f72207061796f75740000000000604482015290519081900360640190fd5b6005546109d99082611247565b6005556004546109e99082611247565b600455610a206001600160a01b037f00000000000000000000000000000000000000000000000000000000000000001633836112a4565b604080513381526020810183905281517ffc30cddea38e2bf4d6ea7d3f9ed3b6ad7f176419f4963bd81318067a4aee73fe929181900390910190a15050600160025550565b7f000000000000000000000000000000000000000000000000000000000000000081565b610a91611324565b60008111610ae6576040805162461bcd60e51b815260206004820152601060248201527f6d757374206265206c6172676572203000000000000000000000000000000000604482015290519081900360640190fd5b60038190556040805182815290517ff151587a8166e9378976e04290d3c736f46877d86b9903f9b84f1828044a474c9181900360200190a150565b60055481565b60076020528160005260406000208181548110610b4057fe5b90600052602060002001600091509150505481565b610b5f828261136f565b50505050565b60045481565b600280541415610bc2576040805162461bcd60e51b815260206004820152601f60248201527f5265656e7472616e637947756172643a207265656e7472616e742063616c6c00604482015290519081900360640190fd5b60028055336000908152600760205260408120805483908110610be157fe5b6000918252602090912001549050600160008281526006602052604090205460ff166001811115610c0e57fe5b14610c60576040805162461bcd60e51b815260206004820152601160248201527f7661756c74206973206e6f74206f70656e000000000000000000000000000000604482015290519081900360640190fd5b600081815260066020908152604080832033845260050190915290205460ff1615610cd2576040805162461bcd60e51b815260206004820152600f60248201527f616c726561647920636c61696d65640000000000000000000000000000000000604482015290519081900360640190fd5b6000610cdf828433611162565b905060008111610975576040805162461bcd60e51b815260206004820152600a6024820152696e6f207265776172647360b01b604482015290519081900360640190fd5b600660205260009081526040902080546001820154600283015460039093015460ff90921692909184565b6001600160a01b038116600090815260076020908152604091829020805483518184028101840190945280845260609392830182828015610dae57602002820191906000526020600020905b815481526020019060010190808311610d9a575b50505050509050919050565b610dc3816114cf565b50565b6000828152600660205260408120600101548390610e2b576040805162461bcd60e51b815260206004820152601860248201527f556e696e697469616c697a6564207661756c7420736c6f740000000000000000604482015290519081900360640190fd5b60008481526006602090815260408083206001600160a01b0387168452600401909152902054158015906105cf5750505060009182526006602090815260408084206001600160a01b039390931684526005909201905290205460ff161590565b610e94611324565b600180546001600160a01b03831673ffffffffffffffffffffffffffffffffffffffff19909116811790915560408051918252517f1c58cfd31540f5b6a8cfbbe7c225cfccf4ee83b8691dc4d4d0a23a3ef02be5849181900360200190a150565b6000838152600660205260409020600101548390610f5a576040805162461bcd60e51b815260206004820152601860248201527f556e696e697469616c697a6564207661756c7420736c6f740000000000000000604482015290519081900360640190fd5b60008481526006602052604081205460ff166001811115610f7757fe5b14610fc9576040805162461bcd60e51b815260206004820152601960248201527f5661756c74206d75737420626520696e697469616c697a656400000000000000604482015290519081900360640190fd5b600084815260066020526040902060020154610fe590836110ff565b600085815260066020908152604080832060028101949094556001600160a01b0387168084526004909401825280832086905560078252808320805460018101825590845292829020909201879055815187815290810192909252818101849052517fbac56fd2879311ebf368181dfbf41a90a7cfa7560f55c36563bcfce2a776f4a29181900360600190a150505050565b604080516001600160a01b0380861660248301528416604482015260648082018490528251808303909101815260849091019091526020810180517bffffffffffffffffffffffffffffffffffffffffffffffffffffffff167f23b872dd00000000000000000000000000000000000000000000000000000000179052610b5f90859061165b565b600082820183811015611159576040805162461bcd60e51b815260206004820152601b60248201527f536166654d6174683a206164646974696f6e206f766572666c6f770000000000604482015290519081900360640190fd5b90505b92915050565b60008381526006602090815260408083206001600160a01b0385168452600401909152812054801561123a57600085815260066020526040812060028101546003909101546111bc91906111b6908561170c565b90611765565b6000878152600660205260409020600301549091506111db9082611247565b600087815260066020908152604080832060038101949094556001600160a01b038816835260059093018152828220805460ff19166001179055600790522080548690811061122657fe5b600091825260208220015591506112409050565b60009150505b9392505050565b60008282111561129e576040805162461bcd60e51b815260206004820152601e60248201527f536166654d6174683a207375627472616374696f6e206f766572666c6f770000604482015290519081900360640190fd5b50900390565b604080516001600160a01b038416602482015260448082018490528251808303909101815260649091019091526020810180517bffffffffffffffffffffffffffffffffffffffffffffffffffffffff167fa9059cbb000000000000000000000000000000000000000000000000000000001790526106ba90849061165b565b6000546001600160a01b0316331461136d5760405162461bcd60e51b81526004018080602001828103825260348152602001806119be6034913960400191505060405180910390fd5b565b6000828152600660205260408120600101548190156113d5576040805162461bcd60e51b815260206004820152601460248201527f5661756c74206d757374206e6f74206578697374000000000000000000000000604482015290519081900360640190fd5b428311611429576040805162461bcd60e51b815260206004820152601960248201527f656e64206d75737420626520696e207468652066757475726500000000000000604482015290519081900360640190fd5b60006114426003546005546110ff90919063ffffffff16565b90506004548111806114545750600454155b156114665760008092509250506114c8565b60058190556000858152600660209081526040918290206001810187905560038054908201558251888152925190927f19d13963668fd7f19816e2da6d8a8864e93a626ab66f6bd6e6abf5f8839d141192908290030190a16001869350935050505b9250929050565b6000818152600660205260409020600101548190611534576040805162461bcd60e51b815260206004820152601860248201527f556e696e697469616c697a6564207661756c7420736c6f740000000000000000604482015290519081900360640190fd5b60008281526006602052604081205460ff16600181111561155157fe5b146115a3576040805162461bcd60e51b815260206004820152601960248201527f5661756c74206d75737420626520696e697469616c697a656400000000000000604482015290519081900360640190fd5b600082815260066020526040902060010154421015611609576040805162461bcd60e51b815260206004820152601960248201527f776169742074696c6c20656e6454696d65206973206f76657200000000000000604482015290519081900360640190fd5b600082815260066020908152604091829020805460ff19166001179055815184815291517f31b0aa36783855ee03b759334d419a25ead53cf249ce84862eec1138dcefe5259281900390910190a15050565b60606116b0826040518060400160405280602081526020017f5361666545524332303a206c6f772d6c6576656c2063616c6c206661696c6564815250856001600160a01b03166117cc9092919063ffffffff16565b8051909150156106ba578080602001905160208110156116cf57600080fd5b50516106ba5760405162461bcd60e51b815260040180806020018281038252602a815260200180611a28602a913960400191505060405180910390fd5b60008261171b5750600061115c565b8282028284828161172857fe5b04146111595760405162461bcd60e51b815260040180806020018281038252602181526020018061199d6021913960400191505060405180910390fd5b60008082116117bb576040805162461bcd60e51b815260206004820152601a60248201527f536166654d6174683a206469766973696f6e206279207a65726f000000000000604482015290519081900360640190fd5b8183816117c457fe5b049392505050565b60606105cf8484600085856117e0856118f2565b611831576040805162461bcd60e51b815260206004820152601d60248201527f416464726573733a2063616c6c20746f206e6f6e2d636f6e7472616374000000604482015290519081900360640190fd5b60006060866001600160a01b031685876040518082805190602001908083835b602083106118705780518252601f199092019160209182019101611851565b6001836020036101000a03801982511681845116808217855250505050505090500191505060006040518083038185875af1925050503d80600081146118d2576040519150601f19603f3d011682016040523d82523d6000602084013e6118d7565b606091505b50915091506118e78282866118f8565b979650505050505050565b3b151590565b60608315611907575081611240565b8251156119175782518084602001fd5b8160405162461bcd60e51b81526004018080602001828103825283818151815260200191508051906020019080838360005b83811015611961578181015183820152602001611949565b50505050905090810190601f16801561198e5780820380516001836020036101000a031916815260200191505b509250505060405180910390fdfe536166654d6174683a206d756c7469706c69636174696f6e206f766572666c6f774f6e6c792074686520636f6e747261637420676f7665726e616e6365206d617920706572666f726d207468697320616374696f6e596f75206d757374206265206e6f6d696e61746564206265666f726520796f752063616e2061636365707420676f7665726e616e63655361666545524332303a204552433230206f7065726174696f6e20646964206e6f742073756363656564a2646970667358221220a4d244f5241c3b3e1440e035cf70ee4344e73861256c713c8b46afb96fbfa96564736f6c63430007030033",
  "linkReferences": {},
  "deployedLinkReferences": {}
}