{
  "_format": "hh-sol-artifact-1",
  "contractName": "MockCurveThreepool",
  "sourceName": "contracts/mocks/MockCurveThreepool.sol",
  "abi": [
    {
      "inputs": [
        {
          "internalType": "address",
          "name": "lpToken_",
          "type": "address"
        },
        {
          "internalType": "address",
          "name": "dai_",
          "type": "address"
        },
        {
          "internalType": "address",
          "name": "usdc_",
          "type": "address"
        },
        {
          "internalType": "address",
          "name": "usdt_",
          "type": "address"
        }
      ],
      "stateMutability": "nonpayable",
      "type": "constructor"
    },
    {
      "anonymous": false,
      "inputs": [
        {
          "indexed": false,
          "internalType": "uint256",
          "name": "amount",
          "type": "uint256"
        }
      ],
      "name": "EchoValues",
      "type": "event"
    },
    {
      "anonymous": false,
      "inputs": [
        {
          "indexed": false,
          "internalType": "uint256",
          "name": "lpToken",
          "type": "uint256"
        },
        {
          "indexed": false,
          "internalType": "address",
          "name": "account",
          "type": "address"
        }
      ],
      "name": "LiquidityAdded",
      "type": "event"
    },
    {
      "inputs": [
        {
          "internalType": "uint256[3]",
          "name": "amounts",
          "type": "uint256[3]"
        },
        {
          "internalType": "uint256",
          "name": "min_mint_amounts",
          "type": "uint256"
        }
      ],
      "name": "add_liquidity",
      "outputs": [
        {
          "internalType": "uint256",
          "name": "",
          "type": "uint256"
        }
      ],
      "stateMutability": "nonpayable",
      "type": "function"
    },
    {
      "inputs": [
        {
          "internalType": "uint256",
          "name": "i",
          "type": "uint256"
        }
      ],
      "name": "coins",
      "outputs": [
        {
          "internalType": "address",
          "name": "",
          "type": "address"
        }
      ],
      "stateMutability": "view",
      "type": "function"
    },
    {
      "inputs": [],
      "name": "get_virtual_price",
      "outputs": [
        {
          "internalType": "uint256",
          "name": "",
          "type": "uint256"
        }
      ],
      "stateMutability": "view",
      "type": "function"
    },
    {
      "inputs": [
        {
          "internalType": "uint256",
          "name": "_token_amount",
          "type": "uint256"
        },
        {
          "internalType": "int128",
          "name": "i",
          "type": "int128"
        },
        {
          "internalType": "uint256",
          "name": "min_amount",
          "type": "uint256"
        }
      ],
      "name": "remove_liquidity_one_coin",
      "outputs": [],
      "stateMutability": "nonpayable",
      "type": "function"
    },
    {
      "inputs": [
        {
          "internalType": "uint256",
          "name": "virtualPrice_",
          "type": "uint256"
        }
      ],
      "name": "setVirtualPrice",
      "outputs": [],
      "stateMutability": "nonpayable",
      "type": "function"
    },
    {
      "inputs": [
        {
          "internalType": "uint256",
          "name": "withdrawalSlippageBps_",
          "type": "uint256"
        }
      ],
      "name": "setWithdrawalSlippage",
      "outputs": [],
      "stateMutability": "nonpayable",
      "type": "function"
    }
  ],
  "bytecode": "0x6080604052670de0b6b3a7640000600455600a60055561271060065534801561002757600080fd5b5060405161081e38038061081e8339818101604052608081101561004a57600080fd5b508051602080830151604080850151606095860151600080546001600160a01b03199081166001600160a01b03808a169190911790925560018054821683881617908190556002805483168487161790819055600380549093168486161780845587519b8c0188529184168b528316978a0197909752951692870192909252939491939290916100dd91600791906100e7565b5050505050610161565b82805482825590600052602060002090810192821561013c579160200282015b8281111561013c57825182546001600160a01b0319166001600160a01b03909116178255602090920191600190910190610107565b5061014892915061014c565b5090565b5b80821115610148576000815560010161014d565b6106ae806101706000396000f3fe608060405234801561001057600080fd5b50600436106100725760003560e01c8063568784361161005057806356878436146100f5578063bb7b8b8014610112578063c66106571461011a57610072565b806313143ecd146100775780631a4d01d2146100965780634515cef3146100c2575b600080fd5b6100946004803603602081101561008d57600080fd5b5035610153565b005b610094600480360360608110156100ac57600080fd5b508035906020810135600f0b9060400135610158565b6100e3600480360360808110156100d857600080fd5b5060608101356103e1565b60408051918252519081900360200190f35b6100946004803603602081101561010b57600080fd5b5035610643565b6100e3610648565b6101376004803603602081101561013057600080fd5b503561064e565b604080516001600160a01b039092168252519081900360200190f35b600455565b60008054604080516323b872dd60e01b81523360048201523060248201526044810187905290516001600160a01b03909216926323b872dd926064808401936020939083900390910190829087803b1580156101b357600080fd5b505af11580156101c7573d6000803e3d6000fd5b505050506040513d60208110156101dd57600080fd5b505060055460078054612710928602929092049182860391600f86900b918290811061020557fe5b6000918252602080832090910154604080517f095ea7b30000000000000000000000000000000000000000000000000000000081523060048201526024810187905290516001600160a01b039092169363095ea7b39360448084019491939192918390030190829087803b15801561027c57600080fd5b505af1158015610290573d6000803e3d6000fd5b505050506040513d60208110156102a657600080fd5b505060078054829081106102b657fe5b6000918252602082200154604080517f40c10f190000000000000000000000000000000000000000000000000000000081523060048201526024810186905290516001600160a01b03909216926340c10f199260448084019382900301818387803b15801561032457600080fd5b505af1158015610338573d6000803e3d6000fd5b505050506007818154811061034957fe5b6000918252602080832090910154604080516323b872dd60e01b81523060048201523360248201526044810187905290516001600160a01b03909216936323b872dd9360648084019491939192918390030190829087803b1580156103ad57600080fd5b505af11580156103c1573d6000803e3d6000fd5b505050506040513d60208110156103d757600080fd5b5050505050505050565b60008235610436576040805162461bcd60e51b815260206004820152601460248201527f646169206d757374206265206c61726765722030000000000000000000000000604482015290519081900360640190fd5b8115610489576040805162461bcd60e51b815260206004820152601a60248201527f6d696e5f6d696e745f616d6f756e7473206d7573742062652030000000000000604482015290519081900360640190fd5b6000805b60075460ff821610156106015760078160ff16815481106104aa57fe5b6000918252602090912001546001600160a01b03166323b872dd33308860ff8616600381106104d557fe5b60200201356040518463ffffffff1660e01b815260040180846001600160a01b03168152602001836001600160a01b031681526020018281526020019350505050602060405180830381600087803b15801561053057600080fd5b505af1158015610544573d6000803e3d6000fd5b505050506040513d602081101561055a57600080fd5b50506000546001600160a01b03166340c10f19338760ff85166003811061057d57fe5b60200201356040518363ffffffff1660e01b815260040180836001600160a01b0316815260200182815260200192505050600060405180830381600087803b1580156105c857600080fd5b505af11580156105dc573d6000803e3d6000fd5b50505050848160ff16600381106105ef57fe5b6020020135919091019060010161048d565b506040805182815233602082015281517f71e08e60a6135c7d231e95d525019e0473070c375b5449a8a4aa5d50040a947c929181900390910190a19392505050565b600555565b60045490565b60006007828154811061065d57fe5b6000918252602090912001546001600160a01b03169291505056fea2646970667358221220a9ad65f5910159c81c5a4fe696b2f3103ce10e392231bb74d60bcdf6ffa75a8c64736f6c63430007030033",
  "linkReferences": {},
  "deployedLinkReferences": {}
}