{
  "_format": "hh-sol-artifact-1",
  "contractName": "MockCurveMetapool",
  "sourceName": "contracts/mocks/MockCurveMetapool.sol",
  "abi": [
    {
      "inputs": [
        {
          "internalType": "address",
          "name": "token_",
          "type": "address"
        },
        {
          "internalType": "address",
          "name": "lpToken_",
          "type": "address"
        },
        {
          "internalType": "address",
          "name": "threeCrv_",
          "type": "address"
        },
        {
          "internalType": "address",
          "name": "dai_",
          "type": "address"
        },
        {
          "internalType": "address",
          "name": "usdc_",
          "type": "address"
        },
        {
          "internalType": "address",
          "name": "usdt_",
          "type": "address"
        }
      ],
      "stateMutability": "nonpayable",
      "type": "constructor"
    },
    {
      "inputs": [
        {
          "internalType": "uint256[2]",
          "name": "amounts",
          "type": "uint256[2]"
        },
        {
          "internalType": "uint256",
          "name": "min_mint_amounts",
          "type": "uint256"
        }
      ],
      "name": "add_liquidity",
      "outputs": [
        {
          "internalType": "uint256",
          "name": "",
          "type": "uint256"
        }
      ],
      "stateMutability": "nonpayable",
      "type": "function"
    },
    {
      "inputs": [],
      "name": "base_coins",
      "outputs": [
        {
          "internalType": "address[3]",
          "name": "",
          "type": "address[3]"
        }
      ],
      "stateMutability": "view",
      "type": "function"
    },
    {
      "inputs": [
        {
          "internalType": "uint256",
          "name": "_token_amount",
          "type": "uint256"
        },
        {
          "internalType": "int128",
          "name": "i",
          "type": "int128"
        }
      ],
      "name": "calc_withdraw_one_coin",
      "outputs": [
        {
          "internalType": "uint256",
          "name": "",
          "type": "uint256"
        }
      ],
      "stateMutability": "view",
      "type": "function"
    },
    {
      "inputs": [],
      "name": "coins",
      "outputs": [
        {
          "internalType": "address[2]",
          "name": "",
          "type": "address[2]"
        }
      ],
      "stateMutability": "view",
      "type": "function"
    },
    {
      "inputs": [],
      "name": "get_virtual_price",
      "outputs": [
        {
          "internalType": "uint256",
          "name": "",
          "type": "uint256"
        }
      ],
      "stateMutability": "view",
      "type": "function"
    },
    {
      "inputs": [],
      "name": "lpToken",
      "outputs": [
        {
          "internalType": "contract MockERC20",
          "name": "",
          "type": "address"
        }
      ],
      "stateMutability": "view",
      "type": "function"
    },
    {
      "inputs": [
        {
          "internalType": "uint256",
          "name": "_token_amount",
          "type": "uint256"
        },
        {
          "internalType": "int128",
          "name": "i",
          "type": "int128"
        },
        {
          "internalType": "uint256",
          "name": "_min_amount",
          "type": "uint256"
        }
      ],
      "name": "remove_liquidity_one_coin",
      "outputs": [
        {
          "internalType": "uint256",
          "name": "",
          "type": "uint256"
        }
      ],
      "stateMutability": "nonpayable",
      "type": "function"
    },
    {
      "inputs": [
        {
          "internalType": "uint256",
          "name": "virtualPrice_",
          "type": "uint256"
        }
      ],
      "name": "setVirtualPrice",
      "outputs": [],
      "stateMutability": "nonpayable",
      "type": "function"
    },
    {
      "inputs": [
        {
          "internalType": "uint256",
          "name": "withdrawalSlippageBps_",
          "type": "uint256"
        }
      ],
      "name": "setWithdrawalSlippage",
      "outputs": [],
      "stateMutability": "nonpayable",
      "type": "function"
    },
    {
      "inputs": [],
      "name": "threeCrv",
      "outputs": [
        {
          "internalType": "contract MockERC20",
          "name": "",
          "type": "address"
        }
      ],
      "stateMutability": "view",
      "type": "function"
    }
  ],
  "bytecode": "0x6080604052670de0b6b3a7640000600655600a60075561271060085534801561002757600080fd5b506040516108cf3803806108cf833981810160405260c081101561004a57600080fd5b5080516020808301516040808501516060860151608087015160a090970151600280546001600160a01b03199081166001600160a01b03808b1691909117808455600080548416838b161790556001805484168389161790819055600380548516848916179055600480548516848f16179055600580549094168387161790935587518089019098528116875216968501969096529596939591949093926100f59160099190610101565b5050505050505061017b565b828054828255906000526020600020908101928215610156579160200282015b8281111561015657825182546001600160a01b0319166001600160a01b03909116178255602090920191600190910190610121565b50610162929150610166565b5090565b5b808211156101625760008155600101610167565b6107458061018a6000396000f3fe608060405234801561001057600080fd5b50600436106100be5760003560e01c80635687843611610076578063bb7b8b801161005b578063bb7b8b80146101cd578063bc34bf7a146101d5578063cc2b27d7146101f2576100be565b806356878436146101a85780635fcbd285146101c5576100be565b80631a4d01d2116100a75780631a4d01d21461011557806322fcefbe146101415780632da9a69414610184576100be565b80630b4c7e4d146100c357806313143ecd146100f6575b600080fd5b6100e4600480360360608110156100d957600080fd5b506040810135610218565b60408051918252519081900360200190f35b6101136004803603602081101561010c57600080fd5b503561039a565b005b6100e46004803603606081101561012b57600080fd5b508035906020810135600f0b906040013561039f565b61014961062a565b6040518082600260200280838360005b83811015610171578181015183820152602001610159565b5050505090500191505060405180910390f35b61018c610662565b604080516001600160a01b039092168252519081900360200190f35b610113600480360360208110156101be57600080fd5b5035610671565b61018c610676565b6100e4610685565b6101dd61068b565b60405181518152808260608083836020610159565b6100e46004803603604081101561020857600080fd5b5080359060200135600f0b6106cf565b60008060005b60095460ff821610156103925760098160ff168154811061023b57fe5b6000918252602090912001546001600160a01b03166323b872dd33308860ff86166002811061026657fe5b60200201356040518463ffffffff1660e01b815260040180846001600160a01b03168152602001836001600160a01b031681526020018281526020019350505050602060405180830381600087803b1580156102c157600080fd5b505af11580156102d5573d6000803e3d6000fd5b505050506040513d60208110156102eb57600080fd5b50506000546001600160a01b03166340c10f19338760ff85166002811061030e57fe5b60200201356040518363ffffffff1660e01b815260040180836001600160a01b0316815260200182815260200192505050600060405180830381600087803b15801561035957600080fd5b505af115801561036d573d6000803e3d6000fd5b50505050848160ff166002811061038057fe5b6020020135919091019060010161021e565b509392505050565b600655565b60008054604080516323b872dd60e01b81523360048201523060248201526044810187905290516001600160a01b03909216916323b872dd9160648082019260209290919082900301818787803b1580156103f957600080fd5b505af115801561040d573d6000803e3d6000fd5b505050506040513d602081101561042357600080fd5b505060075460098054612710928702929092049182870391600f87900b918290811061044b57fe5b6000918252602080832090910154604080517f095ea7b30000000000000000000000000000000000000000000000000000000081523060048201526024810187905290516001600160a01b039092169363095ea7b39360448084019491939192918390030190829087803b1580156104c257600080fd5b505af11580156104d6573d6000803e3d6000fd5b505050506040513d60208110156104ec57600080fd5b505060098054829081106104fc57fe5b6000918252602082200154604080517f40c10f190000000000000000000000000000000000000000000000000000000081523060048201526024810186905290516001600160a01b03909216926340c10f199260448084019382900301818387803b15801561056a57600080fd5b505af115801561057e573d6000803e3d6000fd5b505050506009818154811061058f57fe5b6000918252602080832090910154604080516323b872dd60e01b81523060048201523360248201526044810187905290516001600160a01b03909216936323b872dd9360648084019491939192918390030190829087803b1580156105f357600080fd5b505af1158015610607573d6000803e3d6000fd5b505050506040513d602081101561061d57600080fd5b5091979650505050505050565b6106326106d3565b61063a6106d3565b5050604080518082019091526002546001600160a01b03908116825260015416602082015290565b6001546001600160a01b031681565b600755565b6000546001600160a01b031681565b60065490565b6106936106f1565b61069b6106f1565b5050604080516060810182526003546001600160a01b03908116825260045481166020830152600554169181019190915290565b5090565b60405180604001604052806002906020820280368337509192915050565b6040518060600160405280600390602082028036833750919291505056fea2646970667358221220d1a31b89af339765ee53fbad90ad0d8d4644706bf4174386f0846177f6a7f55664736f6c63430007030033",
  "linkReferences": {},
  "deployedLinkReferences": {}
}