{
  "_format": "hh-sol-artifact-1",
  "contractName": "HysiBatchZapper",
  "sourceName": "contracts/HysiBatchZapper.sol",
  "abi": [
    {
      "inputs": [
        {
          "internalType": "contract IHysiBatchInteraction",
          "name": "hysiBatchInteraction_",
          "type": "address"
        },
        {
          "internalType": "contract Curve3Pool",
          "name": "curve3Pool_",
          "type": "address"
        },
        {
          "internalType": "contract IERC20",
          "name": "threeCrv_",
          "type": "address"
        }
      ],
      "stateMutability": "nonpayable",
      "type": "constructor"
    },
    {
      "anonymous": false,
      "inputs": [
        {
          "indexed": false,
          "internalType": "bytes32",
          "name": "batchId",
          "type": "bytes32"
        },
        {
          "indexed": false,
          "internalType": "uint8",
          "name": "stableCoinIndex",
          "type": "uint8"
        },
        {
          "indexed": false,
          "internalType": "uint256",
          "name": "threeCurveAmount",
          "type": "uint256"
        },
        {
          "indexed": false,
          "internalType": "uint256",
          "name": "stableCoinAmount",
          "type": "uint256"
        },
        {
          "indexed": false,
          "internalType": "address",
          "name": "account",
          "type": "address"
        }
      ],
      "name": "ClaimedIntoStable",
      "type": "event"
    },
    {
      "anonymous": false,
      "inputs": [
        {
          "indexed": false,
          "internalType": "uint256",
          "name": "threeCurveAmount",
          "type": "uint256"
        },
        {
          "indexed": false,
          "internalType": "address",
          "name": "account",
          "type": "address"
        }
      ],
      "name": "ZappedIntoBatch",
      "type": "event"
    },
    {
      "anonymous": false,
      "inputs": [
        {
          "indexed": false,
          "internalType": "bytes32",
          "name": "batchId",
          "type": "bytes32"
        },
        {
          "indexed": false,
          "internalType": "uint8",
          "name": "stableCoinIndex",
          "type": "uint8"
        },
        {
          "indexed": false,
          "internalType": "uint256",
          "name": "threeCurveAmount",
          "type": "uint256"
        },
        {
          "indexed": false,
          "internalType": "uint256",
          "name": "stableCoinAmount",
          "type": "uint256"
        },
        {
          "indexed": false,
          "internalType": "address",
          "name": "account",
          "type": "address"
        }
      ],
      "name": "ZappedOutOfBatch",
      "type": "event"
    },
    {
      "inputs": [
        {
          "internalType": "bytes32",
          "name": "batchId_",
          "type": "bytes32"
        },
        {
          "internalType": "uint8",
          "name": "stableCoinIndex_",
          "type": "uint8"
        },
        {
          "internalType": "uint256",
          "name": "min_amount_",
          "type": "uint256"
        }
      ],
      "name": "claimAndSwapToStable",
      "outputs": [],
      "stateMutability": "nonpayable",
      "type": "function"
    },
    {
      "inputs": [
        {
          "internalType": "uint256[3]",
          "name": "amounts_",
          "type": "uint256[3]"
        },
        {
          "internalType": "uint256",
          "name": "min_mint_amounts_",
          "type": "uint256"
        }
      ],
      "name": "zapIntoBatch",
      "outputs": [],
      "stateMutability": "nonpayable",
      "type": "function"
    },
    {
      "inputs": [
        {
          "internalType": "bytes32",
          "name": "batchId_",
          "type": "bytes32"
        },
        {
          "internalType": "uint256",
          "name": "amountToWithdraw_",
          "type": "uint256"
        },
        {
          "internalType": "uint8",
          "name": "stableCoinIndex_",
          "type": "uint8"
        },
        {
          "internalType": "uint256",
          "name": "min_amount_",
          "type": "uint256"
        }
      ],
      "name": "zapOutOfBatch",
      "outputs": [],
      "stateMutability": "nonpayable",
      "type": "function"
    }
  ],
  "bytecode": "0x608060405234801561001057600080fd5b5060405161119538038061119583398101604081905261002f91610071565b600080546001600160a01b039485166001600160a01b0319918216179091556001805493851693821693909317909255600280549190931691161790556100d5565b600080600060608486031215610085578283fd5b8351610090816100bd565b60208501519093506100a1816100bd565b60408501519092506100b2816100bd565b809150509250925092565b6001600160a01b03811681146100d257600080fd5b50565b6110b1806100e46000396000f3fe608060405234801561001057600080fd5b50600436106100415760003560e01c80636a1c241314610046578063bb03c5c21461005b578063ea2b15c51461006e575b600080fd5b610059610054366004610c9c565b610081565b005b610059610069366004610bff565b610155565b61005961007c366004610cd8565b6104af565b6000546040517f3af3bfb50000000000000000000000000000000000000000000000000000000081526001600160a01b0390911690633af3bfb5906100ce90879087903390600401610ea5565b600060405180830381600087803b1580156100e857600080fd5b505af11580156100fc573d6000803e3d6000fd5b50505050600061010d848484610661565b90507f488e809ec3972782422dc6e318706816f07653f88f15bfa0c345418d9892ad7e8584868433604051610146959493929190610ec4565b60405180910390a15050505050565b60005b60038160ff1610156102ba576000838260ff166003811061017557fe5b602002015111156102b257825160015460405163c661065760e01b815261021b92339230926001600160a01b039091169063c6610657906101ba908890600401611041565b60206040518083038186803b1580156101d257600080fd5b505afa1580156101e6573d6000803e3d6000fd5b505050506040513d601f19601f8201168201806040525081019061020a9190610be5565b6001600160a01b03169291906108a3565b600154835160405163c661065760e01b81526102b2926001600160a01b03169190829063c661065790610252908790600401611041565b60206040518083038186803b15801561026a57600080fd5b505afa15801561027e573d6000803e3d6000fd5b505050506040513d601f19601f820116820180604052508101906102a29190610be5565b6001600160a01b0316919061092e565b600101610158565b506001546040517f4515cef30000000000000000000000000000000000000000000000000000000081526001600160a01b0390911690634515cef3906103069085908590600401610e4d565b600060405180830381600087803b15801561032057600080fd5b505af1158015610334573d6000803e3d6000fd5b50506002546040517f70a08231000000000000000000000000000000000000000000000000000000008152600093506001600160a01b0390911691506370a0823190610384903090600401610de2565b60206040518083038186803b15801561039c57600080fd5b505afa1580156103b0573d6000803e3d6000fd5b505050506040513d601f19601f820116820180604052508101906103d49190610dae565b6000546002549192506103f4916001600160a01b0390811691168361092e565b6000546040517f961b7d860000000000000000000000000000000000000000000000000000000081526001600160a01b039091169063961b7d869061043f9084903390600401610e8e565b600060405180830381600087803b15801561045957600080fd5b505af115801561046d573d6000803e3d6000fd5b505050507fa59c8e0fff5360b5d65a99cba38825db122305108affae79287f0029d5b4b6e381336040516104a2929190610e8e565b60405180910390a1505050565b6000546040517fc81e25ab0000000000000000000000000000000000000000000000000000000081526001916001600160a01b03169063c81e25ab906104f9908790600401610e85565b6101006040518083038186803b15801561051257600080fd5b505afa158015610526573d6000803e3d6000fd5b505050506040513d601f19601f8201168201806040525081019061054a9190610d0c565b51600181111561055657fe5b1461057c5760405162461bcd60e51b815260040161057390610f5d565b60405180910390fd5b600080546040517f96c144f00000000000000000000000000000000000000000000000000000000081526001600160a01b03909116906396c144f0906105c89087903390600401610e8e565b602060405180830381600087803b1580156105e257600080fd5b505af11580156105f6573d6000803e3d6000fd5b505050506040513d601f19601f8201168201806040525081019061061a9190610dae565b90506000610629828585610661565b90507e4f8bcfa3280478204e9c5d36884938428f1ab9462917d29faed37570b5978b8585848433604051610146959493929190610ec4565b600154600254600091610681916001600160a01b0390811691168661092e565b6001546040517f1a4d01d20000000000000000000000000000000000000000000000000000000081526001600160a01b0390911690631a4d01d2906106ce90879087908790600401611028565b600060405180830381600087803b1580156106e857600080fd5b505af11580156106fc573d6000803e3d6000fd5b505060015460405163c661065760e01b8152600093506001600160a01b03909116915063c661065790610733908790600401611041565b60206040518083038186803b15801561074b57600080fd5b505afa15801561075f573d6000803e3d6000fd5b505050506040513d601f19601f820116820180604052508101906107839190610be5565b6001600160a01b03166370a08231306040518263ffffffff1660e01b81526004016107ae9190610de2565b60206040518083038186803b1580156107c657600080fd5b505afa1580156107da573d6000803e3d6000fd5b505050506040513d601f19601f820116820180604052508101906107fe9190610dae565b60015460405163c661065760e01b815291925061089991339184916001600160a01b039091169063c661065790610839908a90600401611041565b60206040518083038186803b15801561085157600080fd5b505afa158015610865573d6000803e3d6000fd5b505050506040513d601f19601f820116820180604052508101906108899190610be5565b6001600160a01b031691906109d9565b90505b9392505050565b610928846323b872dd60e01b8585856040516024016108c493929190610e10565b60408051601f198184030181529190526020810180517bffffffffffffffffffffffffffffffffffffffffffffffffffffffff167fffffffff00000000000000000000000000000000000000000000000000000000909316929092179091526109fd565b50505050565b60006109b882856001600160a01b031663dd62ed3e30876040518363ffffffff1660e01b8152600401610962929190610df6565b60206040518083038186803b15801561097a57600080fd5b505afa15801561098e573d6000803e3d6000fd5b505050506040513d601f19601f820116820180604052508101906109b29190610dae565b90610a8c565b90506109288463095ea7b360e01b85846040516024016108c4929190610e34565b6109f88363a9059cbb60e01b84846040516024016108c4929190610e34565b505050565b6060610a52826040518060400160405280602081526020017f5361666545524332303a206c6f772d6c6576656c2063616c6c206661696c6564815250856001600160a01b0316610ab19092919063ffffffff16565b8051909150156109f85780806020019051810190610a709190610c82565b6109f85760405162461bcd60e51b815260040161057390610fcb565b60008282018381101561089c5760405162461bcd60e51b815260040161057390610f26565b6060610899848460008585610ac585610b5b565b610ae15760405162461bcd60e51b815260040161057390610f94565b60006060866001600160a01b03168587604051610afe9190610dc6565b60006040518083038185875af1925050503d8060008114610b3b576040519150601f19603f3d011682016040523d82523d6000602084013e610b40565b606091505b5091509150610b50828286610b65565b979650505050505050565b803b15155b919050565b60608315610b7457508161089c565b825115610b845782518084602001fd5b8160405162461bcd60e51b81526004016105739190610ef3565b80516001600160a01b0381168114610b6057600080fd5b80518015158114610b6057600080fd5b805160028110610b6057600080fd5b803560ff81168114610b6057600080fd5b600060208284031215610bf6578081fd5b61089c82610b9e565b60008060808385031215610c11578081fd5b83601f840112610c1f578081fd5b6040516060810181811067ffffffffffffffff82111715610c3c57fe5b60405280846060810187811115610c51578485fd5b845b6003811015610c72578235845260209384019390920191600101610c53565b5092979235965091945050505050565b600060208284031215610c93578081fd5b61089c82610bb5565b60008060008060808587031215610cb1578182fd5b8435935060208501359250610cc860408601610bd4565b9396929550929360600135925050565b600080600060608486031215610cec578283fd5b83359250610cfc60208501610bd4565b9150604084013590509250925092565b6000610100808385031215610d1f578182fd5b6040519081019067ffffffffffffffff82118183101715610d3c57fe5b81604052610d4984610bc5565b815260208401516020820152610d6160408501610bb5565b6040820152606084015160608201526080840151608082015260a084015160a0820152610d9060c08501610b9e565b60c0820152610da160e08501610b9e565b60e0820152949350505050565b600060208284031215610dbf578081fd5b5051919050565b60008251610dd881846020870161104f565b9190910192915050565b6001600160a01b0391909116815260200190565b6001600160a01b0392831681529116602082015260400190565b6001600160a01b039384168152919092166020820152604081019190915260600190565b6001600160a01b03929092168252602082015260400190565b60808101818460005b6003811015610e75578151835260209283019290910190600101610e56565b5050508260608301529392505050565b90815260200190565b9182526001600160a01b0316602082015260400190565b92835260208301919091526001600160a01b0316604082015260600190565b94855260ff939093166020850152604084019190915260608301526001600160a01b0316608082015260a00190565b6000602082528251806020840152610f1281604085016020870161104f565b601f01601f19169190910160400192915050565b6020808252601b908201527f536166654d6174683a206164646974696f6e206f766572666c6f770000000000604082015260600190565b60208082526014908201527f6e6565647320746f2072657475726e2033637276000000000000000000000000604082015260600190565b6020808252601d908201527f416464726573733a2063616c6c20746f206e6f6e2d636f6e7472616374000000604082015260600190565b6020808252602a908201527f5361666545524332303a204552433230206f7065726174696f6e20646964206e60408201527f6f74207375636365656400000000000000000000000000000000000000000000606082015260800190565b92835260ff919091166020830152604082015260600190565b60ff91909116815260200190565b60005b8381101561106a578181015183820152602001611052565b83811115610928575050600091015256fea264697066735822122050dcc67b86e2b21102b330a42c4b501429f59849e0a4e02b41f9af13819e0e3764736f6c63430007030033",
  "linkReferences": {},
  "deployedLinkReferences": {}
}