{
  "_format": "hh-sol-artifact-1",
  "contractName": "RewardsManager",
  "sourceName": "contracts/RewardsManager.sol",
  "abi": [
    {
      "inputs": [
        {
          "internalType": "contract IERC20",
          "name": "pop_",
          "type": "address"
        },
        {
          "internalType": "contract IStaking",
          "name": "staking_",
          "type": "address"
        },
        {
          "internalType": "contract ITreasury",
          "name": "treasury_",
          "type": "address"
        },
        {
          "internalType": "contract IInsurance",
          "name": "insurance_",
          "type": "address"
        },
        {
          "internalType": "contract IRegion",
          "name": "region_",
          "type": "address"
        },
        {
          "internalType": "contract IUniswapV2Router02",
          "name": "uniswapV2Router_",
          "type": "address"
        }
      ],
      "stateMutability": "nonpayable",
      "type": "constructor"
    },
    {
      "anonymous": false,
      "inputs": [
        {
          "indexed": false,
          "internalType": "uint256",
          "name": "incentiveId",
          "type": "uint256"
        },
        {
          "indexed": false,
          "internalType": "bool",
          "name": "openToEveryone",
          "type": "bool"
        }
      ],
      "name": "ApprovalToggled",
      "type": "event"
    },
    {
      "anonymous": false,
      "inputs": [
        {
          "indexed": false,
          "internalType": "address",
          "name": "account",
          "type": "address"
        }
      ],
      "name": "Approved",
      "type": "event"
    },
    {
      "anonymous": false,
      "inputs": [
        {
          "indexed": false,
          "internalType": "uint256",
          "name": "amount",
          "type": "uint256"
        }
      ],
      "name": "BeneficiaryVaultsDeposited",
      "type": "event"
    },
    {
      "anonymous": false,
      "inputs": [
        {
          "indexed": false,
          "internalType": "address",
          "name": "oldGovernance",
          "type": "address"
        },
        {
          "indexed": false,
          "internalType": "address",
          "name": "newGovernance",
          "type": "address"
        }
      ],
      "name": "GovernanceChanged",
      "type": "event"
    },
    {
      "anonymous": false,
      "inputs": [
        {
          "indexed": false,
          "internalType": "address",
          "name": "newGovernance",
          "type": "address"
        }
      ],
      "name": "GovernanceNominated",
      "type": "event"
    },
    {
      "anonymous": false,
      "inputs": [
        {
          "indexed": false,
          "internalType": "uint256",
          "name": "incentiveId",
          "type": "uint256"
        }
      ],
      "name": "IncentiveChanged",
      "type": "event"
    },
    {
      "anonymous": false,
      "inputs": [
        {
          "indexed": false,
          "internalType": "uint256",
          "name": "incentiveId",
          "type": "uint256"
        }
      ],
      "name": "IncentiveCreated",
      "type": "event"
    },
    {
      "anonymous": false,
      "inputs": [
        {
          "indexed": false,
          "internalType": "uint256",
          "name": "amount",
          "type": "uint256"
        }
      ],
      "name": "IncentiveFunded",
      "type": "event"
    },
    {
      "anonymous": false,
      "inputs": [
        {
          "indexed": false,
          "internalType": "uint256",
          "name": "incentiveId",
          "type": "uint256"
        },
        {
          "indexed": false,
          "internalType": "bool",
          "name": "enabled",
          "type": "bool"
        }
      ],
      "name": "IncentiveToggled",
      "type": "event"
    },
    {
      "anonymous": false,
      "inputs": [
        {
          "indexed": false,
          "internalType": "contract IInsurance",
          "name": "from",
          "type": "address"
        },
        {
          "indexed": false,
          "internalType": "contract IInsurance",
          "name": "to",
          "type": "address"
        }
      ],
      "name": "InsuranceChanged",
      "type": "event"
    },
    {
      "anonymous": false,
      "inputs": [
        {
          "indexed": false,
          "internalType": "address",
          "name": "to",
          "type": "address"
        },
        {
          "indexed": false,
          "internalType": "uint256",
          "name": "amount",
          "type": "uint256"
        }
      ],
      "name": "InsuranceDeposited",
      "type": "event"
    },
    {
      "anonymous": false,
      "inputs": [
        {
          "indexed": false,
          "internalType": "address",
          "name": "oldOwner",
          "type": "address"
        },
        {
          "indexed": false,
          "internalType": "address",
          "name": "newOwner",
          "type": "address"
        }
      ],
      "name": "OwnerChanged",
      "type": "event"
    },
    {
      "anonymous": false,
      "inputs": [
        {
          "indexed": false,
          "internalType": "address",
          "name": "newOwner",
          "type": "address"
        }
      ],
      "name": "OwnerNominated",
      "type": "event"
    },
    {
      "anonymous": false,
      "inputs": [
        {
          "indexed": false,
          "internalType": "contract IRegion",
          "name": "from",
          "type": "address"
        },
        {
          "indexed": false,
          "internalType": "contract IRegion",
          "name": "to",
          "type": "address"
        }
      ],
      "name": "RegionChanged",
      "type": "event"
    },
    {
      "anonymous": false,
      "inputs": [
        {
          "indexed": false,
          "internalType": "address",
          "name": "account",
          "type": "address"
        }
      ],
      "name": "RemovedApproval",
      "type": "event"
    },
    {
      "anonymous": false,
      "inputs": [
        {
          "indexed": false,
          "internalType": "uint256[4]",
          "name": "splits",
          "type": "uint256[4]"
        }
      ],
      "name": "RewardSplitsUpdated",
      "type": "event"
    },
    {
      "anonymous": false,
      "inputs": [
        {
          "indexed": false,
          "internalType": "uint256",
          "name": "amount",
          "type": "uint256"
        }
      ],
      "name": "RewardsDistributed",
      "type": "event"
    },
    {
      "anonymous": false,
      "inputs": [
        {
          "indexed": false,
          "internalType": "contract IStaking",
          "name": "from",
          "type": "address"
        },
        {
          "indexed": false,
          "internalType": "contract IStaking",
          "name": "to",
          "type": "address"
        }
      ],
      "name": "StakingChanged",
      "type": "event"
    },
    {
      "anonymous": false,
      "inputs": [
        {
          "indexed": false,
          "internalType": "address",
          "name": "to",
          "type": "address"
        },
        {
          "indexed": false,
          "internalType": "uint256",
          "name": "amount",
          "type": "uint256"
        }
      ],
      "name": "StakingDeposited",
      "type": "event"
    },
    {
      "anonymous": false,
      "inputs": [
        {
          "indexed": false,
          "internalType": "address",
          "name": "token",
          "type": "address"
        },
        {
          "indexed": false,
          "internalType": "uint256",
          "name": "amountIn",
          "type": "uint256"
        },
        {
          "indexed": false,
          "internalType": "uint256",
          "name": "amountOut",
          "type": "uint256"
        }
      ],
      "name": "TokenSwapped",
      "type": "event"
    },
    {
      "anonymous": false,
      "inputs": [
        {
          "indexed": false,
          "internalType": "contract ITreasury",
          "name": "from",
          "type": "address"
        },
        {
          "indexed": false,
          "internalType": "contract ITreasury",
          "name": "to",
          "type": "address"
        }
      ],
      "name": "TreasuryChanged",
      "type": "event"
    },
    {
      "anonymous": false,
      "inputs": [
        {
          "indexed": false,
          "internalType": "address",
          "name": "to",
          "type": "address"
        },
        {
          "indexed": false,
          "internalType": "uint256",
          "name": "amount",
          "type": "uint256"
        }
      ],
      "name": "TreasuryDeposited",
      "type": "event"
    },
    {
      "inputs": [],
      "name": "POP",
      "outputs": [
        {
          "internalType": "contract IERC20",
          "name": "",
          "type": "address"
        }
      ],
      "stateMutability": "view",
      "type": "function"
    },
    {
      "inputs": [],
      "name": "SWAP_TIMEOUT",
      "outputs": [
        {
          "internalType": "uint256",
          "name": "",
          "type": "uint256"
        }
      ],
      "stateMutability": "view",
      "type": "function"
    },
    {
      "inputs": [],
      "name": "acceptGovernance",
      "outputs": [],
      "stateMutability": "nonpayable",
      "type": "function"
    },
    {
      "inputs": [],
      "name": "acceptOwnership",
      "outputs": [],
      "stateMutability": "nonpayable",
      "type": "function"
    },
    {
      "inputs": [
        {
          "internalType": "address",
          "name": "_account",
          "type": "address"
        }
      ],
      "name": "approveAccount",
      "outputs": [],
      "stateMutability": "nonpayable",
      "type": "function"
    },
    {
      "inputs": [
        {
          "internalType": "address",
          "name": "",
          "type": "address"
        }
      ],
      "name": "approved",
      "outputs": [
        {
          "internalType": "bool",
          "name": "",
          "type": "bool"
        }
      ],
      "stateMutability": "view",
      "type": "function"
    },
    {
      "inputs": [
        {
          "internalType": "uint256",
          "name": "_reward",
          "type": "uint256"
        },
        {
          "internalType": "bool",
          "name": "_enabled",
          "type": "bool"
        },
        {
          "internalType": "bool",
          "name": "_openToEveryone",
          "type": "bool"
        }
      ],
      "name": "createIncentive",
      "outputs": [
        {
          "internalType": "uint256",
          "name": "",
          "type": "uint256"
        }
      ],
      "stateMutability": "nonpayable",
      "type": "function"
    },
    {
      "inputs": [],
      "name": "distributeRewards",
      "outputs": [],
      "stateMutability": "nonpayable",
      "type": "function"
    },
    {
      "inputs": [
        {
          "internalType": "uint256",
          "name": "_amount",
          "type": "uint256"
        }
      ],
      "name": "fundIncentive",
      "outputs": [],
      "stateMutability": "nonpayable",
      "type": "function"
    },
    {
      "inputs": [],
      "name": "getRewardSplits",
      "outputs": [
        {
          "internalType": "uint256[4]",
          "name": "",
          "type": "uint256[4]"
        }
      ],
      "stateMutability": "view",
      "type": "function"
    },
    {
      "inputs": [],
      "name": "governance",
      "outputs": [
        {
          "internalType": "address",
          "name": "",
          "type": "address"
        }
      ],
      "stateMutability": "view",
      "type": "function"
    },
    {
      "inputs": [],
      "name": "incentiveBudget",
      "outputs": [
        {
          "internalType": "uint256",
          "name": "",
          "type": "uint256"
        }
      ],
      "stateMutability": "view",
      "type": "function"
    },
    {
      "inputs": [
        {
          "internalType": "uint256",
          "name": "",
          "type": "uint256"
        }
      ],
      "name": "incentives",
      "outputs": [
        {
          "internalType": "uint256",
          "name": "reward",
          "type": "uint256"
        },
        {
          "internalType": "bool",
          "name": "enabled",
          "type": "bool"
        },
        {
          "internalType": "bool",
          "name": "openToEveryone",
          "type": "bool"
        }
      ],
      "stateMutability": "view",
      "type": "function"
    },
    {
      "inputs": [],
      "name": "insurance",
      "outputs": [
        {
          "internalType": "contract IInsurance",
          "name": "",
          "type": "address"
        }
      ],
      "stateMutability": "view",
      "type": "function"
    },
    {
      "inputs": [
        {
          "internalType": "address",
          "name": "_governance",
          "type": "address"
        }
      ],
      "name": "nominateNewGovernance",
      "outputs": [],
      "stateMutability": "nonpayable",
      "type": "function"
    },
    {
      "inputs": [
        {
          "internalType": "address",
          "name": "_owner",
          "type": "address"
        }
      ],
      "name": "nominateNewOwner",
      "outputs": [],
      "stateMutability": "nonpayable",
      "type": "function"
    },
    {
      "inputs": [],
      "name": "nominatedGovernance",
      "outputs": [
        {
          "internalType": "address",
          "name": "",
          "type": "address"
        }
      ],
      "stateMutability": "view",
      "type": "function"
    },
    {
      "inputs": [],
      "name": "nominatedOwner",
      "outputs": [
        {
          "internalType": "address",
          "name": "",
          "type": "address"
        }
      ],
      "stateMutability": "view",
      "type": "function"
    },
    {
      "inputs": [],
      "name": "owner",
      "outputs": [
        {
          "internalType": "address",
          "name": "",
          "type": "address"
        }
      ],
      "stateMutability": "view",
      "type": "function"
    },
    {
      "inputs": [],
      "name": "region",
      "outputs": [
        {
          "internalType": "contract IRegion",
          "name": "",
          "type": "address"
        }
      ],
      "stateMutability": "view",
      "type": "function"
    },
    {
      "inputs": [
        {
          "internalType": "address",
          "name": "_account",
          "type": "address"
        }
      ],
      "name": "removeApproval",
      "outputs": [],
      "stateMutability": "nonpayable",
      "type": "function"
    },
    {
      "inputs": [
        {
          "internalType": "uint256",
          "name": "",
          "type": "uint256"
        }
      ],
      "name": "rewardSplits",
      "outputs": [
        {
          "internalType": "uint256",
          "name": "",
          "type": "uint256"
        }
      ],
      "stateMutability": "view",
      "type": "function"
    },
    {
      "inputs": [
        {
          "internalType": "contract IInsurance",
          "name": "insurance_",
          "type": "address"
        }
      ],
      "name": "setInsurance",
      "outputs": [],
      "stateMutability": "nonpayable",
      "type": "function"
    },
    {
      "inputs": [
        {
          "internalType": "contract IRegion",
          "name": "region_",
          "type": "address"
        }
      ],
      "name": "setRegion",
      "outputs": [],
      "stateMutability": "nonpayable",
      "type": "function"
    },
    {
      "inputs": [
        {
          "internalType": "uint256[4]",
          "name": "splits_",
          "type": "uint256[4]"
        }
      ],
      "name": "setRewardSplits",
      "outputs": [],
      "stateMutability": "nonpayable",
      "type": "function"
    },
    {
      "inputs": [
        {
          "internalType": "contract IStaking",
          "name": "staking_",
          "type": "address"
        }
      ],
      "name": "setStaking",
      "outputs": [],
      "stateMutability": "nonpayable",
      "type": "function"
    },
    {
      "inputs": [
        {
          "internalType": "contract ITreasury",
          "name": "treasury_",
          "type": "address"
        }
      ],
      "name": "setTreasury",
      "outputs": [],
      "stateMutability": "nonpayable",
      "type": "function"
    },
    {
      "inputs": [],
      "name": "staking",
      "outputs": [
        {
          "internalType": "contract IStaking",
          "name": "",
          "type": "address"
        }
      ],
      "stateMutability": "view",
      "type": "function"
    },
    {
      "inputs": [
        {
          "internalType": "address[]",
          "name": "path_",
          "type": "address[]"
        },
        {
          "internalType": "uint256",
          "name": "minAmountOut_",
          "type": "uint256"
        }
      ],
      "name": "swapTokenForRewards",
      "outputs": [
        {
          "internalType": "uint256[]",
          "name": "",
          "type": "uint256[]"
        }
      ],
      "stateMutability": "nonpayable",
      "type": "function"
    },
    {
      "inputs": [
        {
          "internalType": "uint256",
          "name": "_incentiveId",
          "type": "uint256"
        }
      ],
      "name": "toggleApproval",
      "outputs": [],
      "stateMutability": "nonpayable",
      "type": "function"
    },
    {
      "inputs": [
        {
          "internalType": "uint256",
          "name": "_incentiveId",
          "type": "uint256"
        }
      ],
      "name": "toggleIncentive",
      "outputs": [],
      "stateMutability": "nonpayable",
      "type": "function"
    },
    {
      "inputs": [],
      "name": "treasury",
      "outputs": [
        {
          "internalType": "contract ITreasury",
          "name": "",
          "type": "address"
        }
      ],
      "stateMutability": "view",
      "type": "function"
    },
    {
      "inputs": [],
      "name": "uniswapV2Router",
      "outputs": [
        {
          "internalType": "contract IUniswapV2Router02",
          "name": "",
          "type": "address"
        }
      ],
      "stateMutability": "view",
      "type": "function"
    },
    {
      "inputs": [
        {
          "internalType": "uint256",
          "name": "_incentiveId",
          "type": "uint256"
        },
        {
          "internalType": "uint256",
          "name": "_reward",
          "type": "uint256"
        },
        {
          "internalType": "bool",
          "name": "_enabled",
          "type": "bool"
        },
        {
          "internalType": "bool",
          "name": "_openToEveryone",
          "type": "bool"
        }
      ],
      "name": "updateIncentive",
      "outputs": [],
      "stateMutability": "nonpayable",
      "type": "function"
    },
    {
      "stateMutability": "payable",
      "type": "receive"
    }
  ],
  "bytecode": "0x60c06040523480156200001157600080fd5b50604051620034cb380380620034cb833981810160405260c08110156200003757600080fd5b508051602082015160408301516060840151608085015160a09095015193949293919290913386818080620000b3576040805162461bcd60e51b815260206004820152601960248201527f4f776e657220616464726573732063616e6e6f74206265203000000000000000604482015290519081900360640190fd5b600080546001600160a01b0319166001600160a01b038316908117825560408051928352602083019190915280517fb532073b38c83145e3e5135377a08bf9aab55bc0fd7c1179cd4fb995d2a5159c9281900390910190a15060016002556001600160a01b0381166200016d576040805162461bcd60e51b815260206004820152601e60248201527f476f7665726e616e636520616464726573732063616e6e6f7420626520300000604482015290519081900360640190fd5b600380546001600160a01b0319166001600160a01b0383169081179091556040805160008152602081019290925280517f3aaaebeb4821d6a7e5c77ece53cff0afcc56c82add2c978dbbb7f73e84cbcfd29281900390910190a1506001600160601b0319606082901b16608052620001f1678ac7230489e800006001600062000425565b5050600880546001600160a01b03199081166001600160a01b0389811691909117909255600980548216888416179055600a80548216878416179055600b805490911691851691909117905550606081901b6001600160601b03191660a052604080518082019091526801158e460913d0000081526804563918244f4000006020808301919091526000805260109052620002b0907f6e0956cda88cad152e89927e53611735b61a5c762d1428573c6931b0a5efcb0190600262000561565b5060408051808201909152678ac7230489e8000081526804563918244f40000060208083019190915260016000526010905262000311907f8c6065603763fec3f5742441d3833f3f43b982453612d76adb39a885e3006b5f90600262000561565b50604080518082019091526000808252678ac7230489e80000602080840191909152600291829052601090526200036a917f853b2fefe141400fef543280f93d98bd49996069f632d0d20236afeeed8e46a291620005af565b50604080518082019091526801158e460913d0000081526804e1003b28d9280000602080830191909152600360005260109052620003cc907fb3edd0d534d647cffdae9f1294f11ad21f3fcf2814bea44c92bbb8d384a57d9e90600262000561565b50604080516080810182526801bc16d674ec8000008082526020820152671bc16d674ec80000918101919091526801d7d843dc3b48000060608201526200041890600c906004620005eb565b505050505050506200063d565b60006200043162000514565b60408051606081018252858152841515602080830191825285151583850190815260058054600181018255600082905294517f036b6384b5eca791c62761152d0c79bb0604c104a5fb6f4eb0703f3154bb3db060029096029586015592517f036b6384b5eca791c62761152d0c79bb0604c104a5fb6f4eb0703f3154bb3db19094018054915160ff199092169415159490941761ff001916610100911515919091021790925554825190815291517f7d84860e1fc1ed3049c4f95ac22b081621477f749947cd30272d654c27a1a1a59281900390910190a1506005549392505050565b6003546001600160a01b031633146200055f5760405162461bcd60e51b8152600401808060200182810382526034815260200180620034976034913960400191505060405180910390fd5b565b82600281019282156200059d579160200282015b828111156200059d57825182906001600160481b031690559160200191906001019062000575565b50620005ab92915062000626565b5090565b82600281019282156200059d579160200282015b828111156200059d57825182906001600160401b0316905591602001919060010190620005c3565b82600481019282156200059d57916020028201828111156200059d57825182906001600160481b031690559160200191906001019062000575565b5b80821115620005ab576000815560010162000627565b60805160601c60a05160601c612def620006a8600039806109b85280611cc95280611cfa5250806109e75280611044528061129e5280611322528061135252806119ca5280611a4e5280611b2f52806122bf5280612434528061252b52806127455250612def6000f3fe60806040526004361061021d5760003560e01c806361c948851161011d5780638b620cff116100b0578063e121c1021161007f578063f5f3836111610064578063f5f38361146106ef578063f89f4e77146107bc578063ffd8a6d9146107ef57610224565b8063e121c10214610672578063f0f44260146106bc57610224565b80638b620cff146105b95780638da5cb5b146105e35780638ff39099146105f8578063d8b964e61461062b57610224565b80636f4a2cd0116100ec5780636f4a2cd01461054757806379ba50971461055c5780637cab5e8c1461057157806389cf3204146105a457610224565b806361c94885146104aa57806361d027b3146104ea5780636c660b01146104ff5780636cd7751f1461051457610224565b806341267de5116101b05780635062d68d1161017f57806353a47bb71161016457806353a47bb71461044d5780635661d186146104625780635aa6e6751461049557610224565b80635062d68d1461042357806353732cad1461043857610224565b806341267de5146103a557806342f5e9f4146103ba578063493f43bb146103e45780634cf088d91461040e57610224565b80631694505e116101ec5780631694505e146103285780631c5f82eb1461033d578063238efcbc1461036757806329fc1bcc1461037c57610224565b806308b8c19a1461022957806308c8cb871461027657806314ef6851146102c25780631627540c146102f357610224565b3661022457005b600080fd5b34801561023557600080fd5b5061023e610822565b6040518082608080838360005b8381101561026357818101518382015260200161024b565b5050505090500191505060405180910390f35b34801561028257600080fd5b506102b06004803603606081101561029957600080fd5b50803590602081013515159060400135151561085d565b60408051918252519081900360200190f35b3480156102ce57600080fd5b506102d761094b565b604080516001600160a01b039092168252519081900360200190f35b3480156102ff57600080fd5b506103266004803603602081101561031657600080fd5b50356001600160a01b031661095a565b005b34801561033457600080fd5b506102d76109b6565b34801561034957600080fd5b506103266004803603602081101561036057600080fd5b50356109da565b34801561037357600080fd5b50610326610a55565b34801561038857600080fd5b506103266004803603608081101561039f57600080fd5b50610b11565b3480156103b157600080fd5b506102b0610cc2565b3480156103c657600080fd5b50610326600480360360208110156103dd57600080fd5b5035610cc8565b3480156103f057600080fd5b506103266004803603602081101561040757600080fd5b5035610d97565b34801561041a57600080fd5b506102d7610e70565b34801561042f57600080fd5b506102d7610e7f565b34801561044457600080fd5b506102b0610e8e565b34801561045957600080fd5b506102d7610e94565b34801561046e57600080fd5b506103266004803603602081101561048557600080fd5b50356001600160a01b0316610ea3565b3480156104a157600080fd5b506102d7610f71565b3480156104b657600080fd5b50610326600480360360808110156104cd57600080fd5b508035906020810135906040810135151590606001351515610f80565b3480156104f657600080fd5b506102d7611033565b34801561050b57600080fd5b506102d7611042565b34801561052057600080fd5b506103266004803603602081101561053757600080fd5b50356001600160a01b0316611066565b34801561055357600080fd5b50610326611134565b34801561056857600080fd5b5061032661152a565b34801561057d57600080fd5b506103266004803603602081101561059457600080fd5b50356001600160a01b03166115e6565b3480156105b057600080fd5b506102d7611646565b3480156105c557600080fd5b506102b0600480360360208110156105dc57600080fd5b5035611655565b3480156105ef57600080fd5b506102d7611669565b34801561060457600080fd5b506103266004803603602081101561061b57600080fd5b50356001600160a01b0316611678565b34801561063757600080fd5b5061065e6004803603602081101561064e57600080fd5b50356001600160a01b0316611745565b604080519115158252519081900360200190f35b34801561067e57600080fd5b5061069c6004803603602081101561069557600080fd5b503561175a565b604080519384529115156020840152151582820152519081900360600190f35b3480156106c857600080fd5b50610326600480360360208110156106df57600080fd5b50356001600160a01b0316611791565b3480156106fb57600080fd5b5061076c6004803603604081101561071257600080fd5b81019060208101813564010000000081111561072d57600080fd5b82018360208201111561073f57600080fd5b8035906020019184602083028401116401000000008311171561076157600080fd5b91935091503561185e565b60408051602080825283518183015283519192839290830191858101910280838360005b838110156107a8578181015183820152602001610790565b505050509050019250505060405180910390f35b3480156107c857600080fd5b50610326600480360360208110156107df57600080fd5b50356001600160a01b0316611f28565b3480156107fb57600080fd5b506103266004803603602081101561081257600080fd5b50356001600160a01b0316611f8b565b61082a612c09565b60408051608081019182905290600c9060049082845b815481526020019060010190808311610840575050505050905090565b6000610867611fe7565b60408051606081018252858152841515602080830191825285151583850190815260058054600181018255600082905294517f036b6384b5eca791c62761152d0c79bb0604c104a5fb6f4eb0703f3154bb3db060029096029586015592517f036b6384b5eca791c62761152d0c79bb0604c104a5fb6f4eb0703f3154bb3db19094018054915160ff199092169415159490941761ff001916610100911515919091021790925554825190815291517f7d84860e1fc1ed3049c4f95ac22b081621477f749947cd30272d654c27a1a1a59281900390910190a1506005545b9392505050565b6004546001600160a01b031681565b610962612032565b600180546001600160a01b0383166001600160a01b0319909116811790915560408051918252517f906a1c6bd7e3091ea86693dd029a831c19049ce77f1dce2ce0bab1cacbabce229181900360200190a150565b7f000000000000000000000000000000000000000000000000000000000000000081565b610a0f6001600160a01b037f00000000000000000000000000000000000000000000000000000000000000001633308461207b565b600654610a1c9082612109565b6006556040805182815290517f9ad4c05cff4861564f4d1572799ac5d03d82f40ea702646c7b3bfd552f570cde9181900360200190a150565b6004546001600160a01b03163314610a9e5760405162461bcd60e51b8152600401808060200182810382526036815260200180612d5a6036913960400191505060405180910390fd5b600354600454604080516001600160a01b03938416815292909116602083015280517f3aaaebeb4821d6a7e5c77ece53cff0afcc56c82add2c978dbbb7f73e84cbcfd29281900390910190a160048054600380546001600160a01b03199081166001600160a01b03841617909155169055565b610b19612032565b6000805b60048160ff161015610c035760ff811660008181526010602052604090205490849060048110610b4957fe5b602002013510158015610b82575060ff811660008181526010602052604090206001015490849060048110610b7a57fe5b602002013511155b610bd3576040805162461bcd60e51b815260206004820152600d60248201527f496e76616c69642073706c697400000000000000000000000000000000000000604482015290519081900360640190fd5b610bf9838260ff1660048110610be557fe5b60200201358361210990919063ffffffff16565b9150600101610b1d565b508068056bc75e2d6310000014610c61576040805162461bcd60e51b815260206004820152601360248201527f496e76616c69642073706c697420746f74616c00000000000000000000000000604482015290519081900360640190fd5b610c6e600c836004612c27565b507f8526975e8f19dfdda4e91ec2ccc03f20d0fba43d603541708603f0fa4767dcd4826040518082600460200280828437600083820152604051601f909101601f1916909201829003935090915050a15050565b60065481565b610cd0611fe7565b60058181548110610cdd57fe5b906000526020600020906002020160010160009054906101000a900460ff161560058281548110610d0a57fe5b906000526020600020906002020160010160006101000a81548160ff0219169083151502179055507f051f998dd825d3013afdc6c3a8d515e73d5816bff7238ddccb4e85131e6fd1a08160058381548110610d6157fe5b6000918252602091829020600160029092020101546040805193845260ff9091161515918301919091528051918290030190a150565b610d9f611fe7565b60058181548110610dac57fe5b906000526020600020906002020160010160019054906101000a900460ff161560058281548110610dd957fe5b906000526020600020906002020160010160016101000a81548160ff0219169083151502179055507fa51d6c9733fd63b5d3d7f72181e83ef039954a7c1748775a99f4ceb8edbef1008160058381548110610e3057fe5b906000526020600020906002020160010160019054906101000a900460ff166040518083815260200182151581526020019250505060405180910390a150565b6008546001600160a01b031681565b600b546001600160a01b031681565b61025881565b6001546001600160a01b031681565b610eab612032565b600b546001600160a01b0382811691161415610f0e576040805162461bcd60e51b815260206004820152600b60248201527f53616d6520526567696f6e000000000000000000000000000000000000000000604482015290519081900360640190fd5b600b80546001600160a01b038381166001600160a01b0319831681179093556040805191909216808252602082019390935281517f9da132008e0d8fec8ce97edfe5fcc3abdb08c8bf4bc07aa121311492775a7336929181900390910190a15050565b6003546001600160a01b031681565b610f88611fe7565b6040518060600160405280848152602001831515815260200182151581525060058581548110610fb457fe5b60009182526020918290208351600290920201908155828201516001909101805460409485015115156101000261ff001993151560ff199092169190911792909216919091179055815186815291517fb6eadbf6d08d9dab781edecc3f924ce28080fc3e1c8e1356fe758d68020e76409281900390910190a150505050565b6009546001600160a01b031681565b7f000000000000000000000000000000000000000000000000000000000000000081565b61106e612032565b600a546001600160a01b03828116911614156110d1576040805162461bcd60e51b815260206004820152600e60248201527f53616d6520496e737572616e6365000000000000000000000000000000000000604482015290519081900360640190fd5b600a80546001600160a01b038381166001600160a01b0319831681179093556040805191909216808252602082019390935281517fb9872278ffb6e388e3a81fa0992bb5e9ed61fd5333712f85869ecb7101ba01e3929181900390910190a15050565b60028054141561118b576040805162461bcd60e51b815260206004820152601f60248201527f5265656e7472616e637947756172643a207265656e7472616e742063616c6c00604482015290519081900360640190fd5b600280556005546000901561134e576000600582815481106111a957fe5b906000526020600020906002020190508060010160019054906101000a900460ff16611248573360009081526007602052604090205460ff16806111f757506003546001600160a01b031633145b611248576040805162461bcd60e51b815260206004820181905260248201527f796f7520617265206e6f7420617070726f7665642061732061206b6565706572604482015290519081900360640190fd5b600181015460ff16801561125f5750600654815411155b1561134c5780546006546112729161216c565b60065580546040805163095ea7b360e01b81523060048201526024810192909252516001600160a01b037f0000000000000000000000000000000000000000000000000000000000000000169163095ea7b39160448083019260209291908290030181600087803b1580156112e657600080fd5b505af11580156112fa573d6000803e3d6000fd5b505050506040513d602081101561131057600080fd5b5050805461134c906001600160a01b037f000000000000000000000000000000000000000000000000000000000000000016903090339061207b565b505b60007f00000000000000000000000000000000000000000000000000000000000000006001600160a01b03166370a08231306040518263ffffffff1660e01b815260040180826001600160a01b0316815260200191505060206040518083038186803b1580156113bd57600080fd5b505afa1580156113d1573d6000803e3d6000fd5b505050506040513d60208110156113e757600080fd5b505190508061143d576040805162461bcd60e51b815260206004820152600e60248201527f4e6f20504f502062616c616e6365000000000000000000000000000000000000604482015290519081900360640190fd5b600061146168056bc75e2d6310000061145b600c84015485906121c9565b90612222565b9050600061148268056bc75e2d6310000061145b600c6001015486906121c9565b905060006114a368056bc75e2d6310000061145b600c6002015487906121c9565b905060006114c468056bc75e2d6310000061145b600c6003015488906121c9565b90506114cf84612289565b6114d8836123fe565b6114e1826124f5565b6114ea816125ec565b6040805186815290517f6d1c76d614228b523baa4dcd9539e2c713b54ff4ab3ff2d1627e7f6cd32be4429181900360200190a15050600160025550505050565b6001546001600160a01b031633146115735760405162461bcd60e51b8152600401808060200182810382526035815260200180612c7b6035913960400191505060405180910390fd5b600054600154604080516001600160a01b03938416815292909116602083015280517fb532073b38c83145e3e5135377a08bf9aab55bc0fd7c1179cd4fb995d2a5159c9281900390910190a160018054600080546001600160a01b03199081166001600160a01b03841617909155169055565b6115ee611fe7565b6001600160a01b038116600081815260076020908152604091829020805460ff19169055815192835290517ffd14bcb80907f44e9de03a8c122d3324befad6501ae8481ab277b809227bc8de9281900390910190a150565b600a546001600160a01b031681565b600c816004811061166257fe5b0154905081565b6000546001600160a01b031681565b611680612032565b6008546001600160a01b03828116911614156116e3576040805162461bcd60e51b815260206004820152600c60248201527f53616d65205374616b696e670000000000000000000000000000000000000000604482015290519081900360640190fd5b600880546001600160a01b038381166001600160a01b0319831617928390556040805192821680845293909116602083015280517f879d4b7ef5d26633247f016312fb5ad5c9672df376e34c30705b3e782e7c27489281900390910190a15050565b60076020526000908152604090205460ff1681565b6005818154811061176757fe5b60009182526020909120600290910201805460019091015490915060ff8082169161010090041683565b611799612032565b6009546001600160a01b03828116911614156117fc576040805162461bcd60e51b815260206004820152600d60248201527f53616d6520547265617375727900000000000000000000000000000000000000604482015290519081900360640190fd5b600980546001600160a01b038381166001600160a01b0319831617928390556040805192821680845293909116602083015280517f8c3aa5f43a388513435861bf27dfad7829cd248696fed367c62d441f629544969281900390910190a15050565b60606002805414156118b7576040805162461bcd60e51b815260206004820152601f60248201527f5265656e7472616e637947756172643a207265656e7472616e742063616c6c00604482015290519081900360640190fd5b6002805560055460009015611a7a576000600582815481106118d557fe5b906000526020600020906002020190508060010160019054906101000a900460ff16611974573360009081526007602052604090205460ff168061192357506003546001600160a01b031633145b611974576040805162461bcd60e51b815260206004820181905260248201527f796f7520617265206e6f7420617070726f7665642061732061206b6565706572604482015290519081900360640190fd5b600181015460ff16801561198b5750600654815411155b15611a7857805460065461199e9161216c565b60065580546040805163095ea7b360e01b81523060048201526024810192909252516001600160a01b037f0000000000000000000000000000000000000000000000000000000000000000169163095ea7b39160448083019260209291908290030181600087803b158015611a1257600080fd5b505af1158015611a26573d6000803e3d6000fd5b505050506040513d6020811015611a3c57600080fd5b50508054611a78906001600160a01b037f000000000000000000000000000000000000000000000000000000000000000016903090339061207b565b505b6002841015611ad0576040805162461bcd60e51b815260206004820152601160248201527f496e76616c696420737761702070617468000000000000000000000000000000604482015290519081900360640190fd5b60008311611b25576040805162461bcd60e51b815260206004820152600e60248201527f496e76616c696420616d6f756e74000000000000000000000000000000000000604482015290519081900360640190fd5b6001600160a01b037f00000000000000000000000000000000000000000000000000000000000000001685856000198101818110611b5f57fe5b905060200201356001600160a01b03166001600160a01b031614611bca576040805162461bcd60e51b815260206004820152601860248201527f504f50206d757374206265206c61737420696e20706174680000000000000000604482015290519081900360640190fd5b600085856000818110611bd957fe5b905060200201356001600160a01b031690506000816001600160a01b03166370a08231306040518263ffffffff1660e01b815260040180826001600160a01b0316815260200191505060206040518083038186803b158015611c3a57600080fd5b505afa158015611c4e573d6000803e3d6000fd5b505050506040513d6020811015611c6457600080fd5b5051905080611cba576040805162461bcd60e51b815260206004820152601460248201527f4e6f20737761707061626c652062616c616e6365000000000000000000000000604482015290519081900360640190fd5b611cee6001600160a01b0383167f00000000000000000000000000000000000000000000000000000000000000008361283a565b60606001600160a01b037f0000000000000000000000000000000000000000000000000000000000000000166338ed173983888b8b30611d3042610258612109565b6040518763ffffffff1660e01b81526004018087815260200186815260200180602001846001600160a01b031681526020018381526020018281038252868682818152602001925060200280828437600081840152601f19601f820116905080830192505050975050505050505050600060405180830381600087803b158015611db957600080fd5b505af1158015611dcd573d6000803e3d6000fd5b505050506040513d6000823e601f3d908101601f191682016040526020811015611df657600080fd5b8101908080516040519392919084640100000000821115611e1657600080fd5b908301906020820185811115611e2b57600080fd5b8251866020820283011164010000000082111715611e4857600080fd5b82525081516020918201928201910280838360005b83811015611e75578181015183820152602001611e5d565b5050505090500160405250505090507fd5a1cd88ddd329cc1ddf861a21708efa9ef3136b88e1420c21f91ef6f95ad02488886000818110611eb257fe5b905060200201356001600160a01b031682600081518110611ecf57fe5b602002602001015183600181518110611ee457fe5b602002602001015160405180846001600160a01b03168152602001838152602001828152602001935050505060405180910390a16001600255979650505050505050565b611f30611fe7565b6001600160a01b038116600081815260076020908152604091829020805460ff19166001179055815192835290517f5d91bd0cecc45fef102af61de92c5462fadc884a5ce9d21c15e8a85198f2349e9281900390910190a150565b611f93611fe7565b600480546001600160a01b0383166001600160a01b0319909116811790915560408051918252517f1c58cfd31540f5b6a8cfbbe7c225cfccf4ee83b8691dc4d4d0a23a3ef02be5849181900360200190a150565b6003546001600160a01b031633146120305760405162461bcd60e51b8152600401808060200182810382526034815260200180612d266034913960400191505060405180910390fd5b565b6000546001600160a01b031633146120305760405162461bcd60e51b815260040180806020018281038252602f815260200180612cd6602f913960400191505060405180910390fd5b604080516001600160a01b0380861660248301528416604482015260648082018490528251808303909101815260849091019091526020810180517bffffffffffffffffffffffffffffffffffffffffffffffffffffffff167f23b872dd00000000000000000000000000000000000000000000000000000000179052612103908590612936565b50505050565b600082820183811015612163576040805162461bcd60e51b815260206004820152601b60248201527f536166654d6174683a206164646974696f6e206f766572666c6f770000000000604482015290519081900360640190fd5b90505b92915050565b6000828211156121c3576040805162461bcd60e51b815260206004820152601e60248201527f536166654d6174683a207375627472616374696f6e206f766572666c6f770000604482015290519081900360640190fd5b50900390565b6000826121d857506000612166565b828202828482816121e557fe5b04146121635760405162461bcd60e51b8152600401808060200182810382526021815260200180612d056021913960400191505060405180910390fd5b6000808211612278576040805162461bcd60e51b815260206004820152601a60248201527f536166654d6174683a206469766973696f6e206279207a65726f000000000000604482015290519081900360640190fd5b81838161228157fe5b049392505050565b80612293576123fb565b6008546040805163a9059cbb60e01b81526001600160a01b0392831660048201526024810184905290517f00000000000000000000000000000000000000000000000000000000000000009092169163a9059cbb916044808201926020929091908290030181600087803b15801561230a57600080fd5b505af115801561231e573d6000803e3d6000fd5b505050506040513d602081101561233457600080fd5b5050600854604080517f3c6b16ab0000000000000000000000000000000000000000000000000000000081526004810184905290516001600160a01b0390921691633c6b16ab9160248082019260009290919082900301818387803b15801561239c57600080fd5b505af11580156123b0573d6000803e3d6000fd5b5050600854604080516001600160a01b0390921682526020820185905280517f6340a0e6b8ea35da618479a712fc50894736e440f8adf9c52f61e62b52b1d97a945091829003019150a15b50565b80612408576123fb565b6009546040805163a9059cbb60e01b81526001600160a01b0392831660048201526024810184905290517f00000000000000000000000000000000000000000000000000000000000000009092169163a9059cbb916044808201926020929091908290030181600087803b15801561247f57600080fd5b505af1158015612493573d6000803e3d6000fd5b505050506040513d60208110156124a957600080fd5b5050600954604080516001600160a01b0390921682526020820183905280517f8283e6b33f7f1cfc32820a5fd82cd9e5224d98c14133977f1e7902ce920e51ce9281900390910190a150565b806124ff576123fb565b600a546040805163a9059cbb60e01b81526001600160a01b0392831660048201526024810184905290517f00000000000000000000000000000000000000000000000000000000000000009092169163a9059cbb916044808201926020929091908290030181600087803b15801561257657600080fd5b505af115801561258a573d6000803e3d6000fd5b505050506040513d60208110156125a057600080fd5b5050600a54604080516001600160a01b0390921682526020820183905280517fe6b81755e9a8d33c17416b71b3f0961808da876dbc287641d63f868e4fce06739281900390910190a150565b806125f6576123fb565b600b54604080517f97331bf900000000000000000000000000000000000000000000000000000000815290516060926001600160a01b0316916397331bf9916004808301926000929190829003018186803b15801561265457600080fd5b505afa158015612668573d6000803e3d6000fd5b505050506040513d6000823e601f3d908101601f19168201604052602081101561269157600080fd5b81019080805160405193929190846401000000008211156126b157600080fd5b9083019060208201858111156126c657600080fd5b82518660208202830111640100000000821117156126e357600080fd5b82525081516020918201928201910280838360005b838110156127105781810151838201526020016126f8565b505050509050016040525050509050600061273582518461222290919063ffffffff16565b905060005b8251811015612801577f00000000000000000000000000000000000000000000000000000000000000006001600160a01b031663a9059cbb84838151811061277e57fe5b6020026020010151846040518363ffffffff1660e01b815260040180836001600160a01b0316815260200182815260200192505050602060405180830381600087803b1580156127cd57600080fd5b505af11580156127e1573d6000803e3d6000fd5b505050506040513d60208110156127f757600080fd5b505060010161273a565b506040805184815290517fe7208817b3eb80f013fb0e43f9ad639656bdeba727de0e343ee8f949f0f688e39181900360200190a1505050565b60006128d082856001600160a01b031663dd62ed3e30876040518363ffffffff1660e01b815260040180836001600160a01b03168152602001826001600160a01b031681526020019250505060206040518083038186803b15801561289e57600080fd5b505afa1580156128b2573d6000803e3d6000fd5b505050506040513d60208110156128c857600080fd5b505190612109565b604080516001600160a01b038616602482015260448082018490528251808303909101815260649091019091526020810180517bffffffffffffffffffffffffffffffffffffffffffffffffffffffff1663095ea7b360e01b1790529091506121039085905b606061298b826040518060400160405280602081526020017f5361666545524332303a206c6f772d6c6576656c2063616c6c206661696c6564815250856001600160a01b03166129ec9092919063ffffffff16565b8051909150156129e7578080602001905160208110156129aa57600080fd5b50516129e75760405162461bcd60e51b815260040180806020018281038252602a815260200180612d90602a913960400191505060405180910390fd5b505050565b60606129fb8484600085612a03565b949350505050565b606082471015612a445760405162461bcd60e51b8152600401808060200182810382526026815260200180612cb06026913960400191505060405180910390fd5b612a4d85612b5f565b612a9e576040805162461bcd60e51b815260206004820152601d60248201527f416464726573733a2063616c6c20746f206e6f6e2d636f6e7472616374000000604482015290519081900360640190fd5b60006060866001600160a01b031685876040518082805190602001908083835b60208310612add5780518252601f199092019160209182019101612abe565b6001836020036101000a03801982511681845116808217855250505050505090500191505060006040518083038185875af1925050503d8060008114612b3f576040519150601f19603f3d011682016040523d82523d6000602084013e612b44565b606091505b5091509150612b54828286612b65565b979650505050505050565b3b151590565b60608315612b74575081610944565b825115612b845782518084602001fd5b8160405162461bcd60e51b81526004018080602001828103825283818151815260200191508051906020019080838360005b83811015612bce578181015183820152602001612bb6565b50505050905090810190601f168015612bfb5780820380516001836020036101000a031916815260200191505b509250505060405180910390fd5b60405180608001604052806004906020820280368337509192915050565b8260048101928215612c55579160200282015b82811115612c55578235825591602001919060010190612c3a565b50612c61929150612c65565b5090565b5b80821115612c615760008155600101612c6656fe596f75206d757374206265206e6f6d696e61746564206265666f726520796f752063616e20616363657074206f776e657273686970416464726573733a20696e73756666696369656e742062616c616e636520666f722063616c6c4f6e6c792074686520636f6e7472616374206f776e6572206d617920706572666f726d207468697320616374696f6e536166654d6174683a206d756c7469706c69636174696f6e206f766572666c6f774f6e6c792074686520636f6e747261637420676f7665726e616e6365206d617920706572666f726d207468697320616374696f6e596f75206d757374206265206e6f6d696e61746564206265666f726520796f752063616e2061636365707420676f7665726e616e63655361666545524332303a204552433230206f7065726174696f6e20646964206e6f742073756363656564a264697066735822122018a4425305826a782ca0f4974c98e1872165b19b99983e8bc130589064b708ed64736f6c634300070300334f6e6c792074686520636f6e747261637420676f7665726e616e6365206d617920706572666f726d207468697320616374696f6e",
  "linkReferences": {},
  "deployedLinkReferences": {}
}