{
  "_format": "hh-sol-artifact-1",
  "contractName": "StakingDefendedHelper",
  "sourceName": "contracts/test_helpers/StakingDefendedHelper.sol",
  "abi": [
    {
      "inputs": [
        {
          "internalType": "contract IERC20",
          "name": "_token",
          "type": "address"
        },
        {
          "internalType": "contract Staking",
          "name": "_staking",
          "type": "address"
        }
      ],
      "stateMutability": "nonpayable",
      "type": "constructor"
    },
    {
      "inputs": [
        {
          "internalType": "uint256",
          "name": "amount",
          "type": "uint256"
        }
      ],
      "name": "stake",
      "outputs": [],
      "stateMutability": "nonpayable",
      "type": "function"
    },
    {
      "inputs": [],
      "name": "staking",
      "outputs": [
        {
          "internalType": "contract Staking",
          "name": "",
          "type": "address"
        }
      ],
      "stateMutability": "view",
      "type": "function"
    },
    {
      "inputs": [],
      "name": "token",
      "outputs": [
        {
          "internalType": "contract IERC20",
          "name": "",
          "type": "address"
        }
      ],
      "stateMutability": "view",
      "type": "function"
    }
  ],
  "bytecode": "0x608060405234801561001057600080fd5b5060405161028a38038061028a8339818101604052604081101561003357600080fd5b508051602090910151600080546001600160a01b039384166001600160a01b031991821617909155600180549390921692169190911790556102108061007a6000396000f3fe608060405234801561001057600080fd5b50600436106100415760003560e01c80634cf088d914610046578063a694fc3a1461006a578063fc0c546a14610089575b600080fd5b61004e610091565b604080516001600160a01b039092168252519081900360200190f35b6100876004803603602081101561008057600080fd5b50356100a0565b005b61004e6101cb565b6001546001600160a01b031681565b60008054600154604080517f095ea7b30000000000000000000000000000000000000000000000000000000081526001600160a01b039283166004820152602481018690529051919092169263095ea7b392604480820193602093909283900390910190829087803b15801561011557600080fd5b505af1158015610129573d6000803e3d6000fd5b505050506040513d602081101561013f57600080fd5b5050600154604080517f7b0472f00000000000000000000000000000000000000000000000000000000081526004810184905262093a80602482015290516001600160a01b0390921691637b0472f09160448082019260009290919082900301818387803b1580156101b057600080fd5b505af11580156101c4573d6000803e3d6000fd5b5050505050565b6000546001600160a01b03168156fea2646970667358221220119c650ca923adf1a90947673f19d2b74f481190c2f8cb26c6b54599e30232ac64736f6c63430007030033",
  "linkReferences": {},
  "deployedLinkReferences": {}
}