{
  "_format": "hh-sol-artifact-1",
  "contractName": "ParticipationReward",
  "sourceName": "contracts/ParticipationReward.sol",
  "abi": [
    {
      "inputs": [
        {
          "internalType": "contract IERC20",
          "name": "_pop",
          "type": "address"
        },
        {
          "internalType": "address",
          "name": "_governance",
          "type": "address"
        }
      ],
      "stateMutability": "nonpayable",
      "type": "constructor"
    },
    {
      "anonymous": false,
      "inputs": [
        {
          "indexed": false,
          "internalType": "address",
          "name": "oldGovernance",
          "type": "address"
        },
        {
          "indexed": false,
          "internalType": "address",
          "name": "newGovernance",
          "type": "address"
        }
      ],
      "name": "GovernanceChanged",
      "type": "event"
    },
    {
      "anonymous": false,
      "inputs": [
        {
          "indexed": false,
          "internalType": "address",
          "name": "newGovernance",
          "type": "address"
        }
      ],
      "name": "GovernanceNominated",
      "type": "event"
    },
    {
      "anonymous": false,
      "inputs": [
        {
          "indexed": false,
          "internalType": "address",
          "name": "account",
          "type": "address"
        },
        {
          "indexed": false,
          "internalType": "uint256",
          "name": "amount",
          "type": "uint256"
        }
      ],
      "name": "RewardBalanceIncreased",
      "type": "event"
    },
    {
      "anonymous": false,
      "inputs": [
        {
          "indexed": false,
          "internalType": "uint256",
          "name": "amount",
          "type": "uint256"
        }
      ],
      "name": "RewardBudgetChanged",
      "type": "event"
    },
    {
      "anonymous": false,
      "inputs": [
        {
          "indexed": false,
          "internalType": "bytes32",
          "name": "vaultId",
          "type": "bytes32"
        },
        {
          "indexed": false,
          "internalType": "address",
          "name": "account_",
          "type": "address"
        },
        {
          "indexed": false,
          "internalType": "uint256",
          "name": "amount",
          "type": "uint256"
        }
      ],
      "name": "RewardClaimed",
      "type": "event"
    },
    {
      "anonymous": false,
      "inputs": [
        {
          "indexed": false,
          "internalType": "address",
          "name": "account_",
          "type": "address"
        },
        {
          "indexed": false,
          "internalType": "uint256",
          "name": "amount",
          "type": "uint256"
        }
      ],
      "name": "RewardsClaimed",
      "type": "event"
    },
    {
      "anonymous": false,
      "inputs": [
        {
          "indexed": false,
          "internalType": "bytes32",
          "name": "vaultId_",
          "type": "bytes32"
        },
        {
          "indexed": false,
          "internalType": "address",
          "name": "account_",
          "type": "address"
        },
        {
          "indexed": false,
          "internalType": "uint256",
          "name": "shares_",
          "type": "uint256"
        }
      ],
      "name": "SharesAdded",
      "type": "event"
    },
    {
      "anonymous": false,
      "inputs": [
        {
          "indexed": false,
          "internalType": "bytes32",
          "name": "vaultId",
          "type": "bytes32"
        }
      ],
      "name": "VaultClosed",
      "type": "event"
    },
    {
      "anonymous": false,
      "inputs": [
        {
          "indexed": false,
          "internalType": "bytes32",
          "name": "vaultId",
          "type": "bytes32"
        }
      ],
      "name": "VaultInitialized",
      "type": "event"
    },
    {
      "anonymous": false,
      "inputs": [
        {
          "indexed": false,
          "internalType": "bytes32",
          "name": "vaultId",
          "type": "bytes32"
        }
      ],
      "name": "VaultOpened",
      "type": "event"
    },
    {
      "inputs": [],
      "name": "POP",
      "outputs": [
        {
          "internalType": "contract IERC20",
          "name": "",
          "type": "address"
        }
      ],
      "stateMutability": "view",
      "type": "function"
    },
    {
      "inputs": [],
      "name": "acceptGovernance",
      "outputs": [],
      "stateMutability": "nonpayable",
      "type": "function"
    },
    {
      "inputs": [
        {
          "internalType": "uint256",
          "name": "index_",
          "type": "uint256"
        }
      ],
      "name": "claimReward",
      "outputs": [],
      "stateMutability": "nonpayable",
      "type": "function"
    },
    {
      "inputs": [
        {
          "internalType": "uint256[]",
          "name": "indices_",
          "type": "uint256[]"
        }
      ],
      "name": "claimRewards",
      "outputs": [],
      "stateMutability": "nonpayable",
      "type": "function"
    },
    {
      "inputs": [
        {
          "internalType": "uint256",
          "name": "amount",
          "type": "uint256"
        }
      ],
      "name": "contributeReward",
      "outputs": [],
      "stateMutability": "nonpayable",
      "type": "function"
    },
    {
      "inputs": [
        {
          "internalType": "address",
          "name": "account",
          "type": "address"
        }
      ],
      "name": "getUserVaults",
      "outputs": [
        {
          "internalType": "bytes32[]",
          "name": "",
          "type": "bytes32[]"
        }
      ],
      "stateMutability": "view",
      "type": "function"
    },
    {
      "inputs": [
        {
          "internalType": "bytes32",
          "name": "vaultId_",
          "type": "bytes32"
        }
      ],
      "name": "getVaultStatus",
      "outputs": [
        {
          "internalType": "enum ParticipationReward.VaultStatus",
          "name": "",
          "type": "uint8"
        }
      ],
      "stateMutability": "view",
      "type": "function"
    },
    {
      "inputs": [],
      "name": "governance",
      "outputs": [
        {
          "internalType": "address",
          "name": "",
          "type": "address"
        }
      ],
      "stateMutability": "view",
      "type": "function"
    },
    {
      "inputs": [
        {
          "internalType": "bytes32",
          "name": "vaultId_",
          "type": "bytes32"
        },
        {
          "internalType": "address",
          "name": "beneficiary_",
          "type": "address"
        }
      ],
      "name": "hasClaim",
      "outputs": [
        {
          "internalType": "bool",
          "name": "",
          "type": "bool"
        }
      ],
      "stateMutability": "view",
      "type": "function"
    },
    {
      "inputs": [
        {
          "internalType": "bytes32",
          "name": "vaultId_",
          "type": "bytes32"
        },
        {
          "internalType": "address",
          "name": "beneficiary_",
          "type": "address"
        }
      ],
      "name": "isClaimable",
      "outputs": [
        {
          "internalType": "bool",
          "name": "",
          "type": "bool"
        }
      ],
      "stateMutability": "view",
      "type": "function"
    },
    {
      "inputs": [
        {
          "internalType": "address",
          "name": "_governance",
          "type": "address"
        }
      ],
      "name": "nominateNewGovernance",
      "outputs": [],
      "stateMutability": "nonpayable",
      "type": "function"
    },
    {
      "inputs": [],
      "name": "nominatedGovernance",
      "outputs": [
        {
          "internalType": "address",
          "name": "",
          "type": "address"
        }
      ],
      "stateMutability": "view",
      "type": "function"
    },
    {
      "inputs": [],
      "name": "rewardBalance",
      "outputs": [
        {
          "internalType": "uint256",
          "name": "",
          "type": "uint256"
        }
      ],
      "stateMutability": "view",
      "type": "function"
    },
    {
      "inputs": [],
      "name": "rewardBudget",
      "outputs": [
        {
          "internalType": "uint256",
          "name": "",
          "type": "uint256"
        }
      ],
      "stateMutability": "view",
      "type": "function"
    },
    {
      "inputs": [
        {
          "internalType": "uint256",
          "name": "amount",
          "type": "uint256"
        }
      ],
      "name": "setRewardsBudget",
      "outputs": [],
      "stateMutability": "nonpayable",
      "type": "function"
    },
    {
      "inputs": [],
      "name": "totalVaultsBudget",
      "outputs": [
        {
          "internalType": "uint256",
          "name": "",
          "type": "uint256"
        }
      ],
      "stateMutability": "view",
      "type": "function"
    },
    {
      "inputs": [
        {
          "internalType": "address",
          "name": "",
          "type": "address"
        },
        {
          "internalType": "uint256",
          "name": "",
          "type": "uint256"
        }
      ],
      "name": "userVaults",
      "outputs": [
        {
          "internalType": "bytes32",
          "name": "",
          "type": "bytes32"
        }
      ],
      "stateMutability": "view",
      "type": "function"
    },
    {
      "inputs": [
        {
          "internalType": "bytes32",
          "name": "",
          "type": "bytes32"
        }
      ],
      "name": "vaults",
      "outputs": [
        {
          "internalType": "enum ParticipationReward.VaultStatus",
          "name": "status",
          "type": "uint8"
        },
        {
          "internalType": "uint256",
          "name": "endTime",
          "type": "uint256"
        },
        {
          "internalType": "uint256",
          "name": "shares",
          "type": "uint256"
        },
        {
          "internalType": "uint256",
          "name": "tokenBalance",
          "type": "uint256"
        }
      ],
      "stateMutability": "view",
      "type": "function"
    }
  ],
  "bytecode": "0x60a060405234801561001057600080fd5b506040516116783803806116788339818101604052604081101561003357600080fd5b508051602090910151806001600160a01b038116610098576040805162461bcd60e51b815260206004820152601e60248201527f476f7665726e616e636520616464726573732063616e6e6f7420626520300000604482015290519081900360640190fd5b600080546001600160a01b0319166001600160a01b038316908117825560408051928352602083019190915280517f3aaaebeb4821d6a7e5c77ece53cff0afcc56c82add2c978dbbb7f73e84cbcfd29281900390910190a150506001600255606081901b6001600160601b0319166080526001600160a01b03166115456101336000398061065e528061093652806109a452506115456000f3fe608060405234801561001057600080fd5b50600436106101365760003560e01c80637fa6bc2e116100b2578063ae169a5011610081578063e7f3c69c11610066578063e7f3c69c14610367578063fcd2ae70146103dd578063ffd8a6d91461040957610136565b8063ae169a50146102f7578063cca23bf21461031457610136565b80637fa6bc2e1461029e57806388ea20d3146102bb5780639c841fef146102c3578063aa5c3ab4146102ef57610136565b806332705d2a116101095780635aa6e675116100ee5780635aa6e6751461021e5780635eac6239146102265780636c660b011461029657610136565b806332705d2a146101c357806352b456ac146101e057610136565b8063044c90601461013b578063068140dd1461015557806314ef685114610195578063238efcbc146101b9575b600080fd5b61014361042f565b60408051918252519081900360200190f35b6101816004803603604081101561016b57600080fd5b50803590602001356001600160a01b0316610435565b604080519115158252519081900360200190f35b61019d610524565b604080516001600160a01b039092168252519081900360200190f35b6101c1610533565b005b6101c1600480360360208110156101d957600080fd5b50356105fc565b6101fd600480360360208110156101f657600080fd5b50356106d4565b6040518082600181111561020d57fe5b815260200191505060405180910390f35b61019d6106e9565b6101c16004803603602081101561023c57600080fd5b81019060208101813564010000000081111561025757600080fd5b82018360208201111561026957600080fd5b8035906020019184602083028401116401000000008311171561028b57600080fd5b5090925090506106f8565b61019d6109a2565b6101c1600480360360208110156102b457600080fd5b50356109c6565b610143610a5e565b610143600480360360408110156102d957600080fd5b506001600160a01b038135169060200135610a64565b610143610a92565b6101c16004803603602081101561030d57600080fd5b5035610a98565b6103316004803603602081101561032a57600080fd5b5035610c50565b6040518085600181111561034157fe5b815260200184815260200183815260200182815260200194505050505060405180910390f35b61038d6004803603602081101561037d57600080fd5b50356001600160a01b0316610c7b565b60408051602080825283518183015283519192839290830191858101910280838360005b838110156103c95781810151838201526020016103b1565b505050509050019250505060405180910390f35b610181600480360360408110156103f357600080fd5b50803590602001356001600160a01b0316610ce7565b6101c16004803603602081101561041f57600080fd5b50356001600160a01b0316610dad565b60035481565b600082815260066020526040812060010154839061049a576040805162461bcd60e51b815260206004820152601860248201527f556e696e697469616c697a6564207661756c7420736c6f740000000000000000604482015290519081900360640190fd5b600160008581526006602052604090205460ff1660018111156104b957fe5b1480156104ea575060008481526006602090815260408083206001600160a01b038716845260040190915290205415155b801561051c575060008481526006602090815260408083206001600160a01b038716845260050190915290205460ff16155b949350505050565b6001546001600160a01b031681565b6001546001600160a01b0316331461057c5760405162461bcd60e51b81526004018080602001828103825260368152602001806114b06036913960400191505060405180910390fd5b600054600154604080516001600160a01b03938416815292909116602083015280517f3aaaebeb4821d6a7e5c77ece53cff0afcc56c82add2c978dbbb7f73e84cbcfd29281900390910190a1600180546000805473ffffffffffffffffffffffffffffffffffffffff199081166001600160a01b03841617909155169055565b60008111610651576040805162461bcd60e51b815260206004820152601060248201527f6d757374206265206c6172676572203000000000000000000000000000000000604482015290519081900360640190fd5b6106866001600160a01b037f000000000000000000000000000000000000000000000000000000000000000016333084610e16565b6004546106939082610ea4565b600455604080513381526020810183905281517f27c1a614c467759cd1aef8a5219f67898e35f6a6b619887e18a15b528d777c69929181900390910190a150565b60009081526006602052604090205460ff1690565b6000546001600160a01b031681565b60028054141561074f576040805162461bcd60e51b815260206004820152601f60248201527f5265656e7472616e637947756172643a207265656e7472616e742063616c6c00604482015290519081900360640190fd5b60028055601481106107a8576040805162461bcd60e51b815260206004820152601860248201527f636c61696d696e6720746f6f206d616e79207661756c74730000000000000000604482015290519081900360640190fd5b6000805b8281101561086f573360009081526007602052604081208585848181106107cf57fe5b90506020020135815481106107e057fe5b6000918252602090912001549050600160008281526006602052604090205460ff16600181111561080d57fe5b1480156108375750600081815260066020908152604080832033845260050190915290205460ff16155b156108665761086361085c8287878681811061084f57fe5b9050602002013533610f07565b8490610ea4565b92505b506001016107ac565b50600081116108b2576040805162461bcd60e51b815260206004820152600a6024820152696e6f207265776172647360b01b604482015290519081900360640190fd5b600454811115610909576040805162461bcd60e51b815260206004820152601b60248201527f6e6f7420656e6f7567682066756e647320666f72207061796f75740000000000604482015290519081900360640190fd5b6005546109169082610fec565b6005556004546109269082610fec565b60045561095d6001600160a01b037f0000000000000000000000000000000000000000000000000000000000000000163383611049565b604080513381526020810183905281517ffc30cddea38e2bf4d6ea7d3f9ed3b6ad7f176419f4963bd81318067a4aee73fe929181900390910190a15050600160025550565b7f000000000000000000000000000000000000000000000000000000000000000081565b6109ce6110ce565b60008111610a23576040805162461bcd60e51b815260206004820152601060248201527f6d757374206265206c6172676572203000000000000000000000000000000000604482015290519081900360640190fd5b60038190556040805182815290517ff151587a8166e9378976e04290d3c736f46877d86b9903f9b84f1828044a474c9181900360200190a150565b60055481565b60076020528160005260406000208181548110610a7d57fe5b90600052602060002001600091509150505481565b60045481565b600280541415610aef576040805162461bcd60e51b815260206004820152601f60248201527f5265656e7472616e637947756172643a207265656e7472616e742063616c6c00604482015290519081900360640190fd5b60028055336000908152600760205260408120805483908110610b0e57fe5b6000918252602090912001549050600160008281526006602052604090205460ff166001811115610b3b57fe5b14610b8d576040805162461bcd60e51b815260206004820152601160248201527f7661756c74206973206e6f74206f70656e000000000000000000000000000000604482015290519081900360640190fd5b600081815260066020908152604080832033845260050190915290205460ff1615610bff576040805162461bcd60e51b815260206004820152600f60248201527f616c726561647920636c61696d65640000000000000000000000000000000000604482015290519081900360640190fd5b6000610c0c828433610f07565b9050600081116108b2576040805162461bcd60e51b815260206004820152600a6024820152696e6f207265776172647360b01b604482015290519081900360640190fd5b600660205260009081526040902080546001820154600283015460039093015460ff90921692909184565b6001600160a01b038116600090815260076020908152604091829020805483518184028101840190945280845260609392830182828015610cdb57602002820191906000526020600020905b815481526020019060010190808311610cc7575b50505050509050919050565b6000828152600660205260408120600101548390610d4c576040805162461bcd60e51b815260206004820152601860248201527f556e696e697469616c697a6564207661756c7420736c6f740000000000000000604482015290519081900360640190fd5b60008481526006602090815260408083206001600160a01b03871684526004019091529020541580159061051c5750505060009182526006602090815260408084206001600160a01b039390931684526005909201905290205460ff161590565b610db56110ce565b600180546001600160a01b03831673ffffffffffffffffffffffffffffffffffffffff19909116811790915560408051918252517f1c58cfd31540f5b6a8cfbbe7c225cfccf4ee83b8691dc4d4d0a23a3ef02be5849181900360200190a150565b604080516001600160a01b0380861660248301528416604482015260648082018490528251808303909101815260849091019091526020810180517bffffffffffffffffffffffffffffffffffffffffffffffffffffffff167f23b872dd00000000000000000000000000000000000000000000000000000000179052610e9e908590611119565b50505050565b600082820183811015610efe576040805162461bcd60e51b815260206004820152601b60248201527f536166654d6174683a206164646974696f6e206f766572666c6f770000000000604482015290519081900360640190fd5b90505b92915050565b60008381526006602090815260408083206001600160a01b03851684526004019091528120548015610fdf5760008581526006602052604081206002810154600390910154610f619190610f5b90856111ca565b90611223565b600087815260066020526040902060030154909150610f809082610fec565b600087815260066020908152604080832060038101949094556001600160a01b038816835260059093018152828220805460ff191660011790556007905220805486908110610fcb57fe5b60009182526020822001559150610fe59050565b60009150505b9392505050565b600082821115611043576040805162461bcd60e51b815260206004820152601e60248201527f536166654d6174683a207375627472616374696f6e206f766572666c6f770000604482015290519081900360640190fd5b50900390565b604080516001600160a01b038416602482015260448082018490528251808303909101815260649091019091526020810180517bffffffffffffffffffffffffffffffffffffffffffffffffffffffff167fa9059cbb000000000000000000000000000000000000000000000000000000001790526110c9908490611119565b505050565b6000546001600160a01b031633146111175760405162461bcd60e51b815260040180806020018281038252603481526020018061147c6034913960400191505060405180910390fd5b565b606061116e826040518060400160405280602081526020017f5361666545524332303a206c6f772d6c6576656c2063616c6c206661696c6564815250856001600160a01b031661128a9092919063ffffffff16565b8051909150156110c95780806020019051602081101561118d57600080fd5b50516110c95760405162461bcd60e51b815260040180806020018281038252602a8152602001806114e6602a913960400191505060405180910390fd5b6000826111d957506000610f01565b828202828482816111e657fe5b0414610efe5760405162461bcd60e51b815260040180806020018281038252602181526020018061145b6021913960400191505060405180910390fd5b6000808211611279576040805162461bcd60e51b815260206004820152601a60248201527f536166654d6174683a206469766973696f6e206279207a65726f000000000000604482015290519081900360640190fd5b81838161128257fe5b049392505050565b606061051c84846000858561129e856113b0565b6112ef576040805162461bcd60e51b815260206004820152601d60248201527f416464726573733a2063616c6c20746f206e6f6e2d636f6e7472616374000000604482015290519081900360640190fd5b60006060866001600160a01b031685876040518082805190602001908083835b6020831061132e5780518252601f19909201916020918201910161130f565b6001836020036101000a03801982511681845116808217855250505050505090500191505060006040518083038185875af1925050503d8060008114611390576040519150601f19603f3d011682016040523d82523d6000602084013e611395565b606091505b50915091506113a58282866113b6565b979650505050505050565b3b151590565b606083156113c5575081610fe5565b8251156113d55782518084602001fd5b8160405162461bcd60e51b81526004018080602001828103825283818151815260200191508051906020019080838360005b8381101561141f578181015183820152602001611407565b50505050905090810190601f16801561144c5780820380516001836020036101000a031916815260200191505b509250505060405180910390fdfe536166654d6174683a206d756c7469706c69636174696f6e206f766572666c6f774f6e6c792074686520636f6e747261637420676f7665726e616e6365206d617920706572666f726d207468697320616374696f6e596f75206d757374206265206e6f6d696e61746564206265666f726520796f752063616e2061636365707420676f7665726e616e63655361666545524332303a204552433230206f7065726174696f6e20646964206e6f742073756363656564a2646970667358221220a7e01c54afd106a616d8e6dbe1f9aa7dda728a4fe555aa9ce16893bf6d51d88364736f6c63430007030033",
  "linkReferences": {},
  "deployedLinkReferences": {}
}