{
  "_format": "hh-sol-artifact-1",
  "contractName": "BeneficiaryRegistry",
  "sourceName": "contracts/BeneficiaryRegistry.sol",
  "abi": [
    {
      "inputs": [
        {
          "internalType": "contract IRegion",
          "name": "_region",
          "type": "address"
        }
      ],
      "stateMutability": "nonpayable",
      "type": "constructor"
    },
    {
      "anonymous": false,
      "inputs": [
        {
          "indexed": true,
          "internalType": "address",
          "name": "_address",
          "type": "address"
        },
        {
          "indexed": true,
          "internalType": "bytes",
          "name": "_applicationCid",
          "type": "bytes"
        }
      ],
      "name": "BeneficiaryAdded",
      "type": "event"
    },
    {
      "anonymous": false,
      "inputs": [
        {
          "indexed": true,
          "internalType": "address",
          "name": "_address",
          "type": "address"
        }
      ],
      "name": "BeneficiaryRevoked",
      "type": "event"
    },
    {
      "anonymous": false,
      "inputs": [
        {
          "indexed": false,
          "internalType": "bytes2",
          "name": "_region",
          "type": "bytes2"
        },
        {
          "indexed": false,
          "internalType": "address",
          "name": "oldCouncil",
          "type": "address"
        },
        {
          "indexed": false,
          "internalType": "address",
          "name": "newCouncil",
          "type": "address"
        }
      ],
      "name": "CouncilChanged",
      "type": "event"
    },
    {
      "anonymous": false,
      "inputs": [
        {
          "indexed": false,
          "internalType": "bytes2",
          "name": "_region",
          "type": "bytes2"
        },
        {
          "indexed": false,
          "internalType": "address",
          "name": "newCouncil",
          "type": "address"
        }
      ],
      "name": "CouncilNominated",
      "type": "event"
    },
    {
      "anonymous": false,
      "inputs": [
        {
          "indexed": true,
          "internalType": "address",
          "name": "previousOwner",
          "type": "address"
        },
        {
          "indexed": true,
          "internalType": "address",
          "name": "newOwner",
          "type": "address"
        }
      ],
      "name": "OwnershipTransferred",
      "type": "event"
    },
    {
      "inputs": [
        {
          "internalType": "bytes2",
          "name": "_region",
          "type": "bytes2"
        }
      ],
      "name": "acceptCouncil",
      "outputs": [],
      "stateMutability": "nonpayable",
      "type": "function"
    },
    {
      "inputs": [
        {
          "internalType": "address",
          "name": "account",
          "type": "address"
        },
        {
          "internalType": "bytes2",
          "name": "region",
          "type": "bytes2"
        },
        {
          "internalType": "bytes",
          "name": "applicationCid",
          "type": "bytes"
        }
      ],
      "name": "addBeneficiary",
      "outputs": [],
      "stateMutability": "nonpayable",
      "type": "function"
    },
    {
      "inputs": [
        {
          "internalType": "address",
          "name": "_address",
          "type": "address"
        }
      ],
      "name": "beneficiaryExists",
      "outputs": [
        {
          "internalType": "bool",
          "name": "",
          "type": "bool"
        }
      ],
      "stateMutability": "view",
      "type": "function"
    },
    {
      "inputs": [
        {
          "internalType": "bytes2",
          "name": "",
          "type": "bytes2"
        }
      ],
      "name": "council",
      "outputs": [
        {
          "internalType": "address",
          "name": "",
          "type": "address"
        }
      ],
      "stateMutability": "view",
      "type": "function"
    },
    {
      "inputs": [
        {
          "internalType": "address",
          "name": "_address",
          "type": "address"
        }
      ],
      "name": "getBeneficiary",
      "outputs": [
        {
          "internalType": "bytes",
          "name": "",
          "type": "bytes"
        }
      ],
      "stateMutability": "view",
      "type": "function"
    },
    {
      "inputs": [],
      "name": "getBeneficiaryList",
      "outputs": [
        {
          "internalType": "address[]",
          "name": "",
          "type": "address[]"
        }
      ],
      "stateMutability": "view",
      "type": "function"
    },
    {
      "inputs": [
        {
          "internalType": "bytes2",
          "name": "_region",
          "type": "bytes2"
        }
      ],
      "name": "getCouncil",
      "outputs": [
        {
          "internalType": "address",
          "name": "",
          "type": "address"
        }
      ],
      "stateMutability": "view",
      "type": "function"
    },
    {
      "inputs": [
        {
          "internalType": "address",
          "name": "_council",
          "type": "address"
        },
        {
          "internalType": "bytes2",
          "name": "_region",
          "type": "bytes2"
        }
      ],
      "name": "nominateFirstCouncil",
      "outputs": [],
      "stateMutability": "nonpayable",
      "type": "function"
    },
    {
      "inputs": [
        {
          "internalType": "address",
          "name": "_council",
          "type": "address"
        },
        {
          "internalType": "bytes2",
          "name": "_region",
          "type": "bytes2"
        }
      ],
      "name": "nominateNewCouncil",
      "outputs": [],
      "stateMutability": "nonpayable",
      "type": "function"
    },
    {
      "inputs": [
        {
          "internalType": "bytes2",
          "name": "",
          "type": "bytes2"
        }
      ],
      "name": "nominatedCouncil",
      "outputs": [
        {
          "internalType": "address",
          "name": "",
          "type": "address"
        }
      ],
      "stateMutability": "view",
      "type": "function"
    },
    {
      "inputs": [],
      "name": "owner",
      "outputs": [
        {
          "internalType": "address",
          "name": "",
          "type": "address"
        }
      ],
      "stateMutability": "view",
      "type": "function"
    },
    {
      "inputs": [],
      "name": "renounceOwnership",
      "outputs": [],
      "stateMutability": "nonpayable",
      "type": "function"
    },
    {
      "inputs": [
        {
          "internalType": "address",
          "name": "_address",
          "type": "address"
        }
      ],
      "name": "revokeBeneficiary",
      "outputs": [],
      "stateMutability": "nonpayable",
      "type": "function"
    },
    {
      "inputs": [
        {
          "internalType": "address",
          "name": "newOwner",
          "type": "address"
        }
      ],
      "name": "transferOwnership",
      "outputs": [],
      "stateMutability": "nonpayable",
      "type": "function"
    }
  ],
  "bytecode": "0x608060405234801561001057600080fd5b506040516112ba3803806112ba8339818101604052602081101561003357600080fd5b505133816000610041610145565b600080546001600160a01b0319166001600160a01b0383169081178255604051929350917f8be0079c531659141344cd1fd0a4f28419497f9722a3daafe3b4186f6b6457e0908290a3506001600160a01b0382166100e6576040805162461bcd60e51b815260206004820152601b60248201527f436f756e63696c20616464726573732063616e6e6f7420626520300000000000604482015290519081900360640190fd5b61575760f01b60005260026020527f8f4fd642e592c0319c24e9af19130e4a65536ffa66c82e117c8e0d9042dbae4380546001600160a01b039384166001600160a01b0319918216179091556001805492909316911617905550610149565b3390565b611162806101586000396000f3fe608060405234801561001057600080fd5b50600436106100ea5760003560e01c8063715018a61161008c578063897be31911610066578063897be319146103805780638da5cb5b146103a7578063de5602bd146103af578063f2fde38b14610407576100ea565b8063715018a6146102af57806375e71d6d146102b757806379ed70fd146102f1576100ea565b806341f321ba116100c857806341f321ba146101a057806346dd6fcd146101c7578063505a1b31146101ed5780636721912d14610288576100ea565b806302e26bbf146100ef57806303985f5c146101275780630df5199c1461016a575b600080fd5b6101256004803603604081101561010557600080fd5b5080356001600160a01b031690602001356001600160f01b03191661042d565b005b61014e6004803603602081101561013d57600080fd5b50356001600160f01b0319166104aa565b604080516001600160a01b039092168252519081900360200190f35b6101256004803603604081101561018057600080fd5b5080356001600160a01b031690602001356001600160f01b0319166104d3565b610125600480360360208110156101b657600080fd5b50356001600160f01b0319166106b6565b610125600480360360208110156101dd57600080fd5b50356001600160a01b03166107cf565b6102136004803603602081101561020357600080fd5b50356001600160a01b031661095d565b6040805160208082528351818301528351919283929083019185019080838360005b8381101561024d578181015183820152602001610235565b50505050905090810190601f16801561027a5780820380516001836020036101000a031916815260200191505b509250505060405180910390f35b61014e6004803603602081101561029e57600080fd5b50356001600160f01b031916610a08565b610125610a23565b6102dd600480360360208110156102cd57600080fd5b50356001600160a01b0316610ae1565b604080519115158252519081900360200190f35b6101256004803603606081101561030757600080fd5b6001600160a01b03823516916001600160f01b03196020820135169181019060608101604082013564010000000081111561034157600080fd5b82018360208201111561035357600080fd5b8035906020019184600183028401116401000000008311171561037557600080fd5b509092509050610b3a565b61014e6004803603602081101561039657600080fd5b50356001600160f01b031916610d93565b61014e610dae565b6103b7610dbd565b60408051602080825283518183015283519192839290830191858101910280838360005b838110156103f35781810151838201526020016103db565b505050509050019250505060405180910390f35b6101256004803603602081101561041d57600080fd5b50356001600160a01b0316610e1f565b8061043781610f33565b6001600160f01b0319821660008181526003602090815260409182902080546001600160a01b0319166001600160a01b03881690811790915582519384529083015280517f0e1920e6f447b3052bc400d8341bed9539c216d1ba43bc32188c063449826a859281900390910190a1505050565b6001600160f01b031981166000908152600260205260409020546001600160a01b03165b919050565b600160009054906101000a90046001600160a01b03166001600160a01b031663aed621c06040518163ffffffff1660e01b815260040160206040518083038186803b15801561052157600080fd5b505afa158015610535573d6000803e3d6000fd5b505050506040513d602081101561054b57600080fd5b505161055681610f33565b600154604080517f4c0df29f0000000000000000000000000000000000000000000000000000000081526001600160f01b03198516600482015290516001600160a01b0390921691634c0df29f91602480820192602092909190829003018186803b1580156105c457600080fd5b505afa1580156105d8573d6000803e3d6000fd5b505050506040513d60208110156105ee57600080fd5b5051610641576040805162461bcd60e51b815260206004820152601360248201527f726567696f6e20646f65736e7420657869737400000000000000000000000000604482015290519081900360640190fd5b6001600160f01b031982166000908152600260205260409020546001600160a01b031615610437576040805162461bcd60e51b815260206004820152601c60248201527f726567696f6e20616c726561647920686173206120636f756e63696c00000000604482015290519081900360640190fd5b6001600160f01b031981166000908152600360205260409020546001600160a01b031633146107165760405162461bcd60e51b81526004018080602001828103825260338152602001806110c96033913960400191505060405180910390fd5b6001600160f01b0319811660008181526002602090815260408083205460038352928190205481519485526001600160a01b0393841692850192909252911682820152517f70eead57b11446e1c2620407fb9805c01d1edb27416014de445c534d24126b4e9181900360600190a16001600160f01b03191660009081526003602081815260408084208054600284529190942080546001600160a01b039092166001600160a01b03199283161790559190528154169055565b6107d7610dae565b6001600160a01b0316336001600160a01b0316148061082e57506001600160a01b0381166000908152600460205260409020600101546108199060f01b6104aa565b6001600160a01b0316336001600160a01b0316145b6108695760405162461bcd60e51b81526004018080602001828103825260318152602001806110fc6031913960400191505060405180910390fd5b61087281610ae1565b6108ac576040805162461bcd60e51b815260206004820152600660248201526565786973747360d01b604482015290519081900360640190fd5b6001600160a01b0381166000908152600460205260409020600201546005805490919081106108d757fe5b6000918252602080832090910180546001600160a01b03191690556001600160a01b03831682526004905260408120906109118282610f9a565b5060018101805461ffff19169055600060029091018190556040516001600160a01b038316917f7b027da1a28f458aa3cefd63d63a37582e6f7e75810d158a112a7379a761aa7a91a250565b6001600160a01b03811660009081526004602090815260409182902080548351601f60026000196101006001861615020190931692909204918201849004840281018401909452808452606093928301828280156109fc5780601f106109d1576101008083540402835291602001916109fc565b820191906000526020600020905b8154815290600101906020018083116109df57829003601f168201915b50505050509050919050565b6002602052600090815260409020546001600160a01b031681565b610a2b610f96565b6001600160a01b0316610a3c610dae565b6001600160a01b031614610a97576040805162461bcd60e51b815260206004820181905260248201527f4f776e61626c653a2063616c6c6572206973206e6f7420746865206f776e6572604482015290519081900360640190fd5b600080546040516001600160a01b03909116907f8be0079c531659141344cd1fd0a4f28419497f9722a3daafe3b4186f6b6457e0908390a3600080546001600160a01b0319169055565b600554600090610af3575060006104ce565b6001600160a01b038216600081815260046020526040902060020154600580549091908110610b1e57fe5b6000918252602090912001546001600160a01b03161492915050565b610b42610f96565b6001600160a01b0316610b53610dae565b6001600160a01b031614610bae576040805162461bcd60e51b815260206004820181905260248201527f4f776e61626c653a2063616c6c6572206973206e6f7420746865206f776e6572604482015290519081900360640190fd5b80610c00576040805162461bcd60e51b815260206004820152600c60248201527f216170706c69636174696f6e0000000000000000000000000000000000000000604482015290519081900360640190fd5b610c0984610ae1565b15610c44576040805162461bcd60e51b815260206004820152600660248201526565786973747360d01b604482015290519081900360640190fd5b600580546001810182556000919091527f036b6384b5eca791c62761152d0c79bb0604c104a5fb6f4eb0703f3154bb3db00180546001600160a01b0319166001600160a01b038616179055604080516020601f84018190040281016080908101909252606081018381529091829190859085908190850183828082843760009201829052509385525050506001600160f01b03198616602080840191909152600554600019016040938401526001600160a01b038816825260048152919020825180519192610d1892849290910190610fde565b50602082015160018201805461ffff191660f09290921c919091179055604091820151600290910155518290829080838380828437604051920182900382209450506001600160a01b03881692507fe92868fcb00104d3ad5698eb6bc746d17ea8ea392da32cd0fba0bbdbde0658a09150600090a350505050565b6003602052600090815260409020546001600160a01b031681565b6000546001600160a01b031690565b60606005805480602002602001604051908101604052809291908181526020018280548015610e1557602002820191906000526020600020905b81546001600160a01b03168152600190910190602001808311610df7575b5050505050905090565b610e27610f96565b6001600160a01b0316610e38610dae565b6001600160a01b031614610e93576040805162461bcd60e51b815260206004820181905260248201527f4f776e61626c653a2063616c6c6572206973206e6f7420746865206f776e6572604482015290519081900360640190fd5b6001600160a01b038116610ed85760405162461bcd60e51b81526004018080602001828103825260268152602001806110a36026913960400191505060405180910390fd5b600080546040516001600160a01b03808516939216917f8be0079c531659141344cd1fd0a4f28419497f9722a3daafe3b4186f6b6457e091a3600080546001600160a01b0319166001600160a01b0392909216919091179055565b6001600160f01b031981166000908152600260205260409020546001600160a01b03163314610f935760405162461bcd60e51b81526004018080602001828103825260318152602001806110726031913960400191505060405180910390fd5b50565b3390565b50805460018160011615610100020316600290046000825580601f10610fc05750610f93565b601f016020900490600052602060002090810190610f93919061105c565b828054600181600116156101000203166002900490600052602060002090601f016020900481019282601f1061101f57805160ff191683800117855561104c565b8280016001018555821561104c579182015b8281111561104c578251825591602001919060010190611031565b5061105892915061105c565b5090565b5b80821115611058576000815560010161105d56fe4f6e6c792074686520636f6e747261637420636f756e63696c206d617920706572666f726d207468697320616374696f6e4f776e61626c653a206e6577206f776e657220697320746865207a65726f2061646472657373596f75206d757374206265206e6f6d696e61746564206265666f726520796f752063616e2061636365707420636f756e63696c4f6e6c7920746865206f776e6572206f7220636f756e63696c206d617920706572666f726d207468697320616374696f6ea264697066735822122034a341fae9b11741bf63ed876b4f7bc2161d2d172ac7cedf7d6d9e017cf8bf4f64736f6c63430007030033",
  "linkReferences": {},
  "deployedLinkReferences": {}
}