{
  "_format": "hh-sol-artifact-1",
  "contractName": "RewardsEscrow",
  "sourceName": "contracts/RewardsEscrow.sol",
  "abi": [
    {
      "inputs": [
        {
          "internalType": "contract IERC20",
          "name": "_pop",
          "type": "address"
        }
      ],
      "stateMutability": "nonpayable",
      "type": "constructor"
    },
    {
      "anonymous": false,
      "inputs": [
        {
          "indexed": false,
          "internalType": "uint256",
          "name": "_escrowDuration",
          "type": "uint256"
        }
      ],
      "name": "EscrowDurationChanged",
      "type": "event"
    },
    {
      "anonymous": false,
      "inputs": [
        {
          "indexed": false,
          "internalType": "address",
          "name": "account",
          "type": "address"
        },
        {
          "indexed": false,
          "internalType": "uint256",
          "name": "amount",
          "type": "uint256"
        }
      ],
      "name": "Locked",
      "type": "event"
    },
    {
      "anonymous": false,
      "inputs": [
        {
          "indexed": false,
          "internalType": "address",
          "name": "oldOwner",
          "type": "address"
        },
        {
          "indexed": false,
          "internalType": "address",
          "name": "newOwner",
          "type": "address"
        }
      ],
      "name": "OwnerChanged",
      "type": "event"
    },
    {
      "anonymous": false,
      "inputs": [
        {
          "indexed": false,
          "internalType": "address",
          "name": "newOwner",
          "type": "address"
        }
      ],
      "name": "OwnerNominated",
      "type": "event"
    },
    {
      "anonymous": false,
      "inputs": [
        {
          "indexed": false,
          "internalType": "address",
          "name": "account_",
          "type": "address"
        },
        {
          "indexed": false,
          "internalType": "uint256",
          "name": "amount",
          "type": "uint256"
        }
      ],
      "name": "RewardsClaimed",
      "type": "event"
    },
    {
      "anonymous": false,
      "inputs": [
        {
          "indexed": false,
          "internalType": "contract IStaking",
          "name": "_staking",
          "type": "address"
        }
      ],
      "name": "StakingChanged",
      "type": "event"
    },
    {
      "anonymous": false,
      "inputs": [
        {
          "indexed": false,
          "internalType": "uint256",
          "name": "_vestingCliff",
          "type": "uint256"
        }
      ],
      "name": "VestingCliffChanged",
      "type": "event"
    },
    {
      "inputs": [],
      "name": "POP",
      "outputs": [
        {
          "internalType": "contract IERC20",
          "name": "",
          "type": "address"
        }
      ],
      "stateMutability": "view",
      "type": "function"
    },
    {
      "inputs": [],
      "name": "acceptOwnership",
      "outputs": [],
      "stateMutability": "nonpayable",
      "type": "function"
    },
    {
      "inputs": [
        {
          "internalType": "bytes32",
          "name": "escrowId_",
          "type": "bytes32"
        }
      ],
      "name": "claimReward",
      "outputs": [],
      "stateMutability": "nonpayable",
      "type": "function"
    },
    {
      "inputs": [
        {
          "internalType": "bytes32[]",
          "name": "escrowIds_",
          "type": "bytes32[]"
        }
      ],
      "name": "claimRewards",
      "outputs": [],
      "stateMutability": "nonpayable",
      "type": "function"
    },
    {
      "inputs": [],
      "name": "escrowDuration",
      "outputs": [
        {
          "internalType": "uint256",
          "name": "",
          "type": "uint256"
        }
      ],
      "stateMutability": "view",
      "type": "function"
    },
    {
      "inputs": [
        {
          "internalType": "address",
          "name": "",
          "type": "address"
        },
        {
          "internalType": "uint256",
          "name": "",
          "type": "uint256"
        }
      ],
      "name": "escrowIds",
      "outputs": [
        {
          "internalType": "bytes32",
          "name": "",
          "type": "bytes32"
        }
      ],
      "stateMutability": "view",
      "type": "function"
    },
    {
      "inputs": [
        {
          "internalType": "bytes32",
          "name": "",
          "type": "bytes32"
        }
      ],
      "name": "escrows",
      "outputs": [
        {
          "internalType": "uint256",
          "name": "start",
          "type": "uint256"
        },
        {
          "internalType": "uint256",
          "name": "end",
          "type": "uint256"
        },
        {
          "internalType": "uint256",
          "name": "balance",
          "type": "uint256"
        },
        {
          "internalType": "bool",
          "name": "claimed",
          "type": "bool"
        }
      ],
      "stateMutability": "view",
      "type": "function"
    },
    {
      "inputs": [
        {
          "internalType": "address",
          "name": "account",
          "type": "address"
        }
      ],
      "name": "getEscrowsByUser",
      "outputs": [
        {
          "internalType": "bytes32[]",
          "name": "",
          "type": "bytes32[]"
        }
      ],
      "stateMutability": "view",
      "type": "function"
    },
    {
      "inputs": [
        {
          "internalType": "bytes32",
          "name": "escrowId_",
          "type": "bytes32"
        }
      ],
      "name": "isClaimable",
      "outputs": [
        {
          "internalType": "bool",
          "name": "",
          "type": "bool"
        }
      ],
      "stateMutability": "view",
      "type": "function"
    },
    {
      "inputs": [
        {
          "internalType": "address",
          "name": "account_",
          "type": "address"
        },
        {
          "internalType": "uint256",
          "name": "amount_",
          "type": "uint256"
        }
      ],
      "name": "lock",
      "outputs": [],
      "stateMutability": "nonpayable",
      "type": "function"
    },
    {
      "inputs": [
        {
          "internalType": "address",
          "name": "_owner",
          "type": "address"
        }
      ],
      "name": "nominateNewOwner",
      "outputs": [],
      "stateMutability": "nonpayable",
      "type": "function"
    },
    {
      "inputs": [],
      "name": "nominatedOwner",
      "outputs": [
        {
          "internalType": "address",
          "name": "",
          "type": "address"
        }
      ],
      "stateMutability": "view",
      "type": "function"
    },
    {
      "inputs": [],
      "name": "owner",
      "outputs": [
        {
          "internalType": "address",
          "name": "",
          "type": "address"
        }
      ],
      "stateMutability": "view",
      "type": "function"
    },
    {
      "inputs": [
        {
          "internalType": "contract IStaking",
          "name": "_staking",
          "type": "address"
        }
      ],
      "name": "setStaking",
      "outputs": [],
      "stateMutability": "nonpayable",
      "type": "function"
    },
    {
      "inputs": [],
      "name": "staking",
      "outputs": [
        {
          "internalType": "contract IStaking",
          "name": "",
          "type": "address"
        }
      ],
      "stateMutability": "view",
      "type": "function"
    },
    {
      "inputs": [
        {
          "internalType": "uint256",
          "name": "_vestingCliff",
          "type": "uint256"
        }
      ],
      "name": "updateCliff",
      "outputs": [],
      "stateMutability": "nonpayable",
      "type": "function"
    },
    {
      "inputs": [
        {
          "internalType": "uint256",
          "name": "_escrowDuration",
          "type": "uint256"
        }
      ],
      "name": "updateEscrowDuration",
      "outputs": [],
      "stateMutability": "nonpayable",
      "type": "function"
    },
    {
      "inputs": [],
      "name": "vestingCliff",
      "outputs": [
        {
          "internalType": "uint256",
          "name": "",
          "type": "uint256"
        }
      ],
      "stateMutability": "view",
      "type": "function"
    }
  ],
  "bytecode": "0x60a06040526276a7006006556276a70060075534801561001e57600080fd5b506040516117203803806117208339818101604052602081101561004157600080fd5b50513380610096576040805162461bcd60e51b815260206004820152601960248201527f4f776e657220616464726573732063616e6e6f74206265203000000000000000604482015290519081900360640190fd5b600080546001600160a01b0319166001600160a01b038316908117825560408051928352602083019190915280517fb532073b38c83145e3e5135377a08bf9aab55bc0fd7c1179cd4fb995d2a5159c9281900390910190a1506001600255606081901b6001600160601b0319166080526001600160a01b03166115e661013a60003980610537528061071e52806109065280610a205280610dc452506115e66000f3fe608060405234801561001057600080fd5b50600436106101365760003560e01c806379ba5097116100b2578063bb9c9fad11610081578063f1d9d21811610066578063f1d9d2181461035f578063f3640e74146103d5578063f5414023146103dd57610136565b8063bb9c9fad14610325578063e8a7bf911461034257610136565b806379ba5097146102c35780638da5cb5b146102cb5780638ff39099146102d3578063a861d04a146102f957610136565b8063455f468f1161010957806353a47bb7116100ee57806353a47bb71461029957806357c2c2ba146102a15780636c660b01146102bb57610136565b8063455f468f146102445780634cf088d91461027557610136565b80630f3c34d11461013b5780631627540c146101ad578063282d3fdf146101d35780632d83549c146101ff575b600080fd5b6101ab6004803603602081101561015157600080fd5b81019060208101813564010000000081111561016c57600080fd5b82018360208201111561017e57600080fd5b803590602001918460208302840111640100000000831117156101a057600080fd5b5090925090506103fa565b005b6101ab600480360360208110156101c357600080fd5b50356001600160a01b03166105a3565b6101ab600480360360408110156101e957600080fd5b506001600160a01b03813516906020013561060c565b61021c6004803603602081101561021557600080fd5b503561097f565b6040805194855260208501939093528383019190915215156060830152519081900360800190f35b6102616004803603602081101561025a57600080fd5b50356109a9565b604080519115158252519081900360200190f35b61027d6109fa565b604080516001600160a01b039092168252519081900360200190f35b61027d610a09565b6102a9610a18565b60408051918252519081900360200190f35b61027d610a1e565b6101ab610a42565b61027d610b0b565b6101ab600480360360208110156102e957600080fd5b50356001600160a01b0316610b1a565b6102a96004803603604081101561030f57600080fd5b506001600160a01b038135169060200135610be6565b6101ab6004803603602081101561033b57600080fd5b5035610c14565b6101ab6004803603602081101561035857600080fd5b5035610c57565b6103856004803603602081101561037557600080fd5b50356001600160a01b0316610c9a565b60408051602080825283518183015283519192839290830191858101910280838360005b838110156103c15781810151838201526020016103a9565b505050509050019250505060405180910390f35b6102a9610d06565b6101ab600480360360208110156103f357600080fd5b5035610d0c565b600280541415610451576040805162461bcd60e51b815260206004820152601f60248201527f5265656e7472616e637947756172643a207265656e7472616e742063616c6c00604482015290519081900360640190fd5b6002805560148111156104ab576040805162461bcd60e51b815260206004820152601960248201527f636c61696d696e6720746f6f206d616e7920657363726f777300000000000000604482015290519081900360640190fd5b6000805b828110156104e7576104dd6104d6338686858181106104ca57fe5b90506020020135610e2f565b8390610eb7565b91506001016104af565b506000811161052a576040805162461bcd60e51b815260206004820152600a6024820152696e6f207265776172647360b01b604482015290519081900360640190fd5b61055e6001600160a01b037f0000000000000000000000000000000000000000000000000000000000000000163383610f18565b604080513381526020810183905281517ffc30cddea38e2bf4d6ea7d3f9ed3b6ad7f176419f4963bd81318067a4aee73fe929181900390910190a15050600160025550565b6105ab610f9d565b600180546001600160a01b03831673ffffffffffffffffffffffffffffffffffffffff19909116811790915560408051918252517f906a1c6bd7e3091ea86693dd029a831c19049ce77f1dce2ce0bab1cacbabce229181900360200190a150565b600280541415610663576040805162461bcd60e51b815260206004820152601f60248201527f5265656e7472616e637947756172643a207265656e7472616e742063616c6c00604482015290519081900360640190fd5b600280556003546001600160a01b031633146106c6576040805162461bcd60e51b815260206004820152601b60248201527f796f752063616e742063616c6c20746869732066756e6374696f6e0000000000604482015290519081900360640190fd5b6000811161071b576040805162461bcd60e51b815260206004820152601d60248201527f616d6f756e74206d7573742062652067726561746572207468616e2030000000604482015290519081900360640190fd5b807f00000000000000000000000000000000000000000000000000000000000000006001600160a01b03166370a08231336040518263ffffffff1660e01b815260040180826001600160a01b0316815260200191505060206040518083038186803b15801561078957600080fd5b505afa15801561079d573d6000803e3d6000fd5b505050506040513d60208110156107b357600080fd5b50511015610808576040805162461bcd60e51b815260206004820152601460248201527f696e73756666696369656e742062616c616e6365000000000000000000000000604482015290519081900360640190fd5b600754429060009061081b908390610eb7565b9050600061083460065483610eb790919063ffffffff16565b60408051606088901b6bffffffffffffffffffffffff1916602080830191909152603482018890526054808301889052835180840390910181526074830180855281519183019190912060f4840185528782526094840186815260b485018b8152600060d4909601868152838752600486528787209451855591516001808601919091559051600285015590516003909301805460ff1916931515939093179092556001600160a01b03808c168552600584529484208054928301815584529190922090910181905591925061092e907f000000000000000000000000000000000000000000000000000000000000000016333088610fe8565b604080516001600160a01b03881681526020810187905281517f9f1ec8c880f76798e7b793325d625e9b60e4082a553c98f42b6cda368dd60008929181900390910190a15050600160025550505050565b60046020526000908152604090208054600182015460028301546003909301549192909160ff1684565b60008181526004602052604081205442108015906109d4575060008281526004602052604090205415155b80156109f2575060008281526004602052604090206003015460ff16155b90505b919050565b6003546001600160a01b031681565b6001546001600160a01b031681565b60065481565b7f000000000000000000000000000000000000000000000000000000000000000081565b6001546001600160a01b03163314610a8b5760405162461bcd60e51b81526004018080602001828103825260358152602001806114dc6035913960400191505060405180910390fd5b600054600154604080516001600160a01b03938416815292909116602083015280517fb532073b38c83145e3e5135377a08bf9aab55bc0fd7c1179cd4fb995d2a5159c9281900390910190a1600180546000805473ffffffffffffffffffffffffffffffffffffffff199081166001600160a01b03841617909155169055565b6000546001600160a01b031681565b610b22610f9d565b6003546001600160a01b0382811691161415610b85576040805162461bcd60e51b815260206004820152600c60248201527f53616d65205374616b696e670000000000000000000000000000000000000000604482015290519081900360640190fd5b600380546001600160a01b03831673ffffffffffffffffffffffffffffffffffffffff19909116811790915560408051918252517f087f751a71b744109129bddeab60629bc40b8598909ecbd03668a4d424913ce59181900360200190a150565b60056020528160005260406000208181548110610bff57fe5b90600052602060002001600091509150505481565b610c1c610f9d565b60078190556040805182815290517f0a8e2a4f72f14cbee03810df2301973e09f5149f6f9734490a9155b75cadf3cf9181900360200190a150565b610c5f610f9d565b60068190556040805182815290517facb2ab6d02fafbae9aab5b75beb76be199b67e646a65ac2fb423dbb97fface6d9181900360200190a150565b6001600160a01b038116600090815260056020908152604091829020805483518184028101840190945280845260609392830182828015610cfa57602002820191906000526020600020905b815481526020019060010190808311610ce6575b50505050509050919050565b60075481565b600280541415610d63576040805162461bcd60e51b815260206004820152601f60248201527f5265656e7472616e637947756172643a207265656e7472616e742063616c6c00604482015290519081900360640190fd5b600280556000610d733383610e2f565b905060008111610db7576040805162461bcd60e51b815260206004820152600a6024820152696e6f207265776172647360b01b604482015290519081900360640190fd5b610deb6001600160a01b037f0000000000000000000000000000000000000000000000000000000000000000163383610f18565b604080513381526020810183905281517ffc30cddea38e2bf4d6ea7d3f9ed3b6ad7f176419f4963bd81318067a4aee73fe929181900390910190a150506001600255565b600081815260046020526040812080544210610eab57604080516080810182528254815260018301546020820152600283015491810191909152600382015460ff1615156060820152600090610e8490611076565b90508160020154811415610ea25760038201805460ff191660011790555b9150610eb19050565b60009150505b92915050565b600082820183811015610f11576040805162461bcd60e51b815260206004820152601b60248201527f536166654d6174683a206164646974696f6e206f766572666c6f770000000000604482015290519081900360640190fd5b9392505050565b604080516001600160a01b038416602482015260448082018490528251808303909101815260649091019091526020810180517bffffffffffffffffffffffffffffffffffffffffffffffffffffffff167fa9059cbb00000000000000000000000000000000000000000000000000000000179052610f989084906110da565b505050565b6000546001600160a01b03163314610fe65760405162461bcd60e51b815260040180806020018281038252602f815260200180611537602f913960400191505060405180910390fd5b565b604080516001600160a01b0380861660248301528416604482015260648082018490528251808303909101815260849091019091526020810180517bffffffffffffffffffffffffffffffffffffffffffffffffffffffff167f23b872dd000000000000000000000000000000000000000000000000000000001790526110709085906110da565b50505050565b8051600090158061108957506020820151155b15611096575060006109f5565b815160208301516109f2916110d0916110ae9161118b565b84516110ca906110bf90429061118b565b6040870151906111e8565b90611241565b83604001516112a8565b606061112f826040518060400160405280602081526020017f5361666545524332303a206c6f772d6c6576656c2063616c6c206661696c6564815250856001600160a01b03166112be9092919063ffffffff16565b805190915015610f985780806020019051602081101561114e57600080fd5b5051610f985760405162461bcd60e51b815260040180806020018281038252602a815260200180611587602a913960400191505060405180910390fd5b6000828211156111e2576040805162461bcd60e51b815260206004820152601e60248201527f536166654d6174683a207375627472616374696f6e206f766572666c6f770000604482015290519081900360640190fd5b50900390565b6000826111f757506000610eb1565b8282028284828161120457fe5b0414610f115760405162461bcd60e51b81526004018080602001828103825260218152602001806115666021913960400191505060405180910390fd5b6000808211611297576040805162461bcd60e51b815260206004820152601a60248201527f536166654d6174683a206469766973696f6e206279207a65726f000000000000604482015290519081900360640190fd5b8183816112a057fe5b049392505050565b60008183106112b75781610f11565b5090919050565b60606112cd84846000856112d5565b949350505050565b6060824710156113165760405162461bcd60e51b81526004018080602001828103825260268152602001806115116026913960400191505060405180910390fd5b61131f85611431565b611370576040805162461bcd60e51b815260206004820152601d60248201527f416464726573733a2063616c6c20746f206e6f6e2d636f6e7472616374000000604482015290519081900360640190fd5b60006060866001600160a01b031685876040518082805190602001908083835b602083106113af5780518252601f199092019160209182019101611390565b6001836020036101000a03801982511681845116808217855250505050505090500191505060006040518083038185875af1925050503d8060008114611411576040519150601f19603f3d011682016040523d82523d6000602084013e611416565b606091505b5091509150611426828286611437565b979650505050505050565b3b151590565b60608315611446575081610f11565b8251156114565782518084602001fd5b8160405162461bcd60e51b81526004018080602001828103825283818151815260200191508051906020019080838360005b838110156114a0578181015183820152602001611488565b50505050905090810190601f1680156114cd5780820380516001836020036101000a031916815260200191505b509250505060405180910390fdfe596f75206d757374206265206e6f6d696e61746564206265666f726520796f752063616e20616363657074206f776e657273686970416464726573733a20696e73756666696369656e742062616c616e636520666f722063616c6c4f6e6c792074686520636f6e7472616374206f776e6572206d617920706572666f726d207468697320616374696f6e536166654d6174683a206d756c7469706c69636174696f6e206f766572666c6f775361666545524332303a204552433230206f7065726174696f6e20646964206e6f742073756363656564a26469706673582212204339658c6a0c5cd0efab84b18dc500310d911b59b13e462e41bc01d7556aaed064736f6c63430007030033",
  "linkReferences": {},
  "deployedLinkReferences": {}
}