{
  "_format": "hh-sol-artifact-1",
  "contractName": "KeeperIncentive",
  "sourceName": "contracts/KeeperIncentive.sol",
  "abi": [
    {
      "inputs": [
        {
          "internalType": "address",
          "name": "_governance",
          "type": "address"
        },
        {
          "internalType": "contract IERC20",
          "name": "_pop",
          "type": "address"
        }
      ],
      "stateMutability": "nonpayable",
      "type": "constructor"
    },
    {
      "anonymous": false,
      "inputs": [
        {
          "indexed": false,
          "internalType": "uint256",
          "name": "incentiveId",
          "type": "uint256"
        },
        {
          "indexed": false,
          "internalType": "bool",
          "name": "openToEveryone",
          "type": "bool"
        }
      ],
      "name": "ApprovalToggled",
      "type": "event"
    },
    {
      "anonymous": false,
      "inputs": [
        {
          "indexed": false,
          "internalType": "address",
          "name": "account",
          "type": "address"
        }
      ],
      "name": "Approved",
      "type": "event"
    },
    {
      "anonymous": false,
      "inputs": [
        {
          "indexed": false,
          "internalType": "address",
          "name": "oldGovernance",
          "type": "address"
        },
        {
          "indexed": false,
          "internalType": "address",
          "name": "newGovernance",
          "type": "address"
        }
      ],
      "name": "GovernanceChanged",
      "type": "event"
    },
    {
      "anonymous": false,
      "inputs": [
        {
          "indexed": false,
          "internalType": "address",
          "name": "newGovernance",
          "type": "address"
        }
      ],
      "name": "GovernanceNominated",
      "type": "event"
    },
    {
      "anonymous": false,
      "inputs": [
        {
          "indexed": false,
          "internalType": "uint256",
          "name": "incentiveId",
          "type": "uint256"
        }
      ],
      "name": "IncentiveChanged",
      "type": "event"
    },
    {
      "anonymous": false,
      "inputs": [
        {
          "indexed": false,
          "internalType": "uint256",
          "name": "incentiveId",
          "type": "uint256"
        }
      ],
      "name": "IncentiveCreated",
      "type": "event"
    },
    {
      "anonymous": false,
      "inputs": [
        {
          "indexed": false,
          "internalType": "uint256",
          "name": "amount",
          "type": "uint256"
        }
      ],
      "name": "IncentiveFunded",
      "type": "event"
    },
    {
      "anonymous": false,
      "inputs": [
        {
          "indexed": false,
          "internalType": "uint256",
          "name": "incentiveId",
          "type": "uint256"
        },
        {
          "indexed": false,
          "internalType": "bool",
          "name": "enabled",
          "type": "bool"
        }
      ],
      "name": "IncentiveToggled",
      "type": "event"
    },
    {
      "anonymous": false,
      "inputs": [
        {
          "indexed": false,
          "internalType": "address",
          "name": "account",
          "type": "address"
        }
      ],
      "name": "RemovedApproval",
      "type": "event"
    },
    {
      "inputs": [],
      "name": "POP",
      "outputs": [
        {
          "internalType": "contract IERC20",
          "name": "",
          "type": "address"
        }
      ],
      "stateMutability": "view",
      "type": "function"
    },
    {
      "inputs": [],
      "name": "acceptGovernance",
      "outputs": [],
      "stateMutability": "nonpayable",
      "type": "function"
    },
    {
      "inputs": [
        {
          "internalType": "address",
          "name": "_account",
          "type": "address"
        }
      ],
      "name": "approveAccount",
      "outputs": [],
      "stateMutability": "nonpayable",
      "type": "function"
    },
    {
      "inputs": [
        {
          "internalType": "address",
          "name": "",
          "type": "address"
        }
      ],
      "name": "approved",
      "outputs": [
        {
          "internalType": "bool",
          "name": "",
          "type": "bool"
        }
      ],
      "stateMutability": "view",
      "type": "function"
    },
    {
      "inputs": [
        {
          "internalType": "uint256",
          "name": "_reward",
          "type": "uint256"
        },
        {
          "internalType": "bool",
          "name": "_enabled",
          "type": "bool"
        },
        {
          "internalType": "bool",
          "name": "_openToEveryone",
          "type": "bool"
        }
      ],
      "name": "createIncentive",
      "outputs": [
        {
          "internalType": "uint256",
          "name": "",
          "type": "uint256"
        }
      ],
      "stateMutability": "nonpayable",
      "type": "function"
    },
    {
      "inputs": [
        {
          "internalType": "uint256",
          "name": "_amount",
          "type": "uint256"
        }
      ],
      "name": "fundIncentive",
      "outputs": [],
      "stateMutability": "nonpayable",
      "type": "function"
    },
    {
      "inputs": [],
      "name": "governance",
      "outputs": [
        {
          "internalType": "address",
          "name": "",
          "type": "address"
        }
      ],
      "stateMutability": "view",
      "type": "function"
    },
    {
      "inputs": [],
      "name": "incentiveBudget",
      "outputs": [
        {
          "internalType": "uint256",
          "name": "",
          "type": "uint256"
        }
      ],
      "stateMutability": "view",
      "type": "function"
    },
    {
      "inputs": [
        {
          "internalType": "uint256",
          "name": "",
          "type": "uint256"
        }
      ],
      "name": "incentives",
      "outputs": [
        {
          "internalType": "uint256",
          "name": "reward",
          "type": "uint256"
        },
        {
          "internalType": "bool",
          "name": "enabled",
          "type": "bool"
        },
        {
          "internalType": "bool",
          "name": "openToEveryone",
          "type": "bool"
        }
      ],
      "stateMutability": "view",
      "type": "function"
    },
    {
      "inputs": [
        {
          "internalType": "address",
          "name": "_governance",
          "type": "address"
        }
      ],
      "name": "nominateNewGovernance",
      "outputs": [],
      "stateMutability": "nonpayable",
      "type": "function"
    },
    {
      "inputs": [],
      "name": "nominatedGovernance",
      "outputs": [
        {
          "internalType": "address",
          "name": "",
          "type": "address"
        }
      ],
      "stateMutability": "view",
      "type": "function"
    },
    {
      "inputs": [
        {
          "internalType": "address",
          "name": "_account",
          "type": "address"
        }
      ],
      "name": "removeApproval",
      "outputs": [],
      "stateMutability": "nonpayable",
      "type": "function"
    },
    {
      "inputs": [
        {
          "internalType": "uint256",
          "name": "_incentiveId",
          "type": "uint256"
        }
      ],
      "name": "toggleApproval",
      "outputs": [],
      "stateMutability": "nonpayable",
      "type": "function"
    },
    {
      "inputs": [
        {
          "internalType": "uint256",
          "name": "_incentiveId",
          "type": "uint256"
        }
      ],
      "name": "toggleIncentive",
      "outputs": [],
      "stateMutability": "nonpayable",
      "type": "function"
    },
    {
      "inputs": [
        {
          "internalType": "uint256",
          "name": "_incentiveId",
          "type": "uint256"
        },
        {
          "internalType": "uint256",
          "name": "_reward",
          "type": "uint256"
        },
        {
          "internalType": "bool",
          "name": "_enabled",
          "type": "bool"
        },
        {
          "internalType": "bool",
          "name": "_openToEveryone",
          "type": "bool"
        }
      ],
      "name": "updateIncentive",
      "outputs": [],
      "stateMutability": "nonpayable",
      "type": "function"
    }
  ],
  "bytecode": "0x60a060405234801561001057600080fd5b506040516110df3803806110df8339818101604052604081101561003357600080fd5b508051602090910151816001600160a01b038116610098576040805162461bcd60e51b815260206004820152601e60248201527f476f7665726e616e636520616464726573732063616e6e6f7420626520300000604482015290519081900360640190fd5b600080546001600160a01b0319166001600160a01b038316908117825560408051928352602083019190915280517f3aaaebeb4821d6a7e5c77ece53cff0afcc56c82add2c978dbbb7f73e84cbcfd29281900390910190a1506001600160601b0319606082901b16608052610118678ac7230489e8000060016000610120565b505050610256565b600061012a61020b565b60408051606081018252858152841515602080830191825285151583850190815260028054600181018255600082905294517f405787fa12a823e0f2b7631cc41b3ba8828b3321ca811111fa75cd3aa3bb5ace9582029586015592517f405787fa12a823e0f2b7631cc41b3ba8828b3321ca811111fa75cd3aa3bb5acf9094018054915160ff199092169415159490941761ff001916610100911515919091021790925554825190815291517f7d84860e1fc1ed3049c4f95ac22b081621477f749947cd30272d654c27a1a1a59281900390910190a1506002549392505050565b6000546001600160a01b031633146102545760405162461bcd60e51b81526004018080602001828103825260348152602001806110ab6034913960400191505060405180910390fd5b565b60805160601c610e33610278600039806103fa52806107a35250610e336000f3fe608060405234801561001057600080fd5b50600436106100f55760003560e01c80635aa6e67511610097578063d8b964e611610066578063d8b964e61461022f578063e121c10214610269578063f89f4e77146102a6578063ffd8a6d9146102cc576100f5565b80635aa6e675146101c657806361c94885146101ce5780636c660b01146102015780637cab5e8c14610209576100f5565b8063238efcbc116100d3578063238efcbc1461017c57806341267de51461018457806342f5e9f41461018c578063493f43bb146101a9576100f5565b806308c8cb87146100fa57806314ef6851146101395780631c5f82eb1461015d575b600080fd5b6101276004803603606081101561011057600080fd5b5080359060208101351515906040013515156102f2565b60408051918252519081900360200190f35b6101416103de565b604080516001600160a01b039092168252519081900360200190f35b61017a6004803603602081101561017357600080fd5b50356103ed565b005b61017a610468565b610127610531565b61017a600480360360208110156101a257600080fd5b5035610537565b61017a600480360360208110156101bf57600080fd5b5035610606565b6101416106df565b61017a600480360360808110156101e457600080fd5b5080359060208101359060408101351515906060013515156106ee565b6101416107a1565b61017a6004803603602081101561021f57600080fd5b50356001600160a01b03166107c5565b6102556004803603602081101561024557600080fd5b50356001600160a01b0316610825565b604080519115158252519081900360200190f35b6102866004803603602081101561027f57600080fd5b503561083a565b604080519384529115156020840152151582820152519081900360600190f35b61017a600480360360208110156102bc57600080fd5b50356001600160a01b0316610871565b61017a600480360360208110156102e257600080fd5b50356001600160a01b03166108d4565b60006102fc61093d565b60408051606081018252858152841515602080830191825285151583850190815260028054600181018255600082905294517f405787fa12a823e0f2b7631cc41b3ba8828b3321ca811111fa75cd3aa3bb5ace9582029586015592517f405787fa12a823e0f2b7631cc41b3ba8828b3321ca811111fa75cd3aa3bb5acf9094018054915160ff199092169415159490941761ff001916610100911515919091021790925554825190815291517f7d84860e1fc1ed3049c4f95ac22b081621477f749947cd30272d654c27a1a1a59281900390910190a1506002545b9392505050565b6001546001600160a01b031681565b6104226001600160a01b037f000000000000000000000000000000000000000000000000000000000000000016333084610988565b60035461042f9082610a16565b6003556040805182815290517f9ad4c05cff4861564f4d1572799ac5d03d82f40ea702646c7b3bfd552f570cde9181900360200190a150565b6001546001600160a01b031633146104b15760405162461bcd60e51b8152600401808060200182810382526036815260200180610d9e6036913960400191505060405180910390fd5b600054600154604080516001600160a01b03938416815292909116602083015280517f3aaaebeb4821d6a7e5c77ece53cff0afcc56c82add2c978dbbb7f73e84cbcfd29281900390910190a1600180546000805473ffffffffffffffffffffffffffffffffffffffff199081166001600160a01b03841617909155169055565b60035481565b61053f61093d565b6002818154811061054c57fe5b906000526020600020906002020160010160009054906101000a900460ff16156002828154811061057957fe5b906000526020600020906002020160010160006101000a81548160ff0219169083151502179055507f051f998dd825d3013afdc6c3a8d515e73d5816bff7238ddccb4e85131e6fd1a081600283815481106105d057fe5b6000918252602091829020600160029092020101546040805193845260ff9091161515918301919091528051918290030190a150565b61060e61093d565b6002818154811061061b57fe5b906000526020600020906002020160010160019054906101000a900460ff16156002828154811061064857fe5b906000526020600020906002020160010160016101000a81548160ff0219169083151502179055507fa51d6c9733fd63b5d3d7f72181e83ef039954a7c1748775a99f4ceb8edbef100816002838154811061069f57fe5b906000526020600020906002020160010160019054906101000a900460ff166040518083815260200182151581526020019250505060405180910390a150565b6000546001600160a01b031681565b6106f661093d565b604051806060016040528084815260200183151581526020018215158152506002858154811061072257fe5b60009182526020918290208351600290920201908155828201516001909101805460409485015115156101000261ff001993151560ff199092169190911792909216919091179055815186815291517fb6eadbf6d08d9dab781edecc3f924ce28080fc3e1c8e1356fe758d68020e76409281900390910190a150505050565b7f000000000000000000000000000000000000000000000000000000000000000081565b6107cd61093d565b6001600160a01b038116600081815260046020908152604091829020805460ff19169055815192835290517ffd14bcb80907f44e9de03a8c122d3324befad6501ae8481ab277b809227bc8de9281900390910190a150565b60046020526000908152604090205460ff1681565b6002818154811061084757fe5b60009182526020909120600290910201805460019091015490915060ff8082169161010090041683565b61087961093d565b6001600160a01b038116600081815260046020908152604091829020805460ff19166001179055815192835290517f5d91bd0cecc45fef102af61de92c5462fadc884a5ce9d21c15e8a85198f2349e9281900390910190a150565b6108dc61093d565b600180546001600160a01b03831673ffffffffffffffffffffffffffffffffffffffff19909116811790915560408051918252517f1c58cfd31540f5b6a8cfbbe7c225cfccf4ee83b8691dc4d4d0a23a3ef02be5849181900360200190a150565b6000546001600160a01b031633146109865760405162461bcd60e51b8152600401808060200182810382526034815260200180610d6a6034913960400191505060405180910390fd5b565b604080516001600160a01b0380861660248301528416604482015260648082018490528251808303909101815260849091019091526020810180517bffffffffffffffffffffffffffffffffffffffffffffffffffffffff167f23b872dd00000000000000000000000000000000000000000000000000000000179052610a10908590610a70565b50505050565b6000828201838110156103d7576040805162461bcd60e51b815260206004820152601b60248201527f536166654d6174683a206164646974696f6e206f766572666c6f770000000000604482015290519081900360640190fd5b6060610ac5826040518060400160405280602081526020017f5361666545524332303a206c6f772d6c6576656c2063616c6c206661696c6564815250856001600160a01b0316610b269092919063ffffffff16565b805190915015610b2157808060200190516020811015610ae457600080fd5b5051610b215760405162461bcd60e51b815260040180806020018281038252602a815260200180610dd4602a913960400191505060405180910390fd5b505050565b6060610b358484600085610b3d565b949350505050565b606082471015610b7e5760405162461bcd60e51b8152600401808060200182810382526026815260200180610d446026913960400191505060405180910390fd5b610b8785610c99565b610bd8576040805162461bcd60e51b815260206004820152601d60248201527f416464726573733a2063616c6c20746f206e6f6e2d636f6e7472616374000000604482015290519081900360640190fd5b60006060866001600160a01b031685876040518082805190602001908083835b60208310610c175780518252601f199092019160209182019101610bf8565b6001836020036101000a03801982511681845116808217855250505050505090500191505060006040518083038185875af1925050503d8060008114610c79576040519150601f19603f3d011682016040523d82523d6000602084013e610c7e565b606091505b5091509150610c8e828286610c9f565b979650505050505050565b3b151590565b60608315610cae5750816103d7565b825115610cbe5782518084602001fd5b8160405162461bcd60e51b81526004018080602001828103825283818151815260200191508051906020019080838360005b83811015610d08578181015183820152602001610cf0565b50505050905090810190601f168015610d355780820380516001836020036101000a031916815260200191505b509250505060405180910390fdfe416464726573733a20696e73756666696369656e742062616c616e636520666f722063616c6c4f6e6c792074686520636f6e747261637420676f7665726e616e6365206d617920706572666f726d207468697320616374696f6e596f75206d757374206265206e6f6d696e61746564206265666f726520796f752063616e2061636365707420676f7665726e616e63655361666545524332303a204552433230206f7065726174696f6e20646964206e6f742073756363656564a2646970667358221220821e7116989a62dc4b28fd148a5fc9ea5ac38f607735b81ccfa5278c22f46fb064736f6c634300070300334f6e6c792074686520636f6e747261637420676f7665726e616e6365206d617920706572666f726d207468697320616374696f6e",
  "linkReferences": {},
  "deployedLinkReferences": {}
}