{
  "_format": "hh-sol-artifact-1",
  "contractName": "Staking",
  "sourceName": "contracts/Staking.sol",
  "abi": [
    {
      "inputs": [
        {
          "internalType": "contract IERC20",
          "name": "_pop",
          "type": "address"
        },
        {
          "internalType": "contract IRewardsEscrow",
          "name": "_rewardsEscrow",
          "type": "address"
        }
      ],
      "stateMutability": "nonpayable",
      "type": "constructor"
    },
    {
      "anonymous": false,
      "inputs": [
        {
          "indexed": false,
          "internalType": "address",
          "name": "account",
          "type": "address"
        }
      ],
      "name": "AccountApproved",
      "type": "event"
    },
    {
      "anonymous": false,
      "inputs": [
        {
          "indexed": false,
          "internalType": "address",
          "name": "account",
          "type": "address"
        }
      ],
      "name": "AccountRevoked",
      "type": "event"
    },
    {
      "anonymous": false,
      "inputs": [
        {
          "indexed": false,
          "internalType": "address",
          "name": "oldGovernance",
          "type": "address"
        },
        {
          "indexed": false,
          "internalType": "address",
          "name": "newGovernance",
          "type": "address"
        }
      ],
      "name": "GovernanceChanged",
      "type": "event"
    },
    {
      "anonymous": false,
      "inputs": [
        {
          "indexed": false,
          "internalType": "address",
          "name": "newGovernance",
          "type": "address"
        }
      ],
      "name": "GovernanceNominated",
      "type": "event"
    },
    {
      "anonymous": false,
      "inputs": [
        {
          "indexed": false,
          "internalType": "address",
          "name": "oldOwner",
          "type": "address"
        },
        {
          "indexed": false,
          "internalType": "address",
          "name": "newOwner",
          "type": "address"
        }
      ],
      "name": "OwnerChanged",
      "type": "event"
    },
    {
      "anonymous": false,
      "inputs": [
        {
          "indexed": false,
          "internalType": "address",
          "name": "newOwner",
          "type": "address"
        }
      ],
      "name": "OwnerNominated",
      "type": "event"
    },
    {
      "anonymous": false,
      "inputs": [
        {
          "indexed": false,
          "internalType": "uint256",
          "name": "reward",
          "type": "uint256"
        }
      ],
      "name": "RewardAdded",
      "type": "event"
    },
    {
      "anonymous": false,
      "inputs": [
        {
          "indexed": false,
          "internalType": "address",
          "name": "_address",
          "type": "address"
        },
        {
          "indexed": false,
          "internalType": "uint256",
          "name": "reward",
          "type": "uint256"
        }
      ],
      "name": "RewardPaid",
      "type": "event"
    },
    {
      "anonymous": false,
      "inputs": [
        {
          "indexed": false,
          "internalType": "contract IRewardsEscrow",
          "name": "_rewardsEscrow",
          "type": "address"
        }
      ],
      "name": "RewardsEscrowChanged",
      "type": "event"
    },
    {
      "anonymous": false,
      "inputs": [
        {
          "indexed": false,
          "internalType": "contract IRewardsManager",
          "name": "_rewardsManager",
          "type": "address"
        }
      ],
      "name": "RewardsManagerChanged",
      "type": "event"
    },
    {
      "anonymous": false,
      "inputs": [
        {
          "indexed": false,
          "internalType": "address",
          "name": "_address",
          "type": "address"
        },
        {
          "indexed": false,
          "internalType": "uint256",
          "name": "amount",
          "type": "uint256"
        }
      ],
      "name": "StakingDeposited",
      "type": "event"
    },
    {
      "anonymous": false,
      "inputs": [
        {
          "indexed": false,
          "internalType": "address",
          "name": "_address",
          "type": "address"
        },
        {
          "indexed": false,
          "internalType": "uint256",
          "name": "amount",
          "type": "uint256"
        }
      ],
      "name": "StakingWithdrawn",
      "type": "event"
    },
    {
      "inputs": [],
      "name": "POP",
      "outputs": [
        {
          "internalType": "contract IERC20",
          "name": "",
          "type": "address"
        }
      ],
      "stateMutability": "view",
      "type": "function"
    },
    {
      "inputs": [],
      "name": "RewardsEscrow",
      "outputs": [
        {
          "internalType": "contract IRewardsEscrow",
          "name": "",
          "type": "address"
        }
      ],
      "stateMutability": "view",
      "type": "function"
    },
    {
      "inputs": [],
      "name": "RewardsManager",
      "outputs": [
        {
          "internalType": "contract IRewardsManager",
          "name": "",
          "type": "address"
        }
      ],
      "stateMutability": "view",
      "type": "function"
    },
    {
      "inputs": [],
      "name": "acceptGovernance",
      "outputs": [],
      "stateMutability": "nonpayable",
      "type": "function"
    },
    {
      "inputs": [],
      "name": "acceptOwnership",
      "outputs": [],
      "stateMutability": "nonpayable",
      "type": "function"
    },
    {
      "inputs": [
        {
          "internalType": "address",
          "name": "account",
          "type": "address"
        }
      ],
      "name": "approveContractAccess",
      "outputs": [],
      "stateMutability": "nonpayable",
      "type": "function"
    },
    {
      "inputs": [
        {
          "internalType": "address",
          "name": "",
          "type": "address"
        }
      ],
      "name": "approved",
      "outputs": [
        {
          "internalType": "bool",
          "name": "",
          "type": "bool"
        }
      ],
      "stateMutability": "view",
      "type": "function"
    },
    {
      "inputs": [
        {
          "internalType": "address",
          "name": "_address",
          "type": "address"
        }
      ],
      "name": "balanceOf",
      "outputs": [
        {
          "internalType": "uint256",
          "name": "",
          "type": "uint256"
        }
      ],
      "stateMutability": "view",
      "type": "function"
    },
    {
      "inputs": [
        {
          "internalType": "address",
          "name": "account",
          "type": "address"
        }
      ],
      "name": "earned",
      "outputs": [
        {
          "internalType": "uint256",
          "name": "",
          "type": "uint256"
        }
      ],
      "stateMutability": "view",
      "type": "function"
    },
    {
      "inputs": [],
      "name": "exit",
      "outputs": [],
      "stateMutability": "nonpayable",
      "type": "function"
    },
    {
      "inputs": [],
      "name": "getReward",
      "outputs": [],
      "stateMutability": "nonpayable",
      "type": "function"
    },
    {
      "inputs": [],
      "name": "getRewardForDuration",
      "outputs": [
        {
          "internalType": "uint256",
          "name": "",
          "type": "uint256"
        }
      ],
      "stateMutability": "view",
      "type": "function"
    },
    {
      "inputs": [
        {
          "internalType": "address",
          "name": "_address",
          "type": "address"
        }
      ],
      "name": "getVoiceCredits",
      "outputs": [
        {
          "internalType": "uint256",
          "name": "",
          "type": "uint256"
        }
      ],
      "stateMutability": "view",
      "type": "function"
    },
    {
      "inputs": [
        {
          "internalType": "address",
          "name": "_address",
          "type": "address"
        }
      ],
      "name": "getWithdrawableBalance",
      "outputs": [
        {
          "internalType": "uint256",
          "name": "",
          "type": "uint256"
        }
      ],
      "stateMutability": "view",
      "type": "function"
    },
    {
      "inputs": [],
      "name": "governance",
      "outputs": [
        {
          "internalType": "address",
          "name": "",
          "type": "address"
        }
      ],
      "stateMutability": "view",
      "type": "function"
    },
    {
      "inputs": [
        {
          "internalType": "uint256",
          "name": "lengthOfTime",
          "type": "uint256"
        }
      ],
      "name": "increaseLock",
      "outputs": [],
      "stateMutability": "nonpayable",
      "type": "function"
    },
    {
      "inputs": [
        {
          "internalType": "uint256",
          "name": "amount",
          "type": "uint256"
        }
      ],
      "name": "increaseStake",
      "outputs": [],
      "stateMutability": "nonpayable",
      "type": "function"
    },
    {
      "inputs": [
        {
          "internalType": "contract IRewardsManager",
          "name": "_rewardsManager",
          "type": "address"
        }
      ],
      "name": "init",
      "outputs": [],
      "stateMutability": "nonpayable",
      "type": "function"
    },
    {
      "inputs": [],
      "name": "initialised",
      "outputs": [
        {
          "internalType": "bool",
          "name": "",
          "type": "bool"
        }
      ],
      "stateMutability": "view",
      "type": "function"
    },
    {
      "inputs": [],
      "name": "lastTimeRewardApplicable",
      "outputs": [
        {
          "internalType": "uint256",
          "name": "",
          "type": "uint256"
        }
      ],
      "stateMutability": "view",
      "type": "function"
    },
    {
      "inputs": [],
      "name": "lastUpdateTime",
      "outputs": [
        {
          "internalType": "uint256",
          "name": "",
          "type": "uint256"
        }
      ],
      "stateMutability": "view",
      "type": "function"
    },
    {
      "inputs": [
        {
          "internalType": "address",
          "name": "",
          "type": "address"
        }
      ],
      "name": "lockedBalances",
      "outputs": [
        {
          "internalType": "uint256",
          "name": "_balance",
          "type": "uint256"
        },
        {
          "internalType": "uint256",
          "name": "_end",
          "type": "uint256"
        }
      ],
      "stateMutability": "view",
      "type": "function"
    },
    {
      "inputs": [
        {
          "internalType": "address",
          "name": "_governance",
          "type": "address"
        }
      ],
      "name": "nominateNewGovernance",
      "outputs": [],
      "stateMutability": "nonpayable",
      "type": "function"
    },
    {
      "inputs": [
        {
          "internalType": "address",
          "name": "_owner",
          "type": "address"
        }
      ],
      "name": "nominateNewOwner",
      "outputs": [],
      "stateMutability": "nonpayable",
      "type": "function"
    },
    {
      "inputs": [],
      "name": "nominatedGovernance",
      "outputs": [
        {
          "internalType": "address",
          "name": "",
          "type": "address"
        }
      ],
      "stateMutability": "view",
      "type": "function"
    },
    {
      "inputs": [],
      "name": "nominatedOwner",
      "outputs": [
        {
          "internalType": "address",
          "name": "",
          "type": "address"
        }
      ],
      "stateMutability": "view",
      "type": "function"
    },
    {
      "inputs": [
        {
          "internalType": "uint256",
          "name": "reward",
          "type": "uint256"
        }
      ],
      "name": "notifyRewardAmount",
      "outputs": [],
      "stateMutability": "nonpayable",
      "type": "function"
    },
    {
      "inputs": [],
      "name": "owner",
      "outputs": [
        {
          "internalType": "address",
          "name": "",
          "type": "address"
        }
      ],
      "stateMutability": "view",
      "type": "function"
    },
    {
      "inputs": [],
      "name": "periodFinish",
      "outputs": [
        {
          "internalType": "uint256",
          "name": "",
          "type": "uint256"
        }
      ],
      "stateMutability": "view",
      "type": "function"
    },
    {
      "inputs": [
        {
          "internalType": "address",
          "name": "_address",
          "type": "address"
        }
      ],
      "name": "recalculateVoiceCredits",
      "outputs": [],
      "stateMutability": "nonpayable",
      "type": "function"
    },
    {
      "inputs": [
        {
          "internalType": "address",
          "name": "account",
          "type": "address"
        }
      ],
      "name": "revokeContractAccess",
      "outputs": [],
      "stateMutability": "nonpayable",
      "type": "function"
    },
    {
      "inputs": [],
      "name": "rewardPerToken",
      "outputs": [
        {
          "internalType": "uint256",
          "name": "",
          "type": "uint256"
        }
      ],
      "stateMutability": "view",
      "type": "function"
    },
    {
      "inputs": [],
      "name": "rewardPerTokenStored",
      "outputs": [
        {
          "internalType": "uint256",
          "name": "",
          "type": "uint256"
        }
      ],
      "stateMutability": "view",
      "type": "function"
    },
    {
      "inputs": [],
      "name": "rewardRate",
      "outputs": [
        {
          "internalType": "uint256",
          "name": "",
          "type": "uint256"
        }
      ],
      "stateMutability": "view",
      "type": "function"
    },
    {
      "inputs": [
        {
          "internalType": "address",
          "name": "",
          "type": "address"
        }
      ],
      "name": "rewards",
      "outputs": [
        {
          "internalType": "uint256",
          "name": "",
          "type": "uint256"
        }
      ],
      "stateMutability": "view",
      "type": "function"
    },
    {
      "inputs": [],
      "name": "rewardsDuration",
      "outputs": [
        {
          "internalType": "uint256",
          "name": "",
          "type": "uint256"
        }
      ],
      "stateMutability": "view",
      "type": "function"
    },
    {
      "inputs": [
        {
          "internalType": "contract IRewardsEscrow",
          "name": "_rewardsEscrow",
          "type": "address"
        }
      ],
      "name": "setRewardsEscrow",
      "outputs": [],
      "stateMutability": "nonpayable",
      "type": "function"
    },
    {
      "inputs": [
        {
          "internalType": "contract IRewardsManager",
          "name": "_rewardsManager",
          "type": "address"
        }
      ],
      "name": "setRewardsManager",
      "outputs": [],
      "stateMutability": "nonpayable",
      "type": "function"
    },
    {
      "inputs": [
        {
          "internalType": "uint256",
          "name": "amount",
          "type": "uint256"
        },
        {
          "internalType": "uint256",
          "name": "lengthOfTime",
          "type": "uint256"
        }
      ],
      "name": "stake",
      "outputs": [],
      "stateMutability": "nonpayable",
      "type": "function"
    },
    {
      "inputs": [],
      "name": "totalLocked",
      "outputs": [
        {
          "internalType": "uint256",
          "name": "",
          "type": "uint256"
        }
      ],
      "stateMutability": "view",
      "type": "function"
    },
    {
      "inputs": [],
      "name": "totalVoiceCredits",
      "outputs": [
        {
          "internalType": "uint256",
          "name": "",
          "type": "uint256"
        }
      ],
      "stateMutability": "view",
      "type": "function"
    },
    {
      "inputs": [
        {
          "internalType": "uint256",
          "name": "timestamp",
          "type": "uint256"
        }
      ],
      "name": "updatePeriodFinish",
      "outputs": [],
      "stateMutability": "nonpayable",
      "type": "function"
    },
    {
      "inputs": [
        {
          "internalType": "address",
          "name": "",
          "type": "address"
        }
      ],
      "name": "userRewardPerTokenPaid",
      "outputs": [
        {
          "internalType": "uint256",
          "name": "",
          "type": "uint256"
        }
      ],
      "stateMutability": "view",
      "type": "function"
    },
    {
      "inputs": [
        {
          "internalType": "address",
          "name": "",
          "type": "address"
        }
      ],
      "name": "voiceCredits",
      "outputs": [
        {
          "internalType": "uint256",
          "name": "",
          "type": "uint256"
        }
      ],
      "stateMutability": "view",
      "type": "function"
    },
    {
      "inputs": [
        {
          "internalType": "uint256",
          "name": "amount",
          "type": "uint256"
        }
      ],
      "name": "withdraw",
      "outputs": [],
      "stateMutability": "nonpayable",
      "type": "function"
    }
  ],
  "bytecode": "0x60a06040526007805460ff60a01b191690556000600881905560095562093a80600a5534801561002e57600080fd5b50604051612c17380380612c178339818101604052604081101561005157600080fd5b5080516020909101513380806100ae576040805162461bcd60e51b815260206004820152601960248201527f4f776e657220616464726573732063616e6e6f74206265203000000000000000604482015290519081900360640190fd5b600080546001600160a01b0319166001600160a01b038316908117825560408051928352602083019190915280517fb532073b38c83145e3e5135377a08bf9aab55bc0fd7c1179cd4fb995d2a5159c9281900390910190a15060016002556001600160a01b038116610167576040805162461bcd60e51b815260206004820152601e60248201527f476f7665726e616e636520616464726573732063616e6e6f7420626520300000604482015290519081900360640190fd5b600380546001600160a01b0319166001600160a01b0383169081179091556040805160008152602081019290925280517f3aaaebeb4821d6a7e5c77ece53cff0afcc56c82add2c978dbbb7f73e84cbcfd29281900390910190a150606082901b6001600160601b031916608052600780546001600160a01b0319166001600160a01b03928316179055166129e761023060003980610e70528061109c52806112ef52806113275280611571528061186652806119bf5280611ce25280611ea052506129e76000f3fe608060405234801561001057600080fd5b50600436106102fe5760003560e01c80635aa6e6751161019c5780638da5cb5b116100ee578063e3e9113911610097578063ebe2b12b11610071578063ebe2b12b146106ff578063eedad66b14610707578063ffd8a6d914610724576102fe565b8063e3e91139146106c9578063e465fe80146106d1578063e9fad8ee146106f7576102fe565b8063d8b964e6116100c8578063d8b964e614610693578063df0dd6bb146106b9578063df136d65146106c1576102fe565b80638da5cb5b1461067b578063c8f33c9114610683578063cd3daf9d1461068b576102fe565b80637b0472f01161015057806380faa57d1161012a57806380faa57d14610627578063843592d31461062f5780638b87634714610655576102fe565b80637b0472f0146105d65780637b0a47ee146105f95780637c61e86514610601576102fe565b80636c660b01116101815780636c660b01146105a057806370a08231146105a857806379ba5097146105ce576102fe565b80635aa6e675146105725780636c3618651461057a576102fe565b80631c5a0914116102555780633c6b16ab1161020957806353a47bb7116101e357806353a47bb714610545578063556f6e6b1461054d578063568914121461056a576102fe565b80633c6b16ab146105185780633d18b912146105355780634cf946881461053d576102fe565b8063238efcbc1161023a578063238efcbc146104eb5780632e1a7d4d146104f3578063386a952514610510576102fe565b80631c5a0914146104a857806320d43db0146104c5576102fe565b80630a8ddc5e116102b75780631627540c116102915780631627540c1461045457806319ab453c1461047a5780631c1f78eb146104a0576102fe565b80630a8ddc5e146103e2578063127ad3531461040a57806314ef685114610430576102fe565b80630483a7f6116102e85780630483a7f6146103615780630700037d146103a057806307003bb4146103c6576102fe565b80628cc26214610303578063034f98e51461033b575b600080fd5b6103296004803603602081101561031957600080fd5b50356001600160a01b031661074a565b60408051918252519081900360200190f35b6103296004803603602081101561035157600080fd5b50356001600160a01b03166107ca565b6103876004803603602081101561037757600080fd5b50356001600160a01b031661084a565b6040805192835260208301919091528051918290030190f35b610329600480360360208110156103b657600080fd5b50356001600160a01b0316610863565b6103ce610875565b604080519115158252519081900360200190f35b610408600480360360208110156103f857600080fd5b50356001600160a01b0316610885565b005b6104086004803603602081101561042057600080fd5b50356001600160a01b0316610944565b6104386109a4565b604080516001600160a01b039092168252519081900360200190f35b6104086004803603602081101561046a57600080fd5b50356001600160a01b03166109b3565b6104086004803603602081101561049057600080fd5b50356001600160a01b0316610a0f565b610329610a68565b610408600480360360208110156104be57600080fd5b5035610a87565b610329600480360360208110156104db57600080fd5b50356001600160a01b0316610c14565b610408610c26565b6104086004803603602081101561050957600080fd5b5035610ce2565b610329610efd565b6104086004803603602081101561052e57600080fd5b5035610f03565b6104086111e8565b61043861141b565b61043861142a565b6104086004803603602081101561056357600080fd5b5035611439565b6103296114f7565b6104386114fd565b6104086004803603602081101561059057600080fd5b50356001600160a01b031661150c565b61043861156f565b610329600480360360208110156105be57600080fd5b50356001600160a01b0316611593565b6104086115ae565b610408600480360360408110156105ec57600080fd5b508035906020013561166a565b610329611a50565b6104086004803603602081101561061757600080fd5b50356001600160a01b0316611a56565b610329611ab6565b6103296004803603602081101561064557600080fd5b50356001600160a01b0316611ac4565b6103296004803603602081101561066b57600080fd5b50356001600160a01b0316611b0d565b610438611b1f565b610329611b2e565b610329611b34565b6103ce600480360360208110156106a957600080fd5b50356001600160a01b0316611b7c565b610329611b91565b610329611b97565b610438611b9d565b610408600480360360208110156106e757600080fd5b50356001600160a01b0316611bac565b610408611c6b565b610329611c86565b6104086004803603602081101561071d57600080fd5b5035611c8c565b6104086004803603602081101561073a57600080fd5b50356001600160a01b0316611f0e565b6001600160a01b03811660009081526011602090815260408083205460109092528220546107c291906107bc90670de0b6b3a7640000906107b69061079790610791611b34565b90611f6a565b6001600160a01b03881660009081526012602052604090205490611fcc565b9061202c565b90612093565b90505b919050565b6001600160a01b038116600090815260126020526040812060018101549054428215806107f657508083105b806107ff575081155b1561081057600093505050506107c5565b600061082c610e10610826816107b68887611f6a565b90611fcc565b9050610840630784ce006107b68584611fcc565b9695505050505050565b6012602052600090815260409020805460019091015482565b60116020526000908152604090205481565b600754600160a01b900460ff1681565b61088d6120ed565b6006546001600160a01b03828116911614156108f0576040805162461bcd60e51b815260206004820152601360248201527f53616d6520526577617264734d616e6167657200000000000000000000000000604482015290519081900360640190fd5b600680546001600160a01b0383166001600160a01b0319909116811790915560408051918252517faf9ca1acbc97c27ece50ee4404156bc7e53edb59248e95a2c23d09fecc2c9a1b9181900360200190a150565b6001600160a01b0381166000908152600f6020526040902054600e5461096a9082611f6a565b600e55610976826107ca565b6001600160a01b0383166000908152600f60205260409020819055600e5461099d91612093565b600e555050565b6004546001600160a01b031681565b6109bb6120ed565b600180546001600160a01b0383166001600160a01b0319909116811790915560408051918252517f906a1c6bd7e3091ea86693dd029a831c19049ce77f1dce2ce0bab1cacbabce229181900360200190a150565b610a176120ed565b600680546001600160a01b039092166001600160a01b0319909216919091179055600780547fffffffffffffffffffffff00ffffffffffffffffffffffffffffffffffffffff16600160a01b179055565b6000610a81600a54600954611fcc90919063ffffffff16565b90505b90565b4262093a80821015610aca5760405162461bcd60e51b815260040180806020018281038252602481526020018061287b6024913960400191505060405180910390fd5b630784ce00821115610b0d5760405162461bcd60e51b815260040180806020018281038252602f815260200180612923602f913960400191505060405180910390fd5b33600090815260126020526040902054610b6e576040805162461bcd60e51b815260206004820152601760248201527f6e6f206c6f636b656442616c616e636520657869737473000000000000000000604482015290519081900360640190fd5b336000908152601260205260409020600101548110610bd4576040805162461bcd60e51b815260206004820152601660248201527f77697468647261772062616c616e636520666972737400000000000000000000604482015290519081900360640190fd5b33600090815260126020526040902060010154610bf19083612093565b33600081815260126020526040902060010191909155610c1090610944565b5050565b600f6020526000908152604090205481565b6004546001600160a01b03163314610c6f5760405162461bcd60e51b81526004018080602001828103825260368152602001806129526036913960400191505060405180910390fd5b600354600454604080516001600160a01b03938416815292909116602083015280517f3aaaebeb4821d6a7e5c77ece53cff0afcc56c82add2c978dbbb7f73e84cbcfd29281900390910190a160048054600380546001600160a01b03199081166001600160a01b03841617909155169055565b600280541415610d39576040805162461bcd60e51b815260206004820152601f60248201527f5265656e7472616e637947756172643a207265656e7472616e742063616c6c00604482015290519081900360640190fd5b6002805533610d46611b34565b600c55610d51611ab6565b600b556001600160a01b03811615610d9857610d6c8161074a565b6001600160a01b038216600090815260116020908152604080832093909355600c546010909152919020555b60008211610ded576040805162461bcd60e51b815260206004820152601d60248201527f616d6f756e74206d7573742062652067726561746572207468616e2030000000604482015290519081900360640190fd5b33600090815260126020526040902054610e4e576040805162461bcd60e51b815260206004820152601460248201527f696e73756666696369656e742062616c616e6365000000000000000000000000604482015290519081900360640190fd5b610e5733611ac4565b821115610e6357600080fd5b610e976001600160a01b037f0000000000000000000000000000000000000000000000000000000000000000163384612136565b600d54610ea49083611f6a565b600d55610eb0826121a6565b610eb933610944565b604080513381526020810184905281517f31b1dcbb078c03f6346db59ee77d2cd25542dcdc90c03978beea4e90362d5f5f929181900390910190a150506001600255565b600a5481565b6000610f0d611b34565b600c55610f18611ab6565b600b556001600160a01b03811615610f5f57610f338161074a565b6001600160a01b038216600090815260116020908152604080832093909355600c546010909152919020555b600754600160a01b900460ff161515600114610fc2576040805162461bcd60e51b815260206004820152601860248201527f6d75737420696e697469616c69736520636f6e74726163740000000000000000604482015290519081900360640190fd5b6006546001600160a01b0316331480610fe557506000546001600160a01b031633145b611036576040805162461bcd60e51b815260206004820152600b60248201527f4e6f7420616c6c6f776564000000000000000000000000000000000000000000604482015290519081900360640190fd5b600854421061105557600a5461104d90839061202c565b600955611098565b6008546000906110659042611f6a565b9050600061107e60095483611fcc90919063ffffffff16565b600a54909150611092906107b68684612093565b60095550505b60007f00000000000000000000000000000000000000000000000000000000000000006001600160a01b03166370a08231306040518263ffffffff1660e01b815260040180826001600160a01b0316815260200191505060206040518083038186803b15801561110757600080fd5b505afa15801561111b573d6000803e3d6000fd5b505050506040513d602081101561113157600080fd5b5051600a5490915061114490829061202c565b600954111561119a576040805162461bcd60e51b815260206004820152601860248201527f50726f76696465642072657761726420746f6f20686967680000000000000000604482015290519081900360640190fd5b42600b819055600a546111ad9190612093565b6008556040805184815290517fde88a922e0d3b88b24e9623efeb464919c6bf9f66857a65e2bfcf2ce87a9433d9181900360200190a1505050565b60028054141561123f576040805162461bcd60e51b815260206004820152601f60248201527f5265656e7472616e637947756172643a207265656e7472616e742063616c6c00604482015290519081900360640190fd5b600280553361124c611b34565b600c55611257611ab6565b600b556001600160a01b0381161561129e576112728161074a565b6001600160a01b038216600090815260116020908152604080832093909355600c546010909152919020555b336000908152601160205260409020548015611412573360009081526011602052604081208190556112d182600361202c565b905060006112e0826002611fcc565b90506113166001600160a01b037f0000000000000000000000000000000000000000000000000000000000000000163384612136565b600754611350906001600160a01b037f00000000000000000000000000000000000000000000000000000000000000008116911683612221565b600754604080517f282d3fdf0000000000000000000000000000000000000000000000000000000081523360048201526024810184905290516001600160a01b039092169163282d3fdf9160448082019260009290919082900301818387803b1580156113bc57600080fd5b505af11580156113d0573d6000803e3d6000fd5b5050604080513381526020810186905281517fe2403640ba68fed3a2f88b7557551d1993f84b99bb10ff833f0cf8db0c5e04869450908190039091019150a150505b50506001600255565b6007546001600160a01b031681565b6001546001600160a01b031681565b6114416120ed565b600061144b611b34565b600c55611456611ab6565b600b556001600160a01b0381161561149d576114718161074a565b6001600160a01b038216600090815260116020908152604080832093909355600c546010909152919020555b4282116114f1576040805162461bcd60e51b815260206004820152601d60248201527f74696d657374616d702063616e7420626520696e207468652070617374000000604482015290519081900360640190fd5b50600855565b600d5481565b6003546001600160a01b031681565b61151461232b565b6001600160a01b038116600081815260056020908152604091829020805460ff19166001179055815192835290517fbc7abdf8533487db28f8c616affbb4e122d90c5ab8deb258fd21b09cee5957309281900390910190a150565b7f000000000000000000000000000000000000000000000000000000000000000081565b6001600160a01b031660009081526012602052604090205490565b6001546001600160a01b031633146115f75760405162461bcd60e51b81526004018080602001828103825260358152602001806128206035913960400191505060405180910390fd5b600054600154604080516001600160a01b03938416815292909116602083015280517fb532073b38c83145e3e5135377a08bf9aab55bc0fd7c1179cd4fb995d2a5159c9281900390910190a160018054600080546001600160a01b03199081166001600160a01b03841617909155169055565b6002805414156116c1576040805162461bcd60e51b815260206004820152601f60248201527f5265656e7472616e637947756172643a207265656e7472616e742063616c6c00604482015290519081900360640190fd5b600280556116cd612374565b600754600160a01b900460ff161515600114611730576040805162461bcd60e51b815260206004820152601860248201527f6d75737420696e697469616c69736520636f6e74726163740000000000000000604482015290519081900360640190fd5b33611739611b34565b600c55611744611ab6565b600b556001600160a01b0381161561178b5761175f8161074a565b6001600160a01b038216600090815260116020908152604080832093909355600c546010909152919020555b42836117de576040805162461bcd60e51b815260206004820152601d60248201527f616d6f756e74206d7573742062652067726561746572207468616e2030000000604482015290519081900360640190fd5b62093a808310156118205760405162461bcd60e51b815260040180806020018281038252602481526020018061287b6024913960400191505060405180910390fd5b630784ce008311156118635760405162461bcd60e51b815260040180806020018281038252602f815260200180612923602f913960400191505060405180910390fd5b837f00000000000000000000000000000000000000000000000000000000000000006001600160a01b03166370a08231336040518263ffffffff1660e01b815260040180826001600160a01b0316815260200191505060206040518083038186803b1580156118d157600080fd5b505afa1580156118e5573d6000803e3d6000fd5b505050506040513d60208110156118fb57600080fd5b50511015611950576040805162461bcd60e51b815260206004820152601460248201527f696e73756666696369656e742062616c616e6365000000000000000000000000604482015290519081900360640190fd5b33600090815260126020526040902054156119b2576040805162461bcd60e51b815260206004820152601660248201527f77697468647261772062616c616e636520666972737400000000000000000000604482015290519081900360640190fd5b6119e76001600160a01b037f0000000000000000000000000000000000000000000000000000000000000000163330876123e2565b600d546119f49085612093565b600d55611a018484612455565b611a0a33610944565b604080513381526020810186905281517f6340a0e6b8ea35da618479a712fc50894736e440f8adf9c52f61e62b52b1d97a929181900390910190a1505060016002555050565b60095481565b611a5e61232b565b6001600160a01b038116600081815260056020908152604091829020805460ff19169055815192835290517f1d151c462eeb58aee164dc41052653b56a30977abfd464105694f5dc1398171f9281900390910190a150565b6000610a814260085461253b565b6001600160a01b038116600090815260126020526040812060010154819042908110611b06576001600160a01b03841660009081526012602052604090205491505b5092915050565b60106020526000908152604090205481565b6000546001600160a01b031681565b600b5481565b6000600d5460001415611b4a5750600c54610a84565b610a81611b73600d546107b6670de0b6b3a7640000610826600954610826600b54610791611ab6565b600c5490612093565b60056020526000908152604090205460ff1681565b600e5481565b600c5481565b6006546001600160a01b031681565b611bb46120ed565b6007546001600160a01b0382811691161415611c17576040805162461bcd60e51b815260206004820152601260248201527f53616d652052657761726473457363726f770000000000000000000000000000604482015290519081900360640190fd5b600780546001600160a01b0383166001600160a01b0319909116811790915560408051918252517f9c750ed4e833568ad4fc10d44629be465d8bae186044ff6fdd0865d482b51a169181900360200190a150565b611c7c611c7733611ac4565b610ce2565b611c846111e8565b565b60085481565b4281611cdf576040805162461bcd60e51b815260206004820152601d60248201527f616d6f756e74206d7573742062652067726561746572207468616e2030000000604482015290519081900360640190fd5b817f00000000000000000000000000000000000000000000000000000000000000006001600160a01b03166370a08231336040518263ffffffff1660e01b815260040180826001600160a01b0316815260200191505060206040518083038186803b158015611d4d57600080fd5b505afa158015611d61573d6000803e3d6000fd5b505050506040513d6020811015611d7757600080fd5b50511015611dcc576040805162461bcd60e51b815260206004820152601460248201527f696e73756666696369656e742062616c616e6365000000000000000000000000604482015290519081900360640190fd5b33600090815260126020526040902054611e2d576040805162461bcd60e51b815260206004820152601760248201527f6e6f206c6f636b656442616c616e636520657869737473000000000000000000604482015290519081900360640190fd5b336000908152601260205260409020600101548110611e93576040805162461bcd60e51b815260206004820152601660248201527f77697468647261772062616c616e636520666972737400000000000000000000604482015290519081900360640190fd5b611ec86001600160a01b037f0000000000000000000000000000000000000000000000000000000000000000163330856123e2565b600d54611ed59083612093565b600d5533600090815260126020526040902054611ef29083612093565b33600081815260126020526040902091909155610c1090610944565b611f1661232b565b600480546001600160a01b0383166001600160a01b0319909116811790915560408051918252517f1c58cfd31540f5b6a8cfbbe7c225cfccf4ee83b8691dc4d4d0a23a3ef02be5849181900360200190a150565b600082821115611fc1576040805162461bcd60e51b815260206004820152601e60248201527f536166654d6174683a207375627472616374696f6e206f766572666c6f770000604482015290519081900360640190fd5b508082035b92915050565b600082611fdb57506000611fc6565b82820282848281611fe857fe5b04146120255760405162461bcd60e51b81526004018080602001828103825260218152602001806128ce6021913960400191505060405180910390fd5b9392505050565b6000808211612082576040805162461bcd60e51b815260206004820152601a60248201527f536166654d6174683a206469766973696f6e206279207a65726f000000000000604482015290519081900360640190fd5b81838161208b57fe5b049392505050565b600082820183811015612025576040805162461bcd60e51b815260206004820152601b60248201527f536166654d6174683a206164646974696f6e206f766572666c6f770000000000604482015290519081900360640190fd5b6000546001600160a01b03163314611c845760405162461bcd60e51b815260040180806020018281038252602f81526020018061289f602f913960400191505060405180910390fd5b604080516001600160a01b038416602482015260448082018490528251808303909101815260649091019091526020810180516001600160e01b03167fa9059cbb000000000000000000000000000000000000000000000000000000001790526121a1908490612551565b505050565b3360009081526012602052604090206001015442908110610c1057336000908152601260205260409020548214156121f35733600090815260126020526040812081815560010155610c10565b3360009081526012602052604090205461220d9083611f6a565b336000908152601260205260409020555050565b60006122b782856001600160a01b031663dd62ed3e30876040518363ffffffff1660e01b815260040180836001600160a01b03168152602001826001600160a01b031681526020019250505060206040518083038186803b15801561228557600080fd5b505afa158015612299573d6000803e3d6000fd5b505050506040513d60208110156122af57600080fd5b505190612093565b604080516001600160a01b038616602482015260448082018490528251808303909101815260649091019091526020810180516001600160e01b03167f095ea7b300000000000000000000000000000000000000000000000000000000179052909150612325908590612551565b50505050565b6003546001600160a01b03163314611c845760405162461bcd60e51b81526004018080602001828103825260348152602001806128ef6034913960400191505060405180910390fd5b3360009081526005602052604090205460ff168061239157503332145b611c84576040805162461bcd60e51b815260206004820152601860248201527f4163636573732064656e69656420666f722063616c6c65720000000000000000604482015290519081900360640190fd5b604080516001600160a01b0380861660248301528416604482015260648082018490528251808303909101815260849091019091526020810180516001600160e01b03167f23b872dd00000000000000000000000000000000000000000000000000000000179052612325908590612551565b3360009081526012602052604090206001015442908111156124cb576040805180820182523360009081526012602052919091205481906124969086612093565b81526020016124a58385612093565b9052336000908152601260209081526040909120825181559101516001909101556121a1565b6040805180820182523360009081526012602052919091205481906124f09086612093565b8152336000908152601260209081526040909120600101549101906125159085612093565b905233600090815260126020908152604090912082518155910151600190910155505050565b600081831061254a5781612025565b5090919050565b60606125a6826040518060400160405280602081526020017f5361666545524332303a206c6f772d6c6576656c2063616c6c206661696c6564815250856001600160a01b03166126029092919063ffffffff16565b8051909150156121a1578080602001905160208110156125c557600080fd5b50516121a15760405162461bcd60e51b815260040180806020018281038252602a815260200180612988602a913960400191505060405180910390fd5b60606126118484600085612619565b949350505050565b60608247101561265a5760405162461bcd60e51b81526004018080602001828103825260268152602001806128556026913960400191505060405180910390fd5b61266385612775565b6126b4576040805162461bcd60e51b815260206004820152601d60248201527f416464726573733a2063616c6c20746f206e6f6e2d636f6e7472616374000000604482015290519081900360640190fd5b60006060866001600160a01b031685876040518082805190602001908083835b602083106126f35780518252601f1990920191602091820191016126d4565b6001836020036101000a03801982511681845116808217855250505050505090500191505060006040518083038185875af1925050503d8060008114612755576040519150601f19603f3d011682016040523d82523d6000602084013e61275a565b606091505b509150915061276a82828661277b565b979650505050505050565b3b151590565b6060831561278a575081612025565b82511561279a5782518084602001fd5b8160405162461bcd60e51b81526004018080602001828103825283818151815260200191508051906020019080838360005b838110156127e45781810151838201526020016127cc565b50505050905090810190601f1680156128115780820380516001836020036101000a031916815260200191505b509250505060405180910390fdfe596f75206d757374206265206e6f6d696e61746564206265666f726520796f752063616e20616363657074206f776e657273686970416464726573733a20696e73756666696369656e742062616c616e636520666f722063616c6c6d757374206c6f636b20746f6b656e7320666f72206174206c656173742031207765656b4f6e6c792074686520636f6e7472616374206f776e6572206d617920706572666f726d207468697320616374696f6e536166654d6174683a206d756c7469706c69636174696f6e206f766572666c6f774f6e6c792074686520636f6e747261637420676f7665726e616e6365206d617920706572666f726d207468697320616374696f6e6d757374206c6f636b20746f6b656e7320666f72206c657373207468616e2f657175616c20746f2020342079656172596f75206d757374206265206e6f6d696e61746564206265666f726520796f752063616e2061636365707420676f7665726e616e63655361666545524332303a204552433230206f7065726174696f6e20646964206e6f742073756363656564a264697066735822122014d85ab3f6d3fd923a44ea0d7e0c895ea91b42d73c4d05d9f57558ceee7b41b364736f6c63430007030033",
  "linkReferences": {},
  "deployedLinkReferences": {}
}