{
  "_format": "hh-sol-artifact-1",
  "contractName": "CouncilControlled",
  "sourceName": "contracts/CouncilControlled.sol",
  "abi": [
    {
      "inputs": [
        {
          "internalType": "address",
          "name": "_council",
          "type": "address"
        },
        {
          "internalType": "contract IRegion",
          "name": "_region",
          "type": "address"
        }
      ],
      "stateMutability": "nonpayable",
      "type": "constructor"
    },
    {
      "anonymous": false,
      "inputs": [
        {
          "indexed": false,
          "internalType": "bytes2",
          "name": "_region",
          "type": "bytes2"
        },
        {
          "indexed": false,
          "internalType": "address",
          "name": "oldCouncil",
          "type": "address"
        },
        {
          "indexed": false,
          "internalType": "address",
          "name": "newCouncil",
          "type": "address"
        }
      ],
      "name": "CouncilChanged",
      "type": "event"
    },
    {
      "anonymous": false,
      "inputs": [
        {
          "indexed": false,
          "internalType": "bytes2",
          "name": "_region",
          "type": "bytes2"
        },
        {
          "indexed": false,
          "internalType": "address",
          "name": "newCouncil",
          "type": "address"
        }
      ],
      "name": "CouncilNominated",
      "type": "event"
    },
    {
      "inputs": [
        {
          "internalType": "bytes2",
          "name": "_region",
          "type": "bytes2"
        }
      ],
      "name": "acceptCouncil",
      "outputs": [],
      "stateMutability": "nonpayable",
      "type": "function"
    },
    {
      "inputs": [
        {
          "internalType": "bytes2",
          "name": "",
          "type": "bytes2"
        }
      ],
      "name": "council",
      "outputs": [
        {
          "internalType": "address",
          "name": "",
          "type": "address"
        }
      ],
      "stateMutability": "view",
      "type": "function"
    },
    {
      "inputs": [
        {
          "internalType": "bytes2",
          "name": "_region",
          "type": "bytes2"
        }
      ],
      "name": "getCouncil",
      "outputs": [
        {
          "internalType": "address",
          "name": "",
          "type": "address"
        }
      ],
      "stateMutability": "view",
      "type": "function"
    },
    {
      "inputs": [
        {
          "internalType": "address",
          "name": "_council",
          "type": "address"
        },
        {
          "internalType": "bytes2",
          "name": "_region",
          "type": "bytes2"
        }
      ],
      "name": "nominateFirstCouncil",
      "outputs": [],
      "stateMutability": "nonpayable",
      "type": "function"
    },
    {
      "inputs": [
        {
          "internalType": "address",
          "name": "_council",
          "type": "address"
        },
        {
          "internalType": "bytes2",
          "name": "_region",
          "type": "bytes2"
        }
      ],
      "name": "nominateNewCouncil",
      "outputs": [],
      "stateMutability": "nonpayable",
      "type": "function"
    },
    {
      "inputs": [
        {
          "internalType": "bytes2",
          "name": "",
          "type": "bytes2"
        }
      ],
      "name": "nominatedCouncil",
      "outputs": [
        {
          "internalType": "address",
          "name": "",
          "type": "address"
        }
      ],
      "stateMutability": "view",
      "type": "function"
    }
  ],
  "bytecode": "0x608060405234801561001057600080fd5b506040516107853803806107858339818101604052604081101561003357600080fd5b5080516020909101516001600160a01b038216610097576040805162461bcd60e51b815260206004820152601b60248201527f436f756e63696c20616464726573732063616e6e6f7420626520300000000000604482015290519081900360640190fd5b61575760f01b600090815260016020527f471dea3488b25171a4f24a9d3027b5b6e5b1ad626fb0c51efbffd757077f8b8580546001600160a01b03199081166001600160a01b0395861617909155815416919092161781556106869081906100ff90396000f3fe608060405234801561001057600080fd5b50600436106100725760003560e01c806341f321ba1161005057806341f321ba146101285780636721912d1461014f578063897be3191461017657610072565b806302e26bbf1461007757806303985f5c146100af5780630df5199c146100f2575b600080fd5b6100ad6004803603604081101561008d57600080fd5b5080356001600160a01b031690602001356001600160f01b03191661019d565b005b6100d6600480360360208110156100c557600080fd5b50356001600160f01b031916610227565b604080516001600160a01b039092168252519081900360200190f35b6100ad6004803603604081101561010857600080fd5b5080356001600160a01b031690602001356001600160f01b03191661024c565b6100ad6004803603602081101561013e57600080fd5b50356001600160f01b03191661042d565b6100d66004803603602081101561016557600080fd5b50356001600160f01b031916610553565b6100d66004803603602081101561018c57600080fd5b50356001600160f01b03191661056e565b806101a781610589565b6001600160f01b03198216600081815260026020908152604091829020805473ffffffffffffffffffffffffffffffffffffffff19166001600160a01b03881690811790915582519384529083015280517f0e1920e6f447b3052bc400d8341bed9539c216d1ba43bc32188c063449826a859281900390910190a1505050565b6001600160f01b0319166000908152600160205260409020546001600160a01b031690565b60008054906101000a90046001600160a01b03166001600160a01b031663aed621c06040518163ffffffff1660e01b815260040160206040518083038186803b15801561029857600080fd5b505afa1580156102ac573d6000803e3d6000fd5b505050506040513d60208110156102c257600080fd5b50516102cd81610589565b600054604080517f4c0df29f0000000000000000000000000000000000000000000000000000000081526001600160f01b03198516600482015290516001600160a01b0390921691634c0df29f91602480820192602092909190829003018186803b15801561033b57600080fd5b505afa15801561034f573d6000803e3d6000fd5b505050506040513d602081101561036557600080fd5b50516103b8576040805162461bcd60e51b815260206004820152601360248201527f726567696f6e20646f65736e7420657869737400000000000000000000000000604482015290519081900360640190fd5b6001600160f01b031982166000908152600160205260409020546001600160a01b0316156101a7576040805162461bcd60e51b815260206004820152601c60248201527f726567696f6e20616c726561647920686173206120636f756e63696c00000000604482015290519081900360640190fd5b6001600160f01b031981166000908152600260205260409020546001600160a01b0316331461048d5760405162461bcd60e51b815260040180806020018281038252603381526020018061061e6033913960400191505060405180910390fd5b6001600160f01b0319811660008181526001602090815260408083205460028352928190205481519485526001600160a01b0393841692850192909252911682820152517f70eead57b11446e1c2620407fb9805c01d1edb27416014de445c534d24126b4e9181900360600190a16001600160f01b03191660009081526002602081815260408084208054600184529190942080546001600160a01b0390921673ffffffffffffffffffffffffffffffffffffffff199283161790559190528154169055565b6001602052600090815260409020546001600160a01b031681565b6002602052600090815260409020546001600160a01b031681565b6001600160f01b031981166000908152600160205260409020546001600160a01b031633146105e95760405162461bcd60e51b81526004018080602001828103825260318152602001806105ed6031913960400191505060405180910390fd5b5056fe4f6e6c792074686520636f6e747261637420636f756e63696c206d617920706572666f726d207468697320616374696f6e596f75206d757374206265206e6f6d696e61746564206265666f726520796f752063616e2061636365707420636f756e63696ca2646970667358221220599c82705187aac61325cb68fc819ade05386c3eb05ae2d475cc707714e54e0564736f6c63430007030033",
  "linkReferences": {},
  "deployedLinkReferences": {}
}